:100000000C9475030C9492030C9492030C94920339
:100010000C9492030C9492030C9492030C9492030C
:100020000C9492030C9492030C9492030C949203FC
:100030000C9492030C9492030C9492030C949203EC
:100040000C9492030C9492030C9492030C949203DC
:100050000C9492030C9492030C9492030C949203CC
:100060000C9492030C949203084AD73B3BCE016E4A
:1000700084BCBFFDC12F3D6C74319ABD56833DDAFF
:100080003D00C77F11BED9E4BB4C3E916BAAAABE0E
:10009000000000803F05A84CCDB2D44EB93836A937
:1000A000020C50B9918688083CA6AAAA2ABE000074
:1000B00000803F004E414E494E495459494E46CD6D
:1000C000CCCC3D0AD7233C17B7D13877CC2B32950F
:1000D00095E6241FB14F0A000020410000C84200ED
:1000E000401C4620BCBE4CCA1B0E5AAEC59D7400B7
:1000F000407A10F35A00A0724E18090010A5D4E8F7
:100100000000E87648170000E40B54020000CA9A89
:100110003B000000E1F505000080969800000040DB
:10012000420F000000A08601000000102700000020
:1001300000E803000000006400000000000A000066
:100140000000000100000000002C76D888DC674F1A
:100150000823DFC1DFAE59E1B1B796E5E3E453C64A
:100160003AE651997696E8E6C28426EB898C9B6242
:10017000ED407C6FFCEFBC9C9F40F2BAA56FA5F4EC
:1001800090055A2AF75C936B6CF9676DC11BFCE014
:10019000E40D47FEF520E6B500D0ED902E03009467
:1001A0003577050080841E080000204E0A000000FC
:1001B000C80C333333330F986E12831141EF8D2106
:1001C00014893BE65516CFFEE6DB18D1844B381B6D
:1001D000F77C1D901DA4BBE424203284725E228132
:1001E00000C9F124ECA1E53D2700000000003E5BC2
:1001F0004F5B3E3E6B4F6B3E1C3E7C3E1C183C7E74
:100200003C181C577D571C1C5E7F5E1C00183C1858
:1002100000FFE7C3E7FF0018241800FFE7DBE7FF54
:1002200030483A060E2629792926407F05050740E1
:100230007F05253F5A3CE73C5A7F3E1C1C08081CA2
:100240001C3E7F14227F22145F5F005F5F06097FE0
:10025000017F006689956A606060606094A2FFA279
:100260009408047E040810207E201008082A1C0828
:10027000081C2A08081E101010100C1E0C1E0C3032
:10028000383E3830060E3E0E06000000000000002A
:100290005F00000007000700147F147F14242A7FEA
:1002A0002A122313086462364956205000080703B7
:1002B00000001C2241000041221C002A1C7F1C2A35
:1002C00008083E0808008070300008080808080088
:1002D0000060600020100804023E5149453E004283
:1002E0007F400072494949462141494D3318141253
:1002F0007F1027454545393C4A494931412111097B
:10030000073649494936464949291E00001400006C
:100310000040340000000814224114141414140086
:100320004122140802015909063E415D594E7C12D2
:1003300011127C7F494949363E414141227F41416A
:10034000413E7F494949417F090909013E414151E7
:10035000737F0808087F00417F41002040413F0132
:100360007F081422417F404040407F021C027F7F73
:100370000408107F3E4141413E7F090909063E4184
:1003800051215E7F09192946264949493203017FD7
:1003900001033F4040403F1F2040201F3F40384066
:1003A0003F631408146303047804036159494D43FF
:1003B000007F4141410204081020004141417F0477
:1003C000020102044040404040000307080020545E
:1003D0005478407F284444383844444428384444BE
:1003E000287F385454541800087E090218A4A49C8D
:1003F000787F0804047800447D40002040403D00A0
:100400007F1028440000417F40007C047804787C01
:10041000080404783844444438FC18242418182468
:100420002418FC7C08040408485454542404043F51
:1004300044243C4040207C1C2040201C3C40304058
:100440003C44281028444C9090907C4464544C4484
:100450000008364100000077000000413608000225
:10046000010204023C2623263C1EA1A161123A404F
:1004700040207A38545455592155557941225454C5
:100480007842215554784020545579400C1E5272C0
:10049000123955555559395454545939555454589D
:1004A0000000457C410002457D420001457C407DC5
:1004B0001211127DF0282528F07C54554500205457
:1004C000547C547C0A097F4932494949323A4444B0
:1004D000443A324A4848303A4141217A3A4240202F
:1004E00078009DA0A07D3D4242423D3D4040403DC0
:1004F0003C24FF2424487E4943662B2FFC2F2BFFEE
:100500000929F620C0887E0903205454794100004F
:10051000447D413048484A32384040227A007A0AC5
:100520000A727D0D19317D2629292F28262929298E
:100530002630484D402038080808080808080838C0
:100540002F10C8ACBA2F102834FA00007B00000826
:10055000142A142222142A14085500550055AA55AD
:10056000AA55AAFF55FF55FF000000FF001010100C
:10057000FF00141414FF001010FF00FF1010F01003
:10058000F0141414FC001414F700FF0000FF00FF27
:100590001414F404FC141417101F10101F101F144F
:1005A00014141F00101010F0000000001F10101095
:1005B000101F10101010F010000000FF101010108D
:1005C0001010101010FF10000000FF140000FF00BA
:1005D000FF00001F10170000FC04F414141710177C
:1005E0001414F404F40000FF00F714141414141489
:1005F00014F700F7141414171410101F101F1414FC
:1006000014F4141010F010F000001F101F00000070
:100610001F14000000FC140000F010F01010FF1078
:10062000FF141414FF141010101F00000000F0102D
:10063000FFFFFFFFFFF0F0F0F0F0FFFFFF00000012
:100640000000FFFF0F0F0F0F0F3844443844FC4ADF
:100650004A4A347E02020606027E027E0263554941
:1006600041633844443C04407E201E2006027E0242
:100670000299A5E7A5991C2A492A1C4C7201724CC3
:10068000304A4D4D303048784830BC625A463D3E85
:10069000494949007E0101017E2A2A2A2A2A444426
:1006A0005F444440514A444040444A51400000FFA6
:1006B0000103E080FF000008086B6B083612362447
:1006C00036060F090F060000181800000010100071
:1006D0003040FF0101001F01011E00191D1712000B
:1006E0003C3C3C3C00000000000011241FBECFEF4A
:1006F000D8E0DEBFCDBF12E0A0E0B1E0E8EBFFE361
:1007000002C005900D92A637B107D9F723E0A6E7FE
:10071000B2E001C01D92A33EB207E1F70E94E813C8
:100720000C94DA1F0C9400004F925F926F927F92AC
:100730008F929F92AF92BF92CF92DF92EF92FF92F1
:100740000F931F93CF93DF93CDB7DEB7C759D14037
:100750000FB6F894DEBF0FBECDBFC857DE4F68831B
:1007600079838A839B83C858D140C457DE4F28833E
:1007700039834A835B83CC58D14080918D0290911C
:100780008E02A0918F02B0919002C058DE4F8883F4
:100790009983AA83BB83C058D1402BED3FE049E445
:1007A00050E4BC01CD010E94641720E030E044E336
:1007B00053E40E943515C458DE4F688379838A83D9
:1007C0009B83CC57D1404090910250909202609010
:1007D0009302709094022BED3FE049E450E4C85737
:1007E000DE4F688179818A819B81C858D1400E94FF
:1007F000641720E030E044E353E40E943515CC5602
:10080000DE4F688379838A839B83C459D140C05863
:10081000DE4F288139814A815B81C058D140C85759
:10082000DE4F688179818A819B81C858D1400E94BE
:100830004C142BED3FE049E450E40E94641720E0A3
:1008400030E044E353E40E94351520E030E040E01E
:100850005FE30E9464170E94D1176B017C01C458AA
:10086000DE4F688179818A819B81CC57D1400E947B
:100870003015C057DE4F688379838A839B83C059C4
:10088000D140CC56DE4F688179818A819B81C459E1
:10089000D1400E943015CC57DE4F688379838A831C
:1008A0009B83C458D140A3019201C457DE4F688195
:1008B00079818A819B81CC58D1400E944C142BEDC8
:1008C0003FE049E450E40E94641720E030E044E354
:1008D00053E40E94351520E030E040E05FE30E94E1
:1008E00064170E94D1174B015C01CC57DE4F288161
:1008F00039814A815B81C458D140C057DE4F68813D
:1009000079818A819B81C059D1400E946417A501D9
:1009100094010E946417A50194010E9464174B0181
:100920005C01A7019601C701B6010E9464179B01F3
:10093000AC01C501B4010E944D146B017C01AC01F6
:100940009B0160E070E080E89FE30E944C140E94ED
:10095000DF174B015C01C701B6010E94DF17A5013B
:1009600094010E94CC149B01AC010E944D1420E71D
:100970003DE642EC5AE40E94641728E439EF41E571
:1009800050E40E9464170E94A71570938C02609334
:100990008B022BED3FE049E450E4C457DE4F688101
:1009A00079818A819B81CC58D1400E94641720E0D4
:1009B00030E044E353E40E9435156B017C012BEDDC
:1009C0003FE049E450E4C301B2010E94641720E013
:1009D00030E044E353E40E9435159B01AC01C701AC
:1009E000B6010E944C146B017C010E94D1172B01AF
:1009F0003C01CC56DE4F688179818A819B81C45944
:100A0000D1400E94D1174B015C01C458DE4F688170
:100A100079818A819B81CC57D1400E94D117C458DB
:100A2000DE4F688379838A839B83CC57D140C7018B
:100A3000B6010E9430156B017C01A3019201CC57D5
:100A4000DE4F688179818A819B81C458D1400E94A0
:100A500064172B013C01A5019401C057DE4F68814A
:100A600079818A819B81C059D1400E9464174B01D2
:100A70005C01C458DE4F288139814A815B81CC57A3
:100A8000D140CC57DE4F688179818A819B81C458DF
:100A9000D1400E946417A70196010E9464179B0130
:100AA000AC01C501B4010E944C14A30192010E9443
:100AB000CC1420E030E044E353E40E9464172BEDB3
:100AC0003FE049E450E40E9435156B017C01C0927F
:100AD000E002D092E102E092E202F092E30220E032
:100AE00030E044EB51EC0E94571718160CF0C0C0D0
:100AF00020E030E044EB51E4C701B6010E942B1521
:100B000018160CF4B5C01092B2021092B10260E255
:100B100071E08AE992E00E941B196E019BEEC91AEE
:100B20009EEFD90A860127E04AE0C058DE4F68816F
:100B300079818A819B81C058D1400E94A9185E01A9
:100B4000A7EDAA1AAEEFBA0A6091910270919202D3
:100B50008091930290919402850127E04AE00E94DF
:100B6000A9182E01BFEA4B1ABEEF5B0A820127E0EB
:100B70004AE0C857DE4F688179818A819B81C858D5
:100B8000D1400E94A9187E0183ECE81A8EEFF80A82
:100B9000870127E04AE0C457DE4F688179818A8166
:100BA0009B81CC58D1400E94A9184E0191E0890E3A
:100BB000991E6091E0027091E1028091E2029091B1
:100BC000E302840127E04AE00E94A9183E01ABE954
:100BD0006A1AAEEF7A0A60918B0270918C02072E2E
:100BE000000C880B990B0E94DF15830127E04CE075
:100BF0000E94A9187F926F929F928F92CE01875880
:100C00009E4F9F938F93BF92AF92DF92CF92FF92AE
:100C1000EF925F924F9288E391E09F938F9381E0F0
:100C20008F931F92045611401F930F930E946819CF
:100C3000C8010E94D5080FB6F894DEBF0FBECDBF25
:100C4000C956DE4F0FB6F894DEBF0FBECDBFDF91A1
:100C5000CF911F910F91FF90EF90DF90CF90BF90B9
:100C6000AF909F908F907F906F905F904F9008957E
:100C700020E030E044EB51E4C701B6010E94571771
:100C800018169CF420E030E047E852E4C701B601B2
:100C90000E942B1518164CF081E090E09093B20260
:100CA0008093B10263E271E034CF20E030E047E8A6
:100CB00052E4C701B6010E94571718169CF420E0B1
:100CC00030E041EE52E4C701B6010E942B15181620
:100CD0004CF082E090E09093B2028093B10266E221
:100CE00071E017CF20E030E041EE52E4C701B601D9
:100CF0000E94571718169CF420E030E84DE153E4A9
:100D0000C701B6010E942B1518164CF083E090E045
:100D10009093B2028093B10269E271E0FACE20E0D2
:100D200030E84DE153E4C701B6010E945717181689
:100D300054F020E030E84DE153ECC701B6010E94C9
:100D40002B1518164CF084E090E09093B20280933B
:100D5000B1026CE271E0DDCE20E030E84DE153EC11
:100D6000C701B6010E94571718169CF420E030E026
:100D700041EE52ECC701B6010E942B1518164CF03B
:100D800085E090E09093B2028093B1026FE271E04F
:100D9000C0CE20E030E041EE52ECC701B6010E9427
:100DA000571718169CF420E030E047E852ECC701D2
:100DB000B6010E942B1518164CF086E090E0909337
:100DC000B2028093B10262E371E0A3CE87E090E0CB
:100DD0009093B2028093B10265E371E09ACECF9214
:100DE000DF92EF92FF920F931F93CF93DF93CDB7D4
:100DF000DEB7C852D1400FB6F894DEBF0FBECDBFEC
:100E000040917D0250917E0260917F02709180023C
:100E100040938D0250938E0260938F0270939002E4
:100E200080919E0290919F02A091A002B091A10298
:100E30008093910290939202A0939302B0939402B4
:100E40002091E802233549F4705840938D02509365
:100E50008E0260938F02709390022091B00227352A
:100E600049F4B0588093910290939202A093930218
:100E7000B09394027E0181E0E80EF81E60918D022D
:100E800070918E0280918F0290919002870127E0ED
:100E90004AE00E94A9186E019BEEC91A9EEFD90A7A
:100EA00060919102709192028091930290919402CC
:100EB000860127E04AE00E94A918E091C7027091DC
:100EC000BB02809181026091C50250919D024091C8
:100ED000AB023091D70220918A029091D102045145
:100EE0001140E11135C01F927F931F928F931F9283
:100EF0001F921F926F931F925F931F924F931F92A7
:100F00003F931F922F931F929F9381E891E09F93AD
:100F10008F9381E08F931F921F930F930E94681904
:100F20000FB6F894DEBF0FBECDBFC8010E94D50832
:100F3000C85DDE4F0FB6F894DEBF0FBECDBFDF91A8
:100F4000CF911F910F91FF90EF90DF90CF90089578
:100F50001F927F931F928F931F9281E08F93DF9256
:100F6000CF927091B002E72F072E000CFF0BFF937A
:100F70007F93FF92EF927091E802E72F072E000C0B
:100F8000FF0BFF937F931F926F931F925F931F92AC
:100F90004F931F923F931F922F931F929F932EEC7C
:100FA00031E03F932F938F931F921F930F930E94D3
:100FB0006819B6CFE091C702E1110C94940308952B
:100FC000AF92BF92CF92DF92EF92FF920F931F9357
:100FD000CF93DF93CDB7DEB7C258D1090FB6F894DF
:100FE000DEBF0FBECDBF8091C7029E012F5F3F4F76
:100FF0007901811126C063E372E0C9010E941B19C7
:101000004FEF6FEF8FEF0E94B8118C012AE030E0B4
:101010004AE050E062E370E0C7010E94AC12CE5794
:10102000DF4F0FB6F894DEBF0FBECDBFDF91CF917B
:101030001F910F91FF90EF90DF90CF90BF90AF90F6
:1010400008956E013FE6C30ED11C609104017091BA
:1010500005018091060190910701860127E04AE091
:101060000E94A9185E018BE5A80EB11C60910001D9
:10107000709101018091020190910301850127E0A7
:101080004AE00E94A918BF92AF92DF92CF928AE401
:1010900092E09F938F931F9282E3B82EBF92FF92AC
:1010A000EF920E946819009182021091830224E15C
:1010B00030E04FEE50E06AE070E08AE090E00E949D
:1010C000A1100091DE021091DF022AE030E04AE038
:1010D00050E062E370E0C7010E94AC126E0197E439
:1010E000C90ED11C60918D0270918E0280918F0289
:1010F00090919002860127E04AE00E94A918609131
:10110000910270919202809193029091940227E053
:101110004AE00E94A918DF92CF92CE01C3969F9316
:101120008F9387E592E09F938F931F92BF92FF92D8
:10113000EF920E946819009182021091830224E1CB
:1011400030E04FEE50E06AE070E08EE190E00E9407
:10115000A1100091DE021091DF022AE030E04EE1A2
:1011600050E062E370E0C7010E94AC120FB6F89441
:10117000DEBF0FBECDBF53CF8FE290E09093C5008E
:101180008093C400E1ECF0E08081886080838081FE
:101190008061808386E08093C20008959091C000B2
:1011A00095FFFCCF8093C60008950F931F93CF93B4
:1011B000DF938C01D0E0C0E0F80101900020E9F756
:1011C0003197E01BF10BCE17DF0728F0DF91CF91AD
:1011D0001F910F91089583E397E00197F1F7F801CC
:1011E000EC0FFD1F80810E94CE082196E5CF8091F3
:1011F000C00087FFFCCF8091C60008950E94F708C9
:101200008A3009F5E09176022091DF033091E00306
:10121000E20FF32FF11D10822091DF033091E003E4
:1012200092E02F3E390729F547E653E05093E0035B
:101230004093DF033093EC022093EB02109276028E
:1012400091E09093EE022091DF033091E003E09172
:10125000760291E09E0F90937602E20FF32FF11D3C
:10126000808390917602983718F097E790937602F2
:1012700008952FEE32E03093E0032093DF0327E65A
:1012800033E0D8CF1092EE0210927B0210927602D9
:101290008FEE92E09093E0038093DF0387E693E084
:1012A0009093EC028093EB021092BB0210928102A9
:1012B0001092D70210928A021092D1021092C502A7
:1012C00010929D021092AB021092E9021092B002AD
:1012D0001092E8021092C7021092AA021092A9027C
:1012E0001092E4021092E5021092E6021092E702D8
:1012F0001092860210928702109288021092890240
:101300001092AC021092AD021092AE021092AF0297
:101310001092DA021092DB021092DC021092DD02CF
:101320001092BC021092BD021092BE021092BF0237
:1013300010927702109278021092790210927A023B
:101340001092B3021092B4021092B5021092B6023B
:101350001092D3021092D4021092D5021092D602AB
:1013600008958091EE02089580937B020895109273
:10137000EE028091EB029091EC020895803354F0DC
:101380008A3314F4805308959FEB980F963010F42D
:101390008753089580E008954F925F926F927F92F5
:1013A0008F929F92AF92BF92CF92DF92EF92FF9275
:1013B0000F931F93CF93DF93CDB7DEB72E970FB662
:1013C000F894DEBF0FBECDBF7C01FC010190002070
:1013D000E9F73197E81BF90B6F0184E0C81AD108CF
:1013E000D701AC0DBD1D8C918A3209F03FC0870139
:1013F0000E0F1F1FF801339780810E94BE0990E1F4
:10140000899F50011124F801329780810E94BE0902
:101410008A0D9B2D911D42E0242F30E02C153D05B7
:10142000D0F0892B19F180E02E960FB6F894DEBF2C
:101430000FBECDBFDF91CF911F910F91FF90EF9025
:10144000DF90CF90BF90AF909F908F907F906F90E4
:101450005F904F9008952E0D3F1DF9012081022EBF
:10146000000C330B822793274F5FD6CF67E672E0DD
:10147000C7010E943119892B09F4DEC26CE270E0C9
:10148000C7010E9410198C010F5F1F4FC8010E94F5
:10149000C7186B017C010E94AE152B013C0120E1B5
:1014A00037E240E050E00E944E182093AB0244E641
:1014B000842E912CA12CB12CA50194010E944E18D0
:1014C00020939D02C301B201A50194010E944E1810
:1014D0006093C50220E030E040E85FE3C701B60159
:1014E0000E94251620E030E04AE754E40E94641789
:1014F0000E94AE157093AA026093A9026CE270E09C
:10150000C8010E9410197C018C010F5F1F4FFC0164
:1015100081818C3209F4DEC042E050E0B801CE0196
:1015200001960E9422191B82CE0101960E94E918A1
:101530004B015C01AC019B0160E876E988E990E031
:101540000E943E182B013C01B7016D5F7F4F42E0C6
:1015500050E0CE0101960E9422190B5F1F4F44E01C
:1015600050E0B801CE0103960E9422191F82CE01DD
:1015700001960E94E9189B01AC01A2E3B0E00E9431
:101580009E1823E030E040E050E00E9470186901AE
:101590007A01D301C2018C0D9D1DAE1DBF1D80932C
:1015A000A5029093A602A093A702B093A802C5013A
:1015B000B4010E94DF156B877C878D879E87C701EA
:1015C000B6010E94DF156B017C012CE933E549EC83
:1015D00056E30E9464174B015C0120E030E040E7D5
:1015E00052E40E9435152B853C854D855E850E9411
:1015F0004D1460937D0270937E0280937F029093DE
:101600008002C301B20120EA36E841E050E00E94C6
:101610007018CA01B9010E94DF15A50194010E944A
:101620004D144B015C018092D3029092D402A0929F
:10163000D502B092D60225E93FEB46ED53E3C70150
:10164000B6010E9464172B853C854D855E850E94FE
:101650004D146093B7027093B8028093B9029093CF
:10166000BA0220E030E048EC52E4C501B4010E9427
:1016700035150E94A7156B0184E68C9DB0018D9DE8
:10168000700D1124072E000C880B990B0E94DF159A
:101690009B01AC01C501B4010E944C1420E030E074
:1016A00040E752E40E9435154B015C01B601DD0CA8
:1016B000880B990B0E94DF159B01AC01C501B40199
:1016C0000E944D146093CD027093CE028093CF029E
:1016D0009093D0026CE270E0C8010E941019FC01E6
:1016E0009C012F5F3F4F91819C32C9F0933589F463
:1016F0004091CD025091CE026091CF027091D00204
:1017000070584093CD025093CE026093CF027093F5
:10171000D00291819E3409F071C19093E8026CE28D
:1017200070E0C9010E9410197C018C010F5F1F4FEE
:10173000FC0181818C3209F4DEC043E050E0B80145
:10174000CE0101960E9422191C82CE0101960E94B0
:10175000E9184B015C01AC019B0160E876E988E97E
:1017600090E00E943E182B013C01B7016C5F7F4F57
:1017700042E050E0CE0101960E9422190A5F1F4FFD
:1017800044E050E0B801CE0103960E9422191F8266
:10179000CE0101960E94E9189B01AC01A2E3B0E0E2
:1017A0000E949E1823E030E040E050E00E94701854
:1017B00069017A01D301C2018C0D9D1DAE1DBF1DB3
:1017C0008093C0029093C102A093C202B093C3025F
:1017D000C501B4010E94DF156B877C878D879E87CA
:1017E000C701B6010E94DF156B017C012CE933E5CE
:1017F00049EC56E30E9464174B015C0120E030E0A5
:1018000040E752E40E9435152B853C854D855E8569
:101810000E944D1460939E0270939F028093A002D9
:101820009093A102C301B20120EA36E841E050E002
:101830000E947018CA01B9010E94DF15A501940128
:101840000E944D144B015C018092B3029092B4024D
:10185000A092B502B092B60225E93FEB46ED53E304
:10186000C701B6010E9464172B853C854D855E85B6
:101870000E944D1460939502709396028093970294
:101880009093980220E030E048EC52E4C501B401A6
:101890000E9435150E94A7156B0184E68C9DB0014E
:1018A0008D9D700D1124072E000C880B990B0E9442
:1018B000DF159B01AC01C501B4010E944C1420E06E
:1018C00030E040E752E40E9435154B015C01B6015F
:1018D000DD0C880B990B0E94DF159B01AC01C50143
:1018E000B4010E944D146093C8027093C9028093A2
:1018F000CA029093CB026CE270E0C8010E941019FA
:10190000FC0181818C32C9F0873589F48091C8024D
:101910009091C902A091CA02B091CB02B0588093B5
:10192000C8029093C902A093CA02B093CB029181DE
:10193000973509F06CC09093B0026CE270E0CF0173
:1019400001960E9410198C010F5F1F4FFC018181CD
:101950008C3229F0C8010E94CB18809381026CE27E
:1019600070E0C8010E9410198C010F5F1F4FFC012D
:1019700081818C3229F0C8010E94CB188093BB0270
:101980006CE270E0C8010E9410198C010F5F1F4FBC
:10199000FC0181818C3259F0C8010E94C718609304
:1019A000E4027093E5028093E6029093E7026CE212
:1019B00070E0C8010E9410198C010F5F1F4FFC01DD
:1019C00081818C3259F0C8010E94C7186093BC0213
:1019D0007093BD028093BE029093BF026CE270E0F0
:1019E000C8010E9410196CE270E001960E94101963
:1019F000FC0121812C32A1F481E016CD933509F44C
:101A00008CCE9C3209F00FCD1092E80288CE95342E
:101A100009F491CF9C3209F006CD1092B0028DCF1F
:101A200001960E94C71860937702709378028093A2
:101A3000790290937A02E0CF6EE672E0C7010E94CD
:101A40003119892B09F4EFCC6CE270E0C7010E94D8
:101A500010198C010F5F1F4FC8010E94C7186B013E
:101A60007C010E94AE152B013C0120E137E240E0F1
:101A700050E00E944E182093AB0234E6832E912C46
:101A8000A12CB12CA50194010E944E1820939D0217
:101A9000C301B201A50194010E944E186093C502D2
:101AA00020E030E040E85FE3C701B6010E94251660
:101AB00020E030E04AE754E40E9464170E94AE152B
:101AC0007093AA026093A9026CE270E0C8010E94C0
:101AD0001019FC012181213409F07EC221E02093FC
:101AE000C7026CE270E001960E9410197C018C0123
:101AF0000F5F1F4FFC0181818C3209F4DEC042E090
:101B000050E0B801CE0101960E9422191B82CE013D
:101B100001960E94E9184B015C01AC019B0160E851
:101B200076E988E990E00E943E182B013C01B7015C
:101B30006D5F7F4F42E050E0CE0101960E94221976
:101B40000B5F1F4F44E050E0B801CE0103960E94A6
:101B500022191F82CE0101960E94E9189B01AC0157
:101B6000A2E3B0E00E949E1823E030E040E050E0A5
:101B70000E94701869017A01D301C2018C0D9D1D6C
:101B8000AE1DBF1D8093A5029093A602A093A7024D
:101B9000B093A802C501B4010E94DF156B877C8752
:101BA0008D879E87C701B6010E94DF156B017C01FE
:101BB0002CE933E549EC56E30E9464174B015C01C4
:101BC00020E030E040E752E40E9435152B853C854B
:101BD0004D855E850E944D1460937D0270937E0258
:101BE00080937F0290938002C301B20120EA36E81D
:101BF00041E050E00E947018CA01B9010E94DF154F
:101C0000A50194010E944D144B015C018092D30206
:101C10009092D402A092D502B092D60225E93FEB71
:101C200046ED53E3C701B6010E9464172B853C853E
:101C30004D855E850E944D146093B7027093B80283
:101C40008093B9029093BA0220E030E048EC52E46D
:101C5000C501B4010E9435150E94A7156B0184E6E9
:101C60008C9DB0018D9D700D1124072E000C880BEA
:101C7000990B0E94DF159B01AC01C501B4010E94C4
:101C80004C1420E030E040E752E40E9435154B014F
:101C90005C01B601DD0C880B990B0E94DF159B01DE
:101CA000AC01C501B4010E944D146093CD02709344
:101CB000CE028093CF029093D0026CE270E0C80114
:101CC0000E941019FC019C012F5F3F4F91819C32B3
:101CD000C9F0933589F44091CD025091CE026091C4
:101CE000CF027091D00270584093CD025093CE0233
:101CF0006093CF027093D00291819E3409F072C13B
:101D00009093E8026CE270E0C9010E9410197C0116
:101D10008C010F5F1F4FFC0181818C3209F4DEC002
:101D200043E050E0B801CE0101960E9422191C82C6
:101D3000CE0101960E94E9184B015C01AC019B01A8
:101D400060E876E988E990E00E943E182B013C01AA
:101D5000B7016C5F7F4F42E050E0CE0101960E94D8
:101D600022190A5F1F4F44E050E0B801CE010396EC
:101D70000E9422191F82CE0101960E94E9189B0140
:101D8000AC01A2E3B0E00E949E1823E030E040E006
:101D900050E00E94701869017A01D301C2018C0DD4
:101DA0009D1DAE1DBF1D8093C0029093C102A093E4
:101DB000C202B093C302C501B4010E94DF156B8754
:101DC0007C878D879E87C701B6010E94DF156B0156
:101DD0007C012CE933E549EC56E30E9464174B0182
:101DE0005C0120E030E040E752E40E9435152B858D
:101DF0003C854D855E850E944D1460939E027093D4
:101E00009F028093A0029093A102C301B20120EA35
:101E100036E841E050E00E947018CA01B9010E9402
:101E2000DF15A50194010E944D144B015C018092C5
:101E3000B3029092B402A092B502B092B60225E924
:101E40003FEB46ED53E3C701B6010E9464172B85B3
:101E50003C854D855E850E944D146093950270937C
:101E60009602809397029093980220E030E048EC2D
:101E700052E4C501B4010E9435150E94A7156B01FB
:101E800084E68C9DB0018D9D700D1124072E000CF1
:101E9000880B990B0E94DF159B01AC01C501B401B1
:101EA0000E944C1420E030E040E752E40E943515D7
:101EB0004B015C01B601DD0C880B990B0E94DF150C
:101EC0009B01AC01C501B4010E944D146093C8028E
:101ED0007093C9028093CA029093CB026CE270E0C7
:101EE000C8010E941019FC0181818C32C9F087352C
:101EF00089F48091C8029091C902A091CA02B09160
:101F0000CB02B0588093C8029093C902A093CA0232
:101F1000B093CB029181973509F06DC09093B002D8
:101F20006CE270E0CF0101960E9410198C010F5FE6
:101F30001F4FFC0181818C3259F0C8010E94C718E3
:101F40006093DA027093DB028093DC029093DD02EF
:101F50006CE270E0C8010E9410198C010F5F1F4FE6
:101F6000FC0181818C3259F0C8010E94C71860932E
:101F7000AC027093AD028093AE029093AF026CE21C
:101F800070E0C8010E941019FC0121812C3209F473
:101F900033CD01960E94C7180E94AE154B015C011B
:101FA00020E137E240E050E00E944E182093D70233
:101FB00024E6C22ED12CE12CF12CA70196010E941F
:101FC0004E1820938A02C501B401A70196010E9410
:101FD0004E186093D10210CD263509F024CA109214
:101FE000C7027FCD933509F48BCE9C3209F01BCA12
:101FF0001092E80287CE953409F490CF9C3209F014
:1020000012CA1092B0028CCF25B1982F9370922BE8
:1020100095B925B1982F9C6F922395B92BB1982F24
:102020009C7F922B9BB99BB1836089238BB941988C
:10203000419A08950F931F93CF93DF93EA01162FD0
:10204000072F439842980E940410429A802F0E94C2
:102050000410812F0E9404108D2F0E9404108C2FD9
:102060000E940410439ADF91CF911F910F91089520
:102070000F931F93CF93DF938B01E901B0E0A0E0B2
:10208000DC019927882770E060E0482B592B6A2BE8
:102090007B2B8AE20E941A10C801B0E0A0E0DC01AC
:1020A00099278827AE0170E060E0482B592B6A2BF6
:1020B0007B2B8BE2DF91CF911F910F910C941A1023
:1020C000AF92BF92CF92DF92EF92FF920F931F9346
:1020D000CF93DF935C016B017A01E9010E94381014
:1020E000439842988CE20E940410429A97012F5F15
:1020F0003F4F2A193B09DE011196AC19BD090E9418
:102100008F186B017C0181E0C81AD108E108F10841
:102110008FEFC816D806E806F80661F4439ADF91F7
:10212000CF911F910F91FF90EF90DF90CF90BF90D4
:10213000AF900895812F0E940410802F0E940410F8
:10214000E2CF0F931F934817590760F02617370700
:1021500048F0403F510530F42034E1E03E0710F4F0
:102160000E9460101F910F9108950F931F930FEF1E
:102170001FEF2FE331E04FEE50E070E060E090E0C1
:1021800080E00E9460100CEE1FE128EC30E048E790
:1021900050E06EE170E084E190E00E94601008E49D
:1021A00019EF2EE031E046E950E064EB70E086E4A0
:1021B00090E00E9460100FE510E62CE231E04CED5B
:1021C00050E06AE070E080EA90E00E94601005E470
:1021D00016EE28E730E04AEA50E062E370E080E57E
:1021E00090E00E9460100FE91FE12BE331E048EC22
:1021F00050E062E870E082E890E00E9460100FEF2B
:1022000010EF2CE231E042E850E064E071E08AE057
:1022100090E00E9460100FE118EF2CE830E04CE8ED
:1022200050E064E670E084E690E00E9460101F9148
:102230000F9108951F93CF93DF93182FEB014398CD
:102240004298892F0E940410812F0E940410429A04
:102250008D2F0E9404108C2F0E940410439ADF914E
:10226000CF911F910895CF93C62F439842980E9413
:102270000410429A8C2F0E940410439ACF91089523
:1022800088B18F6488B92FEF8FE392E021508040AE
:102290009040E1F700C00000469825E02A95F1F74C
:1022A000469A4398429880E00E94041083E0419847
:1022B000419A8150E1F7439A8FEF9FE322E08150EA
:1022C00090402040E1F700C0000008950E944011B6
:1022D00060E081E00E9433112FEF8FE191E0215007
:1022E00080409040E1F700C0000060E088E20E947A
:1022F000331163E280EC0E94331160E181EC0E94B3
:1023000033116BE27BE285EC90E00E941A1160ECE5
:1023100087EC0E94331168E886E30E94331165E57B
:102320008AE30E9433116BE170E081EB90E00E9440
:102330001A1167E087EB0E94331160E081E10E948F
:1023400033112FEF8FE593E0215080409040E1F76B
:1023500000C0000060E089E20E9433112FEF8FE39C
:102360009BE0215080409040E1F700C000000895BC
:1023700098E0699FB0011124607E7770469546957C
:102380004695642B90E0982F88278827987F862B86
:10239000972B08958F929F92AF92BF92CF92DF9228
:1023A000EF92FF920F931F93CF93DF9388E0C82E95
:1023B00081E0D82E90E1E92E91E0F92E28E1A22EBD
:1023C00021E0B22ED0E0C0E09E01295D3F4F4FEEEC
:1023D00050E0BE0190E080E00E943810439842989F
:1023E0008CE20E940410429AF60141916F01F701BC
:1023F00061917F01F50181915F010E94B811982ED2
:10240000892E08E210EF882D0E940410892D0E9469
:1024100004101150C1F70150A9F7439AA896C0348F
:10242000F1E0DF0789F6DF91CF911F910F91FF90C7
:10243000EF90DF90CF90BF90AF909F908F900895D6
:10244000CF93DF93EA01803F9105D0F4603421E01F
:102450007207B0F42FE331E04FEE50E00E943810E5
:10246000439842988CE20E9404108CE20E9404106F
:10247000429A8D2F0E9404108C2F0E940410439AC0
:10248000DF91CF9108954F925F926F927F928F92DA
:102490009F92AF92BF92CF92DF92EF92FF920F93F3
:1024A0001F93CF93DF935C013B012901803F91058E
:1024B0000CF041C0603481E078070CF03CC0C501ED
:1024C00026E0029F800D911D1124181619069CF517
:1024D00028E0029FC0011124860F971F18161906C5
:1024E00054F585E0489FA0011124D0E0C0E0CA0166
:1024F00087519E4F7C01F701EC0FFD1F1491D12CE9
:10250000C12C45018C0E9D1E10FF09C0013039F40D
:10251000A201B3016C0D7D1DC4010E94201216950D
:102520009FEFC91AD90A28E0C216D10469F721968B
:10253000C530D10501F7DF91CF911F910F91FF9029
:10254000EF90DF90CF90BF90AF909F908F907F9053
:102550006F905F904F9008956F927F928F929F92AD
:10256000AF92BF92CF92DF92EF92FF920F931F93A1
:10257000CF93DF936B0159014801403F510514F59A
:1025800020E4A21621E0B206ECF466E06C9D900116
:102590006D9D300D1124240F351F1216130694F46F
:1025A000960163E0220F331F6A95E1F72A0D3B1D68
:1025B000121613063CF4EA017C01712C612C6C1498
:1025C0007D047CF0DF91CF911F910F91FF90EF90F0
:1025D000DF90CF90BF90AF909F908F907F906F9043
:1025E0000895F70141917F01442361F301E09401D3
:1025F000B501CE010E944312FFEF6F1A7F0A2696A3
:10260000DECF2F923F924F925F926F927F928F9286
:102610009F92AF92BF92CF92DF92EF92FF920F9371
:102620001F93CF93DF9300D000D0CDB7DEB79C834C
:102630008B837B016A0158018901061B170B17FF69
:1026400003C011950195110946018B819C81881A5F
:10265000990A97FE03C0919481949108801691067F
:102660005CF49C2D8D2D6901292F382F9B818C8145
:10267000FC82EB82E92EF82E8B819C81C816D9064C
:102680005CF49E2D8F2D7901292F382F9B818C8111
:10269000DC82CB82C92ED82E16018B819C81281A10
:1026A000390A29014E185F0857FE03C0519441941E
:1026B0005108310137FE03C09FEF691A790A7594FA
:1026C00067948FEF9FEFE216F30614F481E090E039
:1026D0009A8389831BC0A5016B817C81C701801609
:1026E00091061CF0B7018B819C810E942012641816
:1026F000750877FE06C089819A81E80EF91E620C82
:10270000731C8B819C8101969C838B838B819C8124
:10271000C816D90604F70F900F900F900F90DF9115
:10272000CF911F910F91FF90EF90DF90CF90BF90CE
:10273000AF909F908F907F906F905F904F903F9061
:102740002F9008950F931F93460F571F4150510923
:1027500089019A01AC010E9401131F910F91089504
:102760000C94A213AF92BF92CF92DF92EF92FF929E
:102770000F931F93CF93DF936B015901EC017C0101
:10278000E40EF51ECE15DF055CF0DF91CF911F91B1
:102790000F91FF90EF90DF90CF90BF90AF90089592
:1027A0009801A501B601CE010E94A2132196EACF9D
:1027B0000F931F938C0120E431E040EF50E070E074
:1027C00060E090E080E00E94B2131F910F910895A5
:1027D00084B1836084B98AB18C6F8AB988B18F64FF
:1027E00088B987B18F6487B90E9466114FEF6FEF88
:1027F0008FEF0E94B811909383028093820240E091
:1028000060E080E00E94B8119093DF028093DE02C6
:102810000E94BC080E94420900918202109183022A
:102820002FE331E04FEE50E070E060E090E080E0B8
:102830000E94A110CDE2D1E083E397E00197F1F788
:102840000E94FE080E94B109882321F00E94B70966
:102850000E94CC09219781F70E94EF062091000188
:1028600030910101409102015091030160910401F6
:102870007091050180910601909107010E94DA078D
:102880000E94E0079FEF2FE382E0915020408040BC
:10289000E1F700C00000CECF5058BB27AA270E9406
:1028A00064140C9409170E94D01638F00E94D716B1
:1028B00020F039F49F3F19F426F40C94A6160EF478
:1028C000E095E7FB0C949216E92F0E942E1758F31F
:1028D000BA17620773078407950720F079F4A6F505
:1028E0000C9450170EF4E0950B2EBA2FA02D0B016F
:1028F000B90190010C01CA01A0011124FF27591B45
:1029000099F0593F50F4503E68F11A16F040A22F4A
:10291000232F342F4427585FF3CF469537952795BB
:10292000A795F0405395C9F77EF41F16BA0B620BBA
:10293000730B840BBAF09150A1F0FF0FBB1F661F01
:10294000771F881FC2F70EC0BA0F621F731F841F44
:1029500048F4879577956795B795F7959E3F08F06A
:10296000B0CF9395880F08F09927EE0F979587952C
:1029700008950E94D01660F080E891E009F49EEF7F
:102980000E94D71628F040E851E071F45EEF0CC0C9
:102990000C94A6160C945017E92FE0780E942E177D
:1029A00040F3092E052AB1F32617370748075907C0
:1029B00038F00E2E07F8E02569F0E025E0640AC043
:1029C000EF6307F8009407FADB01B9019D01DC0110
:1029D000CA01AD01EF930E944C150E9409170E9495
:1029E000FC145F91552339F02BED3FE049E450FD95
:1029F00049EC0C944D140895DF93DD27B92FBF7770
:102A000040E85FE31616170648075B0718F4D92F4E
:102A10000E945C179F938F937F936F930E941F1860
:102A2000E8E6F0E00E94A9160E9409172F913F9155
:102A30004F915F910E947717DD2351F09058A2EAE1
:102A40002AED3FE049EC5FE3D0785D270E946414F3
:102A5000DF910C9409170E946E1608F481E0089526
:102A60000E94E016E3950C941A170E9449150C94E5
:102A700009170E94D71658F00E94D01640F029F48A
:102A80005F3F29F00C94921651110C9451170C943D
:102A9000A6160E942E1768F39923B1F3552391F3DC
:102AA000951B550BBB27AA2762177307840738F0BD
:102AB0009F5F5F4F220F331F441FAA1FA9F335D01A
:102AC0000E2E3AF0E0E832D091505040E695001CCE
:102AD000CAF72BD0FE2F29D0660F771F881FBB1F88
:102AE000261737074807AB07B0E809F0BB0B802D66
:102AF000BF01FF2793585F4F3AF09E3F510578F092
:102B00000C9492160C9451175F3FE4F3983ED4F363
:102B1000869577956795B795F7959F5FC9F7880F65
:102B2000911D9695879597F90895E1E0660F771FB7
:102B3000881FBB1F621773078407BA0720F0621B48
:102B4000730B840BBA0BEE1F88F7E09508950E9473
:102B5000AE156894B1110C94511708950E94361760
:102B600088F09F5798F0B92F9927B751B0F0E1F04E
:102B7000660F771F881F991F1AF0BA95C9F714C0FE
:102B8000B13091F00E945017B1E008950C945017A5
:102B9000672F782F8827B85F39F0B93FCCF3869537
:102BA00077956795B395D9F73EF490958095709594
:102BB00061957F4F8F4F9F4F0895E89409C097FB11
:102BC0003EF490958095709561957F4F8F4F9F4F04
:102BD0009923A9F0F92F96E9BB279395F695879548
:102BE00077956795B795F111F8CFFAF4BB0F11F40B
:102BF00060FF1BC06F5F7F4F8F4F9F4F16C08823B2
:102C000011F096E911C0772321F09EE8872F762FE7
:102C100005C0662371F096E8862F70E060E02AF028
:102C20009A95660F771F881FDAF7880F9695879514
:102C300097F908950E94D01620F019F00E94D71637
:102C400050F40C94A6160C945117E92F0E942E17DD
:102C500088F35523B1F3E7FB6217730784079507E1
:102C6000A8F189F3E92FFF2788232AF03197660F0F
:102C7000771F881FDAF7952F5527442332F091509C
:102C80005040220F331F441FD2F7BB27E91BF50B1F
:102C9000621B730B840BB109B1F222F4620F731F34
:102CA000841FB11D31972AF0660F771F881FBB1F45
:102CB000EFCF9150504062F041F0882332F0660F20
:102CC000771F881F91505040C1F793950C94981628
:102CD0008695779567959F5FD9F7F7CF990F00088D
:102CE000550FAA0BE0E8FEEF16161706E807F907DE
:102CF000C0F012161306E407F50798F0621B730B79
:102D0000840B950B39F40A2661F0232B242B252BF9
:102D100021F408950A2609F4A140A6958FEF811D9C
:102D2000811D089597F99F6780E870E060E008953D
:102D30009F3F31F0915020F4879577956795B7952F
:102D4000880F911D9695879597F908959FEF80ECD0
:102D50000895DF93CF931F930F93FF92EF92DF922B
:102D60007B018C01689406C0DA2EEF010E94771770
:102D7000FE01E894A5912591359145915591A6F3D1
:102D8000EF010E946414FE019701A801DA9469F72B
:102D9000DF90EF90FF900F911F91CF91DF910895F9
:102DA00000240A941616170618060906089500242A
:102DB0000A94121613061406050608950C94A61616
:102DC0000E943617D8F3E894E0E0BB279F57F0F055
:102DD0002AED3FE049EC06C0EE0FBB0F661F771FE0
:102DE000881F28F0B23A62077307840728F0B25AA6
:102DF000620B730B840BE3959A9572F7803830F46D
:102E00009A95BB0F661F771F881FD2F790480C94C6
:102E10009A16092E0394000C11F4882352F0BB0F6C
:102E200040F4BF2B11F460FF04C06F5F7F4F8F4FE2
:102E30009F4F0895EF93E0FF07C0A2EA2AED3FE01D
:102E400049EC5FEB0E9464140E9409170F900394F1
:102E500001FC9058E5E9F0E00C942A1857FD9058D1
:102E6000440F551F59F05F3F71F04795880F97FB4E
:102E7000991F61F09F3F79F0879508951216130608
:102E80001406551FF2CF4695F1DF08C01616170637
:102E90001806991FF1CF869571056105089408956C
:102EA000E894BB2766277727CB0197F908950E94FE
:102EB0006E1608F48FEF08959B01AC0160E070E09E
:102EC00080E89FE30C9435150E9477170C9409173E
:102ED0000E94D01638F00E94D71620F0952311F0EA
:102EE0000C9492160C94A61611240C9451170E945F
:102EF0002E1770F3959FC1F3950F50E0551F629FF9
:102F0000F001729FBB27F00DB11D639FAA27F00D42
:102F1000B11DAA1F649F6627B00DA11D661F829F69
:102F20002227B00DA11D621F739FB00DA11D621F4E
:102F3000839FA00D611D221F749F3327A00D611D6B
:102F4000231F849F600D211D822F762F6A2F11244D
:102F50009F5750409AF0F1F088234AF0EE0FFF1F80
:102F6000BB1F661F771F881F91505040A9F79E3FD7
:102F7000510580F00C9492160C9451175F3FE4F3C6
:102F8000983ED4F3869577956795B795F795E7952D
:102F90009F5FC1F7FE2B880F911D9695879597F936
:102FA00008959F930E94E0160F9007FCEE5F0C942B
:102FB0001A1719F416F40C94A6160C9498160E947D
:102FC0003617B8F39923C9F3B6F39F57550B87FF0C
:102FD0000E9423180024A0E640EA900180585695EC
:102FE000979528F4805C660F771F881F20F02617BE
:102FF0003707480730F4621B730B840B20293129F3
:103000004A2BA69517940794202531254A2758F76F
:10301000660F771F881F20F026173707480730F400
:10302000620B730B840B200D311D411DA09581F7A0
:10303000B901842F9158880F9695879508959B0123
:10304000AC010C94641791505040660F771F881F95
:10305000D2F708959F938F937F936F93FF93EF938E
:103060009B01AC010E946417EF91FF910E94A91689
:103070002F913F914F915F910C946417DB018F93D7
:103080009F930E949E18BF91AF91A29F800D911DAA
:10309000A39F900DB29F900D11240895A1E21A2EC6
:1030A000AA1BBB1BFD010DC0AA1FBB1FEE1FFF1FEC
:1030B000A217B307E407F50720F0A21BB30BE40B3C
:1030C000F50B661F771F881F991F1A9469F7609583
:1030D0007095809590959B01AC01BD01CF0108953D
:1030E000052E97FB1EF400940E94871857FD07D009
:1030F0000E944E1807FC03D04EF40C94871850958C
:103100004095309521953F4F4F4F5F4F08959095D3
:103110008095709561957F4F8F4F9F4F0895A29F27
:10312000B001B39FC001A39F700D811D1124911D9B
:10313000B29F700D811D1124911D08950E948F185A
:10314000A59F900DB49F900DA49F800D911D1124FB
:103150000895EF920F931F93CF93DF93E80134E02C
:1031600047FD34E1042E000C550B57FF03C0519569
:1031700041955109E32E022F242FAE010E94631BBB
:10318000CE01DF91CF911F910F91EF9008956627A7
:1031900077270C94C51CFC0188279927E894219176
:1031A0002032E9F3293010F02E30C8F32B3241F0F1
:1031B0002D3239F4689404C00E946019820F911D69
:1031C000219120532A30C0F31EF4909581959F4F92
:1031D00008951F93FC0199278827BC01E894119159
:1031E0001032E9F3193010F01E30C8F31B3251F0E1
:1031F0001D3249F4689406C00E944B19610F711D7D
:10320000811D911D119110531A30B0F33EF4909529
:103210008095709561957F4F8F4F9F4F1F910895B7
:10322000FC018191861721F08823D9F79927089509
:103230003197CF010895FB01DC0101900D92002030
:10324000E1F70895FB01DC014150504048F0019046
:103250000D920020C9F701C01D9241505040E0F787
:103260000895FB0151915523A9F0BF01DC014D9157
:1032700045174111E1F759F4CD010190002049F0C3
:103280004D9140154111C9F3FB014111EFCF81E090
:1032900090E001970895592F482F372F262F660F5A
:1032A000771F881F991F660F771F881F991F620F4E
:1032B000731F841F951F660F771F881F991F08951E
:1032C0007AE0979F902D879F802D910D112408956E
:1032D000AEE0B0E0EEE6F9E10C94B11F0D891E8975
:1032E0008F89988D26E02C831A83098397FF02C06B
:1032F00080E090E801979E838D83AE01455E5F4F2D
:10330000698D7A8DCE0101960E9498194D815E815A
:1033100057FD0AC02F813885421753070CF49A01D4
:10332000020F131FF80110822E96E4E00C94CD1FBB
:10333000ABE0B0E0EEE9F9E10C94A31F7C013B01A6
:103340008A01FC0117821682838181FFB9C19AE04C
:10335000292ECE0101965C01F7019381F30193FDC3
:10336000859193FF81913F01882309F446C18532FD
:1033700039F493FD859193FF81913F01853229F4C2
:10338000B70190E00E94121FE7CF912C412C512CE5
:10339000FFE1F51538F08B3209F188F4803201F144
:1033A000833221F157FC3AC020ED280F2A3040F536
:1033B00056FE1FC0929C200D1124922E06C08D3205
:1033C00091F0803379F7689450F8F30193FD85917B
:1033D00093FF81913F018111DBCF20C0689451F8A8
:1033E000689452F8F2CF689453F8EFCF689454F889
:1033F000ECCF429C200D1124422E689455F8E5CF65
:103400008E3229F456FCF9C0689456F8DECF8C361B
:1034100019F4689457F8D9CF8836B9F2982F9F7D60
:1034200095549330C0F08336A1F18337C1F18335D1
:1034300009F05BC0F801C190D1908F01692D70E057
:1034400056FC02C06FEF7FEFC6010E94FC1E4C01CC
:10345000689457F80AC00C5F1F4F2FE32983882414
:103460008394912C6501E89457F853FC04C04814E8
:10347000190409F018F5342C8114910431F5332026
:1034800009F46ACFB70180E290E00E94121F3A94DB
:10349000F6CFF801808189830E5F1F4FE0CFF801DE
:1034A000C190D1908F01692D70E056FC02C06FEF82
:1034B0007FEFC6010E94071F4C01D5CFB70180E204
:1034C00090E00E94121F4A94D2CFF60157FC8591DA
:1034D00057FE81916F01B70190E00E94121F3110D9
:1034E0003A94F1E08F1A9108C7CF843619F08936E3
:1034F00009F074C0F80157FE6AC061917191819121
:1035000091918F01252D2F76D22E97FF09C090958E
:103510008095709561957F4F8F4F9F4F6894D7F836
:103520002AE030E0A5010E94421FC82ECA188C2C48
:103530005D2CD6FE0CC0E89450F8C91440F4D4FEBB
:1035400005C0D2FC03C0FD2DFE7E5F2E892C54FEEB
:103550008FC0FE01EC0DF11D8081803309F081C028
:10356000252D297E522E852D8870382E53FC8FC034
:1035700050FE89C09C2C841418F44C0C942C981880
:1035800054FE8BC0B70180E390E00E94121F52FEF0
:1035900009C088E790E051FE02C088E590E0B701DD
:1035A0000E94121FC91408F484C0CA94D12C9FEF42
:1035B000C91AD90ACA0CDB1CF60182916F01B70146
:1035C00090E00E94121FAC14BD04B1F758CF619176
:1035D0007191072E000C880B990B93CFD52CE89492
:1035E000D4F82AE030E0853739F1952D997FD92E2E
:1035F0008F3601F148F48835A9F0F701868197816B
:103600002B96E2E10C94BF1F803749F08837A9F769
:10361000D4FE02C06894D2F820E130E00DC0689476
:10362000D4F8F6CF54FE03C0E92FE660DE2E20E189
:1036300032E002C028E030E0F801D7FE0DC0619111
:103640007191819191918F01A5010E94421FC82E15
:10365000CA18E894D7F86BCF6191719190E080E03F
:10366000F2CF52FC02C083947ECF839483947BCFAD
:10367000852D867809F477CFF6CFB70180E290E008
:103680000E94121F83948414C0F3312C79CF342C00
:103690003818841408F474CFF8CF852D867809F48F
:1036A00081CF8BE251FE80E257FC8DE2B70190E0C2
:1036B00077CFB70180E390E00E94121F9A9472CFF7
:1036C0008FEF9FEF9DCFA9E0B0E0E9E6FBE10C941E
:1036D000A91F6A01F22EB02E102F0BE30B1508F470
:1036E0001BE31F5F012F27E0AE014F5F5F4F0E947A
:1036F000031EBC018981982F99709130C9F19BE21A
:10370000E1FC04C09E2D9170E0FC90E25E2D5071B2
:10371000E82FE87083FF48C083E0911184E0EF2D2B
:10372000E81B8F1508F0E0E0552371F1992319F09B
:10373000D6019D936D01C6010396E2FE29C02EE4D9
:10374000D6012C9331E411963C93119712962C9349
:103750002E2F382F492F50E221111FC0E80FF92FCB
:10376000F11D10828EEF9FEF2996ECE00C94C51F9F
:103770009DE2CCCFD9014D9381509D018111FACFAB
:10378000CE0ED11CE0E0D2CF8E2F960140E2F6CFD4
:103790002EE6D6012C9331E6D6CFA32FB42F5D931E
:1037A00021503A2F4B2FD8CF482F447082FF41C071
:1037B00083E0911184E08F1510F4EF2DE81B552361
:1037C00059F1992319F0D6019D936D01C601039615
:1037D000E2FE26C029E4D6012C932EE411962C9308
:1037E000119726E412962C932E2F382F492F50E252
:1037F000222309F4B3CFA32FB42F5D9321503A2F86
:103800004B2FF6CFD9014D9381509D018111FACFF5
:10381000CE0ED11CE0E0D5CF8E2F960140E2F6CF40
:1038200029E6D6012C932EE611962C93119726E6C5
:10383000D9CF9B0177FF02C030E020E0A1E0B0E0EB
:10384000911102C0B0E0A0E0F9013196AE0FBF1FA8
:103850008B2C912CBB20F1F05401EFEFAE1ABE0A75
:10386000AA0DBB1DFA161B0619F014F04F2D4A1BAA
:10387000511145C0E3FC08C07601A42FB0E2A111AC
:103880000CC0C40ED11C40E091113BC0D601942F56
:1038900050E30AC0B12CA12CE3CFF701B1937F0113
:1038A000A150EDCF5D9391509111FCCFC40ED11C6E
:1038B00040E02DC001E03AC050E354C062177307E6
:1038C00039F4A63320F4A53319F4B11101C051E342
:1038D000D6015C93242F382F592F60E2211108C0A4
:1038E000480F592F511DFA01108290E080E03CCF23
:1038F000E32FF52F619321503E2F5F2FEFCF9923B8
:1039000031F0D6019D936D01552309F4BFCF012FEE
:10391000060FAA81B82FB07184FF03C0A13309F448
:10392000015010163CF6093008F008E0FB01E01BDE
:10393000F1098F01EE24FF24E818F9088EE2B82E71
:10394000621773070CF4B8CF021713070CF0B4CF4B
:10395000FB01E21BF30B81E090E08C0F9D1FE80F51
:10396000F91F518121503109C60101962E153F05DD
:103970000CF4A4CFF60150832F3F320721F4C60187
:103980000296F601B1826C01DBCFB0E0A0E0EBEC77
:10399000FCE10C94A91F7C016B016115710519F004
:1039A000FB0191838083E7010991802F90E00E94C1
:1039B000DB1E5C01892BB1F50D32B1F50881E70101
:1039C000229611E07E01F1E0EF1AF10843E050E0A9
:1039D0006CEB70E0C7010E94E41E892B61F57E014B
:1039E00082E0E80EF11C45E050E067EB70E0C701B3
:1039F0000E94E41E892B21F47E0197E0E90EF11C60
:103A0000C114D10419F0F601F182E08260E070E0A7
:103A100080E89FE7112309F4F1C060E070E080E8DE
:103A20009FEFECC07E01BFCF0B3219F40881E70194
:103A3000229610E0C7CF43E050E064EB70E0C7018E
:103A40000E94E41E892B61F4C114D10421F0229656
:103A5000F601D183C08360E070E080EC9FE7CEC0C8
:103A6000F12CE12C20E030E0A901F0EDF00FFA306C
:103A700058F5E12FE260812F887012FF08C0811194
:103A800003C0FFEFEF1AFF0A09911E2FEECF882324
:103A900019F081E0E81AF108A5E0B0E00E949E1854
:103AA0009B01AC01220F331F441F551F2F0F311DE7
:103AB000411D511D283999E93907490799E15907ED
:103AC00018F3E12FE660E0CFFE3F29F413FD3AC082
:103AD000E12FE860D9CF0F7D0534A1F588818D32C3
:103AE00041F41061BE016E5F7F4F8981E2E0F0E03A
:103AF00007C0BE018B32B9F36F5F7F4FE1E0F0E0AA
:103B00008053EB01CE1BDF0B8A30E0F4E0E8AE1609
:103B1000ECE0BE065CF4F501EE0FFF1FEE0FFF1F99
:103B2000AE0EBF1EAA0CBB1CA80EB11CEB018991E6
:103B300080538A3090F114FF03C0B194A194B1086E
:103B4000EA0CFB1C11FF07C0C114D10421F021971E
:103B5000F601D183C083CA01B9010E94DD1513703B
:103B6000133009F490584B015C0120E030E0A901CA
:103B70000E942B15882309F43FC0CBEED0E0F7FE5E
:103B800005C0F194E194F108C3EDD0E06E01F8E1D5
:103B9000CF1AD10800E210E00FC0BE01B7CFFE017E
:103BA0002591359145915491E01AF10AC501B4016E
:103BB0000E9464174B015C01D501C401E016F106B7
:103BC00074F7249715950795CC15DD05A9F78A2F6D
:103BD000880F8B2F881F8F3F49F020E030E0A9012C
:103BE000C501B4010E942B15811106C082E290E04C
:103BF0009093E2038093E103C501B401CDB7DEB732
:103C0000ECE00C94C51F283008F027E03327DA01D8
:103C1000990F311D87FD916000966105710539F49A
:103C200032602E5F3D9330E32A95E1F708959F3F80
:103C300030F080387105610509F03C5F3C5F3D93D1
:103C4000913008F08068911DDF93CF931F930F93FD
:103C5000FF92EF92192F987F9695E92F969596955A
:103C6000E90FFF27E75BFE4F99273327EE24FF2458
:103C7000A701E70105900894079428F4360FE71E82
:103C8000F81E491F511D660F771F881F991F069444
:103C9000A1F70590079428F4E70EF81E491F561F58
:103CA000C11D770F881F991F661F0694A1F7059005
:103CB000079428F4F80E491F561FC71FD11D880FFF
:103CC000991F661F771F0694A1F70590079420F4AB
:103CD000490F561FC71FD81F990F661F771F881FD0
:103CE0000694A9F784911095177041F0D695C79561
:103CF00057954795F794E7941A95C1F7EFEEF0E0E2
:103D000068941590159135916591959105907FE294
:103D10007395E118F10A430B560BC90BD009C0F794
:103D2000E10CF11E431F561FC91FD01D7EF47033D6
:103D300011F48A95E6CFE894015030F0080F0AF4A8
:103D40000027021708F4202F2395022F7A3328F03A
:103D500079E37D932A95E9F710C07D932A9589F63A
:103D6000069497956795379517951794E118F10A7A
:103D7000430B560BC90BD00998F023957E91739590
:103D80007A3308F070E37C932013B8F77E9170616A
:103D90007D9330F0839571E37D9370E32A95E1F78D
:103DA0001124EF90FF900F911F91CF91DF919927F0
:103DB00087FD9095089591110C94A01F803219F001
:103DC00089508550C8F70895FB01DC0141505040EF
:103DD00088F08D9181341CF08B350CF4805E6591F8
:103DE00061341CF06B350CF4605E861B611171F35D
:103DF000990B0895881BFCCFFC0105906150704021
:103E00000110D8F7809590958E0F9F1F0895FC01A3
:103E10006150704001900110D8F7809590958E0FF9
:103E20009F1F08950F931F93CF93DF93182F092F90
:103E3000EB018B8181FD09C01FEF0FEF812F902FC8
:103E4000DF91CF911F910F91089582FF14C02E81B1
:103E50003F818C819D81281739073CF4E881F981E5
:103E6000CF0101969983888310838E819F8101966B
:103E70009F838E83E3CFE885F985812F0995892B70
:103E8000A1F3DACFFA01AA27283051F1203181F1CC
:103E9000E8946F936E7F6E5F7F4F8F4F9F4FAF4F52
:103EA000B1E03ED0B4E03CD0670F781F891F9A1F65
:103EB000A11D680F791F8A1F911DA11D6A0F711D19
:103EC000811D911DA11D20D009F468943F912AE025
:103ED000269F11243019305D3193DEF6CF0108950D
:103EE000462F4770405D4193B3E00FD0C9F7F6CF3E
:103EF000462F4F70405D4A3318F0495D31FD405206
:103F0000419302D0A9F7EACFB4E0A695979587959B
:103F100077956795BA95C9F700976105710508957A
:103F20009B01AC010A2E0694579547953795279526
:103F3000BA95C9F7620F731F841F951FA01D0895BE
:103F40009927882708952F923F924F925F926F9200
:103F50007F928F929F92AF92BF92CF92DF92EF9219
:103F6000FF920F931F93CF93DF93CDB7DEB7CA1B9A
:103F7000DB0B0FB6F894DEBF0FBECDBF09942A88C5
:103F8000398848885F846E847D848C849B84AA846D
:103F9000B984C884DF80EE80FD800C811B81AA81FA
:103FA000B981CE0FD11D0FB6F894DEBF0FBECDBFC5
:083FB000ED010895F894FFCF24
:103FB8000794ECC200150842000000FF00FFFFFF55
:103FC8000000FF00FFFF00FF00FF0000FF00FFFFF1
:103FD8002045004E4500204E004E57002057005304
:103FE8005700205300534500476F616C206C6F6386
:103FF8003A2025732C2025730D0A43757272656E5D
:10400800743A2025732C2025730D0A446972656360
:1040180074696F6E3A2025732025730D0A446973FD
:1040280074616E63653A20257320666565740D0AB0
:10403800004461746554696D653A2025752D2575B0
:104048002D25752025753A25753A2575200D0A46C2
:1040580069783A2025642C20466978207175616C4E
:104068006974793A2025752C204E756D205361743A
:10407800656C6C697465733A2025750D0A00446196
:10408800746554696D653A2025752D25752D25753E
:104098002025753A25753A2575200D0A4C6F636100
:1040A80074696F6E3A2025632025732C20256320C0
:1040B80025730D0A4669783A2025642C20466978CC
:1040C800207175616C6974793A2025752C204E75BC
:1040D8006D20536174656C6C697465733A2025753D
:1040E8000D0A004665746368696E6720475053205F
:1040F800444154412E2E2E2E2E00476F616C3A20DB
:1041080025732C2025730043757272656E743A20EE
:1041180025732C2025730024475047474100244726
:0641280050524D4300005F
:00000001FF
