:100000000C9452000C946F000C946F000C946F00D1
:100010000C946F000C946F000C946F000C946F00A4
:100020000C946F000C946F000C946F000C946F0094
:100030000C946F000C946F000C946F000C946F0084
:100040000C946F000C946F000C946F000C946F0074
:100050000C946F000C946F000C946F000C946F0064
:100060000C946F000C946F004E414E494E49545908
:10007000494E46CDCCCC3D0AD7233C17B7D1387773
:10008000CC2B329595E6241FB14F0A000020410089
:1000900000C84200401C4620BCBE4CCA1B0E5AAED3
:1000A000C59D740011241FBECFEFD8E0DEBFCDBFC9
:1000B00011E0A0E0B1E0E2E1FFE102C005900D92A5
:1000C000AC38B107D9F722E0ACE8B1E001C01D922D
:1000D000A03DB207E1F70E941F070C94870F0C9414
:1000E00000008FE290E09093C5008093C400E1ECA3
:1000F000F0E080818860808380818061808386E0F9
:100100008093C20008959091C00095FFFCCF80932A
:10011000C60008950F931F93CF93DF938C01D0E017
:10012000C0E0F80101900020E9F73197E01BF10BE6
:10013000CE17DF0728F0DF91CF911F910F9108951F
:1001400083E397E00197F1F7F801EC0FFD1F808141
:100150000E9483002196E5CF8091C00087FFFCCFED
:100160008091C60008950E94AC008A3009F5E091A4
:100170008C012091CC023091CD02E20FF32FF11DC2
:1001800010822091CC023091CD0291E02C3D3907B4
:1001900029F544E552E05093CD024093CC023093D0
:1001A000D9012093D80110928C0191E09093DB014A
:1001B0002091CC023091CD02E0918C0191E09E0F14
:1001C00090938C01E20FF32FF11D808390918C01AD
:1001D000983718F097E790938C0108952CED31E053
:1001E0003093CD022093CC0224E532E0D8CF109298
:1001F000DB011092910110928C018CED91E09093B3
:10020000CD028093CC0284E592E09093D901809353
:10021000D8011092AE01109293011092CA0110926F
:100220009A011092C4011092B80110929C01109290
:10023000A4011092D6011092A9011092D50110923A
:10024000BA011092A3011092A2011092D101109252
:10025000D2011092D3011092D40110929601109203
:10026000970110929801109299011092A501109295
:10027000A6011092A7011092A8011092CD01109230
:10028000CE011092CF011092D0011092AF011092C6
:10029000B0011092B1011092B20110928D01109232
:1002A0008E0110928F01109290011092AA0110926B
:1002B000AB011092AC011092AD011092C6011092E8
:1002C000C7011092C8011092C90108950895809144
:1002D000DB0108958093910108951092DB018091D4
:1002E000D8019091D9010895803354F08A3314F4E1
:1002F000805308959FEB980F963010F4875308951C
:1003000080E008954F925F926F927F928F929F92BA
:10031000AF92BF92CF92DF92EF92FF920F931F9313
:10032000CF93DF93CDB7DEB72A970FB6F894DEBF31
:100330000FBECDBF7C01FC0101900020E9F7319791
:10034000E81BF90B6F0184E0C81AD108D701AC0D86
:10035000BD1D8C918A3209F03FC087010E0F1F1F0F
:10036000F801339780810E94740190E1899F5001C8
:100370001124F801329780810E9474018A0D9B2D0F
:10038000911D42E0242F30E02C153D05D0F0892B43
:1003900019F180E02A960FB6F894DEBF0FBECDBFEC
:1003A000DF91CF911F910F91FF90EF90DF90CF9051
:1003B000BF90AF909F908F907F906F905F904F9085
:1003C00008952E0D3F1DF9012081022E000C330BE4
:1003D000822793274F5FD6CF6DE771E0C7010E9458
:1003E000EF0A892B09F472C26CE270E0C7010E9427
:1003F000D50A8C010F5F1F4FC8010E948C0A6B0148
:100400007C010E9495082B013C0120E137E240E08D
:1004100050E00E94310A2093A40144E6842E912CDE
:10042000A12CB12CA50194010E94310A20939C01BA
:10043000C301B201A50194010E94310A6093B80181
:1004400020E030E040E85FE3C701B6010E940C09FC
:1004500020E030E04AE754E40E94B4090E94950885
:100460007093A3016093A2016CE270E0C8010E9446
:10047000D50A7C018C010F5F1F4FFC0181818C32FA
:1004800009F4A8C042E050E0B801CE0101960E94F4
:10049000E00A1B82CE0101960E94AE0A9B01AC01CC
:1004A00060E876E988E990E00E94210A4B015C014E
:1004B000B7016D5F7F4F42E050E0CE0101960E9490
:1004C000E00A0B5F1F4F44E050E0B801CE010396F5
:1004D0000E94E00A1F82CE0101960E94AE0A9B0193
:1004E000AC01A2E3B0E00E94720A23E030E040E0F9
:1004F00050E00E94530A69017A01D501C4018C0DB4
:100500009D1DAE1DBF1D80939E0190939F01A093E2
:10051000A001B093A101C501B40120EA36E841E091
:1005200050E00E94530ACA01B9010E94C6084B015B
:100530005C01C701B6010E94C6082CE933E549EC0D
:1005400056E30E94B4099B01AC01C501B4010E94AD
:10055000B0074B015C018092C6019092C701A09246
:10056000C801B092C90120E030E048EC52E40E949A
:100570001C080E948E086B0184E68C9DB0018D9D45
:10058000700D1124072E000C880B990B0E94C608D1
:100590009B01AC01C501B4010E94AF0720E030E02F
:1005A00040E752E40E941C084B015C01B601DD0CDF
:1005B000880B990B0E94C6089B01AC01C501B401D0
:1005C0000E94B0076093C0017093C1018093C20183
:1005D0009093C3016CE270E0C8010E94D50AFC014F
:1005E0009C012F5F3F4F91819C32C9F0933589F474
:1005F0004091C0015091C1016091C2017091C3014D
:1006000070584093C0015093C1016093C201709330
:10061000C30191819E3409F03BC19093D5016CE2F6
:1006200070E0C9010E94D50A7C018C010F5F1F4F49
:10063000FC0181818C3209F4A8C043E050E0B8018C
:10064000CE0101960E94E00A1C82CE0101960E9412
:10065000AE0A9B01AC0160E876E988E990E00E946F
:10066000210A4B015C01B7016C5F7F4F42E050E013
:10067000CE0101960E94E00A0A5F1F4F44E050E05D
:10068000B801CE0103960E94E00A1F82CE010196B6
:100690000E94AE0A9B01AC01A2E3B0E00E94720A84
:1006A00023E030E040E050E00E94530A69017A0103
:1006B000D501C4018C0D9D1DAE1DBF1D8093B301DE
:1006C0009093B401A093B501B093B601C501B401F4
:1006D00020EA36E841E050E00E94530ACA01B9011D
:1006E0000E94C6084B015C01C701B6010E94C60802
:1006F0002CE933E549EC56E30E94B4099B01AC01B7
:10070000C501B4010E94B0074B015C018092AA01AF
:100710009092AB01A092AC01B092AD0120E030E02C
:1007200048EC52E40E941C080E948E086B0184E68B
:100730008C9DB0018D9D700D1124072E000C880B2F
:10074000990B0E94C6089B01AC01C501B4010E942F
:10075000AF0720E030E040E752E40E941C084B0164
:100760005C01B601DD0C880B990B0E94C6089B0149
:10077000AC01C501B4010E94B0076093BB01709346
:10078000BC018093BD019093BE016CE270E0C80192
:100790000E94D50AFC0181818C32C9F0873589F429
:1007A0008091BB019091BC01A091BD01B091BE01AF
:1007B000B0588093BB019093BC01A093BD01B0934E
:1007C000BE019181973509F06CC09093A9016CE24C
:1007D00070E0CF0101960E94D50A8C010F5F1F4F78
:1007E000FC0181818C3229F0C8010E94900A80931B
:1007F00093016CE270E0C8010E94D50A8C010F5F82
:100800001F4FFC0181818C3229F0C8010E94900A9F
:100810008093AE016CE270E0C8010E94D50A8C01A1
:100820000F5F1F4FFC0181818C3259F0C8010E947B
:100830008C0A6093D1017093D2018093D30190937D
:10084000D4016CE270E0C8010E94D50A8C010F5FF0
:100850001F4FFC0181818C3259F0C8010E948C0A23
:100860006093AF017093B0018093B1019093B20196
:100870006CE270E0C8010E94D50A6CE270E001965B
:100880000E94D50AFC0121812C32A1F481E082CDA5
:10089000933509F4C2CE9C3209F07BCD1092D5017C
:1008A000BECE953409F491CF9C3209F072CD1092EE
:1008B000A9018DCF01960E948C0A60938D017093DF
:1008C0008E0180938F0190939001E0CF64E871E0F6
:1008D000C7010E94EF0A892B09F45BCD6CE270E03E
:1008E000C7010E94D50A8C010F5F1F4FC8010E94EB
:1008F0008C0A6B017C010E9495082B013C0120E1D0
:1009000037E240E050E00E94310A2093A40134E62F
:10091000832E912CA12CB12CA50194010E94310AA7
:1009200020939C01C301B201A50194010E94310AE8
:100930006093B80120E030E040E85FE3C701B60112
:100940000E940C0920E030E04AE754E40E94B40918
:100950000E9495087093A3016093A2016CE270E07D
:10096000C8010E94D50AFC012181213409F012C27C
:1009700021E02093BA016CE270E001960E94D50A52
:100980007C018C010F5F1F4FFC0181818C3209F4C7
:10099000A8C042E050E0B801CE0101960E94E00AF2
:1009A0001B82CE0101960E94AE0A9B01AC0160E859
:1009B00076E988E990E00E94210A4B015C01B701C9
:1009C0006D5F7F4F42E050E0CE0101960E94E00A49
:1009D0000B5F1F4F44E050E0B801CE0103960E9428
:1009E000E00A1F82CE0101960E94AE0A9B01AC0173
:1009F000A2E3B0E00E94720A23E030E040E050E061
:100A00000E94530A69017A01D501C4018C0D9D1D14
:100A1000AE1DBF1D80939E0190939F01A093A001E6
:100A2000B093A101C501B40120EA36E841E050E0ED
:100A30000E94530ACA01B9010E94C6084B015C0119
:100A4000C701B6010E94C6082CE933E549EC56E31C
:100A50000E94B4099B01AC01C501B4010E94B0071A
:100A60004B015C018092C6019092C701A092C8011F
:100A7000B092C90120E030E048EC52E40E941C082A
:100A80000E948E086B0184E68C9DB0018D9D700DD7
:100A90001124072E000C880B990B0E94C6089B019D
:100AA000AC01C501B4010E94AF0720E030E040E78F
:100AB00052E40E941C084B015C01B601DD0C880B5E
:100AC000990B0E94C6089B01AC01C501B4010E94AC
:100AD000B0076093C0017093C1018093C2019093ED
:100AE000C3016CE270E0C8010E94D50AFC019C01C0
:100AF0002F5F3F4F91819C32C9F0933589F440912B
:100B0000C0015091C1016091C2017091C301705840
:100B10004093C0015093C1016093C2017093C3011F
:100B200091819E3409F03CC19093D5016CE270E054
:100B3000C9010E94D50A7C018C010F5F1F4FFC0187
:100B400081818C3209F4A8C043E050E0B801CE01A5
:100B500001960E94E00A1C82CE0101960E94AE0A14
:100B60009B01AC0160E876E988E990E00E94210AE7
:100B70004B015C01B7016C5F7F4F42E050E0CE015A
:100B800001960E94E00A0A5F1F4F44E050E0B8015E
:100B9000CE0103960E94E00A1F82CE0101960E94B8
:100BA000AE0A9B01AC01A2E3B0E00E94720A23E00E
:100BB00030E040E050E00E94530A69017A01D5011B
:100BC000C4018C0D9D1DAE1DBF1D8093B30190937C
:100BD000B401A093B501B093B601C501B40120EAF8
:100BE00036E841E050E00E94530ACA01B9010E9470
:100BF000C6084B015C01C701B6010E94C6082CE97A
:100C000033E549EC56E30E94B4099B01AC01C501F0
:100C1000B4010E94B0074B015C018092AA0190923E
:100C2000AB01A092AC01B092AD0120E030E048EC05
:100C300052E40E941C080E948E086B0184E68C9D81
:100C4000B0018D9D700D1124072E000C880B990B9F
:100C50000E94C6089B01AC01C501B4010E94AF0708
:100C600020E030E040E752E40E941C084B015C01A8
:100C7000B601DD0C880B990B0E94C6089B01AC01E4
:100C8000C501B4010E94B0076093BB017093BC0121
:100C90008093BD019093BE016CE270E0C8010E9498
:100CA000D50AFC0181818C32C9F0873589F48091A5
:100CB000BB019091BC01A091BD01B091BE01B058A3
:100CC0008093BB019093BC01A093BD01B093BE0182
:100CD0009181973509F06DC09093A9016CE270E0A5
:100CE000CF0101960E94D50A8C010F5F1F4FFC01B6
:100CF00081818C3259F0C8010E948C0A6093CD0129
:100D00007093CE018093CF019093D0016CE270E09C
:100D1000C8010E94D50A8C010F5F1F4FFC01818121
:100D20008C3259F0C8010E948C0A6093A50170931F
:100D3000A6018093A7019093A8016CE270E0C8011E
:100D40000E94D50AFC0121812C3209F49FCD019625
:100D50000E948C0A0E9495084B015C0120E137E259
:100D600040E050E00E94310A2093CA0124E6C22EDE
:100D7000D12CE12CF12CA70196010E94310A20937D
:100D80009A01C501B401A70196010E94310A60933E
:100D9000C4017CCD263509F0FCCA1092BA01EBCD16
:100DA000933509F4C1CE9C3209F0F3CA1092D501F3
:100DB000BDCE953409F490CF9C3209F0EACA109266
:100DC000A9018CCFEF92FF920F931F93CF93DF93E4
:100DD000CDB7DEB764970FB6F894DEBF0FBECDBFB8
:100DE0007C0100E00A3011F410E01BC00E94B30047
:100DF0001091DB011123B1F31092DB016091D80156
:100E00007091D90144E150E0CE0101960E94E00AC0
:100E10001C8A0F5FB701CE0101960E94EF0A892B51
:100E200009F3812F64960FB6F894DEBF0FBECDBFD5
:100E3000DF91CF911F910F91FF90EF900895CDB763
:100E4000DEB7DA950FB6F894DEBF0FBECDBF0E94B5
:100E500071000E94F70090E0C92E91E0D92E9924EC
:100E600093948E010F5F1F4FA12CBB24B3948DE28E
:100E7000E82EFF24F39483E397E00197F1F70E94B3
:100E8000B3000E946701882321F00E946D010E9437
:100E9000820191E0E91AF10871F78091AE011F9289
:100EA0008F93809193011F928F938091BA011F922B
:100EB0008F938091A901282F082E000C330B3F93AC
:100EC0008F938091AD018F938091AC018F9380912E
:100ED000AB018F938091AA018F938091D501282F28
:100EE000082E000C330B3F938F938091C9018F9391
:100EF0008091C8018F938091C7018F938091C60123
:100F00008F938091B8011F928F9380919C011F92C3
:100F10008F938091A4011F928F938091C4011F929F
:100F20008F9380919A011F928F938091CA011F9293
:100F30008F93DF92CF929F921F921F930F930E94E5
:100F4000260B0FB6F894DEBF0FBECDBFC8010E94BE
:100F50008A00F801C50111920197E9F788CF50582E
:100F6000BB27AA270E94C7070C947A090E946C0924
:100F700038F00E94730920F039F49F3F19F426F4E9
:100F80000C9469090EF4E095E7FB0C945509E92FE0
:100F90000E948B0958F3BA176207730784079507F5
:100FA00020F079F4A6F50C94AD090EF4E0950B2E23
:100FB000BA2FA02D0B01B90190010C01CA01A001AB
:100FC0001124FF27591B99F0593F50F4503E68F106
:100FD0001A16F040A22F232F342F4427585FF3CF47
:100FE000469537952795A795F0405395C9F77EF418
:100FF0001F16BA0B620B730B840BBAF09150A1F061
:10100000FF0FBB1F661F771F881FC2F70EC0BA0FE6
:10101000621F731F841F48F4879577956795B7956E
:10102000F7959E3F08F0B0CF9395880F08F0992769
:10103000EE0F9795879508950E9430080C947A09D1
:101040000E94730958F00E946C0940F029F45F3F38
:1010500029F00C94550951110C94AE090C946909AE
:101060000E948B0968F39923B1F3552391F3951BE3
:10107000550BBB27AA2762177307840738F09F5FB9
:101080005F4F220F331F441FAA1FA9F335D00E2E26
:101090003AF0E0E832D091505040E695001CCAF793
:1010A0002BD0FE2F29D0660F771F881FBB1F261756
:1010B00037074807AB07B0E809F0BB0B802DBF012D
:1010C000FF2793585F4F3AF09E3F510578F00C94FC
:1010D00055090C94AE095F3FE4F3983ED4F386952E
:1010E00077956795B795F7959F5FC9F7880F911D1D
:1010F0009695879597F90895E1E0660F771F881F09
:10110000BB1F621773078407BA0720F0621B730BBB
:10111000840BBA0BEE1F88F7E09508950E9495089E
:101120006894B1110C94AE0908950E94930988F057
:101130009F5798F0B92F9927B751B0F0E1F0660F9B
:10114000771F881F991F1AF0BA95C9F714C0B130DC
:1011500091F00E94AD09B1E008950C94AD09672F9C
:10116000782F8827B85F39F0B93FCCF3869577950B
:101170006795B395D9F73EF49095809570956195F4
:101180007F4F8F4F9F4F0895E89409C097FB3EF41F
:1011900090958095709561957F4F8F4F9F4F9923C4
:1011A000A9F0F92F96E9BB279395F6958795779542
:1011B0006795B795F111F8CFFAF4BB0F11F460FF02
:1011C0001BC06F5F7F4F8F4F9F4F16C0882311F05A
:1011D00096E911C0772321F09EE8872F762F05C06E
:1011E000662371F096E8862F70E060E02AF09A9509
:1011F000660F771F881FDAF7880F9695879597F9FE
:1012000008950E946C0920F019F00E94730950F4AF
:101210000C9469090C94AE09E92F0E948B0988F39C
:101220005523B1F3E7FB6217730784079507A8F10D
:1012300089F3E92FFF2788232AF03197660F771F5C
:10124000881FDAF7952F5527442332F091505040EC
:10125000220F331F441FD2F7BB27E91BF50B621B7C
:10126000730B840BB109B1F222F4620F731F841F58
:10127000B11D31972AF0660F771F881FBB1FEFCF74
:101280009150504062F041F0882332F0660F771F92
:10129000881F91505040C1F793950C945B09869537
:1012A000779567959F5FD9F7F7CF97F99F6780E8A4
:1012B00070E060E008959F3F31F0915020F48795F1
:1012C00077956795B795880F911D9695879597F9AE
:1012D00008959FEF80EC089500240A9416161706CF
:1012E00018060906089500240A9412161306140617
:1012F00005060895092E0394000C11F4882352F07A
:10130000BB0F40F4BF2B11F460FF04C06F5F7F4F31
:101310008F4F9F4F089557FD9058440F551F59F018
:101320005F3F71F04795880F97FB991F61F09F3FD2
:1013300079F087950895121613061406551FF2CFFB
:101340004695F1DF08C0161617061806991FF1CF4B
:1013500086957105610508940895E894BB27662772
:101360007727CB0197F908950E94C7090C947A0951
:101370000E946C0938F00E94730920F0952311F047
:101380000C9455090C94690911240C94AE090E941F
:101390008B0970F3959FC1F3950F50E0551F629F25
:1013A000F001729FBB27F00DB11D639FAA27F00DBE
:1013B000B11DAA1F649F6627B00DA11D661F829FE5
:1013C0002227B00DA11D621F739FB00DA11D621FCA
:1013D000839FA00D611D221F749F3327A00D611DE7
:1013E000231F849F600D211D822F762F6A2F1124C9
:1013F0009F5750409AF0F1F088234AF0EE0FFF1FFC
:10140000BB1F661F771F881F91505040A9F79E3F52
:10141000510580F00C9455090C94AE095F3FE4F33C
:10142000983ED4F3869577956795B795F795E795A8
:101430009F5FC1F7FE2B880F911D9695879597F9B1
:101440000895DB018F939F930E94720ABF91AF9121
:10145000A29F800D911DA39F900DB29F900D11240E
:101460000895A1E21A2EAA1BBB1BFD010DC0AA1FE5
:10147000BB1FEE1FFF1FA217B307E407F50720F0FD
:10148000A21BB30BE40BF50B661F771F881F991F78
:101490001A9469F760957095809590959B01AC01C1
:1014A000BD01CF010895052E97FB1EF400940E9404
:1014B0006A0A57FD07D00E94310A07FC03D04EF498
:1014C0000C946A0A50954095309521953F4F4F4FA7
:1014D0005F4F089590958095709561957F4F8F4FE0
:1014E0009F4F08950E947D0AA59F900DB49F900D77
:1014F000A49F800D911D11240895A29FB001B39F58
:10150000C001A39F700D811D1124911DB29F700D0C
:10151000811D1124911D0895662777270C94210DB4
:10152000FC0188279927E89421912032E9F329309A
:1015300010F02E30C8F32B3241F02D3239F468947C
:1015400004C00E941E0B820F911D219120532A304E
:10155000C0F31EF4909581959F4F08951F93FC0151
:1015600099278827BC01E89411911032E9F31930CA
:1015700010F01E30C8F31B3251F01D3249F468944C
:1015800006C00E94090B610F711D811D911D1191F3
:1015900010531A30B0F33EF4909580957095619594
:1015A0007F4F8F4F9F4F1F910895FC0181918617A8
:1015B00021F08823D9F7992708953197CF0108950D
:1015C000FB01DC014150504048F001900D92002099
:1015D000C9F701C01D9241505040E0F70895FB014A
:1015E00051915523A9F0BF01DC014D9145174111DF
:1015F000E1F759F4CD010190002049F04D914015DB
:101600004111C9F3FB014111EFCF81E090E0019757
:101610000895592F482F372F262F660F771F881FC1
:10162000991F660F771F881F991F620F731F841FF2
:10163000951F660F771F881F991F08957AE0979F5F
:10164000902D879F802D910D11240895AEE0B0E07C
:10165000ECE2FBE00C945E0F0D891E898F89988D5A
:1016600026E02C831A83098397FF02C080E090E86C
:1016700001979E838D83AE01455E5F4F698D7A8DA4
:10168000CE0101960E94560B4D815E8157FD0AC026
:101690002F813885421753070CF49A01020F131F4C
:1016A000F80110822E96E4E00C947A0FABE0B0E0E3
:1016B000ECE5FBE00C94500F7C013B018A01FC013E
:1016C00017821682838181FFB9C19AE0292ECE014B
:1016D00001965C01F7019381F30193FD859193FFDE
:1016E00081913F01882309F446C1853239F493FD85
:1016F000859193FF81913F01853229F4B70190E0F4
:101700000E94960EE7CF912C412C512CFFE1F5154C
:1017100038F08B3209F188F4803201F1833221F103
:1017200057FC3AC020ED280F2A3040F556FE1FC066
:10173000929C200D1124922E06C08D3291F08033A0
:1017400079F7689450F8F30193FD859193FF8191A7
:101750003F018111DBCF20C0689451F8689452F8A2
:10176000F2CF689453F8EFCF689454F8ECCF429CD2
:10177000200D1124422E689455F8E5CF8E3229F4BD
:1017800056FCF9C0689456F8DECF8C3619F468948C
:1017900057F8D9CF8836B9F2982F9F7D955493305A
:1017A000C0F08336A1F18337C1F1833509F05BC006
:1017B000F801C190D1908F01692D70E056FC02C0F4
:1017C0006FEF7FEFC6010E94800E4C01689457F8BE
:1017D0000AC00C5F1F4F2FE3298388248394912C28
:1017E0006501E89457F853FC04C04814190409F043
:1017F00018F5342C8114910431F5332009F46ACFA3
:10180000B70180E290E00E94960E3A94F6CFF8017C
:10181000808189830E5F1F4FE0CFF801C190D19086
:101820008F01692D70E056FC02C06FEF7FEFC6019B
:101830000E948B0E4C01D5CFB70180E290E00E9450
:10184000960E4A94D2CFF60157FC859157FE8191AE
:101850006F01B70190E00E94960E31103A94F1E0CA
:101860008F1A9108C7CF843619F0893609F074C0F1
:10187000F80157FE6AC061917191819191918F0138
:10188000252D2F76D22E97FF09C0909580957095C3
:1018900061957F4F8F4F9F4F6894D7F82AE030E0D3
:1018A000A5010E94C60EC82ECA188C2C5D2CD6FE2F
:1018B0000CC0E89450F8C91440F4D4FE05C0D2FC22
:1018C00003C0FD2DFE7E5F2E892C54FE8FC0FE01CD
:1018D000EC0DF11D8081803309F081C0252D297E1A
:1018E000522E852D8870382E53FC8FC050FE89C033
:1018F0009C2C841418F44C0C942C981854FE8BC017
:10190000B70180E390E00E94960E52FE09C088E77E
:1019100090E051FE02C088E590E0B7010E94960E6B
:10192000C91408F484C0CA94D12C9FEFC91AD90AEB
:10193000CA0CDB1CF60182916F01B70190E00E9496
:10194000960EAC14BD04B1F758CF61917191072E7A
:10195000000C880B990B93CFD52CE894D4F82AE08F
:1019600030E0853739F1952D997FD92E8F3601F1E9
:1019700048F48835A9F0F701868197812B96E2E13A
:101980000C946C0F803749F08837A9F7D4FE02C059
:101990006894D2F820E130E00DC06894D4F8F6CF16
:1019A00054FE03C0E92FE660DE2E20E132E002C0E3
:1019B00028E030E0F801D7FE0DC06191719181916E
:1019C00091918F01A5010E94C60EC82ECA18E894F5
:1019D000D7F86BCF6191719190E080E0F2CF52FC2B
:1019E00002C083947ECF839483947BCF852D8678A9
:1019F00009F477CFF6CFB70180E290E00E94960E0F
:101A000083948414C0F3312C79CF342C3818841487
:101A100008F474CFF8CF852D867809F481CF8BE256
:101A200051FE80E257FC8DE2B70190E077CFB7011D
:101A300080E390E00E94960E9A9472CF8FEF9FEF12
:101A40009DCFB0E0A0E0E7E2FDE00C94560F7C01F2
:101A50006B016115710519F0FB0191838083E7012A
:101A60000991802F90E00E945F0E5C01892BB1F5F7
:101A70000D32B1F50881E701229611E07E01F1E017
:101A8000EF1AF10843E050E060E770E0C7010E9400
:101A9000680E892B61F57E0182E0E80EF11C45E0BD
:101AA00050E06BE670E0C7010E94680E892B21F4BC
:101AB0007E0197E0E90EF11CC114D10419F0F60182
:101AC000F182E08260E070E080E89FE7112309F492
:101AD000F1C060E070E080E89FEFECC07E01BFCF16
:101AE0000B3219F40881E701229610E0C7CF43E0DA
:101AF00050E068E670E0C7010E94680E892B61F42F
:101B0000C114D10421F02296F601D183C08360E094
:101B100070E080EC9FE7CEC0F12CE12C20E030E0BB
:101B2000A901F0EDF00FFA3058F5E12FE260812FB6
:101B3000887012FF08C0811103C0FFEFEF1AFF0A7F
:101B400009911E2FEECF882319F081E0E81AF108E1
:101B5000A5E0B0E00E94720A9B01AC01220F331F86
:101B6000441F551F2F0F311D411D511D283999E963
:101B70003907490799E1590718F3E12FE660E0CFEB
:101B8000FE3F29F413FD3AC0E12FE860D9CF0F7D65
:101B90000534A1F588818D3241F41061BE016E5F7C
:101BA0007F4F8981E2E0F0E007C0BE018B32B9F3DC
:101BB0006F5F7F4FE1E0F0E08053EB01CE1BDF0B66
:101BC0008A30E0F4E0E8AE16ECE0BE065CF4F50125
:101BD000EE0FFF1FEE0FFF1FAE0EBF1EAA0CBB1CA9
:101BE000A80EB11CEB01899180538A3090F114FF4B
:101BF00003C0B194A194B108EA0CFB1C11FF07C00B
:101C0000C114D10421F02197F601D183C083CA0108
:101C1000B9010E94C4081370133009F490584B01A5
:101C20005C0120E030E0A9010E94240F882309F420
:101C30003FC0CFE9D0E0F7FE05C0F194E194F10890
:101C4000C7E8D0E06E01F8E1CF1AD10800E210E059
:101C50000FC0BE01B7CFFE0125913591459154913A
:101C6000E01AF10AC501B4010E94B4094B015C01FC
:101C7000D501C401E016F10674F724971595079570
:101C8000CC15DD05A9F78A2F880F8B2F881F8F3F72
:101C900049F020E030E0A901C501B4010E94240F01
:101CA000811106C082E290E09093CF028093CE0231
:101CB000C501B401CDB7DEB7ECE00C94720F911101
:101CC0000C944D0F803219F089508550C8F7089553
:101CD000FB01DC014150504088F08D9181341CF0B3
:101CE0008B350CF4805E659161341CF06B350CF41F
:101CF000605E861B611171F3990B0895881BFCCF00
:101D0000FC010590615070400110D8F780959095C6
:101D10008E0F9F1F0895FC016150704001900110CB
:101D2000D8F7809590958E0F9F1F08950F931F935E
:101D3000CF93DF93182F092FEB018B8181FD09C011
:101D40001FEF0FEF812F902FDF91CF911F910F91F8
:101D5000089582FF14C02E813F818C819D812817B8
:101D600039073CF4E881F981CF0101969983888392
:101D700010838E819F8101969F838E83E3CFE885B8
:101D8000F985812F0995892BA1F3DACFFA01AA27CA
:101D9000283051F1203181F1E8946F936E7F6E5FAE
:101DA0007F4F8F4F9F4FAF4FB1E03ED0B4E03CD05C
:101DB000670F781F891F9A1FA11D680F791F8A1F3F
:101DC000911DA11D6A0F711D811D911DA11D20D0A6
:101DD00009F468943F912AE0269F11243019305D60
:101DE0003193DEF6CF010895462F4770405D419351
:101DF000B3E00FD0C9F7F6CF462F4F70405D4A339E
:101E000018F0495D31FD4052419302D0A9F7EACF65
:101E1000B4E0A6959795879577956795BA95C9F794
:101E200000976105710508959B01AC010A2E069487
:101E30005795479537952795BA95C9F7620F731F40
:101E4000841F951FA01D08950E94290F08F481E0AA
:101E50000895990F0008550FAA0BE0E8FEEF16163B
:101E60001706E807F907C0F012161306E407F5078E
:101E700098F0621B730B840B950B39F40A2661F002
:101E8000232B242B252B21F408950A2609F4A140A5
:101E9000A6958FEF811D811D0895992788270895A4
:101EA0002F923F924F925F926F927F928F929F926A
:101EB000AF92BF92CF92DF92EF92FF920F931F9358
:101EC000CF93DF93CDB7DEB7CA1BDB0B0FB6F89409
:101ED000DEBF0FBECDBF09942A88398848885F8449
:101EE0006E847D848C849B84AA84B984C884DF80BA
:101EF000EE80FD800C811B81AA81B981CE0FD11D9E
:101F00000FB6F894DEBF0FBECDBFED010895F89473
:021F1000FFCF01
:101F1200446174653A204461793A2025752C204D3C
:101F22006F6E74683A2025752C20596561723A20CB
:101F320025752C200D0A54696D653A2025753A25C0
:101F4200753A25750D0A4C6F636174696F6E3A209C
:101F5200256625632C20256625632C204669783A60
:101F62002025640D0A2C20466978207175616C6900
:101F720074793A2025752C204E756D205361746555
:101F82006C6C697465733A2025750D0A00244750FC
:0C1F920047474100244750524D430000D7
:00000001FF
