:100000000C9485040C94A2040C94A2040C94A204F5
:100010000C94A2040C94A2040C94A2040C94A204C8
:100020000C94A2040C94A2040C94A2040C94A204B8
:100030000C94A2040C94A2040C94A2040C94A204A8
:100040000C94A2040C94A2040C94A2040C94A20498
:100050000C94A2040C94A2040C94A2040C94A20488
:100060000C94A2040C94A204084AD73B3BCE016E28
:1000700084BCBFFDC12F3D6C74319ABD56833DDAFF
:100080003D00C77F11BED9E4BB4C3E916BAAAABE0E
:10009000000000803F05A84CCDB2D44EB93836A937
:1000A000020C50B9918688083CA6AAAA2ABE000074
:1000B00000803F004E414E494E495459494E46CD6D
:1000C000CCCC3D0AD7233C17B7D13877CC2B32950F
:1000D00095E6241FB14F0A000020410000C84200ED
:1000E000401C4620BCBE4CCA1B0E5AAEC59D7400B7
:1000F000407A10F35A00A0724E18090010A5D4E8F7
:100100000000E87648170000E40B54020000CA9A89
:100110003B000000E1F505000080969800000040DB
:10012000420F000000A08601000000102700000020
:1001300000E803000000006400000000000A000066
:100140000000000100000000002C76D888DC674F1A
:100150000823DFC1DFAE59E1B1B796E5E3E453C64A
:100160003AE651997696E8E6C28426EB898C9B6242
:10017000ED407C6FFCEFBC9C9F40F2BAA56FA5F4EC
:1001800090055A2AF75C936B6CF9676DC11BFCE014
:10019000E40D47FEF520E6B500D0ED902E03009467
:1001A0003577050080841E080000204E0A000000FC
:1001B000C80C333333330F986E12831141EF8D2106
:1001C00014893BE65516CFFEE6DB18D1844B381B6D
:1001D000F77C1D901DA4BBE424203284725E228132
:1001E00000C9F124ECA1E53D2772023A027E0246E5
:1001F0000288025002F1035C02FB015468616E6BDD
:1002000020796F7520666F7220706C6179696E67F6
:100210002E20576520686F706520796F75202065E6
:100220006E6A6F796564206F757220454534353983
:100230002070726F6A65637421002D3131382E325F
:1002400038383532300033342E30323031333400E8
:1002500048656C6C6F204E65696C2E004E65696C4C
:100260002041726D7374726F6E6720537461747580
:1002700065002D3131382E32383931313400333484
:100280002E3032303530360031546869732069734E
:10029000206120666F756E7461696E2E32546869D4
:1002A00073206973206120666F756E7461696E2EAC
:1002B0003354686973206973206120666F756E74AA
:1002C00061696E2E345468697320697320612066F9
:1002D0006F756E7461696E2E355468697320697329
:1002E000206120666F756E7461696E2E3654686980
:1002F00073206973206120666F756E7461696E2E5C
:100300003754686973206973206120666F756E7455
:1003100061696E2E385468697320697320612066A4
:100320006F756E7461696E2E3954686973206973D4
:10033000206120666F756E7461696E2E3054686935
:1003400073206973206120666F756E7461696E2E0B
:100350003154686973206973206120666F756E740B
:1003600061696E2E3254686973206973206120665A
:100370006F756E7461696E2E33546869732069738A
:10038000206120666F756E7461696E2E34546869E1
:1003900073206973206120666F756E7461696E2EBB
:1003A0003554686973206973206120666F756E74B7
:1003B00061696E2E36546869732069732061206606
:1003C0006F756E7461696E2E375468697320697336
:1003D000206120666F756E7461696E2E385468698D
:1003E00073206973206120666F756E7461696E2E6B
:1003F000005669746572626920452D7175616420CB
:10040000466F756E7461696E0000000000003E5B0F
:100410004F5B3E3E6B4F6B3E1C3E7C3E1C183C7E51
:100420003C181C577D571C1C5E7F5E1C00183C1836
:1004300000FFE7C3E7FF0018241800FFE7DBE7FF32
:1004400030483A060E2629792926407F05050740BF
:100450007F05253F5A3CE73C5A7F3E1C1C08081C80
:100460001C3E7F14227F22145F5F005F5F06097FBE
:10047000017F006689956A606060606094A2FFA257
:100480009408047E040810207E201008082A1C0806
:10049000081C2A08081E101010100C1E0C1E0C3010
:1004A000383E3830060E3E0E060000000000000008
:1004B0005F00000007000700147F147F14242A7FC8
:1004C0002A12231308646236495620500008070395
:1004D00000001C2241000041221C002A1C7F1C2A13
:1004E00008083E0808008070300008080808080066
:1004F0000060600020100804023E5149453E004261
:100500007F400072494949462141494D3318141230
:100510007F1027454545393C4A4949314121110958
:10052000073649494936464949291E00001400004A
:100530000040340000000814224114141414140064
:100540004122140802015909063E415D594E7C12B0
:1005500011127C7F494949363E414141227F414148
:10056000413E7F494949417F090909013E414151C5
:10057000737F0808087F00417F41002040413F0110
:100580007F081422417F404040407F021C027F7F51
:100590000408107F3E4141413E7F090909063E4162
:1005A00051215E7F09192946264949493203017FB5
:1005B00001033F4040403F1F2040201F3F40384044
:1005C0003F631408146303047804036159494D43DD
:1005D000007F4141410204081020004141417F0455
:1005E000020102044040404040000307080020543C
:1005F0005478407F2844443838444444283844449C
:10060000287F385454541800087E090218A4A49C6A
:10061000787F0804047800447D40002040403D007D
:100620007F1028440000417F40007C047804787CDF
:10063000080404783844444438FC18242418182446
:100640002418FC7C08040408485454542404043F2F
:1006500044243C4040207C1C2040201C3C40304036
:100660003C44281028444C9090907C4464544C4462
:100670000008364100000077000000413608000203
:10068000010204023C2623263C1EA1A161123A402D
:1006900040207A38545455592155557941225454A3
:1006A0007842215554784020545579400C1E52729E
:1006B000123955555559395454545939555454587B
:1006C0000000457C410002457D420001457C407DA3
:1006D0001211127DF0282528F07C54554500205435
:1006E000547C547C0A097F4932494949323A44448E
:1006F000443A324A4848303A4141217A3A4240200D
:1007000078009DA0A07D3D4242423D3D4040403D9D
:100710003C24FF2424487E4943662B2FFC2F2BFFCB
:100720000929F620C0887E0903205454794100002D
:10073000447D413048484A32384040227A007A0AA3
:100740000A727D0D19317D2629292F28262929296C
:100750002630484D4020380808080808080808389E
:100760002F10C8ACBA2F102834FA00007B00000804
:10077000142A142222142A14085500550055AA558B
:10078000AA55AAFF55FF55FF000000FF00101010EA
:10079000FF00141414FF001010FF00FF1010F010E1
:1007A000F0141414FC001414F700FF0000FF00FF05
:1007B0001414F404FC141417101F10101F101F142D
:1007C00014141F00101010F0000000001F10101073
:1007D000101F10101010F010000000FF101010106B
:1007E0001010101010FF10000000FF140000FF0098
:1007F000FF00001F10170000FC04F414141710175A
:100800001414F404F40000FF00F714141414141466
:1008100014F700F7141414171410101F101F1414D9
:1008200014F4141010F010F000001F101F0000004E
:100830001F14000000FC140000F010F01010FF1056
:10084000FF141414FF141010101F00000000F0100B
:10085000FFFFFFFFFFF0F0F0F0F0FFFFFF000000F0
:100860000000FFFF0F0F0F0F0F3844443844FC4ABD
:100870004A4A347E02020606027E027E026355491F
:1008800041633844443C04407E201E2006027E0220
:100890000299A5E7A5991C2A492A1C4C7201724CA1
:1008A000304A4D4D303048784830BC625A463D3E63
:1008B000494949007E0101017E2A2A2A2A2A444404
:1008C0005F444440514A444040444A51400000FF84
:1008D0000103E080FF000008086B6B083612362425
:1008E00036060F090F06000018180000001010004F
:1008F0003040FF0101001F01011E00191D171200E9
:100900003C3C3C3C00000000000011241FBECFEF27
:10091000D8E0DEBFCDBF11E0A0E0B1E0E2E1FFE44E
:1009200002C005900D92A43FB107D9F726E0A4EFCD
:10093000B1E001C01D92A139B207E1F70E94C719C9
:100940000C9487270C940000CF9310922F0382E021
:1009500080930802ECE5F5E08EE1DF011D928A95B7
:10096000E9F7E5EFF1E0659174918CE595E00E947F
:10097000B620EEE9F3E089E691E0DF019C011D92EB
:1009800021503040E1F7E0912F03F0E0EE0FFF1F20
:10099000EF50FE4F659174918EE993E00E94B6206E
:1009A000CFE0E5E6F3E0DF012C2F1D922A95E9F771
:1009B000E0912F03F0E0EE0FFF1FE351FE4F659132
:1009C000749185E693E00E94B620EFE7F3E0DF0143
:1009D0001D92CA95E9F7E0912F03F0E0EE0FFF1F9B
:1009E000E751FE4F659174918FE793E00E94B62026
:1009F00085E693E00E946D206093940370939503C5
:100A000080939603909397038FE793E00E946D2065
:100A100060933005709331058093320590933305D0
:100A2000CF910895CF93DF93E0912F03EF5FE09391
:100A30002F03ACE5B5E08EE1ED0119928A95E9F757
:100A4000F0E0EE0FFF1FEB50FE4F65917491CD016A
:100A50000E94B620EEE9F3E089E691E0DF01EC01C7
:100A60001D922197E9F7E0912F03F0E0EE0FFF1FB1
:100A7000EF50FE4F659174918EE993E00E94B6208D
:100A8000CFE0E5E6F3E0DF01DC2F1D92DA95E9F730
:100A9000E0912F03F0E0EE0FFF1FE351FE4F659151
:100AA000749185E693E00E94B620EFE7F3E0DF0162
:100AB0001D92CA95E9F7E0912F03F0E0EE0FFF1FBA
:100AC000E751FE4F659174918FE793E00E94B62045
:100AD00085E693E00E946D206093940370939503E4
:100AE00080939603909397038FE793E00E946D2085
:100AF00060933005709331058093320590933305F0
:100B0000DF91CF9108950F931F934091F60150917B
:100B1000F7016091F8017091F90140930C02509334
:100B20000D0260930E0270930F0280912B0390913F
:100B30002C03A0912D03B0912E038093200390935A
:100B40002103A0932203B093230320915B05233557
:100B500049F4705840930C0250930D0260930E02BA
:100B600070930F0220919D03273549F4B05880936C
:100B7000200390932103A0932203B0932303609159
:100B80000C0270910D0280910E0290910F020BE702
:100B900015E027E04AE00E944F2060912003709109
:100BA0002103809122039091230309E315E027E0BC
:100BB0004AE00E944F201F910F9108954F925F923B
:100BC0006F927F928F929F92AF92BF92CF92DF925D
:100BD000EF92FF920F931F93CF93DF93CDB7DEB7C2
:100BE00064970FB6F894DEBF0FBECDBF8091340579
:100BF000882309F46BC280900C0290900D02A090A3
:100C00000E02B0900F022BED3FE049E450E4C50125
:100C1000B4010E941A1F20E030E044E353E40E9434
:100C2000EB1C6D877E878F87988B80912003909136
:100C30002103A0912203B091230389839A83AB837C
:100C4000BC83C0909403D0909503E0909603F090FD
:100C500097032BED3FE049E450E4C701B6010E9441
:100C60001A1F20E030E044E353E40E94EB1C698B40
:100C70007A8B8B8B9C8B4090300550903105609027
:100C8000320570903305A5019401C701B6010E9499
:100C9000021C2BED3FE049E450E40E941A1F20E0C3
:100CA00030E044E353E40E94EB1C20E030E040E0FD
:100CB0005FE30E941A1F0E94871F6B017C016D85F4
:100CC0007E858F8598890E94E61C69877A878B8745
:100CD0009C8769897A898B899C890E94E61C6D832F
:100CE0007E838F83988729813A814B815C81C30100
:100CF000B2010E94021C2BED3FE049E450E40E9447
:100D00001A1F20E030E044E353E40E94EB1C20E093
:100D100030E040E05FE30E941A1F0E94871F4B01F2
:100D20005C012D813E814F81588569857A858B854F
:100D30009C850E941A1FA50194010E941A1FA501FB
:100D400094010E941A1F4B015C01A7019601C70183
:100D5000B6010E941A1F9B01AC01C501B4010E949B
:100D6000031C6B017C01AC019B0160E070E080E83A
:100D70009FE30E94021C0E94951F4B015C01C7016A
:100D8000B6010E94951FA50194010E94821C9B013F
:100D9000AC010E94031C20E73DE642EC5AE40E94AD
:100DA0001A1F28E439EF41E550E40E941A1F0E94FF
:100DB0005D1D70930B0260930A02072E000C880BD6
:100DC000990B0E94951D0AE415E020E041E00E9485
:100DD0004F202BED3FE049E450E4C301B2010E94F3
:100DE0001A1F20E030E044E353E40E94EB1C6B0147
:100DF0007C012BED3FE049E450E469817A818B81ED
:100E00009C810E941A1F20E030E044E353E40E94DA
:100E1000EB1C9B01AC01C701B6010E94021C6B01D7
:100E20007C010E94871F2B013C0169897A898B898B
:100E30009C890E94871F4B015C016D857E858F8593
:100E400098890E94871F69837A838B839C83C7015B
:100E5000B6010E94E61C6B017C01A30192016D8129
:100E60007E818F8198850E941A1F2B013C01A5016C
:100E7000940169857A858B859C850E941A1F4B0198
:100E80005C0129813A814B815C816D817E818F81FA
:100E900098850E941A1FA70196010E941A1F9B01A4
:100EA000AC01C501B4010E94021CA30192010E9481
:100EB000821C20E030E044E353E40E941A1F2BED33
:100EC0003FE049E450E40E94EB1C609354057093AA
:100ED000550580935605909357050AE015E027E0E5
:100EE0004AE00E944F20C0905405D0905505E090F4
:100EF0005605F090570520E030E044EB51ECC70177
:100F0000B6010E940D1F181654F520E030E044EBA6
:100F100051E4C701B6010E94E11C181604F11092B9
:100F20000805109207056AE171E087E293E0649694
:100F30000FB6F894DEBF0FBECDBFDF91CF911F91EA
:100F40000F91FF90EF90DF90CF90BF90AF909F9068
:100F50008F907F906F905F904F900C94C82020E00E
:100F600030E044EB51E4C701B6010E940D1F181692
:100F70009CF420E030E047E852E4C701B6010E944B
:100F8000E11C18164CF081E090E0909308058093E6
:100F900007056DE171E0C9CF20E030E047E852E499
:100FA000C701B6010E940D1F18169CF420E030E026
:100FB00041EE52E4C701B6010E94E11C18164CF044
:100FC00082E090E0909308058093070560E271E06D
:100FD000ACCF20E030E041EE52E4C701B6010E9400
:100FE0000D1F18169CF420E030E84DE153E4C701D2
:100FF000B6010E94E11C18164CF083E090E090933B
:1010000008058093070563E271E08FCF20E030E8A8
:101010004DE153E4C701B6010E940D1F181654F0AC
:1010200020E030E84DE153ECC701B6010E94E11C1D
:1010300018164CF084E090E0909308058093070523
:1010400066E271E072CF20E030E84DE153ECC70179
:10105000B6010E940D1F18169CF420E030E041EE0E
:1010600052ECC701B6010E94E11C18164CF085E055
:1010700090E0909308058093070569E271E055CFF1
:1010800020E030E041EE52ECC701B6010E940D1F96
:1010900018169CF420E030E047E852ECC701B60196
:1010A0000E94E11C18164CF086E090E09093080531
:1010B000809307056CE271E038CF87E090E0909371
:1010C0000805809307056FE271E02FCF64960FB695
:1010D000F894DEBF0FBECDBFDF91CF911F910F916E
:1010E000FF90EF90DF90CF90BF90AF909F908F9048
:1010F0007F906F905F904F900895EF92FF920F93C3
:101100001F93CF93DF9380913405811132C00091FA
:1011100058051091590524E130E04CED50E06AE0AB
:1011200070E08AE090E00E94141062E371E081E3D5
:1011300093E00E94C8200091480510914905EE24D3
:10114000E3942CE030E04CE050E062E370E081E3B7
:1011500093E00E94B111E1E3F3E08DE2DF011D9223
:101160008A95E9F7DF91CF911F910F91FF90EF9052
:1011700008958CE595E09F938F9385E591E09F938B
:101180008F931F928DE2F82EFF92C1E3D3E0DF939D
:10119000CF930E941521009158051091590524E123
:1011A00030E04CED50E06AE070E08AE090E00E94B0
:1011B00014100091480510914905EE24E3942CE0A9
:1011C00030E04CE050E062E370E0CE010E94B111EB
:1011D000DE01EF2D1D92EA95E9F78FE793E09F93EB
:1011E0008F9385E693E09F938F9387E491E09F939D
:1011F0008F931F92FF92DF93CF930E94152100914E
:1012000058051091590528E230E04CED50E06EE1B0
:1012100070E08AE090E00E9414100091480510915F
:10122000490520E230E04CE050E062E370E0CE019E
:101230000E94B111DE01EF2D1D92EA95E9F789E3D5
:1012400095E09F938F938BE795E09F938F9388E52D
:1012500091E09F938F931F92FF92DF93CF930E9411
:10126000152100915805109159052CE330E04CED03
:1012700050E062E370E08AE090E00E941410009178
:1012800048051091490524E330E04CE050E062E36A
:1012900070E0CE010E94B111DE01EF2D1D92EA95A2
:1012A000E9F78AE495E09F938F9387E293E09F9319
:1012B0008F9389E691E09F938F931F92FF92DF9324
:1012C000CF930E941521ADB7BEB796960FB6F8948E
:1012D000BEBF0FBEADBF009158051091590520E566
:1012E00030E04CED50E066E470E08AE090E00E946F
:1012F0001410009148051091490528E430E04CE0B5
:1013000050E062E370E0CE010E94B111FE01119243
:10131000FA94E9F700915805109159052AEF30E049
:101320004AEA50E066E970E086E490E00E9414101A
:101330006091050270910602809107059091080561
:10134000DF91CF911F910F91FF90EF900C94ED14CE
:10135000CF92DF92EF92FF920F931F93CF93DF9381
:1013600000D00F92CDB7DEB78091290590912A0564
:101370009C01225531408E010F5F1F4F27313105EF
:1013800030F02F5A3E4F2631310508F049C06AE14E
:1013900071E0C8010E94C8201F930F938EE791E06F
:1013A0009F938F931F928DE2F82EFF9291E3C92EA7
:1013B00093E0D92EDF92CF920E941521009158051B
:1013C0001091590524E630E04CED50E06AE570E0FC
:1013D0008AE090E00E9414100091480510914905A0
:1013E000EE24E3942CE530E04CE050E062E370E062
:1013F000C6010E94B111F6011192FA94E9F70FB6F5
:10140000F894DEBF0FBECDBF0F900F900F90DF910D
:10141000CF911F910F91FF90EF90DF90CF900895A3
:101420009C01275131096DE171E02D32310508F43D
:10143000B0CF9C012454310960E271E02D323105B6
:1014400008F4A7CF8157910963E271E08D9708F402
:10145000A0CF66E271E09DCFEF92FF920F931F93B2
:10146000CF93DF938091370540E06FEF882309F435
:1014700086C08FEF0E94C6108C012FE331E04FEE43
:1014800050E06AEF70E08CE890E00E9414108091C8
:1014900037051F928F9387E991E09F938F931F9257
:1014A0008DE2F82EFF92C1E3D3E0DF93CF930E9449
:1014B00015210091FD011091FE0124E031E04CE87E
:1014C00050E06AEF70E08AE090E00E941410009112
:1014D000480510914905EE24E3942CEF30E04CE0F0
:1014E00050E062E370E0CE010E94B111FE018F2D49
:1014F00011928A95E9F7809191038F9380919003DF
:101500008F9380917B038F9380917A038F938AEAE4
:1015100091E09F938F931F92FF92DF93CF930E944E
:1015200015210091FD011091FE0128E131E04CE808
:1015300050E06EE071E08AE090E00E9414100091AB
:1015400048051091490520E131E04CE050E062E3AC
:1015500070E0CE010E94B111FE011192FA94E9F7F8
:101560008DB79EB742960FB6F8949EBF0FBE8DBF43
:10157000DF91CF911F910F91FF90EF90089580E040
:1015800079CFEF92FF920F931F93CF93DF938CE568
:1015900095E09F938F9385E591E09F938F931F92A2
:1015A0008DE2F82EFF92C1E3D3E0DF93CF930E9448
:1015B0001521009158051091590524E130E04CEDBA
:1015C00050E06AE070E08AE090E00E941410009120
:1015D000480510914905EE24E3942CE030E04CE0FE
:1015E00050E062E370E0CE010E94B111FE01119261
:1015F000FA94E9F7009158051091590528E230E076
:101600004CED50E06EE170E08AE090E00E94141032
:1016100000915805109159052CE330E04CED50E055
:1016200062E370E08AE090E00E9414100091580597
:101630001091590520E530E04CED50E066E470E093
:101640008AE090E00E94141000915805109159050D
:1016500024E630E04CED50E06AE570E08AE090E08E
:101660000E94141000915805109159052AEF30E09E
:101670004AEA50E066E970E086E490E00E941410C7
:101680008DB79EB708960FB6F8949EBF0FBE8DBF5C
:10169000DF91CF911F910F91FF90EF9008958FE20E
:1016A00090E09093C5008093C400E1ECF0E080816D
:1016B0008860808380818061808386E08093C2001F
:1016C00008959091C00095FFFCCF8093C6000895C7
:1016D0000F931F93CF93DF938C01D0E0C0E0F8010C
:1016E00001900020E9F73197E01BF10BCE17DF07DF
:1016F00028F0DF91CF911F910F91089583E397E038
:101700000197F1F7F801EC0FFD1F80810E94610B3A
:101710002196E5CF8091C00087FFFCCF8091C60065
:1017200008958A3009F5E091F40120918D063091F9
:101730008E06E20FF32FF11D108220918D0630915D
:101740008E0695E02D39390729F545E156E050938D
:101750008E0640938D0630939B0520939A05109238
:10176000F40191E090939C0520918D0630918E06B6
:10177000E091F40191E09E0F9093F401E20FF32FBA
:10178000F11D80839091F401983718F097E79093BA
:10179000F40108952DE935E030938E0620938D06EF
:1017A00025E136E0D8CF10929C051092F5011092F9
:1017B000F4018DE995E090938E0680938D0685E186
:1017C00096E090939B0580939A05109209051092DC
:1017D000FB01109238051092070210923605109204
:1017E0002B0510922A0310927E0310929D031092F3
:1017F0005B051092340510927903109278030895D6
:1018000080919C05089510929C0580919A05909175
:101810009B050895803354F08A3314F4805308955F
:101820009FEB980F963010F48753089580E0089549
:101830004F925F926F927F928F929F92AF92BF92E0
:10184000CF92DF92EF92FF920F931F93CF93DF938C
:10185000CDB7DEB72A970FB6F894DEBF0FBECDBF67
:101860007C01FC0101900020E9F73197E81BF90B9E
:101870006F0184E0C81AD108D701AC0DBD1D8C9151
:101880008A3209F03FC087010E0F1F1FF8013397FE
:1018900080810E940A0C90E1899F50011124F80177
:1018A000329780810E940A0C8A0D9B2D911D42E087
:1018B000242F30E02C153D05D0F0892B19F180E064
:1018C0002A960FB6F894DEBF0FBECDBFDF91CF9141
:1018D0001F910F91FF90EF90DF90CF90BF90AF904E
:1018E0009F908F907F906F905F904F9008952E0DF6
:1018F0003F1DF9012081022E000C330B8227932714
:101900004F5FD6CF65EE71E0C7010E94DE20892BC4
:1019100009F44FC16CE270E0C7010E94BD208C0148
:101920000F5F1F4FC8010E946D206B017C010E9458
:10193000641D2B013C0120E137E240E050E00E94B1
:10194000F41F20937E0344E6842E912CA12CB12C0D
:10195000A50194010E94F41F20932A03C301B20140
:10196000A50194010E94F41F60932B0520E030E054
:1019700040E85FE3C701B6010E94DB1D20E030E0D4
:101980004AE754E40E941A1F0E94641D7093790371
:10199000609378036CE270E0C8010E94BD207C0176
:1019A0008C010F5F1F4FFC0181818C3209F455C0FF
:1019B00042E050E0B801CE0101960E94CF201B8288
:1019C000CE0101960E948F204B015C01B7016D5F33
:1019D0007F4F42E050E0CE0101960E94CF200B5F86
:1019E0001F4F44E050E0B801CE0103960E94CF2083
:1019F0001F82CE0101960E948F209B01AC01A2E3C1
:101A0000B0E00E94442023E030E040E050E00E943B
:101A10001620CA01B9010E94951D2CE933E549EC55
:101A200056E30E941A1F20E030E040E752E40E9493
:101A3000EB1C6B017C01C501B4010E94951D9B014B
:101A4000AC01C701B6010E94031C6093F6017093BC
:101A5000F7018093F8019093F9016CE270E0C801FE
:101A60000E94BD209C012F5F3F4FFC0191819C3261
:101A700029F09E3409F08FC090935B056CE270E012
:101A8000C9010E94BD207C018C010F5F1F4FFC012A
:101A900081818C3209F455C043E050E0B801CE0199
:101AA00001960E94CF201C82CE0101960E948F20B9
:101AB0004B015C01B7016C5F7F4F42E050E0CE010B
:101AC00001960E94CF200A5F1F4F44E050E0B8010A
:101AD000CE0103960E94CF201F82CE0101960E9464
:101AE0008F209B01AC01A2E3B0E00E94442023E0E0
:101AF00030E040E050E00E941620CA01B9010E9487
:101B0000951D2CE933E549EC56E30E941A1F20E0AD
:101B100030E040E752E40E94EB1C6B017C01C50100
:101B2000B4010E94951D9B01AC01C701B6010E9442
:101B3000031C60932B0370932C0380932D039093CD
:101B40002E036CE270E0C8010E94BD20FC0191816F
:101B50009C3221F0973519F590939D036CE270E06B
:101B6000CF0101960E94BD208C010F5F1F4FFC0129
:101B700081818C3229F0C8010E9471208093FB0181
:101B80006CE270E0C8010E94BD20FC0121812C3272
:101B900051F481E095CE933509F091CE6DCF953417
:101BA00009F08DCED9CF01960E947120809309054E
:101BB000F0CF6CEE71E0C7010E94DE20892B09F4A2
:101BC0007ECE6CE270E0C7010E94BD208C010F5FE9
:101BD0001F4FC8010E946D206B017C010E94641D93
:101BE0002B013C0120E137E240E050E00E94F41F6D
:101BF00020937E0334E6832E912CA12CB12CA501D9
:101C000094010E94F41F20932A03C301B201A5018D
:101C100094010E94F41F60932B0520E030E040E81F
:101C20005FE3C701B6010E94DB1D20E030E04AE718
:101C300054E40E941A1F0E94641D709379036093FC
:101C400078036CE270E0C8010E94BD20FC01218194
:101C5000213409F020C121E0209334056CE270E0CA
:101C600001960E94BD207C018C010F5F1F4FFC017B
:101C700081818C3209F455C042E050E0B801CE01B8
:101C800001960E94CF201B82CE0101960E948F20D8
:101C90004B015C01B7016D5F7F4F42E050E0CE0128
:101CA00001960E94CF200B5F1F4F44E050E0B80127
:101CB000CE0103960E94CF201F82CE0101960E9482
:101CC0008F209B01AC01A2E3B0E00E94442023E0FE
:101CD00030E040E050E00E941620CA01B9010E94A5
:101CE000951D2CE933E549EC56E30E941A1F20E0CC
:101CF00030E040E752E40E94EB1C6B017C01C5011F
:101D0000B4010E94951D9B01AC01C701B6010E9460
:101D1000031C6093F6017093F7018093F801909390
:101D2000F9016CE270E0C8010E94BD209C012F5FA8
:101D30003F4FFC0191819C3229F09E3409F0B1C0E3
:101D400090935B056CE270E0C9010E94BD207C01AC
:101D50008C010F5F1F4FFC0181818C3209F455C04B
:101D600043E050E0B801CE0101960E94CF201C82D2
:101D7000CE0101960E948F204B015C01B7016C5F80
:101D80007F4F42E050E0CE0101960E94CF200A5FD3
:101D90001F4F44E050E0B801CE0103960E94CF20CF
:101DA0001F82CE0101960E948F209B01AC01A2E30D
:101DB000B0E00E94442023E030E040E050E00E9488
:101DC0001620CA01B9010E94951D2CE933E549ECA2
:101DD00056E30E941A1F20E030E040E752E40E94E0
:101DE000EB1C6B017C01C501B4010E94951D9B0198
:101DF000AC01C701B6010E94031C60932B037093D2
:101E00002C0380932D0390932E036CE270E0C801A5
:101E10000E94BD20FC0191819C3229F0973509F088
:101E200044C090939D036CE270E0CF0101960E9444
:101E3000BD206CE270E001960E94BD206CE270E073
:101E400001960E94BD20FC0121812C3209F4A1CE13
:101E500001960E946D200E94641D4B015C0120E1EF
:101E600037E240E050E00E94F41F2093380524E65A
:101E7000C22ED12CE12CF12CA70196010E94F41F57
:101E800020930702C501B401A70196010E94F41F27
:101E9000609336057ECE263509F011CD10923405BB
:101EA000DDCE933509F00BCD4BCF953409F007CD3E
:101EB000B8CFCF930E948A0B8432E1F70E94910B36
:101EC0000E948A0BC82F0E94910BCA30C9F78091DB
:101ED0009C05882379F310929C0580919A05909136
:101EE0009B050E94180C882329F3CF91089525B1F2
:101EF000982F9370922B95B925B1982F9C6F9223B0
:101F000095B92BB1982F9C7F922B9BB99BB1836085
:101F100089238BB94198419A08950F931F93CF93CA
:101F2000DF93EA01162F072F439842980E94770FFC
:101F3000429A802F0E94770F812F0E94770F8D2F5A
:101F40000E94770F8C2F0E94770F439ADF91CF91D9
:101F50001F910F9108950F931F93CF93DF938B01E0
:101F6000E901B0E0A0E0DC019927882770E060E09B
:101F7000482B592B6A2B7B2B8AE20E948D0FC801BC
:101F8000B0E0A0E0DC0199278827AE0170E060E0B6
:101F9000482B592B6A2B7B2B8BE2DF91CF911F9122
:101FA0000F910C948D0FAF92BF92CF92DF92EF9270
:101FB000FF920F931F93CF93DF935C016B017A0124
:101FC000E9010E94AB0F439842988CE20E94770F80
:101FD000429A97012F5F3F4F2A193B09DE01119664
:101FE000AC19BD090E9435206B017C0181E0C81A43
:101FF000D108E108F1088FEFC816D806E806F80600
:1020000061F4439ADF91CF911F910F91FF90EF9070
:10201000DF90CF90BF90AF900895812F0E94770FEF
:10202000802F0E94770FE2CF0F931F934817590715
:1020300060F02617370748F0403F510530F4203450
:10204000E1E03E0710F40E94D30F1F910F91089515
:102050001F93CF93DF93182FEB0143984298892F5A
:102060000E94770F812F0E94770F429A8D2F0E9436
:10207000770F8C2F0E94770F439ADF91CF911F919A
:102080000895CF93C62F439842980E94770F429AA3
:102090008C2F0E94770F439ACF91089588B18F6457
:1020A00088B92FEF8FE392E0215080409040E1F714
:1020B00000C00000469825E02A95F1F7469A43981B
:1020C000429880E00E94770F83E04198419A8150C6
:1020D000E1F7439A8FEF9FE322E081509040204048
:1020E000E1F700C0000008950E944E1060E081E01A
:1020F0000E9441102FEF8FE191E0215080409040ED
:10210000E1F700C0000060E088E20E94411063E255
:1021100080EC0E94411060E181EC0E9441106BE272
:102120007BE285EC90E00E94281060EC87EC0E9436
:10213000411068E886E30E94411065E58AE30E9449
:1021400041106BE170E081EB90E00E94281067E0A5
:1021500087EB0E94411060E081E10E9441102FEF67
:102160008FE593E0215080409040E1F700C00000EF
:1021700060E089E20E9441102FEF8FE39BE0215045
:1021800080409040E1F700C00000089598E0699F0A
:10219000B0011124607E7770469546954695642B74
:1021A00090E0982F88278827987F862B972B089573
:1021B000CF93DF93EA01803F9105D0F4603421E0B2
:1021C0007207B0F42FE331E04FEE50E00E94AB0F06
:1021D000439842988CE20E94770F8CE20E94770F1E
:1021E000429A8D2F0E94770F8C2F0E94770F439A6F
:1021F000DF91CF9108952F923F924F925F926F920D
:102200007F928F929F92AF92BF92CF92DF92EF9286
:10221000FF920F931F93CF93DF93CDB7DEB72C9729
:102220000FB6F894DEBF0FBECDBF6C015B013A83E1
:102230002983202E803F91050CF06AC0603481E034
:1022400078070CF065C0C60126E0029F800D911D45
:102250001124181619060CF05BC0802F90E09C87A3
:102260008B8723E0880F991F2A95E1F7860F971F28
:10227000181619060CF04CC095E0499FA0011124D6
:102280002601F12CE12CCA01875F9B4F9E838D8331
:102290008B859C85019798878F83ED81FE81EE0D5C
:1022A000FF1D34908F819885840D951D9C838B83B1
:1022B0008B849C848A0C9B1C712C612CC6018E0D16
:1022C0009F1D9A87898730FE0CC091E0291239C082
:1022D00049815A81B3016A0D7B1D89859A850E94C7
:1022E000D81036949FEF691A790A8B859C85880EE1
:1022F000991E98E06916710431F72FEFE21AF20A7D
:102300008B859C85480E591E95E0E916F10429F647
:102310002C960FB6F894DEBF0FBECDBFDF91CF91E4
:102320001F910F91FF90EF90DF90CF90BF90AF90F3
:102330009F908F907F906F905F904F903F902F90E5
:10234000089509811A819401215031094B815C81E2
:10235000B4018B859C85681B790BC2010E94141007
:10236000C0CF2F923F924F925F926F927F928F9247
:102370009F92AF92BF92CF92DF92EF920F931F93F3
:10238000CF93DF935B0149013801403F51052CF5A4
:1023900020E4821621E0920604F566E06A9D900131
:1023A0006B9D300D1124240F351F12161306ACF44B
:1023B000950173E0220F331F7A95E1F7280D391D3F
:1023C0001216130654F4E69E10011124EA016C0162
:1023D000512C412C4A145B0494F0DF91CF911F9152
:1023E0000F91EF90DF90CF90BF90AF909F908F9024
:1023F0007F906F905F904F903F902F900895F601DF
:1024000041916F01442349F30E2D9301B401CE0194
:102410000E94FB10FFEF4F1A5F0AC20DD31DDACFE7
:102420002F923F924F925F926F927F928F929F92E4
:10243000AF92BF92CF92DF92EF92FF920F931F93D2
:10244000CF93DF93CDB7DEB7A4970FB6F894DEBF76
:102450000FBECDBF2C013B011A0182E3882E912CC7
:10246000B12CA12CCE0101966C0194E2F92EB2019F
:102470006A0D7B1D44E250E095E2691671042CF070
:10248000C5018396861597053CF1C6010E94CF20B1
:10249000EE24E394810194014CE050E064E270E0AA
:1024A000C6010E94B111A4960FB6F894DEBF0FBE0C
:1024B000CDBFDF91CF911F910F91FF90EF90DF90F3
:1024C000CF90BF90AF909F908F907F906F905F90D4
:1024D0004F903F902F900895C6010E94CF20EE2488
:1024E000E394810194014CE050E064E270E0C601A5
:1024F0000E94B111F6018F2D11928A95E9F79CE0A7
:10250000890E911CE4E2AE0EB11CB1CF2F923F9226
:102510004F925F926F927F928F929F92AF92BF92F3
:10252000CF92DF92EF92FF920F931F93CF93DF939F
:1025300000D000D0CDB7DEB79C838B837B016A01CE
:1025400058018901061B170B17FF03C01195019550
:10255000110946018B819C81881A990A97FE03C054
:10256000919481949108801691065CF49C2D8D2D98
:102570006901292F382F9B818C81FC82EB82E92E07
:10258000F82E8B819C81C816D9065CF49E2D8F2D68
:102590007901292F382F9B818C81DC82CB82C92E37
:1025A000D82E16018B819C81281A390A29014E18D0
:1025B0005F0857FE03C0519441945108310137FE22
:1025C00003C09FEF691A790A759467948FEF9FEFA4
:1025D000E216F30614F481E090E09A8389831BC02D
:1025E000A5016B817C81C701801691061CF0B701A3
:1025F0008B819C810E94D8106418750877FE06C0F4
:1026000089819A81E80EF91E620C731C8B819C8172
:1026100001969C838B838B819C81C816D90604F715
:102620000F900F900F900F90DF91CF911F910F910E
:10263000FF90EF90DF90CF90BF90AF909F908F90E2
:102640007F906F905F904F903F902F9008950F93E1
:102650001F93460F571F4150510989019A01AC0140
:102660000E9486121F910F9108950F931F93480F98
:10267000591F4150510989019B010E9486121F91E7
:102680000F9108952F923F924F925F926F927F9297
:102690008F929F92AF92BF92CF92DF92EF92FF9272
:1026A0000F931F93CF93DF93CDB7DEB7AA970FB6E3
:1026B000F894DEBF0FBECDBF9A8389837AA769A73E
:1026C0001A0159014701D88ECF8A261737070CF017
:1026D00076C1E616F7065CF58A149B04E4F49A2D9D
:1026E0008B2D540189A49AA499A78AA7922D832D92
:1026F000180109811A8199838A8319C099A58AA52D
:10270000BAA6A9A6A92EB82E99818A813A822982D1
:10271000292E382EE1CF99A58AA59AA689A6892EB9
:10272000982E99818A811A830983092F182F89810C
:102730009A818219930929A53AA52A193B09A8016A
:10274000421953095E834D83B4016A197B097A8764
:102750006987D80149815A81A41BB50BBE87AD8713
:10276000B401A9A5BAA56A1B7B0B7A8B698BA81546
:10277000B90509F49AC01197BE8BAD8B8501412C28
:10278000512C3201C12CD12C7601A901330F660BDB
:10279000770B498F5A8F6B8F7C8F29853A85032E53
:1027A000000C440B550B2D8F3E8F4F8F58A3AC015F
:1027B000990F660B770B49A35AA36BA37CA36D817A
:1027C0007E81072E000C880B990B6DA37EA38FA32F
:1027D00098A72D893E89201731070CF06BC0C801DE
:1027E00049A55AA5841B950B6D857E85869F600142
:1027F000879FD00C969FD00C11240D2C000CEE0856
:10280000FF08C8018A199B09AD81BE818A9F2001FA
:102810008B9F500C9A9F500C1124052C000C6608BD
:10282000770829893A89032E000C440B550B298B14
:102830003A8B4B8B5C8B49855A85052E000C660BB9
:10284000770B49875A876B877C876D857E85072E36
:10285000000C880B990B6D877E878F87988BCD0135
:10286000092E000CAA0BBB0B8D839E83AF83B88708
:10287000801691060CF060C0AA960FB6F894DEBFE1
:102880000FBECDBFDF91CF911F910F91FF90EF90C1
:10289000DF90CF90BF90AF909F908F907F906F9080
:1028A0005F904F903F902F90089549A55AA55E8B59
:1028B0004D8B64CFC701B601298D3A8D4B8D5C8D50
:1028C0000E941620C101820F931F9C838B83C3013A
:1028D000B2012D8D3E8D4F8D58A10E941620220DE4
:1028E000331D49A15AA16BA17CA1C40ED51EE61EC1
:1028F000F71E6DA17EA18FA198A5460E571E681EDA
:10290000791E8B819C812817390734F49B818C8137
:102910003C832B83292F382FA901AB81BC814A1B13
:102920005B0B4F5F5F4F2F89388DB801CD010E943F
:1029300035130F5F1F4F4DCFC701B60129893A8963
:102940004B895C890E941620A981BA81A20FB31F0E
:10295000BC83AB83C301B20129853A854B855C8575
:102960000E941620220D331D4D855E856F85788966
:10297000C40ED51EE61EF71E6D817E818F8198855F
:10298000460E571E681E791E8B819C8128173907B9
:1029900034F49B818C813C832B83292F382FA90110
:1029A000AB81BC814A1B5B0B4F5F5F4F2F89388D1A
:1029B000B801CD010E9435130F5F1F4F59CFE216AA
:1029C000F3060CF49BCE8B2DA9A4BAA429A78AA741
:1029D000942F832D29803A808ECEAF92BF92CF92D2
:1029E000DF92EF92FF920F931F93CF93DF935C01DF
:1029F000EB0182E0A816B10409F059C08B012CED5F
:102A000030E042E850E064EB70E08EE690E00E9437
:102A1000D30F6E0194EBE92EF12C0CE810E020EAC4
:102A200030E048E750E064EB70E084E690E00E941C
:102A3000421385E0A816B10409F074C06E0162EB80
:102A4000E62EF12C0FE710E020EC30E04DE850E0EE
:102A50006FEC70E082E690E00E9442137DEDE72E7D
:102A6000F12C00E710E020EC30E04DE850E06FEC96
:102A700070E082E690E00E944213E4EEEE2EF12C2C
:102A800008E710E028EC30E04BE550E064EE70E041
:102A90008BE590E00E944213DF91CF911F910F913F
:102AA000FF90EF90DF90CF90BF90AF90089586E0B9
:102AB000A816B104C1F48B012CED30E042E850E0DF
:102AC00064EB70E08EE690E00E94D30F6E018CED17
:102AD000E82EF12C0CE810E020EF30E048E750E061
:102AE0006CED70E0A2CFA114B10409F04BC08B01D2
:102AF00022ED30E04CE850E06EEB70E084E690E0D0
:102B00000E94D30F6E010CEDE02EF12C0CE810E0CA
:102B100024EB30E04CE850E068EC70E080EA90E0B4
:102B20000E94421383E0A816B10409F04BC06E0165
:102B30003FECE32EF12C0DE810E02DED30E04FE7F7
:102B400050E062EB70E080E790E00E94421340ECBE
:102B5000E42EF12C02E610E02DED30E04FE750E0DE
:102B600062EB70E080E790E00E94421358ECE52EA3
:102B7000F12C0BE510E02BEA30E048E750E06BEA7F
:102B800070E086CF84E0A816B10409F04BC08B0139
:102B900022ED30E04CE850E06EEB70E084E690E02F
:102BA0000E94D30F6E011CEDE12EF12C04E610E023
:102BB00024EB30E044E650E068EC70E080E590E023
:102BC0000E94421387E0A816B10409F065CF6E0198
:102BD0008FECE82EF12C0DE810E02DED30E04FE702
:102BE00050E062EB70E080E790E00E94421390ECCE
:102BF000E92EF12C02E610E02DED30E04FE750E039
:102C000062EB70E080E790E00E94421324EEE22E37
:102C1000F12C08E710E028EC30E044E950E064EEE5
:102C200070E02FC081E0A816B10409F002CF6B015B
:102C3000F2EBEF2EF12C0FE710E020EC30E04DE846
:102C400050E06FEC70E082E690E00E944213ADED40
:102C5000EA2EF12C00E710E020EC30E04EE850E0E6
:102C60006FEC70E082E690E00E944213B8ECEB2E2D
:102C7000F12C04E910E02BEA30E048E750E06BEA81
:102C800070E084E990E006CF1092B9008093B8001C
:102C90000895CF92DF92EF92FF920F931F93E82F48
:102CA000CA01802B912B892B09F4ABC084EA809355
:102CB000BC008091BC0087FFFCCF8091B900887F69
:102CC000883009F06EC08E2F8E7F8093BB0084E821
:102CD0008093BC008091BC0087FFFCCF8091B9003D
:102CE000887F8831E1F0803209F05BC094E99093ED
:102CF000BC0057C0DB018D91BD018093BB00F093F8
:102D0000BC008091BC0087FFFCCF8091B900887F18
:102D1000883241F0803309F044C080E3E7CF460FAA
:102D2000571FF4E86417750729F7020F131F94E87B
:102D300010C0D9018D919D018093BB009093BC0080
:102D40008091BC0087FFFCCF8091B900887F8832DA
:102D500009F72017310769F720E1C114D10411F4F4
:102D60004EC028E084EA8093BC008091BC0087FFBD
:102D7000FCCF8091B900887F281313C0E160E093F5
:102D8000BB0084E88093BC008091BC0087FFFCCF2F
:102D90008091B900887F94EC8034E9F0883409F49C
:102DA000A5CF1F910F91FF90EF90DF90CF900895E6
:102DB0009093BC008091BC0087FFFCCF8091B9004C
:102DC000887FB1E0CB1AD108803559F78091BB00DC
:102DD000F70181937F01F1E0CF16D10449F784E830
:102DE0008093BC008091BC0087FFFCCF8091B9002C
:102DF000887F8835B1F68091BB00D7018C9380E045
:102E000075CFC114D10409F0ACCF80E0CACFCF9206
:102E1000DF92EF92FF920F931F9380E78093FA0166
:102E200080E880935A0582E08093350510927B03F9
:102E300010927A0310927D0310927C0310929103FA
:102E40001092900310929303109292031092370500
:102E5000D12CC12CF12CE12C10E000E030E020E07E
:102E600041E050E06AE575E080E70E94491691E094
:102E7000811190E0892F1F910F91FF90EF90DF90CB
:102E8000CF900895CF92DF92EF92FF920F931F930E
:102E9000CF93DF9300D0CDB7DEB78FEF8A83CC24FA
:102EA000C394D12CCE0102967C0110E000E030E00A
:102EB00020E041E050E065E375E08091FA010E9476
:102EC00049168823E9F010927B0310927A0310923E
:102ED0007D0310927C031092910310929003109244
:102EE000930310929203109237050F900F90DF9189
:102EF000CF911F910F91FF90EF90DF90CF900895A9
:102F00008A81833000F78093370583E08983CC245E
:102F1000C394D12CCE0102967C0110E000E030E099
:102F200020E041E050E0BE016F5F7F4F8091FA01E9
:102F30000E9449168A818F7010927A0380937B03D6
:102F400084E0898330E020E041E050E0BE016F5F23
:102F50007F4F8091FA010E9449162A8180917A035D
:102F600090917B03822B90937B0380937A0385E07F
:102F7000898330E020E041E050E0BE016F5F7F4F89
:102F80008091FA010E9449168A818F7010929003F5
:102F90008093910386E0898330E020E041E050E0B7
:102FA000BE016F5F7F4F8091FA010E9449162A810E
:102FB0008091900390919103822B90939103809341
:102FC000900389E0898330E020E041E050E0BE01D9
:102FD0006F5F7F4F8091FA010E9449168A818F703E
:102FE00010927C0380937D038AE0898330E020E0A7
:102FF00041E050E0BE016F5F7F4F8091FA010E9477
:1030000049162A8180917C0390917D03822B9093B5
:103010007D0380937C038BE0898330E020E041E0F6
:1030200050E0BE016F5F7F4F8091FA010E94491608
:103030008A818F7010929203809393038CE089832E
:1030400030E020E041E050E0BE016F5F7F4F8091B3
:10305000FA010E9449162A8180919203909193036C
:10306000822B90939303809392033FCFCF92DF9272
:10307000EF92FF920F931F93CF93DF9300D00F92A5
:10308000CDB7DEB78CE38093300382E080937A057E
:1030900081E08093FC011B82D12CC12CF12CE12C0E
:1030A00001E010E09E012D5F3F4F41E050E06AE7F4
:1030B00075E08CE30E9449168FEF8A83CC24C39479
:1030C000D12CCE0102967C0110E000E030E020E03F
:1030D00041E050E06CEF71E0809130030E944916AE
:1030E00080E090E8A9E8B4E48093600390936103E2
:1030F000A0936203B093630380E090E0A5E7B4E49B
:103100008093980390939903A0939A03B0939B03A1
:1031100080E28983D12CC12CF12CE12C9E012F5F00
:103120003F4F41E050E06CE973E0809130030E9432
:1031300049160F900F900F90DF91CF911F910F9133
:10314000FF90EF90DF90CF9008954F925F926F9233
:103150007F928F929F92AF92BF92CF92DF92EF9227
:10316000FF920F931F93CF93DF9300D0CDB7DEB7BD
:103170008FEF8A8383E08983CC24C394D12CCE0142
:1031800002967C0110E000E030E020E041E050E0F9
:10319000BE016F5F7F4F809130030E9449168823E4
:1031A000B1F0DD24D3948D2D0F900F90DF91CF914E
:1031B0001F910F91FF90EF90DF90CF90BF90AF9055
:1031C0009F908F907F906F905F904F9008957A803E
:1031D00084E08983CC24C394D12CCE0102967C0157
:1031E00010E000E030E020E041E050E0BE016F5F21
:1031F0007F4F809130030E9449168111D2CFBA804F
:1032000085E0898330E020E041E050E0BE016F5F5F
:103210007F4F809130030E9449168111C2CF9A805E
:1032200086E0898330E020E041E050E0BE016F5F3E
:103230007F4F809130030E9449168111B2CFAA803E
:1032400087E0898330E020E041E050E0BE016F5F1D
:103250007F4F809130030E9449168111A2CF8A804E
:1032600088E0898330E020E041E050E0BE016F5FFC
:103270007F4F809130030E944916D82E811191CF43
:10328000EA80772D6B2D70938F0360938E03F82C5B
:10329000F0920002E092FF01192D0A2D10932503F0
:1032A000009324038090600390906103A0906203D8
:1032B000B0906303072E000C880B990B0E94951D9C
:1032C000A50194010E94EB1C20E030E048EC52E4A0
:1032D0000E941A1F2B013C014092010250920202EF
:1032E0006092030270920402B701FF0C880B990BE5
:1032F0000E94951DA50194010E94EB1C20E030E086
:1033000048EC52E40E941A1F4B015C018092740346
:1033100090927503A0927603B0927703B801110FD3
:10332000880B990B0E94951D209198033091990369
:1033300040919A0350919B030E94EB1C20E030E0E7
:1033400048EC52E40E941A1F60932C0570932D05DF
:1033500080932E0590932F05A3019201C501B4011E
:103360000E94821C20E030E044E353E40E941A1FD4
:103370002BED3FE049E450E40E94EB1C0E945D1DF0
:103380006C547F4F70932A05609329050CCF1092DF
:10339000260384B1836084B98AB18C6F8AB988B1FD
:1033A0008F6488B987B18F6487B90E9474104AE32B
:1033B0006EE18CED0E94C6109093FE018093FD019A
:1033C0004AE36EE18CED0E94C610909359058093FC
:1033D000580540E06FEF8FEF0E94C61090934905AB
:1033E0008093480540E06FEF8FEF0E94C6109093E6
:1033F0000602809305020E944F0B0E94D30B8AE2C3
:103400000E9444160E9407170E9436180E94A404C6
:103410000091FD011091FE012FE331E04FEE50E0ED
:1034200070E060E090E080E00E94141081E0809302
:103430002603D0E0C0E0FDE2FF2EA2E0DA2ECC248D
:10344000C394B6E09B2E15E0812E83E397E00197AD
:10345000F1F7219680912603813009F08AC000910E
:1034600048051091490524E630E04FEE50E070E049
:1034700060E090E080E00E94141067EB71E081E36F
:1034800093E00E94C820009148051091490554E03E
:10349000E52E2EE130E04CE050E062E370E081E3A5
:1034A00093E00E94B11161E3A62E63E0B62ED50130
:1034B000EF2D1D92EA95E9F760EC71E0C5010E94DD
:1034C000C820009148051091490573E0E72E26E4D5
:1034D00030E04CE050E062E370E0C5010E94B111C1
:1034E000D501EF2D1D92EA95E9F70091480510915D
:1034F00049052FE331E04FEE50E06CED70E090E0D5
:1035000080E00E9414106EEC71E0C5010E94C8209A
:103510000091FD011091FE01E4E0EE2E2FEF30E06E
:1035200048E250E062E370E0C5010E94B111D501AC
:10353000EF2D1D92EA95E9F70E9442178091370519
:103540008823D1F380919003909191038C3D910554
:1035500098F3D09226030091FD011091FE0124E61C
:1035600030E04FEE50E070E060E090E080E00E94DC
:10357000141080912603823081F4CF30D10569F494
:103580000E94590F0E947D0880913405882319F00C
:1035900083E080932603D0E0C0E08091260383304F
:1035A00041F5CF30D10529F50E94590F809134059E
:1035B000811105C0D0922603D0E0C0E046CF0E9422
:1035C00083050E94DE050E947D080E94A5180E94C6
:1035D000A80920910A0230910B028091000190917C
:1035E00001018217930718F084E080932603D0E04E
:1035F000C0E080912603843009F0F9C00E94C10A1E
:1036000000915805109159052EEB30E046EE50E040
:1036100062E370E08AE090E00E9414104091480557
:103620005091490569E671E08EE993E00E9410121D
:1036300000914805109149052FE331E04FEE50E02D
:103640006CED70E090E080E00E94141020912F0358
:10365000809108028150990B2817190609F09BC028
:1036600064ED71E081E393E00E94C8200091FD01C8
:103670001091FE0144E0E42E2FEF30E048E250E0EC
:1036800062E370E081E393E00E94B111E1E3F3E0D3
:10369000DF018F2D1D928A95E9F70E9442178091D4
:1036A00037058823D1F380919003909191038C3D4D
:1036B000910598F320912F03809108028150990B76
:1036C0002817190609F078C0809226030091FD01A1
:1036D0001091FE012FE331E04FEE50E070E060E02A
:1036E00090E080E00E941410E0912F03F0E0EE0FD4
:1036F000FF1FE950FE4F6591749181E393E00E94B2
:10370000B62040914805509149056DE270E081E393
:1037100093E00E94101291E3A92E93E0B92ED501F7
:10372000EF2D1D92EA95E9F70091480510914905A2
:103730002FE331E04FEE50E06CED70E090E080E080
:103740000E94141060EE71E0C5010E94C820009133
:10375000FD011091FE0124E0E22E2FEF30E042E364
:1037600050E062E370E0C5010E94B111D501EF2D78
:103770001D92EA95E9F70E94421780913705882348
:10378000D1F380919003909191038C3D910598F332
:10379000C09226035ACE6BED71E081E393E00E9464
:1037A000C8200091FD011091FE0134E0E32E2FEFBF
:1037B00030E046E450E064CF909226030091FD0192
:1037C0001091FE012FE331E04FEE50E070E060E039
:1037D00090E080E00E9414100E9412050E94590F90
:1037E0008091340581110AC0D09226032ECE8530F7
:1037F00009F46CCF863009F028CEE0CF83E08093C7
:10380000260323CE5058BB27AA270E941A1C0C94CB
:10381000BF1E0E94861E38F00E948D1E20F039F4D3
:103820009F3F19F426F40C945C1E0EF4E095E7FB20
:103830000C94481EE92F0E94E41E58F3BA17620741
:1038400073078407950720F079F4A6F50C94061FFA
:103850000EF4E0950B2EBA2FA02D0B01B9019001AB
:103860000C01CA01A0011124FF27591B99F0593FEF
:1038700050F4503E68F11A16F040A22F232F342F37
:103880004427585FF3CF469537952795A795F04085
:103890005395C9F77EF41F16BA0B620B730B840B9A
:1038A000BAF09150A1F0FF0FBB1F661F771F881F52
:1038B000C2F70EC0BA0F621F731F841F48F48795AA
:1038C00077956795B795F7959E3F08F0B0CF93959C
:1038D000880F08F09927EE0F9795879508950E9415
:1038E000861E60F080E891E009F49EEF0E948D1E34
:1038F00028F040E851E071F45EEF0CC00C945C1EBF
:103900000C94061FE92FE0780E94E41E40F3092E74
:10391000052AB1F3261737074807590738F00E2E46
:1039200007F8E02569F0E025E0640AC0EF6307F8D6
:10393000009407FADB01B9019D01DC01CA01AD0168
:10394000EF930E94021D0E94BF1E0E94B21C5F9155
:10395000552339F02BED3FE049E450FD49EC0C9440
:10396000031C0895DF93DD27B92FBF7740E85FE39D
:103970001616170648075B0718F4D92F0E94121F66
:103980009F938F937F936F930E94D51FE8E6F0E09B
:103990000E945F1E0E94BF1E2F913F914F915F9129
:1039A0000E942D1FDD2351F09058A2EA2AED3FE03E
:1039B00049EC5FE3D0785D270E941A1CDF910C94DC
:1039C000BF1E0E94241E08F481E008950E94961EE6
:1039D000E3950C94D01E0E94FF1C0C94BF1E0E9405
:1039E0008D1E58F00E94861E40F029F45F3F29F09A
:1039F0000C94481E51110C94071F0C945C1E0E94DD
:103A0000E41E68F39923B1F3552391F3951B550BED
:103A1000BB27AA2762177307840738F09F5F5F4FA1
:103A2000220F331F441FAA1FA9F335D00E2E3AF0E0
:103A3000E0E832D091505040E695001CCAF72BD0F8
:103A4000FE2F29D0660F771F881FBB1F2617370749
:103A50004807AB07B0E809F0BB0B802DBF01FF277B
:103A600093585F4F3AF09E3F510578F00C94481EF2
:103A70000C94071F5F3FE4F3983ED4F38695779547
:103A80006795B795F7959F5FC9F7880F911D969534
:103A9000879597F90895E1E0660F771F881FBB1F90
:103AA000621773078407BA0720F0621B730B840B3D
:103AB000BA0BEE1F88F7E09508950E94641D689484
:103AC000B1110C94071F08950E94EC1E88F09F57B7
:103AD00098F0B92F9927B751B0F0E1F0660F771F32
:103AE000881F991F1AF0BA95C9F714C0B13091F028
:103AF0000E94061FB1E008950C94061F672F782FCF
:103B00008827B85F39F0B93FCCF3869577956795EC
:103B1000B395D9F73EF490958095709561957F4F58
:103B20008F4F9F4F0895E89409C097FB3EF49095FE
:103B30008095709561957F4F8F4F9F4F9923A9F086
:103B4000F92F96E9BB279395F69587957795679515
:103B5000B795F111F8CFFAF4BB0F11F460FF1BC059
:103B60006F5F7F4F8F4F9F4F16C0882311F096E9EC
:103B700011C0772321F09EE8872F762F05C066239A
:103B800071F096E8862F70E060E02AF09A95660F53
:103B9000771F881FDAF7880F9695879597F908950C
:103BA0000E94861E20F019F00E948D1E50F40C9485
:103BB0005C1E0C94071FE92F0E94E41E88F3552316
:103BC000B1F3E7FB6217730784079507A8F189F340
:103BD000E92FFF2788232AF03197660F771F881F68
:103BE000DAF7952F5527442332F091505040220F99
:103BF000331F441FD2F7BB27E91BF50B621B730B66
:103C0000840BB109B1F222F4620F731F841FB11D3E
:103C100031972AF0660F771F881FBB1FEFCF915097
:103C2000504062F041F0882332F0660F771F881F02
:103C300091505040C1F793950C944E1E8695779500
:103C400067959F5FD9F7F7CF990F0008550FAA0B1B
:103C5000E0E8FEEF16161706E807F907C0F012169F
:103C60001306E407F50798F0621B730B840B950BA2
:103C700039F40A2661F0232B242B252B21F40895F7
:103C80000A2609F4A140A6958FEF811D811D089594
:103C900097F99F6780E870E060E008959F3F31F0FA
:103CA000915020F4879577956795B795880F911D6A
:103CB0009695879597F908959FEF80EC0895DF9387
:103CC000CF931F930F93FF92EF92DF927B018C01B2
:103CD000689406C0DA2EEF010E942D1FFE01E894C1
:103CE000A5912591359145915591A6F3EF010E943B
:103CF0001A1CFE019701A801DA9469F7DF90EF9092
:103D0000FF900F911F91CF91DF91089500240A94A5
:103D10001616170618060906089500240A941216A6
:103D200013061406050608950C945C1E0E94EC1EF2
:103D3000D8F3E894E0E0BB279F57F0F02AED3FE08E
:103D400049EC06C0EE0FBB0F661F771F881F28F0D7
:103D5000B23A62077307840728F0B25A620B730BFA
:103D6000840BE3959A9572F7803830F49A95BB0FDF
:103D7000661F771F881FD2F790480C94501E092E9B
:103D80000394000C11F4882352F0BB0F40F4BF2BB6
:103D900011F460FF04C06F5F7F4F8F4F9F4F0895F6
:103DA000EF93E0FF07C0A2EA2AED3FE049EC5FEBAA
:103DB0000E941A1C0E94BF1E0F90039401FC905891
:103DC000E5E9F0E00C94E01F57FD9058440F551FB3
:103DD00059F05F3F71F04795880F97FB991F61F08D
:103DE0009F3F79F087950895121613061406551F04
:103DF000F2CF4695F1DF08C0161617061806991F70
:103E0000F1CF86957105610508940895E894BB2764
:103E100066277727CB0197F908950E94241E08F49E
:103E20008FEF08959B01AC0160E070E080E89FE3B4
:103E30000C94EB1C0E942D1F0C94BF1E0E94861E2A
:103E400038F00E948D1E20F0952311F00C94481E2E
:103E50000C945C1E11240C94071F0E94E41E70F346
:103E6000959FC1F3950F50E0551F629FF001729F1F
:103E7000BB27F00DB11D639FAA27F00DB11DAA1F2E
:103E8000649F6627B00DA11D661F829F2227B00D7B
:103E9000A11D621F739FB00DA11D621F839FA00D06
:103EA000611D221F749F3327A00D611D231F849F56
:103EB000600D211D822F762F6A2F11249F575040AD
:103EC0009AF0F1F088234AF0EE0FFF1FBB1F661F28
:103ED000771F881F91505040A9F79E3F510580F0F1
:103EE0000C94481E0C94071F5F3FE4F3983ED4F3F4
:103EF000869577956795B795F795E7959F5FC1F795
:103F0000FE2B880F911D9695879597F908959F939D
:103F10000E94961E0F9007FCEE5F0C94D01E19F4C1
:103F200016F40C945C1E0C944E1E0E94EC1EB8F30A
:103F30009923C9F3B6F39F57550B87FF0E94D91FEA
:103F40000024A0E640EA900180585695979528F401
:103F5000805C660F771F881F20F0261737074807F9
:103F600030F4621B730B840B202931294A2BA69550
:103F700017940794202531254A2758F7660F771F95
:103F8000881F20F026173707480730F4620B730BA1
:103F9000840B200D311D411DA09581F7B901842F9F
:103FA0009158880F9695879508959B01AC010C94C4
:103FB0001A1F91505040660F771F881FD2F708953F
:103FC0009F938F937F936F93FF93EF939B01AC012C
:103FD0000E941A1FEF91FF910E945F1E2F913F9147
:103FE0004F915F910C941A1FA1E21A2EAA1BBB1BC2
:103FF000FD010DC0AA1FBB1FEE1FFF1FA217B307B5
:10400000E407F50720F0A21BB30BE40BF50B661FCA
:10401000771F881F991F1A9469F76095709580958E
:1040200090959B01AC01BD01CF010895052E97FB32
:104030001EF400940E942D2057FD07D00E94F41F0B
:1040400007FC03D04EF40C942D20509540953095EC
:1040500021953F4F4F4F5F4F0895909580957095F4
:1040600061957F4F8F4F9F4F0895A29FB001B39FDF
:10407000C001A39F700D811D1124911DB29F700D71
:10408000811D1124911D08950E943520A59F900D3A
:10409000B49F900DA49F800D911D11240895EF925F
:1040A0000F931F93CF93DF93E80134E047FD34E192
:1040B000042E000C550B57FF03C051954195510933
:1040C000E32E022F242FAE010E941023CE01DF9198
:1040D000CF911F910F91EF900895662777270C9449
:1040E0007224FC0188279927E89421912032E9F372
:1040F000293010F02E30C8F32B3241F02D3239F434
:10410000689404C00E940D21820F911D21912053BB
:104110002A30C0F31EF4909581959F4F08951F9308
:10412000FC0199278827BC01E89411911032E9F32A
:10413000193010F01E30C8F31B3251F01D3249F413
:10414000689406C00E94F820610F711D811D911DA9
:10415000119110531A30B0F33EF4909580957095FC
:1041600061957F4F8F4F9F4F1F910895FB01DC0199
:1041700005900D920020E1F70895FC0181918617CA
:1041800021F08823D9F7992708953197CF01089511
:10419000FB01DC0101900D920020E1F70895FB0185
:1041A000DC014150504048F001900D920020C9F7C9
:1041B00001C01D9241505040E0F70895FB0151911C
:1041C0005523A9F0BF01DC014D9145174111E1F7DD
:1041D00059F4CD010190002049F04D914015411155
:1041E000C9F3FB014111EFCF81E090E00197089501
:1041F000592F482F372F262F660F771F881F991F9B
:10420000660F771F881F991F620F731F841F951FEA
:10421000660F771F881F991F08957AE0979F902D4A
:10422000879F802D910D11240895AEE0B0E0EBE161
:10423000F1E20C945E270D891E898F89988D26E006
:104240002C831A83098397FF02C080E090E80197CE
:104250009E838D83AE01455E5F4F698D7A8DCE0161
:1042600001960E9445214D815E8157FD0AC02F8134
:104270003885421753070CF49A01020F131FF801F7
:1042800010822E96E4E00C947A27ABE0B0E0EBE4E9
:10429000F1E20C9450277C013B018A01FC0117825A
:1042A0001682838181FFB9C19AE0292ECE01019641
:1042B0005C01F7019381F30193FD859193FF819157
:1042C0003F01882309F446C1853239F493FD859175
:1042D00093FF81913F01853229F4B70190E00E945C
:1042E000BF26E7CF912C412C512CFFE1F51538F07A
:1042F0008B3209F188F4803201F1833221F157FCCD
:104300003AC020ED280F2A3040F556FE1FC0929C7F
:10431000200D1124922E06C08D3291F0803379F752
:10432000689450F8F30193FD859193FF81913F01CB
:104330008111DBCF20C0689451F8689452F8F2CF15
:10434000689453F8EFCF689454F8ECCF429C200D5A
:104350001124422E689455F8E5CF8E3229F456FC8C
:10436000F9C0689456F8DECF8C3619F4689457F883
:10437000D9CF8836B9F2982F9F7D95549330C0F0ED
:104380008336A1F18337C1F1833509F05BC0F801B1
:10439000C190D1908F01692D70E056FC02C06FEF83
:1043A0007FEFC6010E94A9264C01689457F80AC005
:1043B0000C5F1F4F2FE3298388248394912C650180
:1043C000E89457F853FC04C04814190409F018F590
:1043D000342C8114910431F5332009F46ACFB701EC
:1043E00080E290E00E94BF263A94F6CFF8018081E7
:1043F00089830E5F1F4FE0CFF801C190D1908F01EC
:10440000692D70E056FC02C06FEF7FEFC6010E947D
:10441000B4264C01D5CFB70180E290E00E94BF26C0
:104420004A94D2CFF60157FC859157FE81916F01D6
:10443000B70190E00E94BF2631103A94F1E08F1A44
:104440009108C7CF843619F0893609F074C0F80195
:1044500057FE6AC061917191819191918F01252DD3
:104460002F76D22E97FF09C0909580957095619513
:104470007F4F8F4F9F4F6894D7F82AE030E0A50117
:104480000E94EF26C82ECA188C2C5D2CD6FE0CC0BC
:10449000E89450F8C91440F4D4FE05C0D2FC03C01F
:1044A000FD2DFE7E5F2E892C54FE8FC0FE01EC0D8B
:1044B000F11D8081803309F081C0252D297E522E87
:1044C000852D8870382E53FC8FC050FE89C09C2CDF
:1044D000841418F44C0C942C981854FE8BC0B7011B
:1044E00080E390E00E94BF2652FE09C088E790E07A
:1044F00051FE02C088E590E0B7010E94BF26C914B2
:1045000008F484C0CA94D12C9FEFC91AD90ACA0CE6
:10451000DB1CF60182916F01B70190E00E94BF267B
:10452000AC14BD04B1F758CF61917191072E000C06
:10453000880B990B93CFD52CE894D4F82AE030E07F
:10454000853739F1952D997FD92E8F3601F148F4B1
:104550008835A9F0F701868197812B96E2E10C94CA
:104560006C27803749F08837A9F7D4FE02C06894D9
:10457000D2F820E130E00DC06894D4F8F6CF54FEB4
:1045800003C0E92FE660DE2E20E132E002C028E021
:1045900030E0F801D7FE0DC0619171918191919148
:1045A0008F01A5010E94EF26C82ECA18E894D7F8FB
:1045B0006BCF6191719190E080E0F2CF52FC02C02C
:1045C00083947ECF839483947BCF852D867809F462
:1045D00077CFF6CFB70180E290E00E94BF268394A8
:1045E0008414C0F3312C79CF342C3818841408F497
:1045F00074CFF8CF852D867809F481CF8BE251FEF8
:1046000080E257FC8DE2B70190E077CFB70180E3FD
:1046100090E00E94BF269A9472CF8FEF9FEF9DCFBC
:10462000A9E0B0E0E6E1F3E20C9456276A01F22E2D
:10463000B02E102F0BE30B1508F41BE31F5F012FA7
:1046400027E0AE014F5F5F4F0E94B025BC0189811A
:10465000982F99709130C9F19BE2E1FC04C09E2D26
:104660009170E0FC90E25E2D5071E82FE87083FFBE
:1046700048C083E0911184E0EF2DE81B8F1508F00E
:10468000E0E0552371F1992319F0D6019D936D0156
:10469000C6010396E2FE29C02EE4D6012C9331E434
:1046A00011963C93119712962C932E2F382F492F49
:1046B00050E221111FC0E80FF92FF11D10828EEF7B
:1046C0009FEF2996ECE00C9472279DE2CCCFD901A4
:1046D0004D9381509D018111FACFCE0ED11CE0E0A7
:1046E000D2CF8E2F960140E2F6CF2EE6D6012C9344
:1046F00031E6D6CFA32FB42F5D9321503A2F4B2F05
:10470000D8CF482F447082FF41C083E0911184E0EC
:104710008F1510F4EF2DE81B552359F1992319F04B
:10472000D6019D936D01C6010396E2FE26C029E4E1
:10473000D6012C932EE411962C93119726E4129611
:104740002C932E2F382F492F50E2222309F4B3CF78
:10475000A32FB42F5D9321503A2F4B2FF6CFD901C1
:104760004D9381509D018111FACFCE0ED11CE0E016
:10477000D5CF8E2F960140E2F6CF29E6D6012C93B5
:104780002EE611962C93119726E6D9CF9B0177FF41
:1047900002C030E020E0A1E0B0E0911102C0B0E042
:1047A000A0E0F9013196AE0FBF1F8B2C912CBB20DE
:1047B000F1F05401EFEFAE1ABE0AAA0DBB1DFA16B6
:1047C0001B0619F014F04F2D4A1B511145C0E3FC94
:1047D00008C07601A42FB0E2A1110CC0C40ED11CF8
:1047E00040E091113BC0D601942F50E30AC0B12C98
:1047F000A12CE3CFF701B1937F01A150EDCF5D93E1
:1048000091509111FCCFC40ED11C40E02DC001E0AD
:104810003AC050E354C06217730739F4A63320F44A
:10482000A53319F4B11101C051E3D6015C93242FD3
:10483000382F592F60E2211108C0480F592F511D00
:10484000FA01108290E080E03CCFE32FF52F6193D6
:1048500021503E2F5F2FEFCF992331F0D6019D934A
:104860006D01552309F4BFCF012F060FAA81B82F80
:10487000B07184FF03C0A13309F4015010163CF657
:10488000093008F008E0FB01E01BF1098F01EE247C
:10489000FF24E818F9088EE2B82E621773070CF4AB
:1048A000B8CF021713070CF0B4CFFB01E21BF30BD8
:1048B00081E090E08C0F9D1FE80FF91F518121507E
:1048C0003109C60101962E153F050CF4A4CFF6015F
:1048D00050832F3F320721F4C6010296F601B182C0
:1048E0006C01DBCFB0E0A0E0E8E7F4E20C945627DF
:1048F0007C016B016115710519F0FB0191838083C7
:10490000E7010991802F90E00E9488265C01892BA5
:10491000B1F50D32B1F50881E701229611E07E0173
:10492000F1E0EF1AF10843E050E06CEB70E0C701F2
:104930000E949126892B61F57E0182E0E80EF11C30
:1049400045E050E067EB70E0C7010E949126892B9B
:1049500021F47E0197E0E90EF11CC114D10419F095
:10496000F601F182E08260E070E080E89FE71123C9
:1049700009F4F1C060E070E080E89FEFECC07E01D8
:10498000BFCF0B3219F40881E701229610E0C7CFA0
:1049900043E050E064EB70E0C7010E949126892B50
:1049A00061F4C114D10421F02296F601D183C083B1
:1049B00060E070E080EC9FE7CEC0F12CE12C20E0BD
:1049C00030E0A901F0EDF00FFA3058F5E12FE26088
:1049D000812F887012FF08C0811103C0FFEFEF1A0A
:1049E000FF0A09911E2FEECF882319F081E0E81A03
:1049F000F108A5E0B0E00E9444209B01AC01220F29
:104A0000331F441F551F2F0F311D411D511D2839C4
:104A100099E93907490799E1590718F3E12FE66049
:104A2000E0CFFE3F29F413FD3AC0E12FE860D9CF73
:104A30000F7D0534A1F588818D3241F41061BE01EE
:104A40006E5F7F4F8981E2E0F0E007C0BE018B32EC
:104A5000B9F36F5F7F4FE1E0F0E08053EB01CE1BD5
:104A6000DF0B8A30E0F4E0E8AE16ECE0BE065CF462
:104A7000F501EE0FFF1FEE0FFF1FAE0EBF1EAA0CBB
:104A8000BB1CA80EB11CEB01899180538A3090F1B8
:104A900014FF03C0B194A194B108EA0CFB1C11FFF0
:104AA00007C0C114D10421F02197F601D183C0833E
:104AB000CA01B9010E94931D1370133009F4905874
:104AC0004B015C0120E030E0A9010E94E11C882339
:104AD00009F43FC0CBEED0E0F7FE05C0F194E194BD
:104AE000F108C3EDD0E06E01F8E1CF1AD10800E281
:104AF00010E00FC0BE01B7CFFE0125913591459161
:104B00005491E01AF10AC501B4010E941A1F4B0129
:104B10005C01D501C401E016F10674F724971595E0
:104B20000795CC15DD05A9F78A2F880F8B2F881FD5
:104B30008F3F49F020E030E0A901C501B4010E9497
:104B4000E11C811106C082E290E090939006809370
:104B50008F06C501B401CDB7DEB7ECE00C94722727
:104B6000283008F027E03327DA01990F311D87FD3F
:104B7000916000966105710539F432602E5F3D93B6
:104B800030E32A95E1F708959F3F30F080387105B2
:104B9000610509F03C5F3C5F3D93913008F080680F
:104BA000911DDF93CF931F930F93FF92EF92192FD5
:104BB000987F9695E92F96959695E90FFF27E75BE5
:104BC000FE4F99273327EE24FF24A701E701059024
:104BD0000894079428F4360FE71EF81E491F511D4C
:104BE000660F771F881F991F0694A1F705900794F9
:104BF00028F4E70EF81E491F561FC11D770F881FA6
:104C0000991F661F0694A1F70590079428F4F80EE3
:104C1000491F561FC71FD11D880F991F661F771F79
:104C20000694A1F70590079420F4490F561FC71F5B
:104C3000D81F990F661F771F881F0694A9F78491C4
:104C40001095177041F0D695C79557954795F794ED
:104C5000E7941A95C1F7EFEEF0E06894159015917E
:104C600035916591959105907FE27395E118F10A70
:104C7000430B560BC90BD009C0F7E10CF11E431FC3
:104C8000561FC91FD01D7EF4703311F48A95E6CFEC
:104C9000E894015030F0080F0AF40027021708F4D6
:104CA000202F2395022F7A3328F079E37D932A95DC
:104CB000E9F710C07D932A9589F606949795679534
:104CC000379517951794E118F10A430B560BC90B4A
:104CD000D00998F023957E9173957A3308F070E3AC
:104CE0007C932013B8F77E9170617D9330F08395AB
:104CF00071E37D9370E32A95E1F71124EF90FF9023
:104D00000F911F91CF91DF91992787FD909508957D
:104D100091110C944D27803219F089508550C8F7B5
:104D20000895FB01DC014150504088F08D918134A1
:104D30001CF08B350CF4805E659161341CF06B3592
:104D40000CF4605E861B611171F3990B0895881B4A
:104D5000FCCFFC010590615070400110D8F78095A0
:104D600090958E0F9F1F0895FC0161507040019037
:104D70000110D8F7809590958E0F9F1F08950F937F
:104D80001F93CF93DF93182F092FEB018B8181FDA8
:104D900009C01FEF0FEF812F902FDF91CF911F914F
:104DA0000F91089582FF14C02E813F818C819D81D7
:104DB000281739073CF4E881F981CF0101969983DE
:104DC000888310838E819F8101969F838E83E3CF9A
:104DD000E885F985812F0995892BA1F3DACFFA01AE
:104DE000AA27283051F1203181F1E8946F936E7F2A
:104DF0006E5F7F4F8F4F9F4FAF4FB1E03ED0B4E01B
:104E00003CD0670F781F891F9A1FA11D680F791F5B
:104E10008A1F911DA11D6A0F711D811D911DA11D6C
:104E200020D009F468943F912AE0269F112430197C
:104E3000305D3193DEF6CF010895462F4770405D17
:104E40004193B3E00FD0C9F7F6CF462F4F70405DC6
:104E50004A3318F0495D31FD4052419302D0A9F721
:104E6000EACFB4E0A6959795879577956795BA951B
:104E7000C9F700976105710508959B01AC010A2EE1
:104E800006945795479537952795BA95C9F7620FB8
:104E9000731F841F951FA01D0895992788270895C3
:104EA0002F923F924F925F926F927F928F929F923A
:104EB000AF92BF92CF92DF92EF92FF920F931F9328
:104EC000CF93DF93CDB7DEB7CA1BDB0B0FB6F894D9
:104ED000DEBF0FBECDBF09942A88398848885F8419
:104EE0006E847D848C849B84AA84B984C884DF808A
:104EF000EE80FD800C811B81AA81B981CE0FD11D6E
:104F00000FB6F894DEBF0FBECDBFED010895F89443
:024F1000FFCFD1
:104F1200E803000000FF00FFFFFF0000FF00FFFFAB
:104F220000FF00FF0000FF00FFFF4520004E45008C
:104F32004E20004E57005720005357005320005375
:104F420045004665746368696E6720475053204484
:104F52004154412E2E2E00476F616C3A20202020B2
:104F62002025732C2025730043757272656E743A86
:104F7200202025732C2025730044697374616E63AD
:104F8200653A202573202573206665657400457394
:104F9200742E20436F6D706173732048656164697C
:104FA2006E673A202573006E756D206F6620746FF0
:104FB20075636865733A20256900706F696E743A8B
:104FC2002025692025690047656F42756464790070
:104FD20045453435392050726F6A656374005374E5
:104FE2006172740046696E697368004E6578740078
:104FF2004261636B002447504747410024475052A7
:045002004D4300001A
:00000001FF
