:100000000C9475030C9492030C9492030C94920339
:100010000C9492030C9492030C9492030C9492030C
:100020000C9492030C9492030C9492030C949203FC
:100030000C9492030C9492030C9492030C949203EC
:100040000C9492030C9492030C9492030C949203DC
:100050000C9492030C9492030C9492030C949203CC
:100060000C9492030C949203084AD73B3BCE016E4A
:1000700084BCBFFDC12F3D6C74319ABD56833DDAFF
:100080003D00C77F11BED9E4BB4C3E916BAAAABE0E
:10009000000000803F05A84CCDB2D44EB93836A937
:1000A000020C50B9918688083CA6AAAA2ABE000074
:1000B00000803F004E414E494E495459494E46CD6D
:1000C000CCCC3D0AD7233C17B7D13877CC2B32950F
:1000D00095E6241FB14F0A000020410000C84200ED
:1000E000401C4620BCBE4CCA1B0E5AAEC59D7400B7
:1000F000407A10F35A00A0724E18090010A5D4E8F7
:100100000000E87648170000E40B54020000CA9A89
:100110003B000000E1F505000080969800000040DB
:10012000420F000000A08601000000102700000020
:1001300000E803000000006400000000000A000066
:100140000000000100000000002C76D888DC674F1A
:100150000823DFC1DFAE59E1B1B796E5E3E453C64A
:100160003AE651997696E8E6C28426EB898C9B6242
:10017000ED407C6FFCEFBC9C9F40F2BAA56FA5F4EC
:1001800090055A2AF75C936B6CF9676DC11BFCE014
:10019000E40D47FEF520E6B500D0ED902E03009467
:1001A0003577050080841E080000204E0A000000FC
:1001B000C80C333333330F986E12831141EF8D2106
:1001C00014893BE65516CFFEE6DB18D1844B381B6D
:1001D000F77C1D901DA4BBE424203284725E228132
:1001E00000C9F124ECA1E53D2700000000003E5BC2
:1001F0004F5B3E3E6B4F6B3E1C3E7C3E1C183C7E74
:100200003C181C577D571C1C5E7F5E1C00183C1858
:1002100000FFE7C3E7FF0018241800FFE7DBE7FF54
:1002200030483A060E2629792926407F05050740E1
:100230007F05253F5A3CE73C5A7F3E1C1C08081CA2
:100240001C3E7F14227F22145F5F005F5F06097FE0
:10025000017F006689956A606060606094A2FFA279
:100260009408047E040810207E201008082A1C0828
:10027000081C2A08081E101010100C1E0C1E0C3032
:10028000383E3830060E3E0E06000000000000002A
:100290005F00000007000700147F147F14242A7FEA
:1002A0002A122313086462364956205000080703B7
:1002B00000001C2241000041221C002A1C7F1C2A35
:1002C00008083E0808008070300008080808080088
:1002D0000060600020100804023E5149453E004283
:1002E0007F400072494949462141494D3318141253
:1002F0007F1027454545393C4A494931412111097B
:10030000073649494936464949291E00001400006C
:100310000040340000000814224114141414140086
:100320004122140802015909063E415D594E7C12D2
:1003300011127C7F494949363E414141227F41416A
:10034000413E7F494949417F090909013E414151E7
:10035000737F0808087F00417F41002040413F0132
:100360007F081422417F404040407F021C027F7F73
:100370000408107F3E4141413E7F090909063E4184
:1003800051215E7F09192946264949493203017FD7
:1003900001033F4040403F1F2040201F3F40384066
:1003A0003F631408146303047804036159494D43FF
:1003B000007F4141410204081020004141417F0477
:1003C000020102044040404040000307080020545E
:1003D0005478407F284444383844444428384444BE
:1003E000287F385454541800087E090218A4A49C8D
:1003F000787F0804047800447D40002040403D00A0
:100400007F1028440000417F40007C047804787C01
:10041000080404783844444438FC18242418182468
:100420002418FC7C08040408485454542404043F51
:1004300044243C4040207C1C2040201C3C40304058
:100440003C44281028444C9090907C4464544C4484
:100450000008364100000077000000413608000225
:10046000010204023C2623263C1EA1A161123A404F
:1004700040207A38545455592155557941225454C5
:100480007842215554784020545579400C1E5272C0
:10049000123955555559395454545939555454589D
:1004A0000000457C410002457D420001457C407DC5
:1004B0001211127DF0282528F07C54554500205457
:1004C000547C547C0A097F4932494949323A4444B0
:1004D000443A324A4848303A4141217A3A4240202F
:1004E00078009DA0A07D3D4242423D3D4040403DC0
:1004F0003C24FF2424487E4943662B2FFC2F2BFFEE
:100500000929F620C0887E0903205454794100004F
:10051000447D413048484A32384040227A007A0AC5
:100520000A727D0D19317D2629292F28262929298E
:100530002630484D402038080808080808080838C0
:100540002F10C8ACBA2F102834FA00007B00000826
:10055000142A142222142A14085500550055AA55AD
:10056000AA55AAFF55FF55FF000000FF001010100C
:10057000FF00141414FF001010FF00FF1010F01003
:10058000F0141414FC001414F700FF0000FF00FF27
:100590001414F404FC141417101F10101F101F144F
:1005A00014141F00101010F0000000001F10101095
:1005B000101F10101010F010000000FF101010108D
:1005C0001010101010FF10000000FF140000FF00BA
:1005D000FF00001F10170000FC04F414141710177C
:1005E0001414F404F40000FF00F714141414141489
:1005F00014F700F7141414171410101F101F1414FC
:1006000014F4141010F010F000001F101F00000070
:100610001F14000000FC140000F010F01010FF1078
:10062000FF141414FF141010101F00000000F0102D
:10063000FFFFFFFFFFF0F0F0F0F0FFFFFF00000012
:100640000000FFFF0F0F0F0F0F3844443844FC4ADF
:100650004A4A347E02020606027E027E0263554941
:1006600041633844443C04407E201E2006027E0242
:100670000299A5E7A5991C2A492A1C4C7201724CC3
:10068000304A4D4D303048784830BC625A463D3E85
:10069000494949007E0101017E2A2A2A2A2A444426
:1006A0005F444440514A444040444A51400000FFA6
:1006B0000103E080FF000008086B6B083612362447
:1006C00036060F090F060000181800000010100071
:1006D0003040FF0101001F01011E00191D1712000B
:1006E0003C3C3C3C00000000000011241FBECFEF4A
:1006F000D8E0DEBFCDBF12E0A0E0B1E0E4E6FEE36B
:1007000002C005900D92AA38B107D9F725E0AAE8F2
:10071000B2E001C01D92A439B207E1F70E943E1376
:100720000C94301F0C9400000F931F934091900283
:1007300050919102609192027091930240939E02B7
:1007400050939F026093A0027093A1028091AE0328
:100750009091AF03A091B003B091B1038093A20335
:100760009093A303A093A403B093A50320918704BF
:10077000233549F4705840939E0250939F02609332
:10078000A0027093A10220911904273549F4B058B2
:100790008093A2039093A303A093A403B093A50313
:1007A00060919E0270919F028091A0029091A1029F
:1007B00009E814E027E04AE00E94FF176091A203D5
:1007C0007091A3038091A4039091A50305E514E023
:1007D00027E04AE00E94FF17E09142047091240450
:1007E00080919402609141045091AD0340910004C6
:1007F0003091500420919B0290914B04E11139C03B
:100800001F927F931F928F931F921F921F926F933D
:100810001F925F931F924F931F923F931F922F93AC
:100820001F929F9380E291E09F938F9381E08F933B
:100830001F9282EA92E09F938F930E94BE182DB779
:100840003EB7285E3F4F0FB6F8943EBF0FBE2DBF98
:1008500082EA92E00E942B08E2EAF2E080E091E076
:10086000DF019C011D9221503040E1F71F910F9153
:1008700008951F927F931F928F931F9281E08F9311
:10088000E5E5F4E0FF93EF9370911904E72F072E4D
:10089000000CFF0BFF937F93E9E8F4E0FF93EF93E5
:1008A00070918704E72F072E000CFF0BFF937F93B7
:1008B0001F926F931F925F931F924F931F923F93CC
:1008C0001F922F931F929F932DE631E03F932F931A
:1008D0008F931F9282EA92E09F938F930E94BE189B
:1008E0008DB79EB780960FB6F8949EBF0FBE8DBF92
:1008F000AFCF4F925F926F927F928F929F92AF9203
:10090000BF92CF92DF92EF92FF920F931F93CF93FC
:10091000DF93CDB7DEB764970FB6F894DEBF0FBE96
:10092000CDBF6B017C0129013A01809142048823EB
:1009300009F4CAC180909E0290909F02A090A002EC
:10094000B090A1022BED3FE049E450E4C501B401B1
:100950000E94BA1620E030E044E353E40E948B1476
:100960006D877E878F87988B8091A2039091A303D8
:10097000A091A403B091A50389839A83AB83BC8320
:100980002BED3FE049E450E4C701B6010E94BA16DE
:1009900020E030E044E353E40E948B14698B7A8BAF
:1009A0008B8B9C8BA5019401C701B6010E94A213F9
:1009B0002BED3FE049E450E40E94BA1620E030E01D
:1009C00044E353E40E948B1420E030E040E05FE316
:1009D0000E94BA160E9427176B017C016D857E85E7
:1009E0008F8598890E94861469877A878B879C8770
:1009F00069897A898B899C890E9486146D837E839C
:100A00008F83988729813A814B815C81C301B20130
:100A10000E94A2132BED3FE049E450E40E94BA1675
:100A200020E030E044E353E40E948B1420E030E007
:100A300040E05FE30E94BA160E9427174B015C0159
:100A40002D813E814F81588569857A858B859C856E
:100A50000E94BA16A50194010E94BA16A50194013C
:100A60000E94BA164B015C01A7019601C701B601AD
:100A70000E94BA169B01AC01C501B4010E94A313E8
:100A80006B017C01AC019B0160E070E080E89FE3BA
:100A90000E94A2130E9435174B015C01C701B601E9
:100AA0000E943517A50194010E9422149B01AC01FC
:100AB0000E94A31320E73DE642EC5AE40E94BA16D6
:100AC00028E439EF41E550E40E94BA160E94FD1473
:100AD00070939D0260939C02072E000C880B990B6B
:100AE0000E9435150BE614E027E04CE00E94FF174A
:100AF0002BED3FE049E450E4C301B2010E94BA1675
:100B000020E030E044E353E40E948B146B017C014D
:100B10002BED3FE049E450E469817A818B819C812F
:100B20000E94BA1620E030E044E353E40E948B14A4
:100B30009B01AC01C701B6010E94A2136B017C01AD
:100B40000E9427172B013C0169897A898B899C892E
:100B50000E9427174B015C016D857E858F859889E2
:100B60000E94271769837A838B839C83C701B60110
:100B70000E9486146B017C01A30192016D817E812C
:100B80008F8198850E94BA162B013C01A501940122
:100B900069857A858B859C850E94BA164B015C011C
:100BA00029813A814B815C816D817E818F8198851D
:100BB0000E94BA16A70196010E94BA169B01AC01C9
:100BC000C501B4010E94A213A30192010E94221444
:100BD00020E030E044E353E40E94BA162BED3FE0FE
:100BE00049E450E40E948B1460937F047093800466
:100BF000809381049093820409E214E027E04AE0A4
:100C00000E94FF17C0907F04D0908004E090810480
:100C1000F090820420E030E044EB51ECC701B601D3
:100C20000E94AD1618160CF066C020E030E044EBD0
:100C300051E4C701B6010E94811418160CF45BC080
:100C400010921B0410921A0462ED71E08AEA93E09C
:100C50000E9471188BE694E09F938F9389E294E051
:100C60009F938F938AEA93E09F938F9385E594E017
:100C70009F938F9389E894E09F938F9381E094E012
:100C80009F938F9386EE93E09F938F938AEE91E0EC
:100C90009F938F9381E08F931F92A2EAB2E0BF935C
:100CA000AF930E94BE1882EA92E00E942B0880E077
:100CB00091E0A2EAB2E0FC011D923197E9F70FB68C
:100CC000F894DEBF0FBECDBF64960FB6F894DEBFBA
:100CD0000FBECDBFDF91CF911F910F91FF90EF908D
:100CE000DF90CF90BF90AF909F908F907F906F904C
:100CF0005F904F90089520E030E044EB51E4C7014D
:100D0000B6010E94AD1618169CF420E030E047E8CA
:100D100052E4C701B6010E94811418164CF081E01C
:100D200090E090931B0480931A0465ED71E08ECFE0
:100D300020E030E047E852E4C701B6010E94AD165A
:100D400018169CF420E030E041EE52E4C701B601F1
:100D50000E94811418164CF082E090E090931B04DE
:100D600080931A0468ED71E071CF20E030E041EE2D
:100D700052E4C701B6010E94AD1618169CF420E09B
:100D800030E84DE153E4C701B6010E948114181602
:100D90004CF083E090E090931B0480931A046BED79
:100DA00071E054CF20E030E84DE153E4C701B601D3
:100DB0000E94AD16181654F020E030E84DE153ECD7
:100DC000C701B6010E94811418164CF084E090E02F
:100DD00090931B0480931A046EED71E037CF20E0EE
:100DE00030E84DE153ECC701B6010E94AD1618166C
:100DF0009CF420E030E041EE52ECC701B6010E94C5
:100E0000811418164CF085E090E090931B048093B9
:100E10001A0461EE71E01ACF20E030E041EE52ECAE
:100E2000C701B6010E94AD1618169CF420E030E010
:100E300047E852ECC701B6010E94811418164CF025
:100E400086E090E090931B0480931A0464EE71E0B6
:100E5000FDCE87E090E090931B0480931A0467EE28
:100E600071E0F4CEFF920F931F93CF93DF938091A5
:100E7000420481111AC063E372E082EB93E00E94A6
:100E800071180091690410916A042AE030E04AE088
:100E900050E062E370E082EB93E00E940212DF9187
:100EA000CF911F910F91FF90089581E094E09F935F
:100EB0008F9386EE93E09F938F938AE492E09F93C3
:100EC0008F931F9282E3F82EFF92C2EBD3E0DF9361
:100ED000CF930E94BE18009195021091960224E1D2
:100EE00030E04FEE50E06AE070E08AE090E00E946F
:100EF000F70F0091690410916A042AE030E04AE09B
:100F000050E062E370E0CE010E9402129FEFEFE139
:100F1000F1E09150E040F040E1F700C00000FE0138
:100F20002F2D11922A95E9F785E594E09F938F93F1
:100F300089E894E09F938F9387E592E09F938F9346
:100F40001F92FF92DF93CF930E94BE1800919502EB
:100F50001091960224E130E04FEE50E06AE070E03C
:100F60008EE190E00E94F70F0091690410916A04ED
:100F70002AE030E04EE150E062E370E0CE010E94F2
:100F80000212EFEFFFE121E0E150F0402040E1F7F5
:100F900000C00000FE012F2D11922A95E9F78BE683
:100FA00094E09F938F938AEA93E09F938F9387E6D1
:100FB00092E09F938F931F92FF92DF93CF930E94B3
:100FC000BE18009195021091960224E130E04FEE98
:100FD00050E06AE070E086E490E00E94F70F009134
:100FE000690410916A042AE030E046E450E062E3CC
:100FF00070E0CE010E940212EFEFFFE121E0E1502C
:10100000F0402040E1F700C00000FE011192FA9488
:10101000E9F78DB79EB74E960FB6F8949EBF0FBEF8
:101020008DBF3DCF8FE290E09093C5008093C400C8
:10103000E1ECF0E080818860808380818061808342
:1010400086E08093C20008959091C00095FFFCCF88
:101050008093C60008950F931F93CF93DF938C0165
:10106000D0E0C0E0F80101900020E9F73197E01BE3
:10107000F10BCE17DF0728F0DF91CF911F910F9171
:10108000089583E397E00197F1F7F801EC0FFD1F56
:1010900080810E9424082196E5CF8091C00087FFBF
:1010A000FCCF8091C60008950E944D088A3009F552
:1010B000E0918A022091900530919105E20FF32F83
:1010C000F11D1082209190053091910594E0203A15
:1010D000390729F548E155E0509391054093900573
:1010E00030939E0420939D0410928A0291E0909385
:1010F0009F042091900530919105E0918A0291E042
:101100009E0F90938A02E20FF32FF11D808390913E
:101110008A02983718F097E790938A02089520EA98
:1011200034E0309391052093900528E135E0D8CF45
:1011300010929F0410928F0210928A0280EA94E02B
:10114000909391058093900588E195E090939E049B
:1011500080939D04109224041092940210925004E3
:1011600010929B0210924B04109241041092AD0316
:1011700010920004109288041092190410928704AF
:10118000109242041092FF031092FE031092830407
:101190001092840410928504109286041092970293
:1011A000109298021092990210929A0210921504CD
:1011B0001092160410921704109218041092510401
:1011C0001092520410925304109254041092250469
:1011D00010922604109227041092280410928B0279
:1011E00010928C0210928D0210928E0210921C04AA
:1011F00010921D0410921E0410921F0410924C04B1
:1012000010924D0410924E0410924F040895809154
:101210009F04089580938F02089510929F048091F7
:101220009D0490919E040895803354F08A3314F401
:10123000805308959FEB980F963010F487530895CC
:1012400080E008954F925F926F927F928F929F926B
:10125000AF92BF92CF92DF92EF92FF920F931F93C4
:10126000CF93DF93CDB7DEB72E970FB6F894DEBFDE
:101270000FBECDBF7C01FC0101900020E9F7319742
:10128000E81BF90B6F0184E0C81AD108D701AC0D37
:10129000BD1D8C918A3209F03FC087010E0F1F1FC0
:1012A000F801339780810E94140990E1899F5001D1
:1012B0001124F801329780810E9414098A0D9B2D18
:1012C000911D42E0242F30E02C153D05D0F0892BF4
:1012D00019F180E02E960FB6F894DEBF0FBECDBF99
:1012E000DF91CF911F910F91FF90EF90DF90CF9002
:1012F000BF90AF909F908F907F906F905F904F9036
:1013000008952E0D3F1DF9012081022E000C330B94
:10131000822793274F5FD6CF6CE772E0C7010E9408
:101320008718892B09F4DEC26CE270E0C7010E94C5
:1013300066188C010F5F1F4FC8010E941D186B01BA
:101340007C010E9404152B013C0120E137E240E0C2
:1013500050E00E94A4172093000444E6842E912CB0
:10136000A12CB12CA50194010E94A4172093AD03D8
:10137000C301B201A50194010E94A4176093410426
:1013800020E030E040E85FE3C701B6010E947B1532
:1013900020E030E04AE754E40E94BA160E940415A7
:1013A0007093FF036093FE036CE270E0C8010E943B
:1013B00066187C018C010F5F1F4FFC0181818C320C
:1013C00009F4DEC042E050E0B801CE0101960E946F
:1013D00078181B82CE0101960E943F184B015C01D8
:1013E000AC019B0160E876E988E990E00E949417DF
:1013F0002B013C01B7016D5F7F4F42E050E0CE0111
:1014000001960E9478180B5F1F4F44E050E0B8012E
:10141000CE0103960E9478181F82CE0101960E9489
:101420003F189B01AC01A2E3B0E00E94F41723E057
:1014300030E040E050E00E94C61769017A01D30114
:10144000C2018C0D9D1DAE1DBF1D8093FA039093AC
:10145000FB03A093FC03B093FD03C501B4010E94FC
:1014600035156B877C878D879E87C701B6010E94E3
:1014700035156B017C012CE933E549EC56E30E94FC
:10148000BA164B015C0120E030E040E752E40E94D4
:101490008B142B853C854D855E850E94A31360933C
:1014A0009002709391028093920290939302C301F1
:1014B000B20120EA36E841E050E00E94C617CA01B6
:1014C000B9010E943515A50194010E94A3134B0197
:1014D0005C0180924C0490924D04A0924E04B09214
:1014E0004F0425E93FEB46ED53E3C701B6010E94E7
:1014F000BA162B853C854D855E850E94A3136093AB
:10150000200470932104809322049093230420E00C
:1015100030E048EC52E4C501B4010E948B140E94F3
:10152000FD146B0184E68C9DB0018D9D700D11241E
:10153000072E000C880B990B0E9435159B01AC01FE
:10154000C501B4010E94A21320E030E040E752E45C
:101550000E948B144B015C01B601DD0C880B990BCA
:101560000E9435159B01AC01C501B4010E94A31373
:1015700060934704709348048093490490934A040D
:101580006CE270E0C8010E946618FC019C012F5FAC
:101590003F4F91819C32C9F0933589F440914704C3
:1015A000509148046091490470914A0470584093E6
:1015B0004704509348046093490470934A0491810E
:1015C0009E3409F071C1909387046CE270E0C90108
:1015D0000E9466187C018C010F5F1F4FFC01818106
:1015E0008C3209F4DEC043E050E0B801CE01019630
:1015F0000E9478181C82CE0101960E943F184B0170
:101600005C01AC019B0160E876E988E990E00E940A
:1016100094172B013C01B7016C5F7F4F42E050E013
:10162000CE0101960E9478180A5F1F4F44E050E0F7
:10163000B801CE0103960E9478181F82CE01019650
:101640000E943F189B01AC01A2E3B0E00E94F41796
:1016500023E030E040E050E00E94C61769017A01C3
:10166000D301C2018C0D9D1DAE1DBF1D80933D0495
:1016700090933E04A0933F04B0934004C501B4018D
:101680000E9435156B877C878D879E87C701B601C1
:101690000E9435156B017C012CE933E549EC56E3DA
:1016A0000E94BA164B015C0120E030E040E752E4B2
:1016B0000E948B142B853C854D855E850E94A3136B
:1016C0006093AE037093AF038093B0039093B10324
:1016D000C301B20120EA36E841E050E00E94C6179B
:1016E000CA01B9010E943515A50194010E94A313F6
:1016F0004B015C0180921C0490921D04A0921E0478
:10170000B0921F0425E93FEB46ED53E3C701B60154
:101710000E94BA162B853C854D855E850E94A313D9
:101720006093A6037093A7038093A8039093A903E3
:1017300020E030E048EC52E4C501B4010E948B1473
:101740000E94FD146B0184E68C9DB0018D9D700D8F
:101750001124072E000C880B990B0E9435159B0154
:10176000AC01C501B4010E94A21320E030E040E7C3
:1017700052E40E948B144B015C01B601DD0C880B16
:10178000990B0E9435159B01AC01C501B4010E9463
:10179000A31360934304709344048093450490938F
:1017A00046046CE270E0C8010E946618FC01818169
:1017B0008C32C9F0873589F48091430490914404B8
:1017C000A0914504B0914604B0588093430490938F
:1017D0004404A0934504B09346049181973509F0E1
:1017E0006CC0909319046CE270E0CF0101960E94E6
:1017F00066188C010F5F1F4FFC0181818C3229F02C
:10180000C8010E942118809394026CE270E0C80124
:101810000E9466188C010F5F1F4FFC0181818C3282
:1018200029F0C8010E942118809324046CE270E022
:10183000C8010E9466188C010F5F1F4FFC01818157
:101840008C3259F0C8010E941D1860938304709374
:10185000840480938504909386046CE270E0C80150
:101860000E9466188C010F5F1F4FFC0181818C3232
:1018700059F0C8010E941D18609325047093260436
:1018800080932704909328046CE270E0C8010E94C2
:1018900066186CE270E001960E946618FC012181D6
:1018A0002C32A1F481E016CD933509F48CCE9C3214
:1018B00009F00FCD1092870488CE953409F491CFAA
:1018C0009C3209F006CD109219048DCF01960E942A
:1018D0001D1860938B0270938C0280938D029093FD
:1018E0008E02E0CF63E872E0C7010E948718892B5F
:1018F00009F4EFCC6CE270E0C7010E9466188C011D
:101900000F5F1F4FC8010E941D186B017C010E94D0
:1019100004152B013C0120E137E240E050E00E9439
:10192000A4172093000434E6832E912CA12CB12C13
:10193000A50194010E94A4172093AD03C301B20135
:10194000A50194010E94A4176093410420E030E0B7
:1019500040E85FE3C701B6010E947B1520E030E05C
:101960004AE754E40E94BA160E9404157093FF03DC
:101970006093FE036CE270E0C8010E946618FC01EF
:101980002181213409F07EC221E0209342046CE2DF
:1019900070E001960E9466187C018C010F5F1F4F5A
:1019A000FC0181818C3209F4DEC042E050E0B801D4
:1019B000CE0101960E9478181B82CE0101960E94EA
:1019C0003F184B015C01AC019B0160E876E988E9B6
:1019D00090E00E9494172B013C01B7016D5F7F4F8F
:1019E00042E050E0CE0101960E9478180B5F1F4F35
:1019F00044E050E0B801CE0103960E9478181F829F
:101A0000CE0101960E943F189B01AC01A2E3B0E019
:101A10000E94F41723E030E040E050E00E94C61737
:101A200069017A01D301C2018C0D9D1DAE1DBF1D40
:101A30008093FA039093FB03A093FC03B093FD0300
:101A4000C501B4010E9435156B877C878D879E8701
:101A5000C701B6010E9435156B017C012CE933E505
:101A600049EC56E30E94BA164B015C0120E030E0DD
:101A700040E752E40E948B142B853C854D855E85A2
:101A80000E94A3136093900270939102809392023C
:101A900090939302C301B20120EA36E841E050E09E
:101AA0000E94C617CA01B9010E943515A50194010B
:101AB0000E94A3134B015C0180924C0490924D0450
:101AC000A0924E04B0924F0425E93FEB46ED53E35C
:101AD000C701B6010E94BA162B853C854D855E85EF
:101AE0000E94A31360932004709321048093220426
:101AF0009093230420E030E048EC52E4C501B401A7
:101B00000E948B140E94FD146B0184E68C9DB00131
:101B10008D9D700D1124072E000C880B990B0E94CF
:101B200035159B01AC01C501B4010E94A21320E050
:101B300030E040E752E40E948B144B015C01B60197
:101B4000DD0C880B990B0E9435159B01AC01C5017A
:101B5000B4010E94A31360934704709348048093D8
:101B6000490490934A046CE270E0C8010E94661830
:101B7000FC019C012F5F3F4F91819C32C9F093354E
:101B800089F4409147045091480460914904709150
:101B90004A047058409347045093480460934904A2
:101BA00070934A0491819E3409F072C19093870426
:101BB0006CE270E0C9010E9466187C018C010F5F25
:101BC0001F4FFC0181818C3209F4DEC043E050E0FC
:101BD000B801CE0101960E9478181C82CE010196B0
:101BE0000E943F184B015C01AC019B0160E876E963
:101BF00088E990E00E9494172B013C01B7016C5FCB
:101C00007F4F42E050E0CE0101960E9478180A5FB3
:101C10001F4F44E050E0B801CE0103960E947818AF
:101C20001F82CE0101960E943F189B01AC01A2E3E6
:101C3000B0E00E94F41723E030E040E050E00E9462
:101C4000C61769017A01D301C2018C0D9D1DAE1D1D
:101C5000BF1D80933D0490933E04A0933F04B09336
:101C60004004C501B4010E9435156B877C878D87C0
:101C70009E87C701B6010E9435156B017C012CE9D6
:101C800033E549EC56E30E94BA164B015C0120E0B3
:101C900030E040E752E40E948B142B853C854D8553
:101CA0005E850E94A3136093AE037093AF0380938D
:101CB000B0039093B103C301B20120EA36E841E0DA
:101CC00050E00E94C617CA01B9010E943515A5014E
:101CD00094010E94A3134B015C0180921C0490921A
:101CE0001D04A0921E04B0921F0425E93FEB46EDAF
:101CF00053E3C701B6010E94BA162B853C854D857A
:101D00005E850E94A3136093A6037093A70380933C
:101D1000A8039093A90320E030E048EC52E4C50109
:101D2000B4010E948B140E94FD146B0184E68C9D0B
:101D3000B0018D9D700D1124072E000C880B990B9E
:101D40000E9435159B01AC01C501B4010E94A2138C
:101D500020E030E040E752E40E948B144B015C012C
:101D6000B601DD0C880B990B0E9435159B01AC0167
:101D7000C501B4010E94A31360934304709344040B
:101D800080934504909346046CE270E0C8010E9481
:101D90006618FC0181818C32C9F0873589F4809105
:101DA000430490914404A0914504B0914604B05876
:101DB0008093430490934404A0934504B093460455
:101DC0009181973509F06DC0909319046CE270E031
:101DD000CF0101960E9466188C010F5F1F4FFC0116
:101DE00081818C3259F0C8010E941D186093510402
:101DF0007093520480935304909354046CE270E007
:101E0000C8010E9466188C010F5F1F4FFC01818181
:101E10008C3259F0C8010E941D186093150470930C
:101E2000160480931704909318046CE270E0C801C4
:101E30000E946618FC0121812C3209F433CD0196F1
:101E40000E941D180E9404154B015C0120E137E23D
:101E500040E050E00E94A4172093500424E6C22ED4
:101E6000D12CE12CF12CA70196010E94A4172093FC
:101E70009B02C501B401A70196010E94A4176093BB
:101E80004B0410CD263509F024CA109242047FCDB0
:101E9000933509F48BCE9C3209F01BCA109287044B
:101EA00087CE953409F490CF9C3209F012CA109273
:101EB00019048CCF25B1982F9370922B95B925B129
:101EC000982F9C6F922395B92BB1982F9C7F922BC2
:101ED0009BB99BB1836089238BB94198419A08953E
:101EE0000F931F93CF93DF93EA01162F072F439889
:101EF00042980E945A0F429A802F0E945A0F812FB7
:101F00000E945A0F8D2F0E945A0F8C2F0E945A0F39
:101F1000439ADF91CF911F910F9108950F931F93D3
:101F2000CF93DF938B01E901B0E0A0E0DC019927BA
:101F3000882770E060E0482B592B6A2B7B2B8AE2C4
:101F40000E94700FC801B0E0A0E0DC01992788274B
:101F5000AE0170E060E0482B592B6A2B7B2B8BE2A3
:101F6000DF91CF911F910F910C94700FAF92BF92A0
:101F7000CF92DF92EF92FF920F931F93CF93DF9355
:101F80005C016B017A01E9010E948E0F439842982F
:101F90008CE20E945A0F429A97012F5F3F4F2A19F5
:101FA0003B09DE011196AC19BD090E94E5176B01D2
:101FB0007C0181E0C81AD108E108F1088FEFC8164A
:101FC000D806E806F80661F4439ADF91CF911F9195
:101FD0000F91FF90EF90DF90CF90BF90AF9008955A
:101FE000812F0E945A0F802F0E945A0FE2CF0F9329
:101FF0001F934817590760F02617370748F0403FEE
:10200000510530F42034E1E03E0710F40E94B60F91
:102010001F910F9108950F931F930FEF1FEF2FE361
:1020200031E04FEE50E070E060E090E080E00E9430
:10203000B60F0CEE1FE128EC30E048E750E06EE10F
:1020400070E084E190E00E94B60F08E419EF2EE002
:1020500031E046E950E064EB70E086E490E00E94F5
:10206000B60F0FE510E62CE231E04CED50E06AE0EF
:1020700070E080EA90E00E94B60F05E416EE28E7D3
:1020800030E04AEA50E062E370E080E590E00E94D0
:10209000B60F0FE91FE12BE331E048EC50E062E8B6
:1020A00070E082E890E00E94B60F0FEF10EF2CE294
:1020B00031E042E850E064E071E08AE090E00E94A4
:1020C000B60F0FE118EF2CE830E04CE850E064E682
:1020D00070E084E690E00E94B60F1F910F91089582
:1020E0001F93CF93DF93182FEB0143984298892FCA
:1020F0000E945A0F812F0E945A0F429A8D2F0E94E0
:102100005A0F8C2F0E945A0F439ADF91CF911F9143
:102110000895CF93C62F439842980E945A0F429A2F
:102120008C2F0E945A0F439ACF91089588B18F64E3
:1021300088B92FEF8FE392E0215080409040E1F783
:1021400000C00000469825E02A95F1F7469A43988A
:10215000429880E00E945A0F83E04198419A815052
:10216000E1F7439A8FEF9FE322E0815090402040B7
:10217000E1F700C0000008950E94961060E081E041
:102180000E9489102FEF8FE191E021508040904014
:10219000E1F700C0000060E088E20E94891063E27D
:1021A00080EC0E94891060E181EC0E9489106BE252
:1021B0007BE285EC90E00E94701060EC87EC0E945E
:1021C000891068E886E30E94891065E58AE30E9429
:1021D00089106BE170E081EB90E00E94701067E085
:1021E00087EB0E94891060E081E10E9489102FEF47
:1021F0008FE593E0215080409040E1F700C000005F
:1022000060E089E20E9489102FEF8FE39BE021506C
:1022100080409040E1F700C00000089598E0699F79
:10222000B0011124607E7770469546954695642BE3
:1022300090E0982F88278827987F862B972B0895E2
:102240008F929F92AF92BF92CF92DF92EF92FF92C6
:102250000F931F93CF93DF9388E0C82E81E0D82E91
:1022600090E1E92E91E0F92E28E1A22E21E0B22E94
:10227000D0E0C0E09E01295D3F4F4FEE50E0BE012F
:1022800090E080E00E948E0F439842988CE20E947A
:102290005A0F429AF60141916F01F70161917F0156
:1022A000F50181915F010E940E11982E892E08E29E
:1022B00010EF882D0E945A0F892D0E945A0F11503D
:1022C000C1F70150A9F7439AA896C034F1E0DF079F
:1022D00089F6DF91CF911F910F91FF90EF90DF90E2
:1022E000CF90BF90AF909F908F900895CF93DF9342
:1022F000EA01803F9105D0F4603421E07207B0F428
:102300002FE331E04FEE50E00E948E0F4398429849
:102310008CE20E945A0F8CE20E945A0F429A8D2F33
:102320000E945A0F8C2F0E945A0F439ADF91CF912F
:1023300008954F925F926F927F928F929F92AF9289
:10234000BF92CF92DF92EF92FF920F931F93CF93A2
:10235000DF935C013B012901803F91050CF041C0F6
:10236000603481E078070CF03CC0C50126E0029F94
:10237000800D911D1124181619069CF528E0029F66
:10238000C0011124860F971F1816190654F585E011
:10239000489FA0011124D0E0C0E0CA0187519E4FA0
:1023A0007C01F701EC0FFD1F1491D12CC12C4501CC
:1023B0008C0E9D1E10FF09C0013039F4A201B3013B
:1023C0006C0D7D1DC4010E94761116959FEFC91AF0
:1023D000D90A28E0C216D10469F72196C530D10583
:1023E00001F7DF91CF911F910F91FF90EF90DF9058
:1023F000CF90BF90AF909F908F907F906F905F90A5
:102400004F9008956F927F928F929F92AF92BF925A
:10241000CF92DF92EF92FF920F931F93CF93DF93B0
:102420006B0159014801403F510514F520E4A21603
:1024300021E0B206ECF466E06C9D90016D9D300DDC
:102440001124240F351F1216130694F4960163E02D
:10245000220F331F6A95E1F72A0D3B1D1216130652
:102460003CF4EA017C01712C612C6C147D047CF03D
:10247000DF91CF911F910F91FF90EF90DF90CF9060
:10248000BF90AF909F908F907F906F900895F701CD
:1024900041917F01442361F301E09401B501CE0134
:1024A0000E949911FFEF6F1A7F0A2696DECF2F92B6
:1024B0003F924F925F926F927F928F929F92AF92D4
:1024C000BF92CF92DF92EF92FF920F931F93CF9321
:1024D000DF9300D000D0CDB7DEB79C838B837B0128
:1024E0006A0158018901061B170B17FF03C01195DC
:1024F0000195110946018B819C81881A990A97FEE2
:1025000003C0919481949108801691065CF49C2DEF
:102510008D2D6901292F382F9B818C81FC82EB82C4
:10252000E92EF82E8B819C81C816D9065CF49E2D6D
:102530008F2D7901292F382F9B818C81DC82CB82D2
:10254000C92ED82E16018B819C81281A390A29019F
:102550004E185F0857FE03C0519441945108310151
:1025600037FE03C09FEF691A790A759467948FEF5D
:102570009FEFE216F30614F481E090E09A838983DA
:102580001BC0A5016B817C81C701801691061CF0E0
:10259000B7018B819C810E9476116418750877FEC3
:1025A00006C089819A81E80EF91E620C731C8B812A
:1025B0009C8101969C838B838B819C81C816D90654
:1025C00004F70F900F900F900F90DF91CF911F9114
:1025D0000F91FF90EF90DF90CF90BF90AF909F90C2
:1025E0008F907F906F905F904F903F902F900895C5
:1025F0000F931F93460F571F4150510989019A01AC
:10260000AC010E9457121F910F9108950C94F8127B
:10261000AF92BF92CF92DF92EF92FF920F931F93F0
:10262000CF93DF936B015901EC017C01E40EF51EA1
:10263000CE15DF055CF0DF91CF911F910F91FF90D8
:10264000EF90DF90CF90BF90AF9008959801A501D3
:10265000B601CE010E94F8122196EACF0F931F9384
:102660008C0120E431E040EF50E070E060E090E069
:1026700080E00E9408131F910F91089584B1836038
:1026800084B98AB18C6F8AB988B18F6488B987B1EF
:102690008F6487B90E94BC104FEF6FEF8FEF0E94DD
:1026A0000E11909396028093950240E060E080E0E6
:1026B0000E940E1190936A04809369040E9412088C
:1026C0000E94980800919502109196022FE331E044
:1026D0004FEE50E070E060E090E080E00E94F70F85
:1026E000CDE2D1E083E397E00197F1F70E9454082F
:1026F0000E940709882321F00E940D090E942209E7
:10270000219781F70E9494032091000130910101EB
:102710004091020150910301609104017091050103
:1027200080910601909107010E9479040E9432076E
:102730009FEF2FE382E0915020408040E1F700C0FE
:102740000000CECF5058BB27AA270E94BA130C9482
:102750005F160E94261638F00E942D1620F039F4DC
:102760009F3F19F426F40C94FC150EF4E095E7FB5A
:102770000C94E815E92F0E94841658F3BA176207E3
:1027800073078407950720F079F4A6F50C94A61634
:102790000EF4E0950B2EBA2FA02D0B01B90190017C
:1027A0000C01CA01A0011124FF27591B99F0593FC0
:1027B00050F4503E68F11A16F040A22F232F342F08
:1027C0004427585FF3CF469537952795A795F04056
:1027D0005395C9F77EF41F16BA0B620B730B840B6B
:1027E000BAF09150A1F0FF0FBB1F661F771F881F23
:1027F000C2F70EC0BA0F621F731F841F48F487957B
:1028000077956795B795F7959E3F08F0B0CF93956C
:10281000880F08F09927EE0F9795879508950E94E5
:10282000261660F080E891E009F49EEF0E942D16D4
:1028300028F040E851E071F45EEF0CC00C94FC15F8
:102840000C94A616E92FE0780E94841640F3092E16
:10285000052AB1F3261737074807590738F00E2E17
:1028600007F8E02569F0E025E0640AC0EF6307F8A7
:10287000009407FADB01B9019D01DC01CA01AD0139
:10288000EF930E94A2140E945F160E9452145F915F
:10289000552339F02BED3FE049E450FD49EC0C9411
:1028A000A3130895DF93DD27B92FBF7740E85FE3D7
:1028B0001616170648075B0718F4D92F0E94B216A0
:1028C0009F938F937F936F930E947517E8E6F0E0D4
:1028D0000E94FF150E945F162F913F914F915F91CB
:1028E0000E94CD16DD2351F09058A2EA2AED3FE078
:1028F00049EC5FE3D0785D270E94BA13DF910C9416
:102900005F160E94C41508F481E008950E943616EF
:10291000E3950C9470160E949F140C945F160E940D
:102920002D1658F00E94261640F029F45F3F29F03A
:102930000C94E81551110C94A7160C94FC150E94E8
:10294000841668F39923B1F3552391F3951B550B26
:10295000BB27AA2762177307840738F09F5F5F4F72
:10296000220F331F441FAA1FA9F335D00E2E3AF0B1
:10297000E0E832D091505040E695001CCAF72BD0C9
:10298000FE2F29D0660F771F881FBB1F261737071A
:102990004807AB07B0E809F0BB0B802DBF01FF274C
:1029A00093585F4F3AF09E3F510578F00C94E8152C
:1029B0000C94A7165F3FE4F3983ED4F38695779581
:1029C0006795B795F7959F5FC9F7880F911D969505
:1029D000879597F90895E1E0660F771F881FBB1F61
:1029E000621773078407BA0720F0621B730B840B0E
:1029F000BA0BEE1F88F7E09508950E9404156894BD
:102A0000B1110C94A71608950E948C1688F09F5758
:102A100098F0B92F9927B751B0F0E1F0660F771F02
:102A2000881F991F1AF0BA95C9F714C0B13091F0F8
:102A30000E94A616B1E008950C94A616672F782F71
:102A40008827B85F39F0B93FCCF3869577956795BD
:102A5000B395D9F73EF490958095709561957F4F29
:102A60008F4F9F4F0895E89409C097FB3EF49095CF
:102A70008095709561957F4F8F4F9F4F9923A9F057
:102A8000F92F96E9BB279395F695879577956795E6
:102A9000B795F111F8CFFAF4BB0F11F460FF1BC02A
:102AA0006F5F7F4F8F4F9F4F16C0882311F096E9BD
:102AB00011C0772321F09EE8872F762F05C066236B
:102AC00071F096E8862F70E060E02AF09A95660F24
:102AD000771F881FDAF7880F9695879597F90895DD
:102AE0000E94261620F019F00E942D1650F40C9426
:102AF000FC150C94A716E92F0E94841688F3552321
:102B0000B1F3E7FB6217730784079507A8F189F310
:102B1000E92FFF2788232AF03197660F771F881F38
:102B2000DAF7952F5527442332F091505040220F69
:102B3000331F441FD2F7BB27E91BF50B621B730B36
:102B4000840BB109B1F222F4620F731F841FB11D0F
:102B500031972AF0660F771F881FBB1FEFCF915068
:102B6000504062F041F0882332F0660F771F881FD3
:102B700091505040C1F793950C94EE15869577953A
:102B800067959F5FD9F7F7CF990F0008550FAA0BEC
:102B9000E0E8FEEF16161706E807F907C0F0121670
:102BA0001306E407F50798F0621B730B840B950B73
:102BB00039F40A2661F0232B242B252B21F40895C8
:102BC0000A2609F4A140A6958FEF811D811D089565
:102BD00097F99F6780E870E060E008959F3F31F0CB
:102BE000915020F4879577956795B795880F911D3B
:102BF0009695879597F908959FEF80EC0895DF9358
:102C0000CF931F930F93FF92EF92DF927B018C0182
:102C1000689406C0DA2EEF010E94CD16FE01E894FA
:102C2000A5912591359145915591A6F3EF010E940B
:102C3000BA13FE019701A801DA9469F7DF90EF90CB
:102C4000FF900F911F91CF91DF91089500240A9476
:102C50001616170618060906089500240A94121677
:102C600013061406050608950C94FC150E948C1694
:102C7000D8F3E894E0E0BB279F57F0F02AED3FE05F
:102C800049EC06C0EE0FBB0F661F771F881F28F0A8
:102C9000B23A62077307840728F0B25A620B730BCB
:102CA000840BE3959A9572F7803830F49A95BB0FB0
:102CB000661F771F881FD2F790480C94F015092ED5
:102CC0000394000C11F4882352F0BB0F40F4BF2B87
:102CD00011F460FF04C06F5F7F4F8F4F9F4F0895C7
:102CE000EF93E0FF07C0A2EA2AED3FE049EC5FEB7B
:102CF0000E94BA130E945F160F90039401FC905833
:102D0000E5E9F0E00C94801757FD9058440F551FEB
:102D100059F05F3F71F04795880F97FB991F61F05D
:102D20009F3F79F087950895121613061406551FD4
:102D3000F2CF4695F1DF08C0161617061806991F40
:102D4000F1CF86957105610508940895E894BB2735
:102D500066277727CB0197F908950E94C41508F4D8
:102D60008FEF08959B01AC0160E070E080E89FE385
:102D70000C948B140E94CD160C945F160E9426169C
:102D800038F00E942D1620F0952311F00C94E815D0
:102D90000C94FC1511240C94A7160E94841670F351
:102DA000959FC1F3950F50E0551F629FF001729FF0
:102DB000BB27F00DB11D639FAA27F00DB11DAA1FFF
:102DC000649F6627B00DA11D661F829F2227B00D4C
:102DD000A11D621F739FB00DA11D621F839FA00DD7
:102DE000611D221F749F3327A00D611D231F849F27
:102DF000600D211D822F762F6A2F11249F5750407E
:102E00009AF0F1F088234AF0EE0FFF1FBB1F661FF8
:102E1000771F881F91505040A9F79E3F510580F0C1
:102E20000C94E8150C94A7165F3FE4F3983ED4F396
:102E3000869577956795B795F795E7959F5FC1F765
:102E4000FE2B880F911D9695879597F908959F936E
:102E50000E9436160F9007FCEE5F0C94701619F462
:102E600016F40C94FC150C94EE150E948C16B8F315
:102E70009923C9F3B6F39F57550B87FF0E94791723
:102E80000024A0E640EA900180585695979528F4D2
:102E9000805C660F771F881F20F0261737074807CA
:102EA00030F4621B730B840B202931294A2BA69521
:102EB00017940794202531254A2758F7660F771F66
:102EC000881F20F026173707480730F4620B730B72
:102ED000840B200D311D411DA09581F7B901842F70
:102EE0009158880F9695879508959B01AC010C9495
:102EF000BA1691505040660F771F881FD2F7089579
:102F00009F938F937F936F93FF93EF939B01AC01FC
:102F10000E94BA16EF91FF910E94FF152F913F91E9
:102F20004F915F910C94BA16DB018F939F930E948F
:102F3000F417BF91AF91A29F800D911DA39F900D9B
:102F4000B29F900D11240895A1E21A2EAA1BBB1B5B
:102F5000FD010DC0AA1FBB1FEE1FFF1FA217B30765
:102F6000E407F50720F0A21BB30BE40BF50B661F7B
:102F7000771F881F991F1A9469F76095709580953F
:102F800090959B01AC01BD01CF010895052E97FBE3
:102F90001EF400940E94DD1757FD07D00E94A4176D
:102FA00007FC03D04EF40C94DD17509540953095F6
:102FB00021953F4F4F4F5F4F0895909580957095A5
:102FC00061957F4F8F4F9F4F0895A29FB001B39F90
:102FD000C001A39F700D811D1124911DB29F700D22
:102FE000811D1124911D08950E94E517A59F900D44
:102FF000B49F900DA49F800D911D11240895EF9210
:103000000F931F93CF93DF93E80134E047FD34E142
:10301000042E000C550B57FF03C0519541955109E3
:10302000E32E022F242FAE010E94B91ACE01DF91A8
:10303000CF911F910F91EF900895662777270C94F9
:103040001B1CFC0188279927E89421912032E9F381
:10305000293010F02E30C8F32B3241F02D3239F4E4
:10306000689404C00E94B618820F911D21912053CC
:103070002A30C0F31EF4909581959F4F08951F93B9
:10308000FC0199278827BC01E89411911032E9F3DB
:10309000193010F01E30C8F31B3251F01D3249F4C4
:1030A000689406C00E94A118610F711D811D911DB9
:1030B000119110531A30B0F33EF4909580957095AD
:1030C00061957F4F8F4F9F4F1F910895FC01819114
:1030D000861721F08823D9F7992708953197CF01D2
:1030E0000895FB01DC0101900D920020E1F70895A5
:1030F000FB01DC014150504048F001900D9200204E
:10310000C9F701C01D9241505040E0F70895FB01FE
:1031100051915523A9F0BF01DC014D914517411193
:10312000E1F759F4CD010190002049F04D9140158F
:103130004111C9F3FB014111EFCF81E090E001970C
:103140000895592F482F372F262F660F771F881F76
:10315000991F660F771F881F991F620F731F841FA7
:10316000951F660F771F881F991F08957AE0979F14
:10317000902D879F802D910D11240895AEE0B0E031
:10318000E4ECF8E10C94071F0D891E898F89988D56
:1031900026E02C831A83098397FF02C080E090E821
:1031A00001979E838D83AE01455E5F4F698D7A8D59
:1031B000CE0101960E94EE184D815E8157FD0AC036
:1031C0002F813885421753070CF49A01020F131F01
:1031D000F80110822E96E4E00C94231FABE0B0E0DF
:1031E000E4EFF8E10C94F91E7C013B018A01FC013B
:1031F00017821682838181FFB9C19AE0292ECE0100
:1032000001965C01F7019381F30193FD859193FF92
:1032100081913F01882309F446C1853239F493FD39
:10322000859193FF81913F01853229F4B70190E0A8
:103230000E94681EE7CF912C412C512CFFE1F5151F
:1032400038F08B3209F188F4803201F1833221F1B8
:1032500057FC3AC020ED280F2A3040F556FE1FC01B
:10326000929C200D1124922E06C08D3291F0803355
:1032700079F7689450F8F30193FD859193FF81915C
:103280003F018111DBCF20C0689451F8689452F857
:10329000F2CF689453F8EFCF689454F8ECCF429C87
:1032A000200D1124422E689455F8E5CF8E3229F472
:1032B00056FCF9C0689456F8DECF8C3619F4689441
:1032C00057F8D9CF8836B9F2982F9F7D955493300F
:1032D000C0F08336A1F18337C1F1833509F05BC0BB
:1032E000F801C190D1908F01692D70E056FC02C0A9
:1032F0006FEF7FEFC6010E94521E4C01689457F891
:103300000AC00C5F1F4F2FE3298388248394912CDC
:103310006501E89457F853FC04C04814190409F0F7
:1033200018F5342C8114910431F5332009F46ACF57
:10333000B70180E290E00E94681E3A94F6CFF8014F
:10334000808189830E5F1F4FE0CFF801C190D1903B
:103350008F01692D70E056FC02C06FEF7FEFC60150
:103360000E945D1E4C01D5CFB70180E290E00E9423
:10337000681E4A94D2CFF60157FC859157FE819181
:103380006F01B70190E00E94681E31103A94F1E09D
:103390008F1A9108C7CF843619F0893609F074C0A6
:1033A000F80157FE6AC061917191819191918F01ED
:1033B000252D2F76D22E97FF09C090958095709578
:1033C00061957F4F8F4F9F4F6894D7F82AE030E088
:1033D000A5010E94981EC82ECA188C2C5D2CD6FE02
:1033E0000CC0E89450F8C91440F4D4FE05C0D2FCD7
:1033F00003C0FD2DFE7E5F2E892C54FE8FC0FE0182
:10340000EC0DF11D8081803309F081C0252D297ECE
:10341000522E852D8870382E53FC8FC050FE89C0E7
:103420009C2C841418F44C0C942C981854FE8BC0CB
:10343000B70180E390E00E94681E52FE09C088E751
:1034400090E051FE02C088E590E0B7010E94681E3E
:10345000C91408F484C0CA94D12C9FEFC91AD90AA0
:10346000CA0CDB1CF60182916F01B70190E00E944B
:10347000681EAC14BD04B1F758CF61917191072E4D
:10348000000C880B990B93CFD52CE894D4F82AE044
:1034900030E0853739F1952D997FD92E8F3601F19E
:1034A00048F48835A9F0F701868197812B96E2E1EF
:1034B0000C94151F803749F08837A9F7D4FE02C055
:1034C0006894D2F820E130E00DC06894D4F8F6CFCB
:1034D00054FE03C0E92FE660DE2E20E132E002C098
:1034E00028E030E0F801D7FE0DC061917191819123
:1034F00091918F01A5010E94981EC82ECA18E894C8
:10350000D7F86BCF6191719190E080E0F2CF52FCDF
:1035100002C083947ECF839483947BCF852D86785D
:1035200009F477CFF6CFB70180E290E00E94681EE1
:1035300083948414C0F3312C79CF342C381884143C
:1035400008F474CFF8CF852D867809F481CF8BE20B
:1035500051FE80E257FC8DE2B70190E077CFB701D2
:1035600080E390E00E94681E9A9472CF8FEF9FEFE5
:103570009DCFA9E0B0E0EFEBFAE10C94FF1E6A01E9
:10358000F22EB02E102F0BE30B1508F41BE31F5F78
:10359000012F27E0AE014F5F5F4F0E94591DBC0114
:1035A0008981982F99709130C9F19BE2E1FC04C0A8
:1035B0009E2D9170E0FC90E25E2D5071E82FE87036
:1035C00083FF48C083E0911184E0EF2DE81B8F1545
:1035D00008F0E0E0552371F1992319F0D6019D938D
:1035E0006D01C6010396E2FE29C02EE4D6012C939C
:1035F00031E411963C93119712962C932E2F382F6D
:10360000492F50E221111FC0E80FF92FF11D108240
:103610008EEF9FEF2996ECE00C941B1F9DE2CCCF20
:10362000D9014D9381509D018111FACFCE0ED11C4D
:10363000E0E0D2CF8E2F960140E2F6CF2EE6D60103
:103640002C9331E6D6CFA32FB42F5D9321503A2F80
:103650004B2FD8CF482F447082FF41C083E0911197
:1036600084E08F1510F4EF2DE81B552359F19923B1
:1036700019F0D6019D936D01C6010396E2FE26C0A6
:1036800029E4D6012C932EE411962C93119726E46D
:1036900012962C932E2F382F492F50E2222309F413
:1036A000B3CFA32FB42F5D9321503A2F4B2FF6CFDA
:1036B000D9014D9381509D018111FACFCE0ED11CBD
:1036C000E0E0D5CF8E2F960140E2F6CF29E6D60175
:1036D0002C932EE611962C93119726E6D9CF9B01B9
:1036E00077FF02C030E020E0A1E0B0E0911102C01D
:1036F000B0E0A0E0F9013196AE0FBF1F8B2C912CEA
:10370000BB20F1F05401EFEFAE1ABE0AAA0DBB1DAB
:10371000FA161B0619F014F04F2D4A1B511145C023
:10372000E3FC08C07601A42FB0E2A1110CC0C40EC6
:10373000D11C40E091113BC0D601942F50E30AC048
:10374000B12CA12CE3CFF701B1937F01A150EDCFB4
:103750005D9391509111FCCFC40ED11C40E02DC05F
:1037600001E03AC050E354C06217730739F4A6333E
:1037700020F4A53319F4B11101C051E3D6015C93D3
:10378000242F382F592F60E2211108C0480F592FDC
:10379000511DFA01108290E080E03CCFE32FF52F1D
:1037A000619321503E2F5F2FEFCF992331F0D60147
:1037B0009D936D01552309F4BFCF012F060FAA81F8
:1037C000B82FB07184FF03C0A13309F40150101663
:1037D0003CF6093008F008E0FB01E01BF1098F011D
:1037E000EE24FF24E818F9088EE2B82E621773075A
:1037F0000CF4B8CF021713070CF0B4CFFB01E21B97
:10380000F30B81E090E08C0F9D1FE80FF91F5181B1
:1038100021503109C60101962E153F050CF4A4CFA5
:10382000F60150832F3F320721F4C6010296F601BC
:10383000B1826C01DBCFB0E0A0E0E1E2FCE10C94EE
:10384000FF1E7C016B016115710519F0FB0191836D
:103850008083E7010991802F90E00E94311E5C0176
:10386000892BB1F50D32B1F50881E701229611E0FF
:103870007E01F1E0EF1AF10843E050E06CEB70E0FC
:10388000C7010E943A1E892B61F57E0182E0E80E95
:10389000F11C45E050E067EB70E0C7010E943A1E62
:1038A000892B21F47E0197E0E90EF11CC114D104AB
:1038B00019F0F601F182E08260E070E080E89FE7B5
:1038C000112309F4F1C060E070E080E89FEFECC0E4
:1038D0007E01BFCF0B3219F40881E701229610E078
:1038E000C7CF43E050E064EB70E0C7010E943A1E8E
:1038F000892B61F4C114D10421F02296F601D18301
:10390000C08360E070E080EC9FE7CEC0F12CE12C3A
:1039100020E030E0A901F0EDF00FFA3058F5E12F8A
:10392000E260812F887012FF08C0811103C0FFEF91
:10393000EF1AFF0A09911E2FEECF882319F081E0BC
:10394000E81AF108A5E0B0E00E94F4179B01AC0171
:10395000220F331F441F551F2F0F311D411D511DB5
:10396000283999E93907490799E1590718F3E12FEF
:10397000E660E0CFFE3F29F413FD3AC0E12FE86096
:10398000D9CF0F7D0534A1F588818D3241F41061C6
:10399000BE016E5F7F4F8981E2E0F0E007C0BE01AB
:1039A0008B32B9F36F5F7F4FE1E0F0E08053EB01C2
:1039B000CE1BDF0B8A30E0F4E0E8AE16ECE0BE068A
:1039C0005CF4F501EE0FFF1FEE0FFF1FAE0EBF1EE2
:1039D000AA0CBB1CA80EB11CEB01899180538A3044
:1039E00090F114FF03C0B194A194B108EA0CFB1C40
:1039F00011FF07C0C114D10421F02197F601D18332
:103A0000C083CA01B9010E9433151370133009F441
:103A100090584B015C0120E030E0A9010E94811424
:103A2000882309F43FC0CBEED0E0F7FE05C0F19447
:103A3000E194F108C3EDD0E06E01F8E1CF1AD108AE
:103A400000E210E00FC0BE01B7CFFE012591359115
:103A500045915491E01AF10AC501B4010E94BA16C9
:103A60004B015C01D501C401E016F10674F72497FF
:103A700015950795CC15DD05A9F78A2F880F8B2F93
:103A8000881F8F3F49F020E030E0A901C501B40153
:103A90000E948114811106C082E290E09093930508
:103AA00080939205C501B401CDB7DEB7ECE00C946C
:103AB0001B1F283008F027E03327DA01990F311D4A
:103AC00087FD916000966105710539F432602E5FC3
:103AD0003D9330E32A95E1F708959F3F30F0803819
:103AE0007105610509F03C5F3C5F3D93913008F042
:103AF0008068911DDF93CF931F930F93FF92EF92F6
:103B0000192F987F9695E92F96959695E90FFF279F
:103B1000E75BFE4F99273327EE24FF24A701E70137
:103B200005900894079428F4360FE71EF81E491FE5
:103B3000511D660F771F881F991F0694A1F70590E6
:103B4000079428F4E70EF81E491F561FC11D770F72
:103B5000881F991F661F0694A1F70590079428F403
:103B6000F80E491F561FC71FD11D880F991F661FCA
:103B7000771F0694A1F70590079420F4490F561F6C
:103B8000C71FD81F990F661F771F881F0694A9F7B4
:103B900084911095177041F0D695C7955795479524
:103BA000F794E7941A95C1F7EFEEF0E0689415905A
:103BB000159135916591959105907FE27395E11886
:103BC000F10A430B560BC90BD009C0F7E10CF11EEB
:103BD000431F561FC91FD01D7EF4703311F48A9500
:103BE000E6CFE894015030F0080F0AF400270217DE
:103BF00008F4202F2395022F7A3328F079E37D9360
:103C00002A95E9F710C07D932A9589F60694979531
:103C10006795379517951794E118F10A430B560BE2
:103C2000C90BD00998F023957E9173957A3308F0EB
:103C300070E37C932013B8F77E9170617D9330F030
:103C4000839571E37D9370E32A95E1F71124EF905A
:103C5000FF900F911F91CF91DF91992787FD90954C
:103C6000089591110C94F61E803219F089508550F8
:103C7000C8F70895FB01DC014150504088F08D9158
:103C800081341CF08B350CF4805E659161341CF03E
:103C90006B350CF4605E861B611171F3990B08950E
:103CA000881BFCCFFC010590615070400110D8F7D3
:103CB000809590958E0F9F1F0895FC016150704074
:103CC00001900110D8F7809590958E0F9F1F089551
:103CD0000F931F93CF93DF93182F092FEB018B8145
:103CE00081FD09C01FEF0FEF812F902FDF91CF9142
:103CF0001F910F91089582FF14C02E813F818C8106
:103D00009D81281739073CF4E881F981CF0101969C
:103D10009983888310838E819F8101969F838E83F0
:103D2000E3CFE885F985812F0995892BA1F3DACFB7
:103D3000FA01AA27283051F1203181F1E8946F93DC
:103D40006E7F6E5F7F4F8F4F9F4FAF4FB1E03ED082
:103D5000B4E03CD0670F781F891F9A1FA11D680F20
:103D6000791F8A1F911DA11D6A0F711D811D911D53
:103D7000A11D20D009F468943F912AE0269F1124C8
:103D80003019305D3193DEF6CF010895462F47702C
:103D9000405D4193B3E00FD0C9F7F6CF462F4F7087
:103DA000405D4A3318F0495D31FD4052419302D0E5
:103DB000A9F7EACFB4E0A69597958795779567958B
:103DC000BA95C9F700976105710508959B01AC018B
:103DD0000A2E06945795479537952795BA95C9F7B2
:103DE000620F731F841F951FA01D089599278827B0
:103DF00008952F923F924F925F926F927F928F928F
:103E00009F92AF92BF92CF92DF92EF92FF920F9369
:103E10001F93CF93DF93CDB7DEB7CA1BDB0B0FB673
:103E2000F894DEBF0FBECDBF09942A883988488830
:103E30005F846E847D848C849B84AA84B984C884C6
:103E4000DF80EE80FD800C811B81AA81B981CE0FBD
:103E5000D11D0FB6F894DEBF0FBECDBFED010895A2
:043E6000F894FFCF04
:103E64000794ECC200150842000000FF00FFFFFFAA
:103E74000000FF00FFFF00FF00FF0000FF00FFFF46
:103E84004461746554696D653A2025752D25752D39
:103E940025752025753A25753A2575200D0A46693C
:103EA400783A2025642C20466978207175616C6904
:103EB40074793A2025752C204E756D2053617465F4
:103EC4006C6C697465733A2025750D0A004461743D
:103ED4006554696D653A2025752D25752D25752048
:103EE40025753A25753A2575200D0A4C6F63617462
:103EF400696F6E3A2025632025732C2025632025C5
:103F0400730D0A4669783A2025642C204669782086
:103F14007175616C6974793A2025752C204E756D24
:103F240020536174656C6C697465733A2025750D52
:103F34000A002045004E4500204E004E57002057F1
:103F440000535700205300534500476F616C206CA9
:103F54006F633A2025732C2025730D0A4375727202
:103F6400656E743A2025732C2025730D0A446972FA
:103F7400656374696F6E3A2025732025730D0A44B6
:103F8400697374616E63653A202573206665657490
:103F94000D0A004665746368696E672047505320B4
:103FA400444154412E2E2E2E2E00476F616C3A2030
:103FB40025732C2025730043757272656E743A2044
:103FC40025732C2025730044697374616E63653A0C
:103FD40020257320257320666565740024475047A7
:0A3FE400474100244750524D4300AE
:00000001FF
