:100000000C94CF000C94EC000C94EC000C94EC00DD
:100010000C94EC000C94EC000C94EC000C94EC00B0
:100020000C94EC000C94EC000C94EC000C94EC00A0
:100030000C94EC000C94EC000C94EC000C94EC0090
:100040000C94EC000C94EC000C94EC000C94EC0080
:100050000C94EC000C94EC000C94EC000C94EC0070
:100060000C94EC000C94EC004E414E494E4954590E
:10007000494E46CDCCCC3D0AD7233C17B7D1387773
:10008000CC2B329595E6241FB14F0A000020410089
:1000900000C84200401C4620BCBE4CCA1B0E5AAED3
:1000A000C59D7400407A10F35A00A0724E180900E2
:1000B00010A5D4E80000E87648170000E40B5402CD
:1000C0000000CA9A3B000000E1F505000080969808
:1000D00000000040420F000000A086010000001058
:1000E0002700000000E8030000000064000000009A
:1000F000000A00000000000100000000002C76D87B
:1001000088DC674F0823DFC1DFAE59E1B1B796E560
:10011000E3E453C63AE651997696E8E6C28426EBC4
:10012000898C9B62ED407C6FFCEFBC9C9F40F2BAD7
:10013000A56FA5F490055A2AF75C936B6CF9676D6F
:10014000C11BFCE0E40D47FEF520E6B500D0ED90C4
:100150002E0300943577050080841E080000204E91
:100160000A000000C80C333333330F986E1283112A
:1001700041EF8D2114893BE65516CFFEE6DB18D101
:10018000844B381BF77C1D901DA4BBE424203284D3
:10019000725E228100C9F124ECA1E53D2700112403
:1001A0001FBECFEFD8E0DEBFCDBF11E0A0E0B1E0D1
:1001B000E4E8F5E202C005900D92A637B107D9F741
:1001C00022E0A6E7B1E001C01D92A23CB207E1F730
:1001D0000E9477080C94C0120C940000CF92DF921A
:1001E000EF92FF920F931F93CF93DF93CDB7DEB7BC
:1001F000C852D1400FB6F894DEBF0FBECDBF7E010E
:1002000081E0E80EF81E60919C0170919D01809143
:100210009E0190919F01870127E04CE00E946D0BA9
:100220006E019BEEC91A9EEFD90A6091850170910B
:1002300086018091870190918801860127E04CE03A
:100240000E946D0B8091A0011F928F9380917D0180
:100250001F928F938091AC011F928F93DF92CF9268
:1002600080919701282F082E000C330B3F938F931A
:10027000FF92EF928091C701282F082E000C330BBC
:100280003F938F938091AA011F928F9380918A014F
:100290001F928F93809192011F928F938091BC0146
:1002A0001F928F93809184011F928F938091B6014A
:1002B0001F928F9380E091E09F938F9381E08F93C3
:1002C0001F92045111401F930F930E94250C0FB6EB
:1002D000F894DEBF0FBECDBFC8010E949801C85D73
:1002E000DE4F0FB6F894DEBF0FBECDBFDF91CF91CA
:1002F0001F910F91FF90EF90DF90CF9008958FE2C4
:1003000090E09093C5008093C400E1ECF0E0808120
:100310008860808380818061808386E08093C200D2
:1003200008959091C00095FFFCCF8093C60008957A
:100330000F931F93CF93DF938C01D0E0C0E0F801BF
:1003400001900020E9F73197E01BF10BCE17DF0792
:1003500028F0DF91CF911F910F91089583E397E0EB
:100360000197F1F7F801EC0FFD1F80810E949101C8
:100370002196E5CF8091C00087FFFCCF8091C60019
:1003800008950E94BA018A3009F5E0917601209122
:10039000BE023091BF02E20FF32FF11D10822091B7
:1003A000BE023091BF0291E02E3C390729F546E4A8
:1003B00052E05093BF024093BE023093CB01209392
:1003C000CA011092760191E09093CD012091BE0276
:1003D0003091BF02E091760191E09E0F90937601FB
:1003E000E20FF32FF11D808390917601983718F07A
:1003F00097E79093760108952EEC31E03093BF0299
:100400002093BE0226E432E0D8CF1092CD011092A4
:100410007B01109276018EEC91E09093BF02809365
:10042000BE0286E492E09093CB018093CA011092C1
:10043000A00110927D011092BC01109284011092D3
:10044000B6011092AA0110928A01109292011092A4
:10045000C801109297011092C7011092AC0110923E
:100460009101109290011092C3011092C401109258
:10047000C5011092C6011092800110928101109264
:1004800082011092830110929301109294011092B4
:100490009501109296011092BF011092C001109226
:1004A000C1011092C2011092A1011092A2011092FA
:1004B000A3011092A401109277011092780110927A
:1004C000790110927A01109298011092990110927C
:1004D0009A0110929B011092B8011092B9011092EA
:1004E000BA011092BB0108958091CD0108958093C7
:1004F0007B0108951092CD018091CA019091CB01AA
:100500000895803354F08A3314F4805308959FEB98
:10051000980F963010F48753089580E008954F9215
:100520005F926F927F928F929F92AF92BF92CF9283
:10053000DF92EF92FF920F931F93CF93DF93CDB78C
:10054000DEB72A970FB6F894DEBF0FBECDBF7C0191
:10055000FC0101900020E9F73197E81BF90B6F01CE
:1005600084E0C81AD108D701AC0DBD1D8C918A3228
:1005700009F03FC087010E0F1F1FF80133978081DC
:100580000E94810290E1899F50011124F801329765
:1005900080810E9481028A0D9B2D911D42E0242FB3
:1005A00030E02C153D05D0F0892B19F180E02A961A
:1005B0000FB6F894DEBF0FBECDBFDF91CF911F9174
:1005C0000F91FF90EF90DF90CF90BF90AF909F90F2
:1005D0008F907F906F905F904F9008952E0D3F1DEC
:1005E000F9012081022E000C330B822793274F5FE5
:1005F000D6CF67E671E0C7010E94EE0B892B09F4A4
:10060000B6C26CE270E0C7010E94D40B8C010F5F90
:100610001F4FC8010E948B0B6B017C010E94760961
:100620002B013C0120E137E240E050E00E94120B38
:100630002093920144E6842E912CA12CB12CA5018B
:1006400094010E94120B20938A01C301B201A501FB
:1006500094010E94120B6093AA0120E030E040E870
:100660005FE3C701B6010E94ED0920E030E04AE7F0
:1006700054E40E94950A0E94760970939101609358
:1006800090016CE270E0C8010E94D40B7C018C01E7
:100690000F5F1F4FFC0181818C3209F4CAC042E018
:1006A00050E0B801CE0101960E94DF0B1B82CE0103
:1006B00001960E94AD0B4B015C01AC019B0160E80F
:1006C00076E988E990E00E94020B2B013C01B7011A
:1006D0006D5F7F4F42E050E0CE0101960E94DF0B3C
:1006E0000B5F1F4F44E050E0B801CE0103960E941B
:1006F000DF0B1F82CE0101960E94AD0B9B01AC0166
:10070000A2E3B0E00E94530B23E030E040E050E071
:100710000E94340BD301C201820F931FA41FB51F87
:1007200080938C0190938D01A0938E01B0938F01E3
:10073000CA01B9010E94A7096B017C01C301B20182
:1007400020EA36E841E050E00E94340BCA01B901CA
:100750000E94A7092B013C012CE933E549EC56E343
:10076000C701B6010E94950A9B01AC01C301B20109
:100770000E9491082B013C014092B8015092B901AE
:100780006092BA017092BB01C501B4010E94A70931
:100790004B015C0125E93FEB46ED53E3C701B60190
:1007A0000E94950A9B01AC01C501B4010E94910809
:1007B00060939C0170939D0180939E0190939F0193
:1007C00020E030E048EC52E4C301B2010E94FD0891
:1007D0000E946F096B0184E68C9DB0018D9D700DA8
:1007E0001124072E000C880B990B0E94A7099B016E
:1007F000AC01C301B2010E94900820E030E040E764
:1008000052E40E94FD084B015C01B601DD0C880B2F
:10081000990B0E94A7099B01AC01C501B4010E947C
:1008200091086093B2017093B3018093B4019093E7
:10083000B5016CE270E0C8010E94D40BFC019C0180
:100840002F5F3F4F91819C32C9F0933589F44091DD
:10085000B2015091B3016091B4017091B50170582B
:100860004093B2015093B3016093B4017093B5010A
:1008700091819E3409F05DC19093C7016CE270E0F4
:10088000C9010E94D40B7C018C010F5F1F4FFC013A
:1008900081818C3209F4CAC043E050E0B801CE0136
:1008A00001960E94DF0B1C82CE0101960E94AD0BC7
:1008B0004B015C01AC019B0160E876E988E990E0BE
:1008C0000E94020B2B013C01B7016C5F7F4F42E09D
:1008D00050E0CE0101960E94DF0B0A5F1F4F44E0FB
:1008E00050E0B801CE0103960E94DF0B1F82CE01BB
:1008F00001960E94AD0B9B01AC01A2E3B0E00E9407
:10090000530B23E030E040E050E00E94340BD30171
:10091000C201820F931FA41FB51F8093A50190935E
:10092000A601A093A701B093A801CA01B9010E9432
:10093000A7096B017C01C301B20120EA36E841E05E
:1009400050E00E94340BCA01B9010E94A7092B0193
:100950003C012CE933E549EC56E3C701B6010E949E
:10096000950A9B01AC01C301B2010E9491082B01C1
:100970003C01409298015092990160929A017092C4
:100980009B01C501B4010E94A7094B015C0125E947
:100990003FEB46ED53E3C701B6010E94950A9B0168
:1009A000AC01C501B4010E94910860938501709368
:1009B0008601809387019093880120E030E048EC25
:1009C00052E4C301B2010E94FD080E946F096B014D
:1009D00084E68C9DB0018D9D700D1124072E000CB6
:1009E000880B990B0E94A7099B01AC01C301B201BE
:1009F0000E94900820E030E040E752E40E94FD08A9
:100A00004B015C01B601DD0C880B990B0E94A70914
:100A10009B01AC01C501B4010E9491086093AD0136
:100A20007093AE018093AF019093B0016CE270E0DF
:100A3000C8010E94D40BFC0181818C32C9F087353A
:100A400089F48091AD019091AE01A091AF01B09178
:100A5000B001B0588093AD019093AE01A093AF0167
:100A6000B093B0019181973509F06CC090939701D4
:100A70006CE270E0CF0101960E94D40B8C010F5FF5
:100A80001F4FFC0181818C3229F0C8010E948F0B1D
:100A900080937D016CE270E0C8010E94D40B8C0150
:100AA0000F5F1F4FFC0181818C3229F0C8010E9429
:100AB0008F0B8093A0016CE270E0C8010E94D40B00
:100AC0008C010F5F1F4FFC0181818C3259F0C801EE
:100AD0000E948B0B6093C3017093C4018093C50186
:100AE0009093C6016CE270E0C8010E94D40B8C01A7
:100AF0000F5F1F4FFC0181818C3259F0C8010E94A9
:100B00008B0B6093A1017093A2018093A30190933A
:100B1000A4016CE270E0C8010E94D40B6CE270E0AA
:100B200001960E94D40BFC0121812C32A1F481E0BA
:100B30003ECD933509F4A0CE9C3209F037CD10920A
:100B4000C7019CCE953409F491CF9C3209F02ECD8B
:100B5000109297018DCF01960E948B0B60937701C5
:100B6000709378018093790190937A01E0CF6EE6DB
:100B700071E0C7010E94EE0B892B09F417CD6CE2DE
:100B800070E0C7010E94D40B8C010F5F1F4FC8019A
:100B90000E948B0B6B017C010E9476092B013C01AA
:100BA00020E137E240E050E00E94120B20939201D6
:100BB00034E6832E912CA12CB12CA50194010E9426
:100BC000120B20938A01C301B201A50194010E9476
:100BD000120B6093AA0120E030E040E85FE3C70118
:100BE000B6010E94ED0920E030E04AE754E40E949B
:100BF000950A0E94760970939101609390016CE2CE
:100C000070E0C8010E94D40BFC012181213409F05D
:100C100056C221E02093AC016CE270E001960E9484
:100C2000D40B7C018C010F5F1F4FFC0181818C3242
:100C300009F4CAC042E050E0B801CE0101960E941A
:100C4000DF0B1B82CE0101960E94AD0B4B015C01B4
:100C5000AC019B0160E876E988E990E00E94020B14
:100C60002B013C01B7016D5F7F4F42E050E0CE01A8
:100C700001960E94DF0B0B5F1F4F44E050E0B8016C
:100C8000CE0103960E94DF0B1F82CE0101960E94C7
:100C9000AD0B9B01AC01A2E3B0E00E94530B23E03B
:100CA00030E040E050E00E94340BD301C201820FDB
:100CB000931FA41FB51F80938C0190938D01A09367
:100CC0008E01B0938F01CA01B9010E94A7096B017F
:100CD0007C01C301B20120EA36E841E050E00E9405
:100CE000340BCA01B9010E94A7092B013C012CE970
:100CF00033E549EC56E3C701B6010E94950A9B0112
:100D0000AC01C301B2010E9491082B013C01409249
:100D1000B8015092B9016092BA017092BB01C5014D
:100D2000B4010E94A7094B015C0125E93FEB46EDA8
:100D300053E3C701B6010E94950A9B01AC01C501AE
:100D4000B4010E94910860939C0170939D0180936F
:100D50009E0190939F0120E030E048EC52E4C301F3
:100D6000B2010E94FD080E946F096B0184E68C9D10
:100D7000B0018D9D700D1124072E000C880B990B6E
:100D80000E94A7099B01AC01C301B2010E94900817
:100D900020E030E040E752E40E94FD084B015C0196
:100DA000B601DD0C880B990B0E94A7099B01AC01D1
:100DB000C501B4010E9491086093B2017093B30120
:100DC0008093B4019093B5016CE270E0C8010E9479
:100DD000D40BFC019C012F5F3F4F91819C32C9F0E5
:100DE000933589F44091B2015091B3016091B401FF
:100DF0007091B50170584093B2015093B301609364
:100E0000B4017093B50191819E3409F05EC1909355
:100E1000C7016CE270E0C9010E94D40B7C018C0117
:100E20000F5F1F4FFC0181818C3209F4CAC043E07F
:100E300050E0B801CE0101960E94DF0B1C82CE016A
:100E400001960E94AD0B4B015C01AC019B0160E877
:100E500076E988E990E00E94020B2B013C01B70182
:100E60006C5F7F4F42E050E0CE0101960E94DF0BA5
:100E70000A5F1F4F44E050E0B801CE0103960E9484
:100E8000DF0B1F82CE0101960E94AD0B9B01AC01CE
:100E9000A2E3B0E00E94530B23E030E040E050E0DA
:100EA0000E94340BD301C201820F931FA41FB51FF0
:100EB0008093A5019093A601A093A701B093A801E8
:100EC000CA01B9010E94A7096B017C01C301B201EB
:100ED00020EA36E841E050E00E94340BCA01B90133
:100EE0000E94A7092B013C012CE933E549EC56E3AC
:100EF000C701B6010E94950A9B01AC01C301B20172
:100F00000E9491082B013C01409298015092990156
:100F100060929A0170929B01C501B4010E94A709D9
:100F20004B015C0125E93FEB46ED53E3C701B601F8
:100F30000E94950A9B01AC01C501B4010E94910871
:100F40006093850170938601809387019093880157
:100F500020E030E048EC52E4C301B2010E94FD08F9
:100F60000E946F096B0184E68C9DB0018D9D700D10
:100F70001124072E000C880B990B0E94A7099B01D6
:100F8000AC01C301B2010E94900820E030E040E7CC
:100F900052E40E94FD084B015C01B601DD0C880B98
:100FA000990B0E94A7099B01AC01C501B4010E94E5
:100FB00091086093AD017093AE018093AF0190935F
:100FC000B0016CE270E0C8010E94D40BFC01818189
:100FD0008C32C9F0873589F48091AD019091AE01D2
:100FE000A091AF01B091B001B0588093AD01909342
:100FF000AE01A093AF01B093B0019181973509F094
:101000006DC0909397016CE270E0CF0101960E9451
:10101000D40B8C010F5F1F4FFC0181818C3259F082
:10102000C8010E948B0B6093BF017093C001809335
:10103000C1019093C2016CE270E0C8010E94D40B20
:101040008C010F5F1F4FFC0181818C3259F0C80168
:101050000E948B0B60939301709394018093950190
:10106000909396016CE270E0C8010E94D40BFC01E1
:1010700021812C3209F45BCD01960E948B0B0E94DA
:1010800076094B015C0120E137E240E050E00E942C
:10109000120B2093BC0124E6C22ED12CE12CF12CA2
:1010A000A70196010E94120B20938401C501B4018F
:1010B000A70196010E94120B6093B60138CD263528
:1010C00009F074CA1092AC01A7CD933509F49FCEF4
:1010D0009C3209F06BCA1092C7019BCE953409F47B
:1010E00090CF9C3209F062CA109297018CCF0E9477
:1010F0007F010E940502C9ECD0E083E397E00197ED
:10110000F1F70E94C1010E947402882321F00E941D
:101110007A020E948F02219781F70E94EE00EBCFA6
:101120005058BB27AA270E94A8080C945B0A0E946B
:101130004D0A38F00E94540A20F039F49F3F19F408
:1011400026F40C944A0A0EF4E095E7FB0C94360A58
:10115000E92F0E946C0A58F3BA17620773078407D5
:10116000950720F079F4A6F50C948E0A0EF4E0951C
:101170000B2EBA2FA02D0B01B90190010C01CA0151
:10118000A0011124FF27591B99F0593F50F4503EFC
:1011900068F11A16F040A22F232F342F4427585FEE
:1011A000F3CF469537952795A795F0405395C9F706
:1011B0007EF41F16BA0B620B730B840BBAF09150BE
:1011C000A1F0FF0FBB1F661F771F881FC2F70EC05D
:1011D000BA0F621F731F841F48F487957795679530
:1011E000B795F7959E3F08F0B0CF9395880F08F01C
:1011F0009927EE0F9795879508950E9411090C94F1
:101200005B0A0E94540A58F00E944D0A40F029F4EB
:101210005F3F29F00C94360A51110C948F0A0C94FC
:101220004A0A0E946C0A68F39923B1F3552391F39B
:10123000951B550BBB27AA2762177307840738F045
:101240009F5F5F4F220F331F441FAA1FA9F335D0A2
:101250000E2E3AF0E0E832D091505040E695001C56
:10126000CAF72BD0FE2F29D0660F771F881FBB1F10
:10127000261737074807AB07B0E809F0BB0B802DEE
:10128000BF01FF2793585F4F3AF09E3F510578F01A
:101290000C94360A0C948F0A5F3FE4F3983ED4F323
:1012A000869577956795B795F7959F5FC9F7880FEE
:1012B000911D9695879597F90895E1E0660F771F40
:1012C000881FBB1F621773078407BA0720F0621BD1
:1012D000730B840BBA0BEE1F88F7E09508950E94FC
:1012E00076096894B1110C948F0A08950E94740ACB
:1012F00088F09F5798F0B92F9927B751B0F0E1F0D7
:10130000660F771F881F991F1AF0BA95C9F714C086
:10131000B13091F00E948E0AB1E008950C948E0ACB
:10132000672F782F8827B85F39F0B93FCCF38695BF
:1013300077956795B395D9F73EF49095809570951C
:1013400061957F4F8F4F9F4F0895E89409C097FB99
:101350003EF490958095709561957F4F8F4F9F4F8C
:101360009923A9F0F92F96E9BB279395F6958795D0
:1013700077956795B795F111F8CFFAF4BB0F11F493
:1013800060FF1BC06F5F7F4F8F4F9F4F16C088233A
:1013900011F096E911C0772321F09EE8872F762F70
:1013A00005C0662371F096E8862F70E060E02AF0B1
:1013B0009A95660F771F881FDAF7880F969587959D
:1013C00097F908950E944D0A20F019F00E94540ADE
:1013D00050F40C944A0A0C948F0AE92F0E946C0A6C
:1013E00088F35523B1F3E7FB62177307840795076A
:1013F000A8F189F3E92FFF2788232AF03197660F98
:10140000771F881FDAF7952F5527442332F0915024
:101410005040220F331F441FD2F7BB27E91BF50BA7
:10142000621B730B840BB109B1F222F4620F731FBC
:10143000841FB11D31972AF0660F771F881FBB1FCD
:10144000EFCF9150504062F041F0882332F0660FA8
:10145000771F881F91505040C1F793950C943C0A18
:101460008695779567959F5FD9F7F7CF97F99F672F
:1014700080E870E060E008959F3F31F0915020F4E3
:10148000879577956795B795880F911D9695879560
:1014900097F908959FEF80EC089500240A9416169A
:1014A000170618060906089500240A941216130652
:1014B000140605060895092E0394000C11F48823E0
:1014C00052F0BB0F40F4BF2B11F460FF04C06F5FFC
:1014D0007F4F8F4F9F4F089557FD9058440F551FD2
:1014E00059F05F3F71F04795880F97FB991F61F0A6
:1014F0009F3F79F087950895121613061406551F1D
:10150000F2CF4695F1DF08C0161617061806991F88
:10151000F1CF86957105610508940895E894BB277D
:1015200066277727CB0197F908950E94A80A0C94A3
:101530005B0A0E944D0A38F00E94540A20F095235D
:1015400011F00C94360A0C944A0A11240C948F0A58
:101550000E946C0A70F3959FC1F3950F50E0551FE0
:10156000629FF001729FBB27F00DB11D639FAA27F8
:10157000F00DB11DAA1F649F6627B00DA11D661F47
:10158000829F2227B00DA11D621F739FB00DA11D68
:10159000621F839FA00D611D221F749F3327A00D22
:1015A000611D231F849F600D211D822F762F6A2FBE
:1015B00011249F5750409AF0F1F088234AF0EE0F23
:1015C000FF1FBB1F661F771F881F91505040A9F750
:1015D0009E3F510580F00C94360A0C948F0A5F3FB1
:1015E000E4F3983ED4F3869577956795B795F7958C
:1015F000E7959F5FC1F7FE2B880F911D9695879504
:1016000097F90895DB018F939F930E94530BBF912D
:10161000AF91A29F800D911DA39F900DB29F900D41
:1016200011240895A1E21A2EAA1BBB1BFD010DC0B7
:10163000AA1FBB1FEE1FFF1FA217B307E407F50782
:1016400020F0A21BB30BE40BF50B661F771F881F5E
:10165000991F1A9469F760957095809590959B01F4
:10166000AC01BD01CF010895052E97FB1EF4009437
:101670000E944B0B57FD07D00E94120B07FC03D0B2
:101680004EF40C944B0B50954095309521953F4F5F
:101690004F4F5F4F089590958095709561957F4F5E
:1016A0008F4F9F4F08950E945E0BA59F900DB49F92
:1016B000900DA49F800D911D11240895A29FB0014B
:1016C000B39FC001A39F700D811D1124911DB29F76
:1016D000700D811D1124911D0895EF920F931F939A
:1016E000CF93DF93E80134E047FD34E1042E000C92
:1016F000550B57FF03C0519541955109E32E022F19
:10170000242FAE010E94200ECE01DF91CF911F91B8
:101710000F91EF900895662777270C94820FFC01B4
:1017200088279927E89421912032E9F3293010F095
:101730002E30C8F32B3241F02D3239F4689404C0B6
:101740000E941D0C820F911D219120532A30C0F35D
:101750001EF4909581959F4F08951F93FC01992742
:101760008827BC01E89411911032E9F3193010F088
:101770001E30C8F31B3251F01D3249F4689406C084
:101780000E94080C610F711D811D911D1191105354
:101790001A30B0F33EF490958095709561957F4F27
:1017A0008F4F9F4F1F910895FC018191861721F063
:1017B0008823D9F7992708953197CF010895FB0120
:1017C000DC014150504048F001900D920020C9F7D3
:1017D00001C01D9241505040E0F70895FB01519126
:1017E0005523A9F0BF01DC014D9145174111E1F7E7
:1017F00059F4CD010190002049F04D91401541115F
:10180000C9F3FB014111EFCF81E090E0019708950A
:10181000592F482F372F262F660F771F881F991FA4
:10182000660F771F881F991F620F731F841F951FF4
:10183000660F771F881F991F08957AE0979F902D54
:10184000879F802D910D11240895AEE0B0E0EBE26A
:10185000FCE00C9497120D891E898F89988D26E0E3
:101860002C831A83098397FF02C080E090E80197D8
:101870009E838D83AE01455E5F4F698D7A8DCE016B
:1018800001960E94550C4D815E8157FD0AC02F8143
:101890003885421753070CF49A01020F131FF80101
:1018A00010822E96E4E00C94B312ABE0B0E0EBE5CE
:1018B000FCE00C9489127C013B018A01FC01178237
:1018C0001682838181FFB9C19AE0292ECE0101964B
:1018D0005C01F7019381F30193FD859193FF819161
:1018E0003F01882309F446C1853239F493FD85917F
:1018F00093FF81913F01853229F4B70190E00E9466
:10190000CF11E7CF912C412C512CFFE1F51538F088
:101910008B3209F188F4803201F1833221F157FCD6
:101920003AC020ED280F2A3040F556FE1FC0929C89
:10193000200D1124922E06C08D3291F0803379F75C
:10194000689450F8F30193FD859193FF81913F01D5
:101950008111DBCF20C0689451F8689452F8F2CF1F
:10196000689453F8EFCF689454F8ECCF429C200D64
:101970001124422E689455F8E5CF8E3229F456FC96
:10198000F9C0689456F8DECF8C3619F4689457F88D
:10199000D9CF8836B9F2982F9F7D95549330C0F0F7
:1019A0008336A1F18337C1F1833509F05BC0F801BB
:1019B000C190D1908F01692D70E056FC02C06FEF8D
:1019C0007FEFC6010E94B9114C01689457F80AC014
:1019D0000C5F1F4F2FE3298388248394912C65018A
:1019E000E89457F853FC04C04814190409F018F59A
:1019F000342C8114910431F5332009F46ACFB701F6
:101A000080E290E00E94CF113A94F6CFF8018081F5
:101A100089830E5F1F4FE0CFF801C190D1908F01F5
:101A2000692D70E056FC02C06FEF7FEFC6010E9487
:101A3000C4114C01D5CFB70180E290E00E94CF11D4
:101A40004A94D2CFF60157FC859157FE81916F01E0
:101A5000B70190E00E94CF1131103A94F1E08F1A53
:101A60009108C7CF843619F0893609F074C0F8019F
:101A700057FE6AC061917191819191918F01252DDD
:101A80002F76D22E97FF09C090958095709561951D
:101A90007F4F8F4F9F4F6894D7F82AE030E0A50121
:101AA0000E94FF11C82ECA188C2C5D2CD6FE0CC0CB
:101AB000E89450F8C91440F4D4FE05C0D2FC03C029
:101AC000FD2DFE7E5F2E892C54FE8FC0FE01EC0D95
:101AD000F11D8081803309F081C0252D297E522E91
:101AE000852D8870382E53FC8FC050FE89C09C2CE9
:101AF000841418F44C0C942C981854FE8BC0B70125
:101B000080E390E00E94CF1152FE09C088E790E088
:101B100051FE02C088E590E0B7010E94CF11C914C0
:101B200008F484C0CA94D12C9FEFC91AD90ACA0CF0
:101B3000DB1CF60182916F01B70190E00E94CF118A
:101B4000AC14BD04B1F758CF61917191072E000C10
:101B5000880B990B93CFD52CE894D4F82AE030E089
:101B6000853739F1952D997FD92E8F3601F148F4BB
:101B70008835A9F0F701868197812B96E2E10C94D4
:101B8000A512803749F08837A9F7D4FE02C06894BF
:101B9000D2F820E130E00DC06894D4F8F6CF54FEBE
:101BA00003C0E92FE660DE2E20E132E002C028E02B
:101BB00030E0F801D7FE0DC0619171918191919152
:101BC0008F01A5010E94FF11C82ECA18E894D7F80A
:101BD0006BCF6191719190E080E0F2CF52FC02C036
:101BE00083947ECF839483947BCF852D867809F46C
:101BF00077CFF6CFB70180E290E00E94CF118394B7
:101C00008414C0F3312C79CF342C3818841408F4A0
:101C100074CFF8CF852D867809F481CF8BE251FE01
:101C200080E257FC8DE2B70190E077CFB70180E307
:101C300090E00E94CF119A9472CF8FEF9FEF9DCFCB
:101C4000A9E0B0E0E6E2FEE00C948F126A01F22E09
:101C5000B02E102F0BE30B1508F41BE31F5F012FB1
:101C600027E0AE014F5F5F4F0E94C010BC01898129
:101C7000982F99709130C9F19BE2E1FC04C09E2D30
:101C80009170E0FC90E25E2D5071E82FE87083FFC8
:101C900048C083E0911184E0EF2DE81B8F1508F018
:101CA000E0E0552371F1992319F0D6019D936D0160
:101CB000C6010396E2FE29C02EE4D6012C9331E43E
:101CC00011963C93119712962C932E2F382F492F53
:101CD00050E221111FC0E80FF92FF11D10828EEF85
:101CE0009FEF2996ECE00C94AB129DE2CCCFD9018A
:101CF0004D9381509D018111FACFCE0ED11CE0E0B1
:101D0000D2CF8E2F960140E2F6CF2EE6D6012C934D
:101D100031E6D6CFA32FB42F5D9321503A2F4B2F0E
:101D2000D8CF482F447082FF41C083E0911184E0F6
:101D30008F1510F4EF2DE81B552359F1992319F055
:101D4000D6019D936D01C6010396E2FE26C029E4EB
:101D5000D6012C932EE411962C93119726E412961B
:101D60002C932E2F382F492F50E2222309F4B3CF82
:101D7000A32FB42F5D9321503A2F4B2FF6CFD901CB
:101D80004D9381509D018111FACFCE0ED11CE0E020
:101D9000D5CF8E2F960140E2F6CF29E6D6012C93BF
:101DA0002EE611962C93119726E6D9CF9B0177FF4B
:101DB00002C030E020E0A1E0B0E0911102C0B0E04C
:101DC000A0E0F9013196AE0FBF1F8B2C912CBB20E8
:101DD000F1F05401EFEFAE1ABE0AAA0DBB1DFA16C0
:101DE0001B0619F014F04F2D4A1B511145C0E3FC9E
:101DF00008C07601A42FB0E2A1110CC0C40ED11C02
:101E000040E091113BC0D601942F50E30AC0B12CA1
:101E1000A12CE3CFF701B1937F01A150EDCF5D93EA
:101E200091509111FCCFC40ED11C40E02DC001E0B7
:101E30003AC050E354C06217730739F4A63320F454
:101E4000A53319F4B11101C051E3D6015C93242FDD
:101E5000382F592F60E2211108C0480F592F511D0A
:101E6000FA01108290E080E03CCFE32FF52F6193E0
:101E700021503E2F5F2FEFCF992331F0D6019D9354
:101E80006D01552309F4BFCF012F060FAA81B82F8A
:101E9000B07184FF03C0A13309F4015010163CF661
:101EA000093008F008E0FB01E01BF1098F01EE2486
:101EB000FF24E818F9088EE2B82E621773070CF4B5
:101EC000B8CF021713070CF0B4CFFB01E21BF30BE2
:101ED00081E090E08C0F9D1FE80FF91F5181215088
:101EE0003109C60101962E153F050CF4A4CFF60169
:101EF00050832F3F320721F4C6010296F601B182CA
:101F00006C01DBCFB0E0A0E0E8E8FFE00C948F12BA
:101F10007C016B016115710519F0FB0191838083D0
:101F2000E7010991802F90E00E9498115C01892BB4
:101F3000B1F50D32B1F50881E701229611E07E017D
:101F4000F1E0EF1AF10843E050E060E770E0C7010C
:101F50000E94A111892B61F57E0182E0E80EF11C3F
:101F600045E050E06BE670E0C7010E94A111892BAB
:101F700021F47E0197E0E90EF11CC114D10419F09F
:101F8000F601F182E08260E070E080E89FE71123D3
:101F900009F4F1C060E070E080E89FEFECC07E01E2
:101FA000BFCF0B3219F40881E701229610E0C7CFAA
:101FB00043E050E068E670E0C7010E94A111892B60
:101FC00061F4C114D10421F02296F601D183C083BB
:101FD00060E070E080EC9FE7CEC0F12CE12C20E0C7
:101FE00030E0A901F0EDF00FFA3058F5E12FE26092
:101FF000812F887012FF08C0811103C0FFEFEF1A14
:10200000FF0A09911E2FEECF882319F081E0E81A0C
:10201000F108A5E0B0E00E94530B9B01AC01220F38
:10202000331F441F551F2F0F311D411D511D2839CE
:1020300099E93907490799E1590718F3E12FE66053
:10204000E0CFFE3F29F413FD3AC0E12FE860D9CF7D
:102050000F7D0534A1F588818D3241F41061BE01F8
:102060006E5F7F4F8981E2E0F0E007C0BE018B32F6
:10207000B9F36F5F7F4FE1E0F0E08053EB01CE1BDF
:10208000DF0B8A30E0F4E0E8AE16ECE0BE065CF46C
:10209000F501EE0FFF1FEE0FFF1FAE0EBF1EAA0CC5
:1020A000BB1CA80EB11CEB01899180538A3090F1C2
:1020B00014FF03C0B194A194B108EA0CFB1C11FFFA
:1020C00007C0C114D10421F02197F601D183C08348
:1020D000CA01B9010E94A5091370133009F4905880
:1020E0004B015C0120E030E0A9010E945D128823D1
:1020F00009F43FC0CFE9D0E0F7FE05C0F194E194C8
:10210000F108C7E8D0E06E01F8E1CF1AD10800E28B
:1021100010E00FC0BE01B7CFFE012591359145916A
:102120005491E01AF10AC501B4010E94950A4B01CD
:102130005C01D501C401E016F10674F724971595EA
:102140000795CC15DD05A9F78A2F880F8B2F881FDF
:102150008F3F49F020E030E0A901C501B4010E94A1
:102160005D12811106C082E290E09093C1028093DB
:10217000C002C501B401CDB7DEB7ECE00C94AB12E0
:10218000283008F027E03327DA01990F311D87FD49
:10219000916000966105710539F432602E5F3D93C0
:1021A00030E32A95E1F708959F3F30F080387105BC
:1021B000610509F03C5F3C5F3D93913008F0806819
:1021C000911DDF93CF931F930F93FF92EF92192FDF
:1021D000987F9695E92F96959695E90FFF27E350FE
:1021E000FF4F99273327EE24FF24A701E70105902D
:1021F0000894079428F4360FE71EF81E491F511D56
:10220000660F771F881F991F0694A1F70590079402
:1022100028F4E70EF81E491F561FC11D770F881FAF
:10222000991F661F0694A1F70590079428F4F80EED
:10223000491F561FC71FD11D880F991F661F771F83
:102240000694A1F70590079420F4490F561FC71F65
:10225000D81F990F661F771F881F0694A9F78491CE
:102260001095177041F0D695C79557954795F794F7
:10227000E7941A95C1F7E3EAF0E068941590159198
:1022800035916591959105907FE27395E118F10A7A
:10229000430B560BC90BD009C0F7E10CF11E431FCD
:1022A000561FC91FD01D7EF4703311F48A95E6CFF6
:1022B000E894015030F0080F0AF40027021708F4E0
:1022C000202F2395022F7A3328F079E37D932A95E6
:1022D000E9F710C07D932A9589F60694979567953E
:1022E000379517951794E118F10A430B560BC90B54
:1022F000D00998F023957E9173957A3308F070E3B6
:102300007C932013B8F77E9170617D9330F08395B4
:1023100071E37D9370E32A95E1F71124EF90FF902C
:102320000F911F91CF91DF91992787FD9095089587
:1023300091110C948612803219F089508550C8F79B
:102340000895FB01DC014150504088F08D918134AB
:102350001CF08B350CF4805E659161341CF06B359C
:102360000CF4605E861B611171F3990B0895881B54
:10237000FCCFFC010590615070400110D8F78095AA
:1023800090958E0F9F1F0895FC0161507040019041
:102390000110D8F7809590958E0F9F1F08950F9389
:1023A0001F93CF93DF93182F092FEB018B8181FDB2
:1023B00009C01FEF0FEF812F902FDF91CF911F9159
:1023C0000F91089582FF14C02E813F818C819D81E1
:1023D000281739073CF4E881F981CF0101969983E8
:1023E000888310838E819F8101969F838E83E3CFA4
:1023F000E885F985812F0995892BA1F3DACFFA01B8
:10240000AA27283051F1203181F1E8946F936E7F33
:102410006E5F7F4F8F4F9F4FAF4FB1E03ED0B4E024
:102420003CD0670F781F891F9A1FA11D680F791F65
:102430008A1F911DA11D6A0F711D811D911DA11D76
:1024400020D009F468943F912AE0269F1124301986
:10245000305D3193DEF6CF010895462F4770405D21
:102460004193B3E00FD0C9F7F6CF462F4F70405DD0
:102470004A3318F0495D31FD4052419302D0A9F72B
:10248000EACFB4E0A6959795879577956795BA9525
:10249000C9F700976105710508959B01AC010A2EEB
:1024A00006945795479537952795BA95C9F7620FC2
:1024B000731F841F951FA01D08950E94621208F4C7
:1024C00081E00895990F0008550FAA0BE0E8FEEF90
:1024D00016161706E807F907C0F012161306E407E8
:1024E000F50798F0621B730B840B950B39F40A26E1
:1024F00061F0232B242B252B21F408950A2609F4BF
:10250000A140A6958FEF811D811D089599278827E9
:1025100008952F923F924F925F926F927F928F9287
:102520009F92AF92BF92CF92DF92EF92FF920F9362
:102530001F93CF93DF93CDB7DEB7CA1BDB0B0FB66C
:10254000F894DEBF0FBECDBF09942A883988488829
:102550005F846E847D848C849B84AA84B984C884BF
:10256000DF80EE80FD800C811B81AA81B981CE0FB6
:10257000D11D0FB6F894DEBF0FBECDBFED0108959B
:04258000F894FFCFFD
:102584004461746554696D653A2025752D25752D52
:1025940025752025753A25753A2575200D0A4C6F49
:1025A400636174696F6E3A2025632025732C20259E
:1025B400632025730D0A4669783A2025642C204649
:1025C4006978207175616C6974793A2025752C20BD
:1025D4004E756D20536174656C6C697465733A2033
:1025E40025750D0A0D0A002447504747410024472A
:0625F40050524D430000AF
:00000001FF
