:100000000C94F5000C9412010C9412010C94120142
:100010000C9412010C9412010C9412010C94120114
:100020000C9412010C9412010C9412010C94120104
:100030000C9412010C9412010C9412010C941201F4
:100040000C9412010C9412010C9412010C941201E4
:100050000C9412010C9412010C9412010C941201D4
:100060000C9412010C941201084AD73B3BCE016E4E
:1000700084BCBFFDC12F3D6C74319ABD56833DDAFF
:100080003D00C77F11BED9E4BB4C3E916BAAAABE0E
:10009000000000803F05A84CCDB2D44EB93836A937
:1000A000020C50B9918688083CA6AAAA2ABE000074
:1000B00000803F004E414E494E495459494E46CD6D
:1000C000CCCC3D0AD7233C17B7D13877CC2B32950F
:1000D00095E6241FB14F0A000020410000C84200ED
:1000E000401C4620BCBE4CCA1B0E5AAEC59D7400B7
:1000F000407A10F35A00A0724E18090010A5D4E8F7
:100100000000E87648170000E40B54020000CA9A89
:100110003B000000E1F505000080969800000040DB
:10012000420F000000A08601000000102700000020
:1001300000E803000000006400000000000A000066
:100140000000000100000000002C76D888DC674F1A
:100150000823DFC1DFAE59E1B1B796E5E3E453C64A
:100160003AE651997696E8E6C28426EB898C9B6242
:10017000ED407C6FFCEFBC9C9F40F2BAA56FA5F4EC
:1001800090055A2AF75C936B6CF9676DC11BFCE014
:10019000E40D47FEF520E6B500D0ED902E03009467
:1001A0003577050080841E080000204E0A000000FC
:1001B000C80C333333330F986E12831141EF8D2106
:1001C00014893BE65516CFFEE6DB18D1844B381B6D
:1001D000F77C1D901DA4BBE424203284725E228132
:1001E00000C9F124ECA1E53D270011241FBECFEF8B
:1001F000D8E0DEBFCDBF11E0A0E0B1E0EAEEFBE267
:1002000002C005900D92AA3FB107D9F723E0AAEFEB
:10021000B1E001C01D92A634B207E1F70E944E0A78
:100220000C94F3150C9400002F923F924F925F9222
:100230006F927F928F929F92AF92BF92CF92DF92F6
:10024000EF92FF920F931F93CF93DF93CDB7DEB75B
:10025000C457D1400FB6F894DEBF0FBECDBFC7590B
:10026000DE4F688379838A839B83C956D140C35903
:10027000DE4F288339834A835B83CD56D1408091FA
:10028000360290913702A0913802B0913902CB59D1
:10029000DE4F88839983AA83BB83C556D1409C01D6
:1002A000AD01C759DE4F688179818A819B81C9562A
:1002B000D1400E94710A2BED3FE049E450E40E94D6
:1002C0005B0D20E030E044E353E40E94550B20E056
:1002D00030E040E05FE30E945B0D0E94C80D6B01BF
:1002E0007C012BED3FE049E450E4CB59DE4F6881BF
:1002F00079818A819B81C556D1400E945B0D20E0A7
:1003000030E044E353E40E94550B0E94500B2B0154
:100310003C012BED3FE049E450E4C759DE4F6881D2
:1003200079818A819B81C956D1400E945B0D20E072
:1003300030E044E353E40E94550B0E94500BCF5829
:10034000DE4F688379838A839B83C157D140209194
:100350003102309132024091330250913402C3593C
:10036000DE4F688179818A819B81CD56D1400E9480
:10037000710A2BED3FE049E450E40E945B0D20E060
:1003800030E044E353E40E94550B20E030E040E0CD
:100390005FE30E945B0D0E94C80D4B015C01CF58CA
:1003A000DE4F288139814A815B81C157D140C30129
:1003B000B2010E945B0DA50194010E945B0DA50195
:1003C00094010E945B0D4B015C01A7019601C701DE
:1003D000B6010E945B0D9B01AC01C501B4010E94F6
:1003E000720A6B017C01AC019B0160E070E080E867
:1003F0009FE30E94710A0E94D60D4B015C01C70168
:10040000B6010E94D60DA50194010E94F10A1B01BC
:100410002C014E0191E0890E991E840127E04AE0EB
:10042000CB59DE4F688179818A819B81C556D14045
:100430000E94A00E3E01ABEE6A1AAEEF7A0A6091FE
:100440003102709132028091330290913402830123
:1004500027E04AE00E94A00E6E01B3ECCB1ABEEF7B
:10046000DB0A860127E04AE0C759DE4F68817981BF
:100470008A819B81C956D1400E94A00E5E0187ED02
:10048000A81A8EEFB80A850127E04AE0C359DE4F6B
:10049000688179818A819B81CD56D1400E94A00ECE
:1004A0007E019FEAE91A9EEFF90AA2019101C201B9
:1004B000B1010E94720A20E73DE642EC5AE40E9434
:1004C0005B0D870127E04CE00E94A00E7F926F92A7
:1004D0009F928F92BF92AF92DF92CF92FF92EF9254
:1004E00080E091E09F938F9381E08F931F9200555E
:1004F00011401F930F930E94580FC8010E946F0371
:100500000FB6F894DEBF0FBECDBFCC58DE4F0FB68E
:10051000F894DEBF0FBECDBFDF91CF911F910F9139
:10052000FF90EF90DF90CF90BF90AF909F908F9013
:100530007F906F905F904F903F902F900895CF9253
:10054000DF92EF92FF920F931F93CF93DF93CDB77C
:10055000DEB7C852D1400FB6F894DEBF0FBECDBF94
:100560007E0181E0E80EF81E60913602709137023C
:100570008091380290913902870127E04AE00E9479
:10058000A00E6E019BEEC91A9EEFD90A609131024E
:10059000709132028091330290913402860127E0FB
:1005A0004AE00E94A00EE0913002709124028091F6
:1005B000010260912E0250910E024091160230917C
:1005C00040022091080290913A0204511140E11139
:1005D00035C01F927F931F928F931F921F921F927D
:1005E0006F931F925F931F924F931F923F931F929F
:1005F0002F931F929F9389E391E09F938F9381E0C4
:100600008F931F921F930F930E94580F0FB6F89469
:10061000DEBF0FBECDBFC8010E946F03C85DDE4FB5
:100620000FB6F894DEBF0FBECDBFDF91CF911F9103
:100630000F91FF90EF90DF90CF9008951F927F93DE
:100640001F928F931F9281E08F93DF92CF927091D0
:100650001B02E72F072E000CFF0BFF937F93FF92E7
:10066000EF9270914B02E72F072E000CFF0BFF93C8
:100670007F931F926F931F925F931F924F931F92CE
:100680003F931F922F931F929F9326E831E03F9351
:100690002F938F931F921F930F930E94580FB6CFE3
:1006A000E0913002E1110C94140108958FE290E082
:1006B0009093C5008093C400E1ECF0E080818860F5
:1006C000808380818061808386E08093C20008956A
:1006D0009091C00095FFFCCF8093C60008950F93C2
:1006E0001F93CF93DF938C01D0E0C0E0F80101901D
:1006F0000020E9F73197E01BF10BCE17DF0728F058
:10070000DF91CF911F910F91089583E397E00197B7
:10071000F1F7F801EC0FFD1F80810E94680321961C
:10072000E5CF8091C00087FFFCCF8091C60008957F
:100730000E9491038A3009F5E091FA012091420369
:1007400030914303E20FF32FF11D108220914203F9
:100750003091430392E02235390729F54AEC52E003
:10076000509343034093420330934F0220934E0231
:100770001092FA0191E0909351022091420330913E
:100780004303E091FA0191E09E0F9093FA01E20F8A
:10079000F32FF11D80839091FA01983718F097E7B5
:1007A0009093FA01089522E532E0309343032093B9
:1007B00042032AEC32E0D8CF109251021092FF018E
:1007C0001092FA0182E592E09093430380934203F2
:1007D0008AEC92E090934F0280934E021092240292
:1007E00010920102109240021092080210923A02F6
:1007F00010922E0210920E021092160210924C02CB
:1008000010921B0210924B021092300210921502AD
:10081000109214021092470210924802109249025C
:1008200010924A02109204021092050210920602DF
:1008300010920702109217021092180210921902D9
:1008400010921A0210924302109244021092450232
:100850001092460210922502109226021092270250
:10086000109228021092FB011092FC011092FD01DF
:100870001092FE0110921C0210921D0210921E0294
:1008800010921F0210923C0210923D0210923E0202
:1008900010923F0208958091510208958093FF01C4
:1008A00008951092510280914E0290914F02089546
:1008B000803354F08A3314F4805308959FEB980FDB
:1008C000963010F48753089580E008954F925F9218
:1008D0006F927F928F929F92AF92BF92CF92DF9250
:1008E000EF92FF920F931F93CF93DF93CDB7DEB7B5
:1008F0002A970FB6F894DEBF0FBECDBF7C01FC0176
:1009000001900020E9F73197E81BF90B6F0184E0B3
:10091000C81AD108D701AC0DBD1D8C918A3209F0DF
:100920003FC087010E0F1F1FF801339780810E947F
:10093000580490E1899F50011124F8013297808179
:100940000E9458048A0D9B2D911D42E0242F30E017
:100950002C153D05D0F0892B19F180E02A960FB6B1
:10096000F894DEBF0FBECDBFDF91CF911F910F91E5
:10097000FF90EF90DF90CF90BF90AF909F908F90BF
:100980007F906F905F904F9008952E0D3F1DF9015D
:100990002081022E000C330B822793274F5FD6CF86
:1009A0006BEE71E0C7010E94210F892B09F4B6C2DA
:1009B0006CE270E0C7010E94070F8C010F5F1F4FB0
:1009C000C8010E94BE0E6B017C010E94CE0B2B0160
:1009D0003C0120E137E240E050E00E94450E2093C8
:1009E000160244E6842E912CA12CB12CA501940171
:1009F0000E94450E20930E02C301B201A50194018D
:100A00000E94450E60932E0220E030E040E85FE354
:100A1000C701B6010E94450C20E030E04AE754E4EB
:100A20000E945B0D0E94CE0B70931502609314021E
:100A30006CE270E0C8010E94070F7C018C010F5F1F
:100A40001F4FFC0181818C3209F4CAC042E050E0A2
:100A5000B801CE0101960E94120F1B82CE010196B1
:100A60000E94E00E4B015C01AC019B0160E876E95D
:100A700088E990E00E94350E2B013C01B7016D5FC3
:100A80007F4F42E050E0CE0101960E94120F0B5FB3
:100A90001F4F44E050E0B801CE0103960E94120FB0
:100AA0001F82CE0101960E94E00E9B01AC01A2E3E1
:100AB000B0E00E94860E23E030E040E050E00E946B
:100AC000670ED301C201820F931FA41FB51F80932D
:100AD000100290931102A0931202B0931302CA0164
:100AE000B9010E94FF0B6B017C01C301B20120EA36
:100AF00036E841E050E00E94670ECA01B9010E9449
:100B0000FF0B2B013C012CE933E549EC56E3C7010F
:100B1000B6010E945B0D9B01AC01C301B2010E94B2
:100B2000720A2B013C0140923C0250923D026092BD
:100B30003E0270923F02C501B4010E94FF0B4B01BF
:100B40005C0125E93FEB46ED53E3C701B6010E9486
:100B50005B0D9B01AC01C501B4010E94720A609358
:100B6000200270932102809322029093230220E0BE
:100B700030E048EC52E4C301B2010E94550B0E94E0
:100B8000C70B6B0184E68C9DB0018D9D700D112407
:100B9000072E000C880B990B0E94FF0B9B01AC01E8
:100BA000C301B2010E94710A20E030E040E752E444
:100BB0000E94550B4B015C01B601DD0C880B990BB3
:100BC0000E94FF0B9B01AC01C501B4010E94720A97
:100BD0006093360270933702809338029093390203
:100BE0006CE270E0C8010E94070FFC019C012F5FBE
:100BF0003F4F91819C32C9F0933589F44091360280
:100C000050913702609138027091390270584093C8
:100C10003602509337026093380270933902918103
:100C20009E3409F05DC190934B026CE270E0C90103
:100C30000E94070F7C018C010F5F1F4FFC01818117
:100C40008C3209F4CAC043E050E0B801CE010196ED
:100C50000E94120F1C82CE0101960E94E00E4B01F1
:100C60005C01AC019B0160E876E988E990E00E94B4
:100C7000350E2B013C01B7016C5F7F4F42E050E025
:100C8000CE0101960E94120F0A5F1F4F44E050E010
:100C9000B801CE0103960E94120F1F82CE01019669
:100CA0000E94E00E9B01AC01A2E3B0E00E94860E20
:100CB00023E030E040E050E00E94670ED301C20123
:100CC000820F931FA41FB51F8093290290932A02BD
:100CD000A0932B02B0932C02CA01B9010E94FF0B12
:100CE0006B017C01C301B20120EA36E841E050E02B
:100CF0000E94670ECA01B9010E94FF0B2B013C0143
:100D00002CE933E549EC56E3C701B6010E945B0DBF
:100D10009B01AC01C301B2010E94720A2B013C018C
:100D200040921C0250921D0260921E0270921F029D
:100D3000C501B4010E94FF0B4B015C0125E93FEBAB
:100D400046ED53E3C701B6010E945B0D9B01AC0168
:100D5000C501B4010E94720A6093090270930A02ED
:100D600080930B0290930C0220E030E048EC52E4B8
:100D7000C301B2010E94550B0E94C70B6B0184E6B0
:100D80008C9DB0018D9D700D1124072E000C880BD9
:100D9000990B0E94FF0B9B01AC01C301B2010E94A1
:100DA000710A20E030E040E752E40E94550B4B010D
:100DB0005C01B601DD0C880B990B0E94FF0B9B01B7
:100DC000AC01C501B4010E94720A609331027093B4
:100DD000320280933302909334026CE270E0C801D7
:100DE0000E94070FFC0181818C32C9F0873589F49C
:100DF0008091310290913202A0913302B09134027D
:100E0000B0588093310290933202A0933302B09392
:100E100034029181973509F06CC090931B026CE20B
:100E200070E0CF0101960E94070F8C010F5F1F4FEA
:100E3000FC0181818C3229F0C8010E94C20E80938E
:100E400001026CE270E0C8010E94070F8C010F5F85
:100E50001F4FFC0181818C3229F0C8010E94C20E13
:100E6000809324026CE270E0C8010E94070F8C019D
:100E70000F5F1F4FFC0181818C3259F0C8010E9425
:100E8000BE0E60934702709348028093490290938C
:100E90004A026CE270E0C8010E94070F8C010F5FEC
:100EA0001F4FFC0181818C3259F0C8010E94BE0E97
:100EB0006093250270932602809327029093280264
:100EC0006CE270E0C8010E94070F6CE270E00196CE
:100ED0000E94070FFC0121812C32A1F481E03ECD5C
:100EE000933509F4A0CE9C3209F037CD10924B0215
:100EF0009CCE953409F491CF9C3209F02ECD1092FE
:100F00001B028DCF01960E94BE0E6093FB01709371
:100F1000FC018093FD019093FE01E0CF62EF71E050
:100F2000C7010E94210F892B09F417CD6CE270E0F4
:100F3000C7010E94070F8C010F5F1F4FC8010E945D
:100F4000BE0E6B017C010E94CE0B2B013C0120E107
:100F500037E240E050E00E94450E2093160234E64E
:100F6000832E912CA12CB12CA50194010E94450E39
:100F700020930E02C301B201A50194010E94450E07
:100F800060932E0220E030E040E85FE3C701B60145
:100F90000E94450C20E030E04AE754E40E945B0DDB
:100FA0000E94CE0B70931502609314026CE270E005
:100FB000C8010E94070FFC012181213409F056C2AB
:100FC00021E0209330026CE270E001960E94070F4E
:100FD0007C018C010F5F1F4FFC0181818C3209F471
:100FE000CAC042E050E0B801CE0101960E94120F43
:100FF0001B82CE0101960E94E00E4B015C01AC0108
:101000009B0160E876E988E990E00E94350E2B01AB
:101010003C01B7016D5F7F4F42E050E0CE01019689
:101020000E94120F0B5F1F4F44E050E0B801CE0149
:1010300003960E94120F1F82CE0101960E94E00EBD
:101040009B01AC01A2E3B0E00E94860E23E030E0F9
:1010500040E050E00E94670ED301C201820F931F4F
:10106000A41FB51F8093100290931102A093120247
:10107000B0931302CA01B9010E94FF0B6B017C01FE
:10108000C301B20120EA36E841E050E00E94670E59
:10109000CA01B9010E94FF0B2B013C012CE933E589
:1010A00049EC56E3C701B6010E945B0D9B01AC0100
:1010B000C301B2010E94720A2B013C0140923C0222
:1010C00050923D0260923E0270923F02C501B4010F
:1010D0000E94FF0B4B015C0125E93FEB46ED53E31A
:1010E000C701B6010E945B0D9B01AC01C501B401B3
:1010F0000E94720A60932002709321028093220260
:101100009093230220E030E048EC52E4C301B201A6
:101110000E94550B0E94C70B6B0184E68C9DB001A9
:101120008D9D700D1124072E000C880B990B0E94C9
:10113000FF0B9B01AC01C301B2010E94710A20E0C8
:1011400030E040E752E40E94550B4B015C01B601D0
:10115000DD0C880B990B0E94FF0B9B01AC01C501B4
:10116000B4010E94720A6093360270933702809332
:101170003802909339026CE270E0C8010E94070FB8
:10118000FC019C012F5F3F4F91819C32C9F0933548
:1011900089F4409136025091370260913802709183
:1011A00039027058409336025093370260933802E8
:1011B0007093390291819E3409F05EC190934B0285
:1011C0006CE270E0C9010E94070F7C018C010F5F87
:1011D0001F4FFC0181818C3209F4CAC043E050E00A
:1011E000B801CE0101960E94120F1C82CE01019619
:1011F0000E94E00E4B015C01AC019B0160E876E9C6
:1012000088E990E00E94350E2B013C01B7016C5F2C
:101210007F4F42E050E0CE0101960E94120F0A5F1C
:101220001F4F44E050E0B801CE0103960E94120F18
:101230001F82CE0101960E94E00E9B01AC01A2E349
:10124000B0E00E94860E23E030E040E050E00E94D3
:10125000670ED301C201820F931FA41FB51F809395
:10126000290290932A02A0932B02B0932C02CA0168
:10127000B9010E94FF0B6B017C01C301B20120EA9E
:1012800036E841E050E00E94670ECA01B9010E94B1
:10129000FF0B2B013C012CE933E549EC56E3C70178
:1012A000B6010E945B0D9B01AC01C301B2010E941B
:1012B000720A2B013C0140921C0250921D02609266
:1012C0001E0270921F02C501B4010E94FF0B4B0168
:1012D0005C0125E93FEB46ED53E3C701B6010E94EF
:1012E0005B0D9B01AC01C501B4010E94720A6093C1
:1012F000090270930A0280930B0290930C0220E083
:1013000030E048EC52E4C301B2010E94550B0E9448
:10131000C70B6B0184E68C9DB0018D9D700D11246F
:10132000072E000C880B990B0E94FF0B9B01AC0150
:10133000C301B2010E94710A20E030E040E752E4AC
:101340000E94550B4B015C01B601DD0C880B990B1B
:101350000E94FF0B9B01AC01C501B4010E94720AFF
:10136000609331027093320280933302909334027F
:101370006CE270E0C8010E94070FFC0181818C3291
:10138000C9F0873589F48091310290913202A091A1
:101390003302B0913402B0588093310290933202FC
:1013A000A0933302B09334029181973509F06DC058
:1013B00090931B026CE270E0CF0101960E94070F30
:1013C0008C010F5F1F4FFC0181818C3259F0C801E5
:1013D0000E94BE0E609343027093440280934502C4
:1013E000909346026CE270E0C8010E94070F8C01E6
:1013F0000F5F1F4FFC0181818C3259F0C8010E94A0
:10140000BE0E609317027093180280931902909396
:101410001A026CE270E0C8010E94070FFC012181F2
:101420002C3209F45BCD01960E94BE0E0E94CE0BB9
:101430004B015C0120E137E240E050E00E94450EA4
:101440002093400224E6C22ED12CE12CF12CA701DE
:1014500096010E94450E20930802C501B401A70120
:1014600096010E94450E60933A0238CD263509F068
:1014700074CA10923002A7CD933509F49FCE9C32E6
:1014800009F06BCA10924B029BCE953409F490CFB1
:101490009C3209F062CA10921B028CCF0E94560344
:1014A0000E94DC03CDE2D1E083E397E00197F1F7FE
:1014B0000E9498030E944B04882321F00E9451044B
:1014C0000E946604219781F70E949F0225E534E976
:1014D0004CEE52EC63E075E188E092E40E94500328
:1014E000E1CF5058BB27AA270E94890A0C94050D0A
:1014F0000E94CC0C38F00E94D30C20F039F49F3FAE
:1015000019F426F40C94A20C0EF4E095E7FB0C946D
:101510008E0CE92F0E942A0D58F3BA176207730741
:101520008407950720F079F4A6F50C944C0D0EF481
:10153000E0950B2EBA2FA02D0B01B90190010C01E3
:10154000CA01A0011124FF27591B99F0593F50F4FB
:10155000503E68F11A16F040A22F232F342F442753
:10156000585FF3CF469537952795A795F04053954B
:10157000C9F77EF41F16BA0B620B730B840BBAF01B
:101580009150A1F0FF0FBB1F661F771F881FC2F786
:101590000EC0BA0F621F731F841F48F4879577959A
:1015A0006795B795F7959E3F08F0B0CF9395880F54
:1015B00008F09927EE0F9795879508950E94CC0C17
:1015C00060F080E891E009F49EEF0E94D30C28F0CF
:1015D00040E851E071F45EEF0CC00C94A20C0C9446
:1015E0004C0DE92FE0780E942A0D40F3092E052AC0
:1015F000B1F3261737074807590738F00E2E07F8BA
:10160000E02569F0E025E0640AC0EF6307F8009484
:1016100007FADB01B9019D01DC01CA01AD01EF93BD
:101620000E946C0B0E94050D0E94210B5F915523B7
:1016300039F02BED3FE049E450FD49EC0C94720A7F
:101640000895DF93DD27B92FBF7740E85FE31616D3
:10165000170648075B0718F4D92F0E94530D9F9374
:101660008F937F936F930E94160EE8E6F0E00E943E
:10167000A50C0E94050D2F913F914F915F910E9403
:101680006E0DDD2351F09058A2EA2AED3FE049ECBF
:101690005FE3D0785D270E94890ADF910C94050DE5
:1016A0000E94DC0CE3950C94160D0E94690B0C94BF
:1016B000050D0E94D30C58F00E94CC0C40F029F488
:1016C0005F3F29F00C948E0C51110C944D0D0C942D
:1016D000A20C0E942A0D68F39923B1F3552391F3CC
:1016E000951B550BBB27AA2762177307840738F091
:1016F0009F5F5F4F220F331F441FAA1FA9F335D0EE
:101700000E2E3AF0E0E832D091505040E695001CA1
:10171000CAF72BD0FE2F29D0660F771F881FBB1F5B
:10172000261737074807AB07B0E809F0BB0B802D39
:10173000BF01FF2793585F4F3AF09E3F510578F065
:101740000C948E0C0C944D0D5F3FE4F3983ED4F353
:10175000869577956795B795F7959F5FC9F7880F39
:10176000911D9695879597F90895E1E0660F771F8B
:10177000881FBB1F621773078407BA0720F0621B1C
:10178000730B840BBA0BEE1F88F7E09508950E9447
:10179000CE0B6894B1110C944D0D08950E94320D3A
:1017A00088F09F5798F0B92F9927B751B0F0E1F022
:1017B000660F771F881F991F1AF0BA95C9F714C0D2
:1017C000B13091F00E944C0DB1E008950C944C0D95
:1017D000672F782F8827B85F39F0B93FCCF386950B
:1017E00077956795B395D9F73EF490958095709568
:1017F00061957F4F8F4F9F4F0895E89409C097FBE5
:101800003EF490958095709561957F4F8F4F9F4FD7
:101810009923A9F0F92F96E9BB279395F69587951B
:1018200077956795B795F111F8CFFAF4BB0F11F4DE
:1018300060FF1BC06F5F7F4F8F4F9F4F16C0882385
:1018400011F096E911C0772321F09EE8872F762FBB
:1018500005C0662371F096E8862F70E060E02AF0FC
:101860009A95660F771F881FDAF7880F96958795E8
:1018700097F908950E94CC0C20F019F00E94D30C27
:1018800050F40C94A20C0C944D0DE92F0E942A0DDB
:1018900088F35523B1F3E7FB6217730784079507B5
:1018A000A8F189F3E92FFF2788232AF03197660FE3
:1018B000771F881FDAF7952F5527442332F0915070
:1018C0005040220F331F441FD2F7BB27E91BF50BF3
:1018D000621B730B840BB109B1F222F4620F731F08
:1018E000841FB11D31972AF0660F771F881FBB1F19
:1018F000EFCF9150504062F041F0882332F0660FF4
:10190000771F881F91505040C1F793950C94940C09
:101910008695779567959F5FD9F7F7CF97F99F677A
:1019200080E870E060E008959F3F31F0915020F42E
:10193000879577956795B795880F911D96958795AB
:1019400097F908959FEF80EC0895DF93CF931F934D
:101950000F93FF92EF92DF927B018C01689406C097
:10196000DA2EEF010E946E0DFE01E894A5912591FB
:10197000359145915591A6F3EF010E94890AFE0128
:101980009701A801DA9469F7DF90EF90FF900F912B
:101990001F91CF91DF91089500240A94161617061F
:1019A00018060906089500240A9412161306140650
:1019B000050608950C94A20C0E94320DD8F3E89409
:1019C000E0E0BB279F57F0F02AED3FE049EC06C06E
:1019D000EE0FBB0F661F771F881F28F0B23A620711
:1019E0007307840728F0B25A620B730B840BE395DC
:1019F0009A9572F7803830F49A95BB0F661F771F5F
:101A0000881FD2F790480C94960C092E0394000C72
:101A100011F4882352F0BB0F40F4BF2B11F460FF88
:101A200004C06F5F7F4F8F4F9F4F0895EF93E0FF8C
:101A300007C0A2EA2AED3FE049EC5FEB0E94890A69
:101A40000E94050D0F90039401FC9058E5E9F0E029
:101A50000C94210E57FD9058440F551F59F05F3FCD
:101A600071F04795880F97FB991F61F09F3F79F0C0
:101A700087950895121613061406551FF2CF469542
:101A8000F1DF08C0161617061806991FF1CF8695C4
:101A90007105610508940895E894BB2766277727A8
:101AA000CB0197F908959B01AC0160E070E080E8FC
:101AB0009FE30C94550B0E946E0D0C94050D0E9433
:101AC000CC0C38F00E94D30C20F0952311F00C942C
:101AD0008E0C0C94A20C11240C944D0D0E942A0D16
:101AE00070F3959FC1F3950F50E0551F629FF00171
:101AF000729FBB27F00DB11D639FAA27F00DB11D8A
:101B0000AA1F649F6627B00DA11D661F829F222712
:101B1000B00DA11D621F739FB00DA11D621F839F99
:101B2000A00D611D221F749F3327A00D611D231F6F
:101B3000849F600D211D822F762F6A2F11249F57BD
:101B400050409AF0F1F088234AF0EE0FFF1FBB1FC0
:101B5000661F771F881F91505040A9F79E3F51057F
:101B600080F00C948E0C0C944D0D5F3FE4F3983E86
:101B7000D4F3869577956795B795F795E7959F5F29
:101B8000C1F7FE2B880F911D9695879597F90895BB
:101B90009F930E94DC0C0F9007FCEE5F0C94160DD7
:101BA00019F416F40C94A20C0C94940C0E94320DAF
:101BB000B8F39923C9F3B6F39F57550B87FF0E94DB
:101BC0001A0E0024A0E640EA900180585695979599
:101BD00028F4805C660F771F881F20F026173707D0
:101BE000480730F4621B730B840B202931294A2BE0
:101BF000A69517940794202531254A2758F7660F94
:101C0000771F881F20F026173707480730F4620B2C
:101C1000730B840B200D311D411DA09581F7B90177
:101C2000842F9158880F9695879508959B01AC0154
:101C30000C945B0D91505040660F771F881FD2F7B0
:101C400008959F938F937F936F93FF93EF939B01DF
:101C5000AC010E945B0DEF91FF910E94A50C2F91AA
:101C60003F914F915F910C945B0DDB018F939F939C
:101C70000E94860EBF91AF91A29F800D911DA39FE0
:101C8000900DB29F900D11240895A1E21A2EAA1B67
:101C9000BB1BFD010DC0AA1FBB1FEE1FFF1FA2171C
:101CA000B307E407F50720F0A21BB30BE40BF50B19
:101CB000661F771F881F991F1A9469F760957095A2
:101CC000809590959B01AC01BD01CF010895052E33
:101CD00097FB1EF400940E947E0E57FD07D00E94D1
:101CE000450E07FC03D04EF40C947E0E50954095A3
:101CF000309521953F4F4F4F5F4F089590958095B8
:101D0000709561957F4F8F4F9F4F08950E94910E60
:101D1000A59F900DB49F900DA49F800D911D11243F
:101D20000895A29FB001B39FC001A39F700D811DB4
:101D30001124911DB29F700D811D1124911D0895D4
:101D4000EF920F931F93CF93DF93E80134E047FDA9
:101D500034E1042E000C550B57FF03C051954195FB
:101D60005109E32E022F242FAE010E945311CE0100
:101D7000DF91CF911F910F91EF90089566277727FC
:101D80000C94B512FC0188279927E8942191203200
:101D9000E9F3293010F02E30C8F32B3241F02D3208
:101DA00039F4689404C00E94500F820F911D219154
:101DB00020532A30C0F31EF4909581959F4F0895CB
:101DC0001F93FC0199278827BC01E89411911032D8
:101DD000E9F3193010F01E30C8F31B3251F01D32F8
:101DE00049F4689406C00E943B0F610F711D811D6C
:101DF000911D119110531A30B0F33EF490958095D7
:101E0000709561957F4F8F4F9F4F1F910895FC01F3
:101E10008191861721F08823D9F799270895319762
:101E2000CF010895FB01DC014150504048F0019082
:101E30000D920020C9F701C01D9241505040E0F7BB
:101E40000895FB0151915523A9F0BF01DC014D918B
:101E500045174111E1F759F4CD010190002049F0F7
:101E60004D9140154111C9F3FB014111EFCF81E0C4
:101E700090E001970895592F482F372F262F660F8E
:101E8000771F881F991F660F771F881F991F620F82
:101E9000731F841F951F660F771F881F991F089552
:101EA0007AE0979F902D879F802D910D11240895A2
:101EB000AEE0B0E0EEE5FFE00C94CA150D891E8996
:101EC0008F89988D26E02C831A83098397FF02C09F
:101ED00080E090E801979E838D83AE01455E5F4F61
:101EE000698D7A8DCE0101960E94880F4D815E81A9
:101EF00057FD0AC02F813885421753070CF49A0109
:101F0000020F131FF80110822E96E4E00C94E615E0
:101F1000ABE0B0E0EEE8FFE00C94BC157C013B01C7
:101F20008A01FC0117821682838181FFB9C19AE080
:101F3000292ECE0101965C01F7019381F30193FDF7
:101F4000859193FF81913F01882309F446C1853231
:101F500039F493FD859193FF81913F01853229F4F6
:101F6000B70190E00E940215E7CF912C412C512C33
:101F7000FFE1F51538F08B3209F188F4803201F178
:101F8000833221F157FC3AC020ED280F2A3040F56A
:101F900056FE1FC0929C200D1124922E06C08D3239
:101FA00091F0803379F7689450F8F30193FD8591AF
:101FB00093FF81913F018111DBCF20C0689451F8DC
:101FC000689452F8F2CF689453F8EFCF689454F8BD
:101FD000ECCF429C200D1124422E689455F8E5CF99
:101FE0008E3229F456FCF9C0689456F8DECF8C3650
:101FF00019F4689457F8D9CF8836B9F2982F9F7D95
:1020000095549330C0F08336A1F18337C1F1833505
:1020100009F05BC0F801C190D1908F01692D70E08B
:1020200056FC02C06FEF7FEFC6010E94EC144C011A
:10203000689457F80AC00C5F1F4F2FE32983882448
:102040008394912C6501E89457F853FC04C048141C
:10205000190409F018F5342C8114910431F533205A
:1020600009F46ACFB70180E290E00E9402153A9429
:10207000F6CFF801808189830E5F1F4FE0CFF80112
:10208000C190D1908F01692D70E056FC02C06FEFB6
:102090007FEFC6010E94F7144C01D5CFB70180E253
:1020A00090E00E9402154A94D2CFF60157FC859128
:1020B00057FE81916F01B70190E00E940215311027
:1020C0003A94F1E08F1A9108C7CF843619F0893617
:1020D00009F074C0F80157FE6AC061917191819155
:1020E00091918F01252D2F76D22E97FF09C09095C3
:1020F0008095709561957F4F8F4F9F4F6894D7F86B
:102100002AE030E0A5010E943215C82ECA188C2C96
:102110005D2CD6FE0CC0E89450F8C91440F4D4FEEF
:1021200005C0D2FC03C0FD2DFE7E5F2E892C54FE1F
:102130008FC0FE01EC0DF11D8081803309F081C05C
:10214000252D297E522E852D8870382E53FC8FC068
:1021500050FE89C09C2C841418F44C0C942C9818B4
:1021600054FE8BC0B70180E390E00E94021552FE3E
:1021700009C088E790E051FE02C088E590E0B70111
:102180000E940215C91408F484C0CA94D12C9FEF90
:10219000C91AD90ACA0CDB1CF60182916F01B7017A
:1021A00090E00E940215AC14BD04B1F758CF6191C4
:1021B0007191072E000C880B990B93CFD52CE894C6
:1021C000D4F82AE030E0853739F1952D997FD92E62
:1021D0008F3601F148F48835A9F0F701868197819F
:1021E0002B96E2E10C94D815803749F08837A9F78F
:1021F000D4FE02C06894D2F820E130E00DC06894AB
:10220000D4F8F6CF54FE03C0E92FE660DE2E20E1BD
:1022100032E002C028E030E0F801D7FE0DC0619145
:102220007191819191918F01A5010E943215C82E63
:10223000CA18E894D7F86BCF6191719190E080E073
:10224000F2CF52FC02C083947ECF839483947BCFE1
:10225000852D867809F477CFF6CFB70180E290E03C
:102260000E94021583948414C0F3312C79CF342C4E
:102270003818841408F474CFF8CF852D867809F4C3
:1022800081CF8BE251FE80E257FC8DE2B70190E0F6
:1022900077CFB70180E390E00E9402159A9472CF45
:1022A0008FEF9FEF9DCFA9E0B0E0E9E5F1E10C945D
:1022B000C2156A01F22EB02E102F0BE30B1508F495
:1022C0001BE31F5F012F27E0AE014F5F5F4F0E94AE
:1022D000F313BC018981982F99709130C9F19BE269
:1022E000E1FC04C09E2D9170E0FC90E25E2D5071E7
:1022F000E82FE87083FF48C083E0911184E0EF2D60
:10230000E81B8F1508F0E0E0552371F1992319F0CF
:10231000D6019D936D01C6010396E2FE29C02EE40D
:10232000D6012C9331E411963C93119712962C937D
:102330002E2F382F492F50E221111FC0E80FF92FFF
:10234000F11D10828EEF9FEF2996ECE00C94DE15C4
:102350009DE2CCCFD9014D9381509D018111FACFDF
:10236000CE0ED11CE0E0D2CF8E2F960140E2F6CF08
:102370002EE6D6012C9331E6D6CFA32FB42F5D9352
:1023800021503A2F4B2FD8CF482F447082FF41C0A5
:1023900083E0911184E08F1510F4EF2DE81B552395
:1023A00059F1992319F0D6019D936D01C601039649
:1023B000E2FE26C029E4D6012C932EE411962C933C
:1023C000119726E412962C932E2F382F492F50E286
:1023D000222309F4B3CFA32FB42F5D9321503A2FBA
:1023E0004B2FF6CFD9014D9381509D018111FACF2A
:1023F000CE0ED11CE0E0D5CF8E2F960140E2F6CF75
:1024000029E6D6012C932EE611962C93119726E6F9
:10241000D9CF9B0177FF02C030E020E0A1E0B0E01F
:10242000911102C0B0E0A0E0F9013196AE0FBF1FDC
:102430008B2C912CBB20F1F05401EFEFAE1ABE0AA9
:10244000AA0DBB1DFA161B0619F014F04F2D4A1BDE
:10245000511145C0E3FC08C07601A42FB0E2A111E0
:102460000CC0C40ED11C40E091113BC0D601942F8A
:1024700050E30AC0B12CA12CE3CFF701B1937F0147
:10248000A150EDCF5D9391509111FCCFC40ED11CA2
:1024900040E02DC001E03AC050E354C0621773071A
:1024A00039F4A63320F4A53319F4B11101C051E376
:1024B000D6015C93242F382F592F60E2211108C0D8
:1024C000480F592F511DFA01108290E080E03CCF57
:1024D000E32FF52F619321503E2F5F2FEFCF9923EC
:1024E00031F0D6019D936D01552309F4BFCF012F23
:1024F000060FAA81B82FB07184FF03C0A13309F47D
:10250000015010163CF6093008F008E0FB01E01B12
:10251000F1098F01EE24FF24E818F9088EE2B82EA5
:10252000621773070CF4B8CF021713070CF0B4CF7F
:10253000FB01E21BF30B81E090E08C0F9D1FE80F85
:10254000F91F518121503109C60101962E153F0511
:102550000CF4A4CFF60150832F3F320721F4C601BB
:102560000296F601B1826C01DBCFB0E0A0E0EBEBAC
:10257000F2E10C94C2157C016B016115710519F033
:10258000FB0191838083E7010991802F90E00E94F5
:10259000CB145C01892BB1F50D32B1F50881E7014F
:1025A000229611E07E01F1E0EF1AF10843E050E0DD
:1025B0006CEB70E0C7010E94D414892B61F57E0199
:1025C00082E0E80EF11C45E050E067EB70E0C701E7
:1025D0000E94D414892B21F47E0197E0E90EF11CAE
:1025E000C114D10419F0F601F182E08260E070E0DC
:1025F00080E89FE7112309F4F1C060E070E080E813
:102600009FEFECC07E01BFCF0B3219F40881E701C8
:10261000229610E0C7CF43E050E064EB70E0C701C2
:102620000E94D414892B61F4C114D10421F02296A4
:10263000F601D183C08360E070E080EC9FE7CEC0FC
:10264000F12CE12C20E030E0A901F0EDF00FFA30A0
:1026500058F5E12FE260812F887012FF08C08111C8
:1026600003C0FFEFEF1AFF0A09911E2FEECF882358
:1026700019F081E0E81AF108A5E0B0E00E94860EAA
:102680009B01AC01220F331F441F551F2F0F311D1B
:10269000411D511D283999E93907490799E1590721
:1026A00018F3E12FE660E0CFFE3F29F413FD3AC0B6
:1026B000E12FE860D9CF0F7D0534A1F588818D32F7
:1026C00041F41061BE016E5F7F4F8981E2E0F0E06E
:1026D00007C0BE018B32B9F36F5F7F4FE1E0F0E0DE
:1026E0008053EB01CE1BDF0B8A30E0F4E0E8AE163E
:1026F000ECE0BE065CF4F501EE0FFF1FEE0FFF1FCE
:10270000AE0EBF1EAA0CBB1CA80EB11CEB0189911A
:1027100080538A3090F114FF03C0B194A194B108A2
:10272000EA0CFB1C11FF07C0C114D10421F0219752
:10273000F601D183C083CA01B9010E94FD0B137059
:10274000133009F490584B015C0120E030E0A901FE
:102750000E949015882309F43FC0CBEED0E0F7FE2D
:1027600005C0F194E194F108C3EDD0E06E01F8E109
:10277000CF1AD10800E210E00FC0BE01B7CFFE01B2
:102780002591359145915491E01AF10AC501B401A2
:102790000E945B0D4B015C01D501C401E016F106FE
:1027A00074F7249715950795CC15DD05A9F78A2FA1
:1027B000880F8B2F881F8F3F49F020E030E0A90160
:1027C000C501B4010E949015811106C082E290E01B
:1027D0009093450380934403C501B401CDB7DEB7A0
:1027E000ECE00C94DE15283008F027E03327DA01FE
:1027F000990F311D87FD916000966105710539F4CF
:1028000032602E5F3D9330E32A95E1F708959F3FB4
:1028100030F080387105610509F03C5F3C5F3D9305
:10282000913008F08068911DDF93CF931F930F9331
:10283000FF92EF92192F987F9695E92F969596958E
:10284000E90FFF27E75BFE4F99273327EE24FF248C
:10285000A701E70105900894079428F4360FE71EB6
:10286000F81E491F511D660F771F881F991F069478
:10287000A1F70590079428F4E70EF81E491F561F8C
:10288000C11D770F881F991F661F0694A1F7059039
:10289000079428F4F80E491F561FC71FD11D880F33
:1028A000991F661F771F0694A1F70590079420F4DF
:1028B000490F561FC71FD81F990F661F771F881F04
:1028C0000694A9F784911095177041F0D695C79595
:1028D00057954795F794E7941A95C1F7EFEEF0E016
:1028E00068941590159135916591959105907FE2C9
:1028F0007395E118F10A430B560BC90BD009C0F7C9
:10290000E10CF11E431F561FC91FD01D7EF470330A
:1029100011F48A95E6CFE894015030F0080F0AF4DC
:102920000027021708F4202F2395022F7A3328F06E
:1029300079E37D932A95E9F710C07D932A9589F66E
:10294000069497956795379517951794E118F10AAE
:10295000430B560BC90BD00998F023957E917395C4
:102960007A3308F070E37C932013B8F77E9170619E
:102970007D9330F0839571E37D9370E32A95E1F7C1
:102980001124EF90FF900F911F91CF91DF91992724
:1029900087FD9095089591110C94B915803219F026
:1029A00089508550C8F70895FB01DC014150504023
:1029B00088F08D9181341CF08B350CF4805E65912C
:1029C00061341CF06B350CF4605E861B611171F391
:1029D000990B0895881BFCCFFC0105906150704055
:1029E0000110D8F7809590958E0F9F1F0895FC01D8
:1029F0006150704001900110D8F7809590958E0F2E
:102A00009F1F08950F931F93CF93DF93182F092FC4
:102A1000EB018B8181FD09C01FEF0FEF812F902FFC
:102A2000DF91CF911F910F91089582FF14C02E81E5
:102A30003F818C819D81281739073CF4E881F98119
:102A4000CF0101969983888310838E819F8101969F
:102A50009F838E83E3CFE885F985812F0995892BA4
:102A6000A1F3DACFFA01AA27283051F1203181F100
:102A7000E8946F936E7F6E5F7F4F8F4F9F4FAF4F86
:102A8000B1E03ED0B4E03CD0670F781F891F9A1F99
:102A9000A11D680F791F8A1F911DA11D6A0F711D4D
:102AA000811D911DA11D20D009F468943F912AE059
:102AB000269F11243019305D3193DEF6CF01089541
:102AC000462F4770405D4193B3E00FD0C9F7F6CF72
:102AD000462F4F70405D4A3318F0495D31FD40523A
:102AE000419302D0A9F7EACFB4E0A69597958795D0
:102AF00077956795BA95C9F70097610571050895AF
:102B00009B01AC010A2E069457954795379527955A
:102B1000BA95C9F7620F731F841F951FA01D0895F2
:102B20000E94951508F481E00895990F0008550F4B
:102B3000AA0BE0E8FEEF16161706E807F907C0F043
:102B400012161306E407F50798F0621B730B840B4B
:102B5000950B39F40A2661F0232B242B252B21F425
:102B600008950A2609F4A140A6958FEF811D811DC5
:102B700008959927882708952F923F924F925F9248
:102B80006F927F928F929F92AF92BF92CF92DF927D
:102B9000EF92FF920F931F93CF93DF93CDB7DEB7E2
:102BA000CA1BDB0B0FB6F894DEBF0FBECDBF099476
:102BB0002A88398848885F846E847D848C849B84CD
:102BC000AA84B984C884DF80EE80FD800C811B81DB
:102BD000AA81B981CE0FD11D0FB6F894DEBF0FBE0A
:0A2BE000CDBFED010895F894FFCF7A
:102BEA0044697374616E63653A202573206D657458
:102BFA006572730D0A476F616C206C6F633A20250A
:102C0A00732C2025730D0A43757272656E743A200F
:102C1A0025732C2025730D0A004461746554696D6F
:102C2A00653A2025752D25752D25752025753A259A
:102C3A00753A2575200D0A4669783A2025642C20B4
:102C4A00466978207175616C6974793A2025752C0A
:102C5A00204E756D20536174656C6C697465733AA6
:102C6A002025750D0A004461746554696D653A2022
:102C7A0025752D25752D25752025753A25753A2535
:102C8A0075200D0A4C6F636174696F6E3A20256373
:102C9A002025732C2025632025730D0A4669783A6E
:102CAA002025642C20466978207175616C697479D5
:102CBA003A2025752C204E756D20536174656C6C15
:102CCA00697465733A2025750D0A002447504747F1
:0A2CDA004100244750524D43000012
:00000001FF
