:100000000C9452000C946F000C946F000C946F00D1
:100010000C946F000C946F000C946F000C946F00A4
:100020000C946F000C946F000C946F000C946F0094
:100030000C946F000C946F000C946F000C946F0084
:100040000C946F000C946F000C946F000C946F0074
:100050000C946F000C946F000C946F000C946F0064
:100060000C946F000C946F004E414E494E49545908
:10007000494E46CDCCCC3D0AD7233C17B7D1387773
:10008000CC2B329595E6241FB14F0A000020410089
:1000900000C84200401C4620BCBE4CCA1B0E5AAED3
:1000A000C59D740011241FBECFEFD8E0DEBFCDBFC9
:1000B00011E0A0E0B1E0E4E2FFE102C005900D92A2
:1000C000A039B107D9F722E0A0E9B1E001C01D9243
:1000D000A53DB207E1F70E9428070C94900F0C94FD
:1000E00000008FE290E09093C5008093C400E1ECA3
:1000F000F0E080818860808380818061808386E0F9
:100100008093C20008959091C00095FFFCCF80932A
:10011000C60008950F931F93CF93DF938C01D0E017
:10012000C0E0F80101900020E9F73197E01BF10BE6
:10013000CE17DF0728F0DF91CF911F910F9108951F
:1001400083E397E00197F1F7F801EC0FFD1F808141
:100150000E9483002196E5CF8091C00087FFFCCFED
:100160008091C60008950E94AC008A3009F5E091A4
:1001700090012091D1023091D202E20FF32FF11DB4
:1001800010822091D1023091D20291E0213E3907B4
:1001900029F549E552E05093D2024093D1023093C1
:1001A000DE012093DD011092900191E09093E00137
:1001B0002091D1023091D202E091900191E09E0F06
:1001C00090939001E20FF32FF11D808390919001A5
:1001D000983718F097E790939001089521EE31E059
:1001E0003093D2022093D10229E532E0D8CF109289
:1001F000E001109295011092900181EE91E09093B0
:10020000D2028093D10289E592E09093DE0180933F
:10021000DD011092B201109297011092CD0110925F
:100220009E011092C7011092BC011092A001109281
:10023000A8011092DA011092AD011092D90110922A
:10024000DC0189E68093D4011092A7011092A601E7
:100250001092D5011092D6011092D7011092D801B8
:1002600010929A0110929B0110929C0110929D0194
:100270001092A9011092AA011092AB011092AC0148
:100280001092D0011092D1011092D2011092D3019C
:100290001092B3011092B4011092B5011092B60100
:1002A0001092910110929201109293011092940178
:1002B0001092AE011092AF011092B0011092B101F4
:1002C0001092C9011092CA011092CB011092CC0178
:1002D000089508958091E00108958093950108950F
:1002E0001092E0018091DD019091DE01089580334C
:1002F00054F08A3314F4805308959FEB980F96308E
:1003000010F48753089580E008954F925F926F92A2
:100310007F928F929F92AF92BF92CF92DF92EF9295
:10032000FF920F931F93CF93DF93CDB7DEB72A973A
:100330000FB6F894DEBF0FBECDBF7C01FC0101906B
:100340000020E9F73197E81BF90B6F0184E0C81A28
:10035000D108D701AC0DBD1D8C918A3209F03FC088
:1003600087010E0F1F1FF801339780810E947701CC
:1003700090E1899F50011124F801329780810E94F9
:1003800077018A0D9B2D911D42E0242F30E02C1522
:100390003D05D0F0892B19F180E02A960FB6F8942C
:1003A000DEBF0FBECDBFDF91CF911F910F91FF90A8
:1003B000EF90DF90CF90BF90AF909F908F907F9005
:1003C0006F905F904F9008952E0D3F1DF901208191
:1003D000022E000C330B822793274F5FD6CF61E8A4
:1003E00071E0C7010E94F80A892B09F475C287E4FD
:1003F0008093D4016CE270E0C7010E94DE0A8C0198
:100400000F5F1F4FC8010E94950A6B017C010E947B
:100410009E082B013C0120E137E240E050E00E94C1
:100420003A0A2093A80144E6842E912CA12CB12CE9
:10043000A50194010E943A0A2093A001C301B201D0
:10044000A50194010E943A0A6093BC0120E030E0CB
:1004500040E85FE3C701B6010E94150920E030E0E3
:100460004AE754E40E94BD090E949E087093A701C8
:100470006093A6016CE270E0C8010E94DE0A7C0174
:100480008C010F5F1F4FFC0181818C3209F4A8C0E1
:1004900042E050E0B801CE0101960E94E90A1B82B9
:1004A000CE0101960E94B70A9B01AC0160E876E993
:1004B00088E990E00E942A0A4B015C01B7016D5F58
:1004C0007F4F42E050E0CE0101960E94E90A0B5FA7
:1004D0001F4F44E050E0B801CE0103960E94E90AA4
:1004E0001F82CE0101960E94B70A9B01AC01A2E3D4
:1004F000B0E00E947B0A23E030E040E050E00E9440
:100500005C0A69017A01D501C4018C0D9D1DAE1DE7
:10051000BF1D8093A2019093A301A093A401B09367
:10052000A501C501B40120EA36E841E050E00E948F
:100530005C0ACA01B9010E94CF084B015C01C701E6
:10054000B6010E94CF082CE933E549EC56E30E943E
:10055000BD099B01AC01C501B4010E94B9074B0163
:100560005C018092C9019092CA01A092CB01B09225
:10057000CC0120E030E048EC52E40E9425080E94C3
:1005800097086B0184E68C9DB0018D9D700D112440
:10059000072E000C880B990B0E94CF089B01AC0121
:1005A000C501B4010E94B80720E030E040E752E402
:1005B0000E9425084B015C01B601DD0C880B990BEC
:1005C0000E94CF089B01AC01C501B4010E94B9078C
:1005D0006093C3017093C4018093C5019093C601D9
:1005E0006CE270E0C8010E94DE0AFC019C012F5FF2
:1005F0003F4F91819C32C9F0933589F44091C301FA
:100600005091C4016091C5017091C601705840932A
:10061000C3015093C4016093C5017093C6019181D9
:100620009E3409F03BC19093D9016CE270E0C9019E
:100630000E94DE0A7C018C010F5F1F4FFC0181814B
:100640008C3209F4A8C043E050E0B801CE01019615
:100650000E94E90A1C82CE0101960E94B70A9B0102
:10066000AC0160E876E988E990E00E942A0A4B0133
:100670005C01B7016C5F7F4F42E050E0CE01019614
:100680000E94E90A0A5F1F4F44E050E0B801CE0122
:1006900003960E94E90A1F82CE0101960E94B70AC2
:1006A0009B01AC01A2E3B0E00E947B0A23E030E0B2
:1006B00040E050E00E945C0A69017A01D501C40162
:1006C0008C0D9D1DAE1DBF1D8093B7019093B80189
:1006D000A093B901B093BA01C501B40120EA36E88C
:1006E00041E050E00E945C0ACA01B9010E94CF08B3
:1006F0004B015C01C701B6010E94CF082CE933E52C
:1007000049EC56E30E94BD099B01AC01C501B4014F
:100710000E94B9074B015C018092AE019092AF013B
:10072000A092B001B092B10120E030E048EC52E478
:100730000E9425080E9497086B0184E68C9DB001F9
:100740008D9D700D1124072E000C880B990B0E94B3
:10075000CF089B01AC01C501B4010E94B80720E09D
:1007600030E040E752E40E9425084B015C01B601ED
:10077000DD0C880B990B0E94CF089B01AC01C501D1
:10078000B4010E94B9076093BE017093BF018093CA
:10079000C0019093C1016CE270E0C8010E94DE0AC2
:1007A000FC0181818C32C9F0873589F48091BE01CA
:1007B0009091BF01A091C001B091C101B058809348
:1007C000BE019093BF01A093C001B093C10191817C
:1007D000973509F06CC09093AD016CE270E0CF01E9
:1007E00001960E94DE0A8C010F5F1F4FFC01818180
:1007F0008C3229F0C8010E94990A809397016CE21B
:1008000070E0C8010E94DE0A8C010F5F1F4FFC01DF
:1008100081818C3229F0C8010E94990A8093B2012B
:100820006CE270E0C8010E94DE0A8C010F5F1F4F6E
:10083000FC0181818C3259F0C8010E94950A6093B5
:10084000D5017093D6018093D7019093D8016CE2C3
:1008500070E0C8010E94DE0A8C010F5F1F4FFC018F
:1008600081818C3259F0C8010E94950A6093B301CE
:100870007093B4018093B5019093B6016CE270E07F
:10088000C8010E94DE0A6CE270E001960E94DE0A56
:10089000FC0121812C32A1F481E07FCD933509F454
:1008A000C2CE9C3209F078CD1092D901BECE9534DB
:1008B00009F491CF9C3209F06FCD1092AD018DCF2C
:1008C00001960E94950A6093910170939201809322
:1008D000930190939401E0CF69E871E0C7010E9411
:1008E000F80A892B09F458CD6CE270E0C7010E9428
:1008F000DE0A8C010F5F1F4FC8010E94950A6B0131
:100900007C010E949E082B013C0120E137E240E07F
:1009100050E00E943A0A2093A80134E6832E912CDD
:10092000A12CB12CA50194010E943A0A2093A001A8
:10093000C301B201A50194010E943A0A6093BC016F
:1009400020E030E040E85FE3C701B6010E941509EE
:1009500020E030E04AE754E40E94BD090E949E086E
:100960007093A7016093A6016CE270E0C8010E9439
:10097000DE0AFC0191819093D401913409F013C2F5
:1009800081E08093DC016CE270E0CF0101960E946F
:10099000DE0A7C018C010F5F1F4FFC0181818C32CC
:1009A00009F4A8C042E050E0B801CE0101960E94CF
:1009B000E90A1B82CE0101960E94B70A9B01AC0195
:1009C00060E876E988E990E00E942A0A4B015C0120
:1009D000B7016D5F7F4F42E050E0CE0101960E946B
:1009E000E90A0B5F1F4F44E050E0B801CE010396C7
:1009F0000E94E90A1F82CE0101960E94B70A9B015C
:100A0000AC01A2E3B0E00E947B0A23E030E040E0CA
:100A100050E00E945C0A69017A01D501C4018C0D85
:100A20009D1DAE1DBF1D8093A2019093A301A093B5
:100A3000A401B093A501C501B40120EA36E841E064
:100A400050E00E945C0ACA01B9010E94CF084B0124
:100A50005C01C701B6010E94CF082CE933E549ECDF
:100A600056E30E94BD099B01AC01C501B4010E947F
:100A7000B9074B015C018092C9019092CA01A09212
:100A8000CB01B092CC0120E030E048EC52E40E946F
:100A900025080E9497086B0184E68C9DB0018D9D0E
:100AA000700D1124072E000C880B990B0E94CF08A3
:100AB0009B01AC01C501B4010E94B80720E030E001
:100AC00040E752E40E9425084B015C01B601DD0CB1
:100AD000880B990B0E94CF089B01AC01C501B401A2
:100AE0000E94B9076093C3017093C4018093C5014C
:100AF0009093C6016CE270E0C8010E94DE0AFC011E
:100B00009C012F5F3F4F91819C32C9F0933589F44E
:100B10004091C3015091C4016091C5017091C6011B
:100B200070584093C3015093C4016093C501709302
:100B3000C60191819E3409F03CC19093D9016CE2C9
:100B400070E0C9010E94DE0A7C018C010F5F1F4F1B
:100B5000FC0181818C3209F4A8C043E050E0B80167
:100B6000CE0101960E94E90A1C82CE0101960E94E4
:100B7000B70A9B01AC0160E876E988E990E00E9441
:100B80002A0A4B015C01B7016C5F7F4F42E050E0E5
:100B9000CE0101960E94E90A0A5F1F4F44E050E02F
:100BA000B801CE0103960E94E90A1F82CE01019688
:100BB0000E94B70A9B01AC01A2E3B0E00E947B0A4D
:100BC00023E030E040E050E00E945C0A69017A01D5
:100BD000D501C4018C0D9D1DAE1DBF1D8093B701B5
:100BE0009093B801A093B901B093BA01C501B401C3
:100BF00020EA36E841E050E00E945C0ACA01B901EF
:100C00000E94CF084B015C01C701B6010E94CF08CA
:100C10002CE933E549EC56E30E94BD099B01AC0188
:100C2000C501B4010E94B9074B015C018092AE017D
:100C30009092AF01A092B001B092B10120E030E0FB
:100C400048EC52E40E9425080E9497086B0184E654
:100C50008C9DB0018D9D700D1124072E000C880B0A
:100C6000990B0E94CF089B01AC01C501B4010E9401
:100C7000B80720E030E040E752E40E9425084B012D
:100C80005C01B601DD0C880B990B0E94CF089B011B
:100C9000AC01C501B4010E94B9076093BE01709315
:100CA000BF018093C0019093C1016CE270E0C80164
:100CB0000E94DE0AFC0181818C32C9F0873589F4FB
:100CC0008091BE019091BF01A091C001B091C1017E
:100CD000B0588093BE019093BF01A093C001B09320
:100CE000C1019181973509F06DC09093AD016CE21F
:100CF00070E0CF0101960E94DE0A8C010F5F1F4F4A
:100D0000FC0181818C3259F0C8010E94950A6093E0
:100D1000D0017093D1018093D2019093D3016CE202
:100D200070E0C8010E94DE0A8C010F5F1F4FFC01BA
:100D300081818C3259F0C8010E94950A6093A90103
:100D40007093AA018093AB019093AC016CE270E0C8
:100D5000C8010E94DE0AFC0121812C3209F49CCDDD
:100D600001960E94950A0E949E084B015C0120E1B9
:100D700037E240E050E00E943A0A2093CD0124E699
:100D8000C22ED12CE12CF12CA70196010E943A0A27
:100D900020939E01C501B401A70196010E943A0A61
:100DA0006093C70179CD963509F0F6CA1092DC013F
:100DB000EACD933509F4C1CE9C3209F0EDCA109208
:100DC000D901BDCE953409F490CF9C3209F0E4CA24
:100DD0001092AD018CCFEF92FF920F931F93CF93A0
:100DE000DF93CDB7DEB764970FB6F894DEBF0FBEC2
:100DF000CDBF7C0100E00A3011F410E01BC00E945E
:100E0000B3001091E0011123B1F31092E001609161
:100E1000DD017091DE0144E150E0CE0101960E94B7
:100E2000E90A1C8A0F5FB701CE0101960E94F80AF9
:100E3000892B09F3812F64960FB6F894DEBF0FBE9D
:100E4000CDBFDF91CF911F910F91FF90EF9008954B
:100E5000CDB7DEB7DA950FB6F894DEBF0FBECDBFC3
:100E60000E9471000E94F70080E0E82E81E0F82ED9
:100E7000BB24B3948E010F5F1F4FC12CDD24D3948C
:100E800083E397E00197F1F70E94B3000E946A01A3
:100E90008823B1F30E9470010E9485018091B20104
:100EA0001F928F93809197011F928F938091D4010D
:100EB000282F082E000C330B3F938F938091DC0179
:100EC0001F928F938091AD01282F082E000C330BB9
:100ED0003F938F938091B1018F938091B0018F9355
:100EE0008091AF018F938091AE018F938091D90152
:100EF000282F082E000C330B3F938F938091CC0149
:100F00008F938091CB018F938091CA018F938091B1
:100F1000C9018F938091BC011F928F938091A00192
:100F20001F928F938091A8011F928F938091C70188
:100F30001F928F9380919E011F928F938091CD017C
:100F40001F928F93FF92EF92BF921F921F930F9366
:100F50000E942F0B0FB6F894DEBF0FBECDBFC801A5
:100F60000E948A00F801C60111920197E9F788CF23
:100F70005058BB27AA270E94D0070C9483090E94CF
:100F8000750938F00E947C0920F039F49F3F19F46C
:100F900026F40C9472090EF4E095E7FB0C945E09BC
:100FA000E92F0E94940958F3BA1762077307840760
:100FB000950720F079F4A6F50C94B6090EF4E095A7
:100FC0000B2EBA2FA02D0B01B90190010C01CA0103
:100FD000A0011124FF27591B99F0593F50F4503EAE
:100FE00068F11A16F040A22F232F342F4427585FA0
:100FF000F3CF469537952795A795F0405395C9F7B8
:101000007EF41F16BA0B620B730B840BBAF091506F
:10101000A1F0FF0FBB1F661F771F881FC2F70EC00E
:10102000BA0F621F731F841F48F4879577956795E1
:10103000B795F7959E3F08F0B0CF9395880F08F0CD
:101040009927EE0F9795879508950E9439080C947B
:1010500083090E947C0958F00E94750940F029F428
:101060005F3F29F00C945E0951110C94B7090C9460
:1010700072090E94940968F39923B1F3552391F3FF
:10108000951B550BBB27AA2762177307840738F0F7
:101090009F5F5F4F220F331F441FAA1FA9F335D054
:1010A0000E2E3AF0E0E832D091505040E695001C08
:1010B000CAF72BD0FE2F29D0660F771F881FBB1FC2
:1010C000261737074807AB07B0E809F0BB0B802DA0
:1010D000BF01FF2793585F4F3AF09E3F510578F0CC
:1010E0000C945E090C94B7095F3FE4F3983ED4F387
:1010F000869577956795B795F7959F5FC9F7880FA0
:10110000911D9695879597F90895E1E0660F771FF1
:10111000881FBB1F621773078407BA0720F0621B82
:10112000730B840BBA0BEE1F88F7E09508950E94AD
:101130009E086894B1110C94B70908950E949C0907
:1011400088F09F5798F0B92F9927B751B0F0E1F088
:10115000660F771F881F991F1AF0BA95C9F714C038
:10116000B13091F00E94B609B1E008950C94B6092F
:10117000672F782F8827B85F39F0B93FCCF3869571
:1011800077956795B395D9F73EF4909580957095CE
:1011900061957F4F8F4F9F4F0895E89409C097FB4B
:1011A0003EF490958095709561957F4F8F4F9F4F3E
:1011B0009923A9F0F92F96E9BB279395F695879582
:1011C00077956795B795F111F8CFFAF4BB0F11F445
:1011D00060FF1BC06F5F7F4F8F4F9F4F16C08823EC
:1011E00011F096E911C0772321F09EE8872F762F22
:1011F00005C0662371F096E8862F70E060E02AF063
:101200009A95660F771F881FDAF7880F969587954E
:1012100097F908950E94750920F019F00E947C0941
:1012200050F40C9472090C94B709E92F0E949409A8
:1012300088F35523B1F3E7FB62177307840795071B
:10124000A8F189F3E92FFF2788232AF03197660F49
:10125000771F881FDAF7952F5527442332F09150D6
:101260005040220F331F441FD2F7BB27E91BF50B59
:10127000621B730B840BB109B1F222F4620F731F6E
:10128000841FB11D31972AF0660F771F881FBB1F7F
:10129000EFCF9150504062F041F0882332F0660F5A
:1012A000771F881F91505040C1F793950C946409A3
:1012B0008695779567959F5FD9F7F7CF97F99F67E1
:1012C00080E870E060E008959F3F31F0915020F495
:1012D000879577956795B795880F911D9695879512
:1012E00097F908959FEF80EC089500240A9416164C
:1012F000170618060906089500240A941216130604
:10130000140605060895092E0394000C11F4882391
:1013100052F0BB0F40F4BF2B11F460FF04C06F5FAD
:101320007F4F8F4F9F4F089557FD9058440F551F83
:1013300059F05F3F71F04795880F97FB991F61F057
:101340009F3F79F087950895121613061406551FCE
:10135000F2CF4695F1DF08C0161617061806991F3A
:10136000F1CF86957105610508940895E894BB272F
:1013700066277727CB0197F908950E94D0090C942E
:1013800083090E94750938F00E947C0920F095239A
:1013900011F00C945E090C94720911240C94B70995
:1013A0000E94940970F3959FC1F3950F50E0551F6B
:1013B000629FF001729FBB27F00DB11D639FAA27AA
:1013C000F00DB11DAA1F649F6627B00DA11D661FF9
:1013D000829F2227B00DA11D621F739FB00DA11D1A
:1013E000621F839FA00D611D221F749F3327A00DD4
:1013F000611D231F849F600D211D822F762F6A2F70
:1014000011249F5750409AF0F1F088234AF0EE0FD4
:10141000FF1FBB1F661F771F881F91505040A9F701
:101420009E3F510580F00C945E090C94B7095F3F14
:10143000E4F3983ED4F3869577956795B795F7953D
:10144000E7959F5FC1F7FE2B880F911D96958795B5
:1014500097F90895DB018F939F930E947B0ABF91B8
:10146000AF91A29F800D911DA39F900DB29F900DF3
:1014700011240895A1E21A2EAA1BBB1BFD010DC069
:10148000AA1FBB1FEE1FFF1FA217B307E407F50734
:1014900020F0A21BB30BE40BF50B661F771F881F10
:1014A000991F1A9469F760957095809590959B01A6
:1014B000AC01BD01CF010895052E97FB1EF40094E9
:1014C0000E94730A57FD07D00E943A0A07FC03D016
:1014D0004EF40C94730A50954095309521953F4FEA
:1014E0004F4F5F4F089590958095709561957F4F10
:1014F0008F4F9F4F08950E94860AA59F900DB49F1D
:10150000900DA49F800D911D11240895A29FB001FC
:10151000B39FC001A39F700D811D1124911DB29F27
:10152000700D811D1124911D0895662777270C9455
:101530002A0DFC0188279927E89421912032E9F3AC
:10154000293010F02E30C8F32B3241F02D3239F40F
:10155000689404C00E94270B820F911D2191205393
:101560002A30C0F31EF4909581959F4F08951F93E4
:10157000FC0199278827BC01E89411911032E9F306
:10158000193010F01E30C8F31B3251F01D3249F4EF
:10159000689406C00E94120B610F711D811D911D80
:1015A000119110531A30B0F33EF4909580957095D8
:1015B00061957F4F8F4F9F4F1F910895FC0181913F
:1015C000861721F08823D9F7992708953197CF01FD
:1015D0000895FB01DC014150504048F001900D920C
:1015E0000020C9F701C01D9241505040E0F7089516
:1015F000FB0151915523A9F0BF01DC014D91451725
:101600004111E1F759F4CD010190002049F04D91CD
:1016100040154111C9F3FB014111EFCF81E090E08A
:1016200001970895592F482F372F262F660F771FC0
:10163000881F991F660F771F881F991F620F731FDE
:10164000841F951F660F771F881F991F08957AE0E2
:10165000979F902D879F802D910D11240895AEE0C6
:10166000B0E0E5E3FBE00C94670F0D891E898F89DC
:10167000988D26E02C831A83098397FF02C080E0AF
:1016800090E801979E838D83AE01455E5F4F698D23
:101690007A8DCE0101960E945F0B4D815E8157FDD0
:1016A0000AC02F813885421753070CF49A01020FA4
:1016B000131FF80110822E96E4E00C94830FABE028
:1016C000B0E0E5E6FBE00C94590F7C013B018A0198
:1016D000FC0117821682838181FFB9C19AE0292E0D
:1016E000CE0101965C01F7019381F30193FD859191
:1016F00093FF81913F01882309F446C1853239F473
:1017000093FD859193FF81913F01853229F4B701C3
:1017100090E00E949F0EE7CF912C412C512CFFE1CD
:10172000F51538F08B3209F188F4803201F18332FB
:1017300021F157FC3AC020ED280F2A3040F556FE23
:101740001FC0929C200D1124922E06C08D3291F064
:10175000803379F7689450F8F30193FD859193FFF6
:1017600081913F018111DBCF20C0689451F86894CA
:1017700052F8F2CF689453F8EFCF689454F8ECCF56
:10178000429C200D1124422E689455F8E5CF8E32EC
:1017900029F456FCF9C0689456F8DECF8C3619F45B
:1017A000689457F8D9CF8836B9F2982F9F7D955411
:1017B0009330C0F08336A1F18337C1F1833509F04E
:1017C0005BC0F801C190D1908F01692D70E056FC8B
:1017D00002C06FEF7FEFC6010E94890E4C01689432
:1017E00057F80AC00C5F1F4F2FE329838824839486
:1017F000912C6501E89457F853FC04C0481419046F
:1018000009F018F5342C8114910431F5332009F4D2
:101810006ACFB70180E290E00E949F0E3A94F6CF23
:10182000F801808189830E5F1F4FE0CFF801C190DE
:10183000D1908F01692D70E056FC02C06FEF7FEFF1
:10184000C6010E94940E4C01D5CFB70180E290E012
:101850000E949F0E4A94D2CFF60157FC859157FE05
:1018600081916F01B70190E00E949F0E31103A9470
:10187000F1E08F1A9108C7CF843619F0893609F044
:1018800074C0F80157FE6AC0619171918191919184
:101890008F01252D2F76D22E97FF09C09095809528
:1018A000709561957F4F8F4F9F4F6894D7F82AE0CE
:1018B00030E0A5010E94CF0EC82ECA188C2C5D2CDA
:1018C000D6FE0CC0E89450F8C91440F4D4FE05C00C
:1018D000D2FC03C0FD2DFE7E5F2E892C54FE8FC0EE
:1018E000FE01EC0DF11D8081803309F081C0252DB2
:1018F000297E522E852D8870382E53FC8FC050FEC5
:1019000089C09C2C841418F44C0C942C981854FE08
:101910008BC0B70180E390E00E949F0E52FE09C089
:1019200088E790E051FE02C088E590E0B7010E9490
:101930009F0EC91408F484C0CA94D12C9FEFC91A11
:10194000D90ACA0CDB1CF60182916F01B70190E045
:101950000E949F0EAC14BD04B1F758CF61917191F4
:10196000072E000C880B990B93CFD52CE894D4F854
:101970002AE030E0853739F1952D997FD92E8F36C1
:1019800001F148F48835A9F0F701868197812B96FB
:10199000E2E10C94750F803749F08837A9F7D4FE3F
:1019A00002C06894D2F820E130E00DC06894D4F809
:1019B000F6CF54FE03C0E92FE660DE2E20E132E0D0
:1019C00002C028E030E0F801D7FE0DC061917191AE
:1019D000819191918F01A5010E94CF0EC82ECA1846
:1019E000E894D7F86BCF6191719190E080E0F2CFED
:1019F00052FC02C083947ECF839483947BCF852D49
:101A0000867809F477CFF6CFB70180E290E00E94A4
:101A10009F0E83948414C0F3312C79CF342C381862
:101A2000841408F474CFF8CF852D867809F481CF1B
:101A30008BE251FE80E257FC8DE2B70190E077CF58
:101A4000B70180E390E00E949F0E9A9472CF8FEFCF
:101A50009FEF9DCFB0E0A0E0E0E3FDE00C945F0FCE
:101A60007C016B016115710519F0FB019183808385
:101A7000E7010991802F90E00E94680E5C01892B9C
:101A8000B1F50D32B1F50881E701229611E07E0132
:101A9000F1E0EF1AF10843E050E060E770E0C701C1
:101AA0000E94710E892B61F57E0182E0E80EF11C27
:101AB00045E050E06BE670E0C7010E94710E892B93
:101AC00021F47E0197E0E90EF11CC114D10419F054
:101AD000F601F182E08260E070E080E89FE7112388
:101AE00009F4F1C060E070E080E89FEFECC07E0197
:101AF000BFCF0B3219F40881E701229610E0C7CF5F
:101B000043E050E068E670E0C7010E94710E892B47
:101B100061F4C114D10421F02296F601D183C0836F
:101B200060E070E080EC9FE7CEC0F12CE12C20E07B
:101B300030E0A901F0EDF00FFA3058F5E12FE26046
:101B4000812F887012FF08C0811103C0FFEFEF1AC8
:101B5000FF0A09911E2FEECF882319F081E0E81AC1
:101B6000F108A5E0B0E00E947B0A9B01AC01220FC6
:101B7000331F441F551F2F0F311D411D511D283983
:101B800099E93907490799E1590718F3E12FE66008
:101B9000E0CFFE3F29F413FD3AC0E12FE860D9CF32
:101BA0000F7D0534A1F588818D3241F41061BE01AD
:101BB0006E5F7F4F8981E2E0F0E007C0BE018B32AB
:101BC000B9F36F5F7F4FE1E0F0E08053EB01CE1B94
:101BD000DF0B8A30E0F4E0E8AE16ECE0BE065CF421
:101BE000F501EE0FFF1FEE0FFF1FAE0EBF1EAA0C7A
:101BF000BB1CA80EB11CEB01899180538A3090F177
:101C000014FF03C0B194A194B108EA0CFB1C11FFAE
:101C100007C0C114D10421F02197F601D183C083FC
:101C2000CA01B9010E94CD081370133009F490580D
:101C30004B015C0120E030E0A9010E942D0F8823B8
:101C400009F43FC0CFE9D0E0F7FE05C0F194E1947C
:101C5000F108C7E8D0E06E01F8E1CF1AD10800E240
:101C600010E00FC0BE01B7CFFE012591359145911F
:101C70005491E01AF10AC501B4010E94BD094B015B
:101C80005C01D501C401E016F10674F7249715959F
:101C90000795CC15DD05A9F78A2F880F8B2F881F94
:101CA0008F3F49F020E030E0A901C501B4010E9456
:101CB0002D0F811106C082E290E09093D4028093B0
:101CC000D302C501B401CDB7DEB7ECE00C947B0FB5
:101CD00091110C94560F803219F089508550C8F735
:101CE0000895FB01DC014150504088F08D91813412
:101CF0001CF08B350CF4805E659161341CF06B3503
:101D00000CF4605E861B611171F3990B0895881BBA
:101D1000FCCFFC010590615070400110D8F7809510
:101D200090958E0F9F1F0895FC01615070400190A7
:101D30000110D8F7809590958E0F9F1F08950F93EF
:101D40001F93CF93DF93182F092FEB018B8181FD18
:101D500009C01FEF0FEF812F902FDF91CF911F91BF
:101D60000F91089582FF14C02E813F818C819D8147
:101D7000281739073CF4E881F981CF01019699834E
:101D8000888310838E819F8101969F838E83E3CF0A
:101D9000E885F985812F0995892BA1F3DACFFA011E
:101DA000AA27283051F1203181F1E8946F936E7F9A
:101DB0006E5F7F4F8F4F9F4FAF4FB1E03ED0B4E08B
:101DC0003CD0670F781F891F9A1FA11D680F791FCC
:101DD0008A1F911DA11D6A0F711D811D911DA11DDD
:101DE00020D009F468943F912AE0269F11243019ED
:101DF000305D3193DEF6CF010895462F4770405D88
:101E00004193B3E00FD0C9F7F6CF462F4F70405D36
:101E10004A3318F0495D31FD4052419302D0A9F791
:101E2000EACFB4E0A6959795879577956795BA958B
:101E3000C9F700976105710508959B01AC010A2E51
:101E400006945795479537952795BA95C9F7620F28
:101E5000731F841F951FA01D08950E94320F08F460
:101E600081E00895990F0008550FAA0BE0E8FEEFF6
:101E700016161706E807F907C0F012161306E4074E
:101E8000F50798F0621B730B840B950B39F40A2647
:101E900061F0232B242B252B21F408950A2609F425
:101EA000A140A6958FEF811D811D08959927882750
:101EB00008952F923F924F925F926F927F928F92EE
:101EC0009F92AF92BF92CF92DF92EF92FF920F93C9
:101ED0001F93CF93DF93CDB7DEB7CA1BDB0B0FB6D3
:101EE000F894DEBF0FBECDBF09942A883988488890
:101EF0005F846E847D848C849B84AA84B984C88426
:101F0000DF80EE80FD800C811B81AA81B981CE0F1C
:101F1000D11D0FB6F894DEBF0FBECDBFED01089501
:041F2000F894FFCF63
:101F2400446174653A204461793A2025752C204D2A
:101F34006F6E74683A2025752C20596561723A20B9
:101F440025752C200D0A54696D653A2025753A25AE
:101F5400753A25750D0A4C6F636174696F6E3A208A
:101F6400256625632C20256625632C204669783A4E
:101F74002025642C2563200D0A2C204669782071C5
:101F840075616C6974793A2025752C204E756D2025
:101F9400536174656C6C697465733A2025750D0A18
:101FA400002447504731474100244750524D4300D5
:00000001FF
