:100000000C9434000C943E000C943E000C943E0082
:100010000C943E000C943E000C943E000C943E0068
:100020000C943E000C943E000C943E000C943E0058
:100030000C943E000C943E000C943E000C943E0048
:100040000C943E000C943E000C943E000C943E0038
:100050000C943E000C943E000C943E000C943E0028
:100060000C943E000C943E0011241FBECFEFD8E04C
:10007000DEBFCDBF0E9482000C948D000C94000066
:100080008FE290E09093C5008093C400E1ECF0E033
:1000900080818860808380818061808386E0809316
:1000A000C20008959091C00095FFFCCF8093C600D8
:1000B00008950F931F93CF93DF938C01D0E0C0E09E
:1000C000F80101900020E9F73197E01BF10BCE1702
:1000D000DF0728F0DF91CF911F910F91089583E3FF
:1000E00097E00197F1F7F801EC0FFD1F80810E9466
:1000F00052002196E5CF8091C00087FFFCCF809110
:10010000C60008950E94400083E397E00197F1F74D
:0E0110000E947B000E945200F7CFF894FFCFB0
:00000001FF
