:100000000C94F5000C9412010C9412010C94120142
:100010000C9412010C9412010C9412010C94120114
:100020000C9412010C9412010C9412010C94120104
:100030000C9412010C9412010C9412010C941201F4
:100040000C9412010C9412010C9412010C941201E4
:100050000C9412010C9412010C9412010C941201D4
:100060000C9412010C941201084AD73B3BCE016E4E
:1000700084BCBFFDC12F3D6C74319ABD56833DDAFF
:100080003D00C77F11BED9E4BB4C3E916BAAAABE0E
:10009000000000803F05A84CCDB2D44EB93836A937
:1000A000020C50B9918688083CA6AAAA2ABE000074
:1000B00000803F004E414E494E495459494E46CD6D
:1000C000CCCC3D0AD7233C17B7D13877CC2B32950F
:1000D00095E6241FB14F0A000020410000C84200ED
:1000E000401C4620BCBE4CCA1B0E5AAEC59D7400B7
:1000F000407A10F35A00A0724E18090010A5D4E8F7
:100100000000E87648170000E40B54020000CA9A89
:100110003B000000E1F505000080969800000040DB
:10012000420F000000A08601000000102700000020
:1001300000E803000000006400000000000A000066
:100140000000000100000000002C76D888DC674F1A
:100150000823DFC1DFAE59E1B1B796E5E3E453C64A
:100160003AE651997696E8E6C28426EB898C9B6242
:10017000ED407C6FFCEFBC9C9F40F2BAA56FA5F4EC
:1001800090055A2AF75C936B6CF9676DC11BFCE014
:10019000E40D47FEF520E6B500D0ED902E03009467
:1001A0003577050080841E080000204E0A000000FC
:1001B000C80C333333330F986E12831141EF8D2106
:1001C00014893BE65516CFFEE6DB18D1844B381B6D
:1001D000F77C1D901DA4BBE424203284725E228132
:1001E00000C9F124ECA1E53D270011241FBECFEF8B
:1001F000D8E0DEBFCDBF12E0A0E0B1E0EAEDF0E371
:1002000002C005900D92A232B107D9F723E0A2E215
:10021000B2E001C01D92A038B207E1F70E94BA0C0B
:100220000C946B180C9400002F923F924F925F92A7
:100230006F927F928F929F92AF92BF92CF92DF92F6
:10024000EF92FF920F931F93CF93DF93CDB7DEB75B
:10025000CD59D1400FB6F894DEBF0FBECDBFC25707
:10026000DE4F688379838A839B83CE58D140CE56F4
:10027000DE4F288339834A835B83C259D140809102
:10028000420290914302A0914402B0914502CA57A4
:10029000DE4F88839983AA83BB83C658D1402BED58
:1002A0003FE049E450E4BC01CD010E94F50F20E09D
:1002B00030E044E353E40E94C60DCE57DE4F68831E
:1002C00079838A839B83C258D14080917D0290912B
:1002D0007E02A0917F02B0918002C258DE4F8883D7
:1002E0009983AA83BB83CE57D1402BED3FE049E4ED
:1002F00050E4C257DE4F688179818A819B81CE5854
:10030000D1400E94F50F20E030E044E353E40E9426
:10031000C60D4B015C01CA57DE4F288139814A81E5
:100320005B81C658D140C257DE4F688179818A818E
:100330009B81CE58D1400E94DD0C2BED3FE049E47B
:1003400050E40E94F50F20E030E044E353E40E94C3
:10035000C60D20E030E040E05FE30E94F50F0E9410
:1003600062106B017C01CE57DE4F688179818A81F2
:100370009B81C258D1400E94C10DCA56DE4F68838E
:1003800079838A839B83C659D140C501B4010E94F9
:10039000C10DC657DE4F688379838A839B83CA5811
:1003A000D140C258DE4F288139814A815B81CE57C6
:1003B000D140CE56DE4F688179818A819B81C259B6
:1003C000D1400E94DD0C2BED3FE049E450E40E9457
:1003D000F50F20E030E044E353E40E94C60D20E036
:1003E00030E040E05FE30E94F50F0E9462102B01B5
:1003F0003C01C657DE4F288139814A815B81CA584A
:10040000D140CA56DE4F688179818A819B81C65965
:10041000D1400E94F50FA30192010E94F50FA301A4
:1004200092010E94F50F2B013C01A7019601C70123
:10043000B6010E94F50F9B01AC01C301B2010E94FD
:10044000DE0C6B017C01AC019B0160E070E080E898
:100450009FE30E94DD0C0E9470102B013C01C7013C
:10046000B6010E947010A30192010E945D0D9B01D4
:10047000AC010E94DE0C20E73DE642EC5AE40E940B
:10048000F50F28E439EF41E550E40E94F50FC65618
:10049000DE4F688379838A839B83CA59D1402BEDD1
:1004A0003FE049E450E4CE56DE4F688179818A818D
:1004B0009B81C259D1400E94F50F20E030E044E317
:1004C00053E40E94C60D6B017C012BED3FE049E433
:1004D00050E4C258DE4F688179818A819B81CE5772
:1004E000D1400E94F50F20E030E044E353E40E9445
:1004F000C60D9B01AC01C701B6010E94DD0C6B016A
:100500007C010E9462102B013C01C501B4010E94D4
:1005100062104B015C01CE57DE4F688179818A8180
:100520009B81C258D1400E946210C258DE4F68833E
:1005300079838A839B83CE57D140C701B6010E943D
:10054000C10DCE57DE4F688379838A839B83C2585F
:10055000D140A3019201C657DE4F688179818A811B
:100560009B81CA58D1400E94F50F6B017C01A50107
:100570009401CA56DE4F688179818A819B81C65970
:10058000D1400E94F50F4B015C01C258DE4F28811B
:1005900039814A815B81CE57D140C657DE4F688191
:1005A00079818A819B81CA58D1400E94F50FCE572C
:1005B000DE4F288139814A815B81C258D1400E9437
:1005C000F50F9B01AC01C501B4010E94DD0CA70130
:1005D00096010E945D0D20E030E044E353E40E9468
:1005E000F50F2BED3FE049E450E40E94C60D2B01CE
:1005F0003C0120E030E044EB51EC0E94E80FDE01CA
:10060000A758BE4F7D0118160CF0C4C020E030E0A2
:1006100044EB51E4C301B2010E94BC0D18160CF466
:10062000B9C01092400210923F0260E071E0C70131
:100630000E94AC116E01BBEECB1ABEEFDB0A860145
:1006400027E04AE0CA57DE4F688179818A819B8121
:10065000C658D1400E943A115E0127EDA21A2EEF32
:10066000B20A60917D0270917E0280917F0290912A
:100670008002850127E04AE00E943A111E013FEA0C
:10068000231A3EEF330A810127E04AE0C257DE4FCA
:10069000688179818A819B81CE58D1400E943A112C
:1006A000CE01835C9E4FC458DE4F99838883CC571C
:1006B000D1408C0127E04AE0CE56DE4F6881798137
:1006C0008A819B81C259D1400E943A114E0191E02A
:1006D000890E991E840127E04AE0C301B2010E94FD
:1006E0003A113E01ABE96A1AAEEF7A0A830127E0BC
:1006F0004CE0C656DE4F688179818A819B81CA5958
:10070000D1400E943A117F926F929F928F92FF92F6
:10071000EF92BF92AF92DF92CF92C358DE4FB88173
:10072000CD57D140BF93C458DE4F2881CC57D1401C
:100730002F933F922F9288E191E09F938F9381E0D6
:100740008F931F92045611401F930F930E94F9112B
:10075000C8010E948B050FB6F894DEBF0FBECDBF57
:10076000C356DE4F0FB6F894DEBF0FBECDBFDF918C
:10077000CF911F910F91FF90EF90DF90CF90BF909E
:10078000AF909F908F907F906F905F904F903F9031
:100790002F90089520E030E044EB51E4C301B20112
:1007A0000E94E80F18169CF420E030E047E852E47D
:1007B000C301B2010E94BC0D18164CF081E090E01C
:1007C0009093400280933F0263E071E030CF20E0DD
:1007D00030E047E852E4C301B2010E94E80F181666
:1007E0009CF420E030E041EE52E4C301B2010E94EB
:1007F000BC0D18164CF082E090E09093400280937C
:100800003F0266E071E013CF20E030E041EE52E4B9
:10081000C301B2010E94E80F18169CF420E030E8F2
:100820004DE153E4C301B2010E94BC0D18164CF017
:1008300083E090E09093400280933F0269E071E092
:10084000F6CE20E030E84DE153E4C301B2010E944E
:10085000E80F181654F020E030E84DE153ECC301E6
:10086000B2010E94BC0D18164CF084E090E0909309
:10087000400280933F026CE071E0D9CE20E030E886
:100880004DE153ECC301B2010E94E80F18169CF42D
:1008900020E030E041EE52ECC301B2010E94BC0DF9
:1008A00018164CF085E090E09093400280933F0250
:1008B0006FE071E0BCCE20E030E041EE52ECC301CD
:1008C000B2010E94E80F18169CF420E030E047E8DF
:1008D00052ECC301B2010E94BC0D18164CF086E028
:1008E00090E09093400280933F0262E171E09FCEDE
:1008F00087E090E09093400280933F0265E171E0D1
:1009000096CECF92DF92EF92FF920F931F93CF93E9
:10091000DF93CDB7DEB7C852D1400FB6F894DEBF33
:100920000FBECDBF4091290250912A0260912B0247
:1009300070912C0240934202509343026093440210
:100940007093450280913B0290913C02A0913D0240
:10095000B0913E0280937D0290937E02A0937F022D
:10096000B093800220918502233549F4705840935A
:1009700042025093430260934402709345022091D7
:100980005102273549F4B05880937D0290937E023E
:10099000A0937F02B09380027E0181E0E80EF81EF2
:1009A000609142027091430280914402909145020D
:1009B000870127E04AE00E943A116E019BEEC91AB6
:1009C0009EEFD90A60917D0270917E0280917F0234
:1009D00090918002860127E04AE00E943A11E0915E
:1009E000660270915A0280912D02609164025091CA
:1009F0003A0240914C02309176022091340290915B
:100A0000700204511140E11135C01F927F931F9273
:100A10008F931F921F921F926F931F925F931F924B
:100A20004F931F923F931F922F931F929F9381E6A4
:100A300091E09F938F9381E08F931F921F930F9369
:100A40000E94F9110FB6F894DEBF0FBECDBFC801EA
:100A50000E948B05C85DDE4F0FB6F894DEBF0FBE57
:100A6000CDBFDF91CF911F910F91FF90EF90DF905D
:100A7000CF9008951F927F931F928F931F9281E0D2
:100A80008F93DF92CF9270915102E72F072E000CC7
:100A9000FF0BFF937F93FF92EF9270918502E72FF8
:100AA000072E000CFF0BFF937F931F926F931F92F3
:100AB0005F931F924F931F923F931F922F931F920A
:100AC0009F932EEA31E03F932F938F931F921F93B2
:100AD0000F930E94F911B6CFE0916602E1110C94D8
:100AE000140108958FE290E09093C5008093C400B4
:100AF000E1ECF0E080818860808380818061808388
:100B000086E08093C20008959091C00095FFFCCFCD
:100B10008093C60008950F931F93CF93DF938C01AA
:100B2000D0E0C0E0F80101900020E9F73197E01B28
:100B3000F10BCE17DF0728F0DF91CF911F910F91B6
:100B4000089583E397E00197F1F7F801EC0FFD1F9B
:100B500080810E9484052196E5CF8091C00087FFA7
:100B6000FCCF8091C60008950E94AD058A3009F53A
:100B7000E091220220917C0330917D03E20FF32F5C
:100B8000F11D108220917C0330917D0392E02C387E
:100B9000390729F544E053E050937D0340937C03EB
:100BA00030938902209388021092220291E0909360
:100BB0008B0220917C0330917D03E091220291E031
:100BC0009E0F90932202E20FF32FF11D80839091EC
:100BD0002202983718F097E79093220208952CE8A4
:100BE00032E030937D0320937C0324E033E0D8CFC0
:100BF00010928B0210922702109222028CE892E04F
:100C000090937D0380937C0384E093E0909389022A
:100C10008093880210925A0210922D02109276024E
:100C200010923402109270021092640210923A02F2
:100C300010924C021092860210925102109285027C
:100C40001092660210924B0210924A021092810298
:100C5000109282021092830210928402109230024B
:100C600010923102109232021092330210924D0211
:100C700010924E0210924F0210925002109279027E
:100C800010927A0210927B0210927C0210925B0208
:100C900010925C0210925D0210925E02109223028A
:100CA00010922402109225021092260210925202F3
:100CB0001092530210925402109255021092720236
:100CC000109273021092740210927502089580912E
:100CD0008B02089580932702089510928B028091D1
:100CE0008802909189020895803354F08A3314F475
:100CF000805308959FEB980F963010F48753089512
:100D000080E008954F925F926F927F928F929F92B0
:100D1000AF92BF92CF92DF92EF92FF920F931F9309
:100D2000CF93DF93CDB7DEB72E970FB6F894DEBF23
:100D30000FBECDBF7C01FC0101900020E9F7319787
:100D4000E81BF90B6F0184E0C81AD108D701AC0D7C
:100D5000BD1D8C918A3209F03FC087010E0F1F1F05
:100D6000F801339780810E94740690E1899F5001B9
:100D70001124F801329780810E9474068A0D9B2D00
:100D8000911D42E0242F30E02C153D05D0F0892B39
:100D900019F180E02E960FB6F894DEBF0FBECDBFDE
:100DA000DF91CF911F910F91FF90EF90DF90CF9047
:100DB000BF90AF909F908F907F906F905F904F907B
:100DC00008952E0D3F1DF9012081022E000C330BDA
:100DD000822793274F5FD6CF63E172E0C7010E945D
:100DE000C211892B09F4DEC26CE270E0C7010E94D7
:100DF000A1118C010F5F1F4FC8010E9458116B0198
:100E00007C010E943F0E2B013C0120E137E240E0D3
:100E100050E00E94DF1020934C0244E6842E912C77
:100E2000A12CB12CA50194010E94DF1020933A025D
:100E3000C301B201A50194010E94DF106093640216
:100E400020E030E040E85FE3C701B6010E94B60E43
:100E500020E030E04AE754E40E94F50F0E943F0E84
:100E600070934B0260934A026CE270E0C8010E94EA
:100E7000A1117C018C010F5F1F4FFC0181818C321D
:100E800009F4DEC042E050E0B801CE0101960E94B4
:100E9000B3111B82CE0101960E947A114B015C01B5
:100EA000AC019B0160E876E988E990E00E94CF10F0
:100EB0002B013C01B7016D5F7F4F42E050E0CE0156
:100EC00001960E94B3110B5F1F4F44E050E0B80140
:100ED000CE0103960E94B3111F82CE0101960E949B
:100EE0007A119B01AC01A2E3B0E00E94201123E043
:100EF00030E040E050E00E94011169017A01D30125
:100F0000C2018C0D9D1DAE1DBF1D809346029093A6
:100F10004702A0934802B0934902C501B4010E9460
:100F2000700E6B877C878D879E87C701B6010E94F4
:100F3000700E6B017C012CE933E549EC56E30E940D
:100F4000F50F4B015C0120E030E040E752E40E94E5
:100F5000C60D2B853C854D855E850E94DE0C609319
:100F6000290270932A0280932B0290932C02C301D2
:100F7000B20120EA36E841E050E00E940111CA01C6
:100F8000B9010E94700EA50194010E94DE0C4B0174
:100F90005C018092720290927302A0927402B092ED
:100FA000750225E93FEB46ED53E3C701B6010E9408
:100FB000F50F2B853C854D855E850E94DE0C609388
:100FC000560270935702809358029093590220E082
:100FD00030E048EC52E4C501B4010E94C60D0E9405
:100FE000380E6B0184E68C9DB0018D9D700D11242F
:100FF000072E000C880B990B0E94700E9B01AC0110
:10100000C501B4010E94DD0C20E030E040E752E46D
:101010000E94C60D4B015C01B601DD0C880B990BDB
:101020000E94700E9B01AC01C501B4010E94DE0C50
:1010300060936C0270936D0280936E0290936F02C6
:101040006CE270E0C8010E94A111FC019C012F5FBD
:101050003F4F91819C32C9F0933589F440916C02E5
:1010600050916D0260916E0270916F0270584093C2
:101070006C0250936D0260936E0270936F029181C7
:101080009E3409F071C1909385026CE270E0C90151
:101090000E94A1117C018C010F5F1F4FFC01818117
:1010A0008C3209F4DEC043E050E0B801CE01019675
:1010B0000E94B3111C82CE0101960E947A114B014D
:1010C0005C01AC019B0160E876E988E990E00E9450
:1010D000CF102B013C01B7016C5F7F4F42E050E025
:1010E000CE0101960E94B3110A5F1F4F44E050E009
:1010F000B801CE0103960E94B3111F82CE01019662
:101100000E947A119B01AC01A2E3B0E00E94201181
:1011100023E030E040E050E00E94011169017A01D3
:10112000D301C2018C0D9D1DAE1DBF1D80935F02BA
:1011300090936002A0936102B0936202C501B40172
:101140000E94700E6B877C878D879E87C701B601D2
:101150000E94700E6B017C012CE933E549EC56E3EB
:101160000E94F50F4B015C0120E030E040E752E4C3
:101170000E94C60D2B853C854D855E850E94DE0C48
:1011800060933B0270933C0280933D0290933E0239
:10119000C301B20120EA36E841E050E00E940111AB
:1011A000CA01B9010E94700EA50194010E94DE0CD3
:1011B0004B015C018092520290925302A092540221
:1011C000B092550225E93FEB46ED53E3C701B60166
:1011D0000E94F50F2B853C854D855E850E94DE0CB7
:1011E00060933502709336028093370290933802F1
:1011F00020E030E048EC52E4C501B4010E94C60D85
:101200000E94380E6B0184E68C9DB0018D9D700D9F
:101210001124072E000C880B990B0E94700E9B0165
:10122000AC01C501B4010E94DD0C20E030E040E7D4
:1012300052E40E94C60D4B015C01B601DD0C880B27
:10124000990B0E94700E9B01AC01C501B4010E9474
:10125000DE0C60936702709368028093690290933A
:101260006A026CE270E0C8010E94A111FC01818158
:101270008C32C9F0873589F48091670290916802B9
:10128000A0916902B0916A02B0588093670290936E
:101290006802A0936902B0936A029181973509F0C0
:1012A0006CC0909351026CE270E0CF0101960E94F5
:1012B000A1118C010F5F1F4FFC0181818C3229F03D
:1012C000C8010E945C1180932D026CE270E0C8019D
:1012D0000E94A1118C010F5F1F4FFC0181818C3294
:1012E00029F0C8010E945C1180935A026CE270E000
:1012F000C8010E94A1118C010F5F1F4FFC01818169
:101300008C3259F0C8010E94581160938102709389
:10131000820280938302909384026CE270E0C801A1
:101320000E94A1118C010F5F1F4FFC0181818C3243
:1013300059F0C8010E94581160935B0270935C02DF
:1013400080935D0290935E026CE270E0C8010E949F
:10135000A1116CE270E001960E94A111FC012181B3
:101360002C32A1F481E016CD933509F48CCE9C3259
:1013700009F00FCD1092850288CE953409F491CFF3
:101380009C3209F006CD109251028DCF01960E9439
:101390005811609323027093240280932502909346
:1013A0002602E0CF6AE172E0C7010E94C211892BD8
:1013B00009F4EFCC6CE270E0C7010E94A1118C012E
:1013C0000F5F1F4FC8010E9458116B017C010E94E2
:1013D0003F0E2B013C0120E137E240E050E00E944B
:1013E000DF1020934C0234E6832E912CA12CB12CDB
:1013F000A50194010E94DF1020933A02C301B201BB
:10140000A50194010E94DF106093640220E030E0A7
:1014100040E85FE3C701B6010E94B60E20E030E06D
:101420004AE754E40E94F50F0E943F0E70934B026E
:1014300060934A026CE270E0C8010E94A111FC01B5
:101440002181213409F07EC221E0209366026CE202
:1014500070E001960E94A1117C018C010F5F1F4F6B
:10146000FC0181818C3209F4DEC042E050E0B80119
:10147000CE0101960E94B3111B82CE0101960E94FB
:101480007A114B015C01AC019B0160E876E988E9C7
:1014900090E00E94CF102B013C01B7016D5F7F4FA0
:1014A00042E050E0CE0101960E94B3110B5F1F4F46
:1014B00044E050E0B801CE0103960E94B3111F82B0
:1014C000CE0101960E947A119B01AC01A2E3B0E02B
:1014D0000E94201123E030E040E050E00E94011122
:1014E00069017A01D301C2018C0D9D1DAE1DBF1D86
:1014F0008093460290934702A0934802B09349021A
:10150000C501B4010E94700E6B877C878D879E8712
:10151000C701B6010E94700E6B017C012CE933E516
:1015200049EC56E30E94F50F4B015C0120E030E0EE
:1015300040E752E40E94C60D2B853C854D855E85B3
:101540000E94DE0C6093290270932A0280932B0282
:1015500090932C02C301B20120EA36E841E050E04A
:101560000E940111CA01B9010E94700EA5019401E7
:101570000E94DE0C4B015C01809272029092730219
:10158000A0927402B092750225E93FEB46ED53E359
:10159000C701B6010E94F50F2B853C854D855E8500
:1015A0000E94DE0C6093560270935702809358029B
:1015B0009093590220E030E048EC52E4C501B401B8
:1015C0000E94C60D0E94380E6B0184E68C9DB0010E
:1015D0008D9D700D1124072E000C880B990B0E9415
:1015E000700E9B01AC01C501B4010E94DD0C20E02E
:1015F00030E040E752E40E94C60D4B015C01B601A9
:10160000DD0C880B990B0E94700E9B01AC01C5018B
:10161000B4010E94DE0C60936C0270936D028093A3
:101620006E0290936F026CE270E0C8010E94A111FB
:10163000FC019C012F5F3F4F91819C32C9F0933593
:1016400089F440916C0250916D0260916E0270912C
:101650006F02705840936C0250936D0260936E025B
:1016600070936F0291819E3409F072C1909385024C
:101670006CE270E0C9010E94A1117C018C010F5F36
:101680001F4FFC0181818C3209F4DEC043E050E041
:10169000B801CE0101960E94B3111C82CE010196C1
:1016A0000E947A114B015C01AC019B0160E876E974
:1016B00088E990E00E94CF102B013C01B7016C5FDC
:1016C0007F4F42E050E0CE0101960E94B3110A5FC5
:1016D0001F4F44E050E0B801CE0103960E94B311C1
:1016E0001F82CE0101960E947A119B01AC01A2E3F8
:1016F000B0E00E94201123E030E040E050E00E9482
:10170000011169017A01D301C2018C0D9D1DAE1D2D
:10171000BF1D80935F0290936002A0936102B0931B
:101720006202C501B4010E94700E6B877C878D87B1
:101730009E87C701B6010E94700E6B017C012CE9E7
:1017400033E549EC56E30E94F50F4B015C0120E0C4
:1017500030E040E752E40E94C60D2B853C854D8564
:101760005E850E94DE0C60933B0270933C02809386
:101770003D0290933E02C301B20120EA36E841E007
:1017800050E00E940111CA01B9010E94700EA5012A
:1017900094010E94DE0C4B015C01809252029092F7
:1017A0005302A0925402B092550225E93FEB46ED58
:1017B00053E3C701B6010E94F50F2B853C854D858B
:1017C0005E850E94DE0C6093350270933602809332
:1017D00037029093380220E030E048EC52E4C50133
:1017E000B4010E94C60D0E94380E6B0184E68C9DE8
:1017F000B0018D9D700D1124072E000C880B990BE4
:101800000E94700E9B01AC01C501B4010E94DD0C69
:1018100020E030E040E752E40E94C60D4B015C013D
:10182000B601DD0C880B990B0E94700E9B01AC0178
:10183000C501B4010E94DE0C6093670270936802D8
:101840008093690290936A026CE270E0C8010E9482
:10185000A111FC0181818C32C9F0873589F4809116
:10186000670290916802A0916902B0916A02B05833
:101870008093670290936802A0936902B0936A0212
:101880009181973509F06DC0909351026CE270E040
:10189000CF0101960E94A1118C010F5F1F4FFC0127
:1018A00081818C3259F0C8010E94581160937902ED
:1018B00070937A0280937B0290937C026CE270E0DA
:1018C000C8010E94A1118C010F5F1F4FFC01818193
:1018D0008C3259F0C8010E94581160934D027093E8
:1018E0004E0280934F02909350026CE270E0C80168
:1018F0000E94A111FC0121812C3209F433CD019603
:101900000E9458110E943F0E4B015C0120E137E21A
:1019100040E050E00E94DF102093760224E6C22EC1
:10192000D12CE12CF12CA70196010E94DF1020930D
:101930003402C501B401A70196010E94DF10609333
:10194000700210CD263509F024CA109266027FCDB0
:10195000933509F48BCE9C3209F01BCA1092850294
:1019600087CE953409F490CF9C3209F012CA1092B8
:1019700051028CCF0E9472050E94F805CDE2D1E0A1
:1019800083E397E00197F1F70E94B4050E94670690
:10199000882321F00E946D060E948206219781F71C
:1019A0000E94810427E034E94CEE52EC60E075E1DE
:1019B00088E092E40E946C05E1CF5058BB27AA272B
:1019C0000E94F50C0C949A0F0E94610F38F00E944F
:1019D000680F20F039F49F3F19F426F40C94370F68
:1019E0000EF4E095E7FB0C94230FE92F0E94BF0F44
:1019F00058F3BA17620773078407950720F079F444
:101A0000A6F50C94E10F0EF4E0950B2EBA2FA02D45
:101A10000B01B90190010C01CA01A0011124FF279B
:101A2000591B99F0593F50F4503E68F11A16F04096
:101A3000A22F232F342F4427585FF3CF4695379595
:101A40002795A795F0405395C9F77EF41F16BA0B5A
:101A5000620B730B840BBAF09150A1F0FF0FBB1F08
:101A6000661F771F881FC2F70EC0BA0F621F731F51
:101A7000841F48F4879577956795B795F7959E3FAE
:101A800008F0B0CF9395880F08F09927EE0F97953F
:101A9000879508950E94610F60F080E891E009F455
:101AA0009EEF0E94680F28F040E851E071F45EEF6D
:101AB0000CC00C94370F0C94E10FE92FE0780E94D2
:101AC000BF0F40F3092E052AB1F326173707480741
:101AD000590738F00E2E07F8E02569F0E025E0649C
:101AE0000AC0EF6307F8009407FADB01B9019D0112
:101AF000DC01CA01AD01EF930E94DD0D0E949A0F37
:101B00000E948D0D5F91552339F02BED3FE049E4A4
:101B100050FD49EC0C94DE0C0895DF93DD27B92FBE
:101B2000BF7740E85FE31616170648075B0718F40F
:101B3000D92F0E94ED0F9F938F937F936F930E94F5
:101B4000B010E8E6F0E00E943A0F0E949A0F2F9141
:101B50003F914F915F910E940810DD2351F0905802
:101B6000A2EA2AED3FE049EC5FE3D0785D270E94CE
:101B7000F50CDF910C949A0F0E94FF0E08F481E09F
:101B800008950E94710FE3950C94AB0F0E94DA0D3B
:101B90000C949A0F0E94680F58F00E94610F40F059
:101BA00029F45F3F29F00C94230F51110C94E20F9C
:101BB0000C94370F0E94BF0F68F39923B1F355239C
:101BC00091F3951B550BBB27AA2762177307840750
:101BD00038F09F5F5F4F220F331F441FAA1FA9F3E6
:101BE00035D00E2E3AF0E0E832D091505040E695D4
:101BF000001CCAF72BD0FE2F29D0660F771F881F35
:101C0000BB1F261737074807AB07B0E809F0BB0B27
:101C1000802DBF01FF2793585F4F3AF09E3F51053B
:101C200078F00C94230F0C94E20F5F3FE4F3983E9E
:101C3000D4F3869577956795B795F7959F5FC9F724
:101C4000880F911D9695879597F90895E1E0660FA5
:101C5000771F881FBB1F621773078407BA0720F01E
:101C6000621B730B840BBA0BEE1F88F7E095089587
:101C70000E943F0E6894B1110C94E20F08950E94E7
:101C8000C70F88F09F5798F0B92F9927B751B0F038
:101C9000E1F0660F771F881F991F1AF0BA95C9F7F0
:101CA00014C0B13091F00E94E10FB1E008950C949E
:101CB000E10F672F782F8827B85F39F0B93FCCF351
:101CC000869577956795B395D9F73EF4909580956D
:101CD000709561957F4F8F4F9F4F0895E89409C08D
:101CE00097FB3EF490958095709561957F4F8F4F4F
:101CF0009F4F9923A9F0F92F96E9BB279395F69565
:101D0000879577956795B795F111F8CFFAF4BB0FE2
:101D100011F460FF1BC06F5F7F4F8F4F9F4F16C046
:101D2000882311F096E911C0772321F09EE8872FD0
:101D3000762F05C0662371F096E8862F70E060E08C
:101D40002AF09A95660F771F881FDAF7880F969505
:101D5000879597F908950E94610F20F019F00E946D
:101D6000680F50F40C94370F0C94E20FE92F0E9487
:101D7000BF0F88F35523B1F3E7FB6217730784079E
:101D80009507A8F189F3E92FFF2788232AF03197D7
:101D9000660F771F881FDAF7952F5527442332F0F7
:101DA00091505040220F331F441FD2F7BB27E91B2D
:101DB000F50B621B730B840BB109B1F222F4620FB5
:101DC000731F841FB11D31972AF0660F771F881F7C
:101DD000BB1FEFCF9150504062F041F0882332F0AA
:101DE000660F771F881F91505040C1F793950C9450
:101DF000290F8695779567959F5FD9F7F7CF990F4C
:101E00000008550FAA0BE0E8FEEF16161706E807C4
:101E1000F907C0F012161306E407F50798F0621BE5
:101E2000730B840B950B39F40A2661F0232B242BBA
:101E3000252B21F408950A2609F4A140A6958FEFD9
:101E4000811D811D089597F99F6780E870E060E02B
:101E500008959F3F31F0915020F4879577956795CD
:101E6000B795880F911D9695879597F908959FEFDF
:101E700080EC0895DF93CF931F930F93FF92EF921F
:101E8000DF927B018C01689406C0DA2EEF010E947C
:101E90000810FE01E894A591259135914591559141
:101EA000A6F3EF010E94F50CFE019701A801DA9458
:101EB00069F7DF90EF90FF900F911F91CF91DF9125
:101EC000089500240A9416161706180609060895A0
:101ED00000240A94121613061406050608950C949D
:101EE000370F0E94C70FD8F3E894E0E0BB279F5755
:101EF000F0F02AED3FE049EC06C0EE0FBB0F661F85
:101F0000771F881F28F0B23A62077307840728F00A
:101F1000B25A620B730B840BE3959A9572F7803873
:101F200030F49A95BB0F661F771F881FD2F7904831
:101F30000C942B0F092E0394000C11F4882352F0FB
:101F4000BB0F40F4BF2B11F460FF04C06F5F7F4FE5
:101F50008F4F9F4F0895EF93E0FF07C0A2EA2AED4D
:101F60003FE049EC5FEB0E94F50C0E949A0F0F9046
:101F7000039401FC9058E5E9F0E00C94BB1057FD88
:101F80009058440F551F59F05F3F71F04795880FE7
:101F900097FB991F61F09F3F79F08795089512167E
:101FA00013061406551FF2CF4695F1DF08C016162A
:101FB00017061806991FF1CF8695710561050894DB
:101FC0000895E894BB2766277727CB0197F90895F2
:101FD0000E94FF0E08F48FEF08959B01AC0160E0B2
:101FE00070E080E89FE30C94C60D0E9408100C94EA
:101FF0009A0F0E94610F38F00E94680F20F095231D
:1020000011F00C94230F0C94370F11240C94E20F51
:102010000E94BF0F70F3959FC1F3950F50E0551FBD
:10202000629FF001729FBB27F00DB11D639FAA272D
:10203000F00DB11DAA1F649F6627B00DA11D661F7C
:10204000829F2227B00DA11D621F739FB00DA11D9D
:10205000621F839FA00D611D221F749F3327A00D57
:10206000611D231F849F600D211D822F762F6A2FF3
:1020700011249F5750409AF0F1F088234AF0EE0F58
:10208000FF1FBB1F661F771F881F91505040A9F785
:102090009E3F510580F00C94230F0C94E20F5F3F9C
:1020A000E4F3983ED4F3869577956795B795F795C1
:1020B000E7959F5FC1F7FE2B880F911D9695879539
:1020C00097F908959F930E94710F0F9007FCEE5FA0
:1020D0000C94AB0F19F416F40C94370F0C94290FD1
:1020E0000E94C70FB8F39923C9F3B6F39F57550B56
:1020F00087FF0E94B4100024A0E640EA90018058B7
:102100005695979528F4805C660F771F881F20F0FE
:1021100026173707480730F4621B730B840B2029FE
:1021200031294A2BA69517940794202531254A2753
:1021300058F7660F771F881F20F0261737074807C4
:1021400030F4620B730B840B200D311D411DA095E3
:1021500081F7B901842F9158880F96958795089536
:102160009B01AC010C94F50F91505040660F771F06
:10217000881FD2F708959F938F937F936F93FF9358
:10218000EF939B01AC010E94F50FEF91FF910E942C
:102190003A0F2F913F914F915F910C94F50FDB0116
:1021A0008F939F930E942011BF91AF91A29F800DAA
:1021B000911DA39F900DB29F900D11240895A1E24F
:1021C0001A2EAA1BBB1BFD010DC0AA1FBB1FEE1FB1
:1021D000FF1FA217B307E407F50720F0A21BB30BFC
:1021E000E40BF50B661F771F881F991F1A9469F778
:1021F00060957095809590959B01AC01BD01CF01D4
:102200000895052E97FB1EF400940E94181157FDA7
:1022100007D00E94DF1007FC03D04EF40C94181175
:1022200050954095309521953F4F4F4F5F4F089502
:1022300090958095709561957F4F8F4F9F4F089532
:102240000E942B11A59F900DB49F900DA49F800D0F
:10225000911D11240895A29FB001B39FC001A39FB7
:10226000700D811D1124911DB29F700D811D1124CF
:10227000911D0895EF920F931F93CF93DF93E80181
:1022800034E047FD34E1042E000C550B57FF03C02A
:10229000519541955109E32E022F242FAE010E9442
:1022A000F413CE01DF91CF911F910F91EF9008951C
:1022B000662777270C945615FC0188279927E89400
:1022C00021912032E9F3293010F02E30C8F32B325F
:1022D00041F02D3239F4689404C00E94F111820F4C
:1022E000911D219120532A30C0F31EF490958195C1
:1022F0009F4F08951F93FC0199278827BC01E894FC
:1023000011911032E9F3193010F01E30C8F31B326E
:1023100051F01D3249F4689406C00E94DC11610F2F
:10232000711D811D911D119110531A30B0F33EF4AF
:1023300090958095709561957F4F8F4F9F4F1F911E
:102340000895FC018191861721F08823D9F79927F8
:1023500008953197CF010895FB01DC0101900D92A2
:102360000020E1F70895FB01DC014150504048F0A6
:1023700001900D920020C9F701C01D9241505040BC
:10238000E0F70895FB0151915523A9F0BF01DC014D
:102390004D9145174111E1F759F4CD01019000200D
:1023A00049F04D9140154111C9F3FB014111EFCFA7
:1023B00081E090E001970895592F482F372F262F5D
:1023C000660F771F881F991F660F771F881F991F39
:1023D000620F731F841F951F660F771F881F991F39
:1023E00008957AE0979F902D879F802D910D11245D
:1023F0000895AEE0B0E0EFEFF1E10C9442180D89E2
:102400001E898F89988D26E02C831A83098397FF74
:1024100002C080E090E801979E838D83AE01455E07
:102420005F4F698D7A8DCE0101960E9429124D81F0
:102430005E8157FD0AC02F813885421753070CF47F
:102440009A01020F131FF80110822E96E4E00C94FB
:102450005E18ABE0B0E0EFE2F2E10C9434187C01DE
:102460003B018A01FC0117821682838181FFB9C179
:102470009AE0292ECE0101965C01F7019381F301C8
:1024800093FD859193FF81913F01882309F446C113
:10249000853239F493FD859193FF81913F01853217
:1024A00029F4B70190E00E94A317E7CF912C412CAB
:1024B000512CFFE1F51538F08B3209F188F48032A8
:1024C00001F1833221F157FC3AC020ED280F2A3068
:1024D00040F556FE1FC0929C200D1124922E06C07E
:1024E0008D3291F0803379F7689450F8F30193FDC1
:1024F000859193FF81913F018111DBCF20C06894CA
:1025000051F8689452F8F2CF689453F8EFCF68947A
:1025100054F8ECCF429C200D1124422E689455F8BB
:10252000E5CF8E3229F456FCF9C0689456F8DECF18
:102530008C3619F4689457F8D9CF8836B9F2982FA9
:102540009F7D95549330C0F08336A1F18337C1F15C
:10255000833509F05BC0F801C190D1908F01692DDE
:1025600070E056FC02C06FEF7FEFC6010E948D172E
:102570004C01689457F80AC00C5F1F4F2FE3298362
:1025800088248394912C6501E89457F853FC04C087
:102590004814190409F018F5342C8114910431F50C
:1025A000332009F46ACFB70180E290E00E94A317BC
:1025B0003A94F6CFF801808189830E5F1F4FE0CFF8
:1025C000F801C190D1908F01692D70E056FC02C0D6
:1025D0006FEF7FEFC6010E9498174C01D5CFB7016E
:1025E00080E290E00E94A3174A94D2CFF60157FCF4
:1025F000859157FE81916F01B70190E00E94A3176A
:1026000031103A94F1E08F1A9108C7CF843619F04F
:10261000893609F074C0F80157FE6AC06191719162
:10262000819191918F01252D2F76D22E97FF09C090
:1026300090958095709561957F4F8F4F9F4F6894CF
:10264000D7F82AE030E0A5010E94D317C82ECA1897
:102650008C2C5D2CD6FE0CC0E89450F8C91440F4C4
:10266000D4FE05C0D2FC03C0FD2DFE7E5F2E892C5A
:1026700054FE8FC0FE01EC0DF11D8081803309F006
:1026800081C0252D297E522E852D8870382E53FC31
:102690008FC050FE89C09C2C841418F44C0C942CD0
:1026A000981854FE8BC0B70180E390E00E94A317F6
:1026B00052FE09C088E790E051FE02C088E590E034
:1026C000B7010E94A317C91408F484C0CA94D12C7E
:1026D0009FEFC91AD90ACA0CDB1CF60182916F015F
:1026E000B70190E00E94A317AC14BD04B1F758CF16
:1026F00061917191072E000C880B990B93CFD52C0B
:10270000E894D4F82AE030E0853739F1952D997FA7
:10271000D92E8F3601F148F48835A9F0F70186816A
:1027200097812B96E2E10C945018803749F0883756
:10273000A9F7D4FE02C06894D2F820E130E00DC0C1
:102740006894D4F8F6CF54FE03C0E92FE660DE2E7D
:1027500020E132E002C028E030E0F801D7FE0DC0F1
:1027600061917191819191918F01A5010E94D3177F
:10277000C82ECA18E894D7F86BCF6191719190E098
:1027800080E0F2CF52FC02C083947ECF8394839486
:102790007BCF852D867809F477CFF6CFB70180E21D
:1027A00090E00E94A31783948414C0F3312C79CF56
:1027B000342C3818841408F474CFF8CF852D86781B
:1027C00009F481CF8BE251FE80E257FC8DE2B70124
:1027D00090E077CFB70180E390E00E94A3179A942E
:1027E00072CF8FEF9FEF9DCFA9E0B0E0EAEFF3E16A
:1027F0000C943A186A01F22EB02E102F0BE30B1531
:1028000008F41BE31F5F012F27E0AE014F5F5F4F0E
:102810000E949416BC018981982F99709130C9F15A
:102820009BE2E1FC04C09E2D9170E0FC90E25E2DE5
:102830005071E82FE87083FF48C083E0911184E075
:10284000EF2DE81B8F1508F0E0E0552371F1992377
:1028500019F0D6019D936D01C6010396E2FE29C0D1
:102860002EE4D6012C9331E411963C9311971296E5
:102870002C932E2F382F492F50E221111FC0E80F23
:10288000F92FF11D10828EEF9FEF2996ECE00C944A
:1028900056189DE2CCCFD9014D9381509D018111F5
:1028A000FACFCE0ED11CE0E0D2CF8E2F960140E2BF
:1028B000F6CF2EE6D6012C9331E6D6CFA32FB42F38
:1028C0005D9321503A2F4B2FD8CF482F447082FF71
:1028D00041C083E0911184E08F1510F4EF2DE81BC7
:1028E000552359F1992319F0D6019D936D01C60125
:1028F0000396E2FE26C029E4D6012C932EE411961D
:102900002C93119726E412962C932E2F382F492FB3
:1029100050E2222309F4B3CFA32FB42F5D932150AB
:102920003A2F4B2FF6CFD9014D9381509D01811144
:10293000FACFCE0ED11CE0E0D5CF8E2F960140E22B
:10294000F6CF29E6D6012C932EE611962C931197FB
:1029500026E6D9CF9B0177FF02C030E020E0A1E05E
:10296000B0E0911102C0B0E0A0E0F9013196AE0FE5
:10297000BF1F8B2C912CBB20F1F05401EFEFAE1A4E
:10298000BE0AAA0DBB1DFA161B0619F014F04F2D36
:102990004A1B511145C0E3FC08C07601A42FB0E2E8
:1029A000A1110CC0C40ED11C40E091113BC0D60156
:1029B000942F50E30AC0B12CA12CE3CFF701B193BF
:1029C0007F01A150EDCF5D9391509111FCCFC40ECA
:1029D000D11C40E02DC001E03AC050E354C0621762
:1029E000730739F4A63320F4A53319F4B11101C0EB
:1029F00051E3D6015C93242F382F592F60E2211127
:102A000008C0480F592F511DFA01108290E080E054
:102A10003CCFE32FF52F619321503E2F5F2FEFCF57
:102A2000992331F0D6019D936D01552309F4BFCF51
:102A3000012F060FAA81B82FB07184FF03C0A13304
:102A400009F4015010163CF6093008F008E0FB01CB
:102A5000E01BF1098F01EE24FF24E818F9088EE24B
:102A6000B82E621773070CF4B8CF021713070CF0D7
:102A7000B4CFFB01E21BF30B81E090E08C0F9D1FB4
:102A8000E80FF91F518121503109C60101962E1519
:102A90003F050CF4A4CFF60150832F3F320721F4F9
:102AA000C6010296F601B1826C01DBCFB0E0A0E076
:102AB000ECE5F5E10C943A187C016B0161157105A8
:102AC00019F0FB0191838083E7010991802F90E049
:102AD0000E946C175C01892BB1F50D32B1F50881AC
:102AE000E701229611E07E01F1E0EF1AF10843E0E0
:102AF00050E06CEB70E0C7010E947517892B61F5FF
:102B00007E0182E0E80EF11C45E050E067EB70E0EA
:102B1000C7010E947517892B21F47E0197E0E90E09
:102B2000F11CC114D10419F0F601F182E08260E0D9
:102B300070E080E89FE7112309F4F1C060E070E0E5
:102B400080E89FEFECC07E01BFCF0B3219F4088103
:102B5000E701229610E0C7CF43E050E064EB70E05D
:102B6000C7010E947517892B61F4C114D10421F0AB
:102B70002296F601D183C08360E070E080EC9FE78D
:102B8000CEC0F12CE12C20E030E0A901F0EDF00FF7
:102B9000FA3058F5E12FE260812F887012FF08C0EB
:102BA000811103C0FFEFEF1AFF0A09911E2FEECF2C
:102BB000882319F081E0E81AF108A5E0B0E00E944E
:102BC00020119B01AC01220F331F441F551F2F0FF3
:102BD000311D411D511D283999E93907490799E1EE
:102BE000590718F3E12FE660E0CFFE3F29F413FD0B
:102BF0003AC0E12FE860D9CF0F7D0534A1F5888177
:102C00008D3241F41061BE016E5F7F4F8981E2E039
:102C1000F0E007C0BE018B32B9F36F5F7F4FE1E098
:102C2000F0E08053EB01CE1BDF0B8A30E0F4E0E8EC
:102C3000AE16ECE0BE065CF4F501EE0FFF1FEE0FE2
:102C4000FF1FAE0EBF1EAA0CBB1CA80EB11CEB01D1
:102C5000899180538A3090F114FF03C0B194A194FC
:102C6000B108EA0CFB1C11FF07C0C114D10421F00C
:102C70002197F601D183C083CA01B9010E946E0E6B
:102C80001370133009F490584B015C0120E030E0E0
:102C9000A9010E94BC0D882309F43FC0CBEED0E00F
:102CA000F7FE05C0F194E194F108C3EDD0E06E01A8
:102CB000F8E1CF1AD10800E210E00FC0BE01B7CF93
:102CC000FE012591359145915491E01AF10AC50113
:102CD000B4010E94F50F4B015C01D501C401E0165F
:102CE000F10674F7249715950795CC15DD05A9F71E
:102CF0008A2F880F8B2F881F8F3F49F020E030E00C
:102D0000A901C501B4010E94BC0D811106C082E277
:102D100090E090937F0380937E03C501B401CDB70B
:102D2000DEB7ECE00C945618283008F027E0332783
:102D3000DA01990F311D87FD9160009661057105DB
:102D400039F432602E5F3D9330E32A95E1F7089520
:102D50009F3F30F080387105610509F03C5F3C5FB2
:102D60003D93913008F08068911DDF93CF931F93BE
:102D70000F93FF92EF92192F987F9695E92F9695D2
:102D80009695E90FFF27E75BFE4F99273327EE243F
:102D9000FF24A701E70105900894079428F4360F53
:102DA000E71EF81E491F511D660F771F881F991FC8
:102DB0000694A1F70590079428F4E70EF81E491F22
:102DC000561FC11D770F881F991F661F0694A1F714
:102DD0000590079428F4F80E491F561FC71FD11DF0
:102DE000880F991F661F771F0694A1F70590079417
:102DF00020F4490F561FC71FD81F990F661F771F52
:102E0000881F0694A9F784911095177041F0D69504
:102E1000C79557954795F794E7941A95C1F7EFEE44
:102E2000F0E0689415901591359165919591059014
:102E30007FE27395E118F10A430B560BC90BD009D9
:102E4000C0F7E10CF11E431F561FC91FD01D7EF4B1
:102E5000703311F48A95E6CFE894015030F0080FF2
:102E60000AF40027021708F4202F2395022F7A3343
:102E700028F079E37D932A95E9F710C07D932A9590
:102E800089F6069497956795379517951794E118E5
:102E9000F10A430B560BC90BD00998F023957E918C
:102EA00073957A3308F070E37C932013B8F77E9122
:102EB00070617D9330F0839571E37D9370E32A9583
:102EC000E1F71124EF90FF900F911F91CF91DF91C7
:102ED000992787FD9095089591110C9431188032AF
:102EE00019F089508550C8F70895FB01DC01415065
:102EF000504088F08D9181341CF08B350CF4805E4D
:102F0000659161341CF06B350CF4605E861B6111B9
:102F100071F3990B0895881BFCCFFC01059061505B
:102F200070400110D8F7809590958E0F9F1F0895DF
:102F3000FC016150704001900110D8F78095909588
:102F40008E0F9F1F08950F931F93CF93DF93182F1A
:102F5000092FEB018B8181FD09C01FEF0FEF812F3E
:102F6000902FDF91CF911F910F91089582FF14C090
:102F70002E813F818C819D81281739073CF4E8819F
:102F8000F981CF0101969983888310838E819F8177
:102F900001969F838E83E3CFE885F985812F09957C
:102FA000892BA1F3DACFFA01AA27283051F1203179
:102FB00081F1E8946F936E7F6E5F7F4F8F4F9F4FCD
:102FC000AF4FB1E03ED0B4E03CD0670F781F891F0F
:102FD0009A1FA11D680F791F8A1F911DA11D6A0FDD
:102FE000711D811D911DA11D20D009F468943F9190
:102FF0002AE0269F11243019305D3193DEF6CF018F
:103000000895462F4770405D4193B3E00FD0C9F754
:10301000F6CF462F4F70405D4A3318F0495D31FDC1
:103020004052419302D0A9F7EACFB4E0A695979514
:10303000879577956795BA95C9F7009761057105EA
:1030400008959B01AC010A2E069457954795379534
:103050002795BA95C9F7620F731F841F951FA01D8E
:1030600008959927882708952F923F924F925F9253
:103070006F927F928F929F92AF92BF92CF92DF9288
:10308000EF92FF920F931F93CF93DF93CDB7DEB7ED
:10309000CA1BDB0B0FB6F894DEBF0FBECDBF099481
:1030A0002A88398848885F846E847D848C849B84D8
:1030B000AA84B984C884DF80EE80FD800C811B81E6
:1030C000AA81B981CE0FD11D0FB6F894DEBF0FBE15
:0A30D000CDBFED010895F894FFCF85
:1030DA002045004E4500204E004E57002057005311
:1030EA005700205300534500476F616C206C6F6393
:1030FA003A2025732C2025730D0A43757272656E6A
:10310A00743A2025732C2025730D0A44697265636D
:10311A0074696F6E3A2025732025730D0A4469730A
:10312A0074616E63653A20257320666565740D0ABD
:10313A00004461746554696D653A2025752D2575BD
:10314A002D25752025753A25753A2575200D0A46CF
:10315A0069783A2025642C20466978207175616C5B
:10316A006974793A2025752C204E756D2053617447
:10317A00656C6C697465733A2025750D0A004461A3
:10318A00746554696D653A2025752D25752D25754B
:10319A002025753A25753A2575200D0A4C6F63610D
:1031AA0074696F6E3A2025632025732C20256320CD
:1031BA0025730D0A4669783A2025642C20466978D9
:1031CA00207175616C6974793A2025752C204E75C9
:1031DA006D20536174656C6C697465733A2025754A
:1031EA000D0A0024475047474100244750524D4397
:0231FA000000D3
:00000001FF
