:100000000C9475030C9492030C9492030C94920339
:100010000C9492030C9492030C9492030C9492030C
:100020000C9492030C9492030C9492030C949203FC
:100030000C9492030C9492030C9492030C949203EC
:100040000C9492030C9492030C9492030C949203DC
:100050000C9492030C9492030C9492030C949203CC
:100060000C9492030C949203084AD73B3BCE016E4A
:1000700084BCBFFDC12F3D6C74319ABD56833DDAFF
:100080003D00C77F11BED9E4BB4C3E916BAAAABE0E
:10009000000000803F05A84CCDB2D44EB93836A937
:1000A000020C50B9918688083CA6AAAA2ABE000074
:1000B00000803F004E414E494E495459494E46CD6D
:1000C000CCCC3D0AD7233C17B7D13877CC2B32950F
:1000D00095E6241FB14F0A000020410000C84200ED
:1000E000401C4620BCBE4CCA1B0E5AAEC59D7400B7
:1000F000407A10F35A00A0724E18090010A5D4E8F7
:100100000000E87648170000E40B54020000CA9A89
:100110003B000000E1F505000080969800000040DB
:10012000420F000000A08601000000102700000020
:1001300000E803000000006400000000000A000066
:100140000000000100000000002C76D888DC674F1A
:100150000823DFC1DFAE59E1B1B796E5E3E453C64A
:100160003AE651997696E8E6C28426EB898C9B6242
:10017000ED407C6FFCEFBC9C9F40F2BAA56FA5F4EC
:1001800090055A2AF75C936B6CF9676DC11BFCE014
:10019000E40D47FEF520E6B500D0ED902E03009467
:1001A0003577050080841E080000204E0A000000FC
:1001B000C80C333333330F986E12831141EF8D2106
:1001C00014893BE65516CFFEE6DB18D1844B381B6D
:1001D000F77C1D901DA4BBE424203284725E228132
:1001E00000C9F124ECA1E53D2700000000003E5BC2
:1001F0004F5B3E3E6B4F6B3E1C3E7C3E1C183C7E74
:100200003C181C577D571C1C5E7F5E1C00183C1858
:1002100000FFE7C3E7FF0018241800FFE7DBE7FF54
:1002200030483A060E2629792926407F05050740E1
:100230007F05253F5A3CE73C5A7F3E1C1C08081CA2
:100240001C3E7F14227F22145F5F005F5F06097FE0
:10025000017F006689956A606060606094A2FFA279
:100260009408047E040810207E201008082A1C0828
:10027000081C2A08081E101010100C1E0C1E0C3032
:10028000383E3830060E3E0E06000000000000002A
:100290005F00000007000700147F147F14242A7FEA
:1002A0002A122313086462364956205000080703B7
:1002B00000001C2241000041221C002A1C7F1C2A35
:1002C00008083E0808008070300008080808080088
:1002D0000060600020100804023E5149453E004283
:1002E0007F400072494949462141494D3318141253
:1002F0007F1027454545393C4A494931412111097B
:10030000073649494936464949291E00001400006C
:100310000040340000000814224114141414140086
:100320004122140802015909063E415D594E7C12D2
:1003300011127C7F494949363E414141227F41416A
:10034000413E7F494949417F090909013E414151E7
:10035000737F0808087F00417F41002040413F0132
:100360007F081422417F404040407F021C027F7F73
:100370000408107F3E4141413E7F090909063E4184
:1003800051215E7F09192946264949493203017FD7
:1003900001033F4040403F1F2040201F3F40384066
:1003A0003F631408146303047804036159494D43FF
:1003B000007F4141410204081020004141417F0477
:1003C000020102044040404040000307080020545E
:1003D0005478407F284444383844444428384444BE
:1003E000287F385454541800087E090218A4A49C8D
:1003F000787F0804047800447D40002040403D00A0
:100400007F1028440000417F40007C047804787C01
:10041000080404783844444438FC18242418182468
:100420002418FC7C08040408485454542404043F51
:1004300044243C4040207C1C2040201C3C40304058
:100440003C44281028444C9090907C4464544C4484
:100450000008364100000077000000413608000225
:10046000010204023C2623263C1EA1A161123A404F
:1004700040207A38545455592155557941225454C5
:100480007842215554784020545579400C1E5272C0
:10049000123955555559395454545939555454589D
:1004A0000000457C410002457D420001457C407DC5
:1004B0001211127DF0282528F07C54554500205457
:1004C000547C547C0A097F4932494949323A4444B0
:1004D000443A324A4848303A4141217A3A4240202F
:1004E00078009DA0A07D3D4242423D3D4040403DC0
:1004F0003C24FF2424487E4943662B2FFC2F2BFFEE
:100500000929F620C0887E0903205454794100004F
:10051000447D413048484A32384040227A007A0AC5
:100520000A727D0D19317D2629292F28262929298E
:100530002630484D402038080808080808080838C0
:100540002F10C8ACBA2F102834FA00007B00000826
:10055000142A142222142A14085500550055AA55AD
:10056000AA55AAFF55FF55FF000000FF001010100C
:10057000FF00141414FF001010FF00FF1010F01003
:10058000F0141414FC001414F700FF0000FF00FF27
:100590001414F404FC141417101F10101F101F144F
:1005A00014141F00101010F0000000001F10101095
:1005B000101F10101010F010000000FF101010108D
:1005C0001010101010FF10000000FF140000FF00BA
:1005D000FF00001F10170000FC04F414141710177C
:1005E0001414F404F40000FF00F714141414141489
:1005F00014F700F7141414171410101F101F1414FC
:1006000014F4141010F010F000001F101F00000070
:100610001F14000000FC140000F010F01010FF1078
:10062000FF141414FF141010101F00000000F0102D
:10063000FFFFFFFFFFF0F0F0F0F0FFFFFF00000012
:100640000000FFFF0F0F0F0F0F3844443844FC4ADF
:100650004A4A347E02020606027E027E0263554941
:1006600041633844443C04407E201E2006027E0242
:100670000299A5E7A5991C2A492A1C4C7201724CC3
:10068000304A4D4D303048784830BC625A463D3E85
:10069000494949007E0101017E2A2A2A2A2A444426
:1006A0005F444440514A444040444A51400000FFA6
:1006B0000103E080FF000008086B6B083612362447
:1006C00036060F090F060000181800000010100071
:1006D0003040FF0101001F01011E00191D1712000B
:1006E0003C3C3C3C00000000000011241FBECFEF4A
:1006F000D8E0DEBFCDBF13E0A0E0B1E0E0E2F5E47A
:1007000002C005900D92AC38B107D9F727E0ACE8EC
:10071000B3E001C01D92A334B207E1F70E94361680
:100720000C948E220C9400000F931F9340918E0323
:1007300050918F03609190037091910340937304E3
:1007400050937404609375047093760480917F05D0
:1007500090918005A0918105B091820580937705E5
:1007600090937805A0937905B0937A0520913C0683
:10077000233549F470584093730450937404609384
:100780007504709376042091DF05273549F4B0583D
:100790008093770590937805A0937905B0937A05B7
:1007A0006091730470917404809175049091760443
:1007B0000DE316E027E04AE00E945D1B609177059B
:1007C000709178058091790590917A050AE116E09B
:1007D00027E04AE00E945D1BE091F7057091E20579
:1007E00080916B046091F20550917E054091C705A0
:1007F000309119062091700490911706E11139C0CB
:100800001F927F931F928F931F921F921F926F933D
:100810001F925F931F924F931F923F931F922F93AC
:100820001F929F938AE191E09F938F9381E08F9332
:100830001F9287E794E09F938F930E941C1C2DB713
:100840003EB7285E3F4F0FB6F8943EBF0FBE2DBF98
:1008500087E794E00E946609E7E7F4E080E091E032
:10086000DF019C011D9221503040E1F71F910F9153
:1008700008951F927F931F928F931F9281E08F9311
:10088000EAE1F6E0FF93EF937091DF05E72F072E83
:10089000000CFF0BFF937F93EDE3F6E0FF93EF93E4
:1008A00070913C06E72F072E000CFF0BFF937F9300
:1008B0001F926F931F925F931F924F931F923F93CC
:1008C0001F922F931F929F9327E631E03F932F9320
:1008D0008F931F9287E794E09F938F930E941C1C35
:1008E0008DB79EB780960FB6F8949EBF0FBE8DBF92
:1008F000AFCF4F925F926F927F928F929F92AF9203
:10090000BF92CF92DF92EF92FF920F931F93CF93FC
:10091000DF93CDB7DEB764970FB6F894DEBF0FBE96
:10092000CDBF8091F705882309F4F5C18090730449
:1009300090907404A0907504B09076042BED3FE085
:1009400049E450E4C501B4010E94281A20E030E0D7
:1009500044E353E40E94F9176D877E878F87988B55
:100960008091770590917805A0917905B0917A05ED
:1009700089839A83AB83BC83C090DB05D090DC0570
:10098000E090DD05F090DE052BED3FE049E450E41A
:10099000C701B6010E94281A20E030E044E353E486
:1009A0000E94F917698B7A8B8B8B9C8B4090F30597
:1009B0005090F4056090F5057090F605A50194013E
:1009C000C701B6010E9410172BED3FE049E450E447
:1009D0000E94281A20E030E044E353E40E94F91713
:1009E00020E030E040E05FE30E94281A0E94951A60
:1009F0006B017C016D857E858F8598890E94F41737
:100A000069877A878B879C8769897A898B899C8992
:100A10000E94F4176D837E838F83988729813A81A2
:100A20004B815C81C301B2010E9410172BED3FE0A6
:100A300049E450E40E94281A20E030E044E353E403
:100A40000E94F91720E030E040E05FE30E94281A9E
:100A50000E94951A4B015C012D813E814F81588582
:100A600069857A858B859C850E94281AA501940149
:100A70000E94281AA50194010E94281A4B015C01CA
:100A8000A7019601C701B6010E94281A9B01AC017B
:100A9000C501B4010E9411176B017C01AC019B01DF
:100AA00060E070E080E89FE30E9410170E94A31AA4
:100AB0004B015C01C701B6010E94A31AA501940174
:100AC0000E9490179B01AC010E94111720E73DE6A0
:100AD00042EC5AE40E94281A28E439EF41E550E438
:100AE0000E94281A0E946B1870937204609371041C
:100AF000072E000C880B990B0E94A3180BE216E03E
:100B000020E041E00E945D1B2BED3FE049E450E412
:100B1000C301B2010E94281A20E030E044E353E40C
:100B20000E94F9176B017C012BED3FE049E450E492
:100B300069817A818B819C810E94281A20E030E0B3
:100B400044E353E40E94F9179B01AC01C701B601CD
:100B50000E9410176B017C010E94951A2B013C0129
:100B600069897A898B899C890E94951A4B015C015D
:100B70006D857E858F8598890E94951A69837A8311
:100B80008B839C83C701B6010E94F4176B017C0123
:100B9000A30192016D817E818F8198850E94281A20
:100BA0002B013C01A501940169857A858B859C8583
:100BB0000E94281A4B015C0129813A814B815C819A
:100BC0006D817E818F8198850E94281AA7019601E8
:100BD0000E94281A9B01AC01C501B4010E941017A4
:100BE000A30192010E94901720E030E044E353E417
:100BF0000E94281A2BED3FE049E450E40E94F917C7
:100C000060933506709336068093370690933806C6
:100C100003EE15E027E04AE00E945D1BC090350618
:100C2000D0903606E0903706F090380620E030E0AD
:100C300044EB51ECC701B6010E941B1A18160CF0C8
:100C400081C020E030E044EB51E4C701B6010E94CE
:100C5000EF1718160CF476C01092E1051092E0051B
:100C60006CEC71E08BE795E00E94CF1B6091DB0597
:100C70007091DC058091DD059091DE0502EB15E0B9
:100C800027E04AE00E945D1B6091F3057091F40536
:100C90008091F5059091F60508EC15E027E04AE013
:100CA0000E945D1B8BE296E09F938F9383EE95E00D
:100CB0009F938F938BE795E09F938F938AE196E0C4
:100CC0009F938F938DE396E09F938F93C8019F939B
:100CD0000F9382EB95E09F938F9384EE91E09F9327
:100CE0008F9381E08F931F92A7E7B4E0BF93AF93F8
:100CF0000E941C1C87E794E00E94660980E091E056
:100D0000A7E7B4E0FC011D923197E9F70FB6F8941C
:100D1000DEBF0FBECDBF64960FB6F894DEBF0FBE28
:100D2000CDBFDF91CF911F910F91FF90EF90DF909A
:100D3000CF90BF90AF909F908F907F906F905F907B
:100D40004F90089520E030E044EB51E4C701B60134
:100D50000E941B1A18169CF420E030E047E852E489
:100D6000C701B6010E94EF1718164CF081E090E021
:100D70009093E1058093E0056FEC71E073CF20E084
:100D800030E047E852E4C701B6010E941B1A18166A
:100D90009CF420E030E041EE52E4C701B6010E942D
:100DA000EF1718164CF082E090E09093E1058093E5
:100DB000E00562ED71E056CF20E030E041EE52E414
:100DC000C701B6010E941B1A18169CF420E030E8F7
:100DD0004DE153E4C701B6010E94EF1718164CF01D
:100DE00083E090E09093E1058093E00565ED71E08C
:100DF00039CF20E030E84DE153E4C701B6010E944D
:100E00001B1A181654F020E030E84DE153ECC701EE
:100E1000B6010E94EF1718164CF084E090E0909312
:100E2000E1058093E00568ED71E01CCF20E030E83B
:100E30004DE153ECC701B6010E941B1A18169CF431
:100E400020E030E041EE52ECC701B6010E94EF17FE
:100E500018164CF085E090E09093E1058093E00552
:100E60006BED71E0FFCE20E030E041EE52ECC701C7
:100E7000B6010E941B1A18169CF420E030E047E8E7
:100E800052ECC701B6010E94EF1718164CF086E02D
:100E900090E09093E1058093E0056EED71E0E2CE85
:100EA00087E090E09093E1058093E00561EE71E0CA
:100EB000D9CEEF92FF920F931F93CF93DF93809140
:100EC000F705811132C000916C0410916D0424E18A
:100ED00030E04CED50E06AE070E08AE090E00E9483
:100EE000120E6DE272E083E895E00E94CF1B009144
:100EF000290610912A06EE24E3942CE030E04CE021
:100F000050E062E370E083E895E00E94AF0FE3E811
:100F1000F5E08DE2DF011D928A95E9F7DF91CF912F
:100F20001F910F91FF90EF90089588EF95E09F93A8
:100F30008F9382E592E09F938F931F928DE2F82E1C
:100F4000FF92C3E8D5E0DF93CF930E941C1C009171
:100F50006C0410916D0424E130E04CED50E06AE047
:100F600070E08AE090E00E94120E00912906109134
:100F70002A06EE24E3942CE030E04CE050E062E3FB
:100F800070E0CE010E94AF0FDE01EF2D1D92EA95B9
:100F9000E9F788EC95E09F938F9382EB95E09F9320
:100FA0008F9384E492E09F938F931F92FF92DF933D
:100FB000CF930E941C1C00916C0410916D0428E2D8
:100FC00030E04CED50E06EE170E08AE090E00E948D
:100FD000120E0091290610912A0620E230E04CE022
:100FE00050E062E370E0CE010E94AF0FDE01EF2D12
:100FF0001D92EA95E9F78AE196E09F938F938DE33E
:1010000096E09F938F9385E592E09F938F931F9235
:10101000FF92DF93CF930E941C1C00916C041091EF
:101020006D042CE330E04CED50E062E370E08AE0C8
:1010300090E00E94120E0091290610912A0624E3E6
:1010400030E04CE050E062E370E0CE010E94AF0F70
:10105000DE01EF2D1D92EA95E9F78BE296E09F9372
:101060008F938BE795E09F938F9386E692E09F9313
:101070008F931F92FF92DF93CF930E941C1CADB7FA
:10108000BEB796960FB6F894BEBF0FBEADBF009127
:101090006C0410916D0420E530E04CED50E066E406
:1010A00070E08AE090E00E94120E009129061091F3
:1010B0002A0628E430E04CE050E062E370E0CE0124
:1010C0000E94AF0FFE011192FA94E9F7209171048A
:1010D00030917204809100019091010100916C04A3
:1010E00010916D0482179307D4F428EC30E04AEA9B
:1010F00050E064E670E086E490E00E94120E609199
:101100006E0470916F048091E0059091E105DF918C
:10111000CF911F910F91FF90EF900C94ED1228EC5E
:1011200030E046EE50E064E670E08AE090E00E9435
:10113000120E4091290650912A0668ED70E083E96D
:1011400093E00E940E108FEF93E20197F1F700C039
:1011500000000091390610913A0628EC30E046EE86
:1011600050E064E670E08AE090E00E94120ED6CE75
:10117000EF92FF920F931F93CF93DF938091180606
:1011800040E06FEF882309F486C08FEF0E94C40E01
:101190008C012FE331E04FEE50E06AEF70E08CE815
:1011A00090E00E94120E809118061F928F938BE799
:1011B00092E09F938F931F928DE2F82EFF92C3E8E7
:1011C000D5E0DF93CF930E941C1C00916C0410911A
:1011D0006D0424E031E04CE850E06AEF70E08AE012
:1011E00090E00E94120E0091290610912A06EE242A
:1011F000E3942CEF30E04CE050E062E370E0CE018D
:101200000E94AF0FFE018F2D11928A95E9F7809110
:10121000D8058F938091D7058F938091C4058F93C4
:101220008091C3058F938EE892E09F938F931F92D6
:10123000FF92DF93CF930E941C1C00916C041091CD
:101240006D0428E131E04CE850E06EE071E08AE0A6
:1012500090E00E94120E0091290610912A0620E1CA
:1012600031E04CE050E062E370E0CE010E94AF0F4D
:10127000FE011192FA94E9F78DB79EB742960FB628
:10128000F8949EBF0FBE8DBFDF91CF911F910F913C
:10129000FF90EF90089580E079CF8FE290E09093F7
:1012A000C5008093C400E1ECF0E080818860808319
:1012B00080818061808386E08093C2000895909150
:1012C000C00095FFFCCF8093C60008950F931F9335
:1012D000CF93DF938C01D0E0C0E0F80101900020B3
:1012E000E9F73197E01BF10BCE17DF0728F0DF910C
:1012F000CF911F910F91089583E397E00197F1F744
:10130000F801EC0FFD1F80810E945F092196E5CF57
:101310008091C00087FFFCCF8091C60008958A307D
:1013200009F5E0918C0320913F0730914007E20FCF
:10133000F32FF11D108220913F073091400796E076
:101340002F34390729F547EC56E050934007409376
:101350003F0730934D0620934C0610928C0391E08A
:1013600090934E0620913F0730914007E0918C0307
:1013700091E09E0F90938C03E20FF32FF11D808379
:1013800090918C03983718F097E790938C03089509
:101390002FE436E03093400720933F0727EC36E0F8
:1013A000D8CF10924E0610928D0310928C038FE4CA
:1013B00096E09093400780933F0787EC96E09093E8
:1013C0004D0680934C061092E20510926B04109229
:1013D000190610927004109217061092F2051092DE
:1013E0007E051092C7051092DF0510923C06109200
:1013F000F7051092C2051092C105089580914E061E
:10140000089510924E0680914C0690914D060895D5
:10141000803354F08A3314F4805308959FEB980F6F
:10142000963010F48753089580E008954F925F92AC
:101430006F927F928F929F92AF92BF92CF92DF92E4
:10144000EF92FF920F931F93CF93DF93CDB7DEB749
:101450002A970FB6F894DEBF0FBECDBF7C01FC010A
:1014600001900020E9F73197E81BF90B6F0184E048
:10147000C81AD108D701AC0DBD1D8C918A3209F074
:101480003FC087010E0F1F1FF801339780810E9414
:10149000080A90E1899F50011124F8013297808158
:1014A0000E94080A8A0D9B2D911D42E0242F30E0F6
:1014B0002C153D05D0F0892B19F180E02A960FB646
:1014C000F894DEBF0FBECDBFDF91CF911F910F917A
:1014D000FF90EF90DF90CF90BF90AF909F908F9054
:1014E0007F906F905F904F9008952E0D3F1DF901F2
:1014F0002081022E000C330B822793274F5FD6CF1B
:101500006EE773E0C7010E94E51B892B09F44FC108
:101510006CE270E0C7010E94C41B8C010F5F1F4F7B
:10152000C8010E947B1B6B017C010E9472182B0179
:101530003C0120E137E240E050E00E94021B209392
:10154000C70544E6842E912CA12CB12CA501940151
:101550000E94021B20937E05C301B201A5019401E4
:101560000E94021B6093F20520E030E040E85FE358
:10157000C701B6010E94E91820E030E04AE754E4D0
:101580000E94281A0E9472187093C2056093C105C8
:101590006CE270E0C8010E94C41B7C018C010F5FEB
:1015A0001F4FFC0181818C3209F455C042E050E0AC
:1015B000B801CE0101960E94D61B1B82CE01019676
:1015C0000E949D1B4B015C01B7016D5F7F4F42E0A4
:1015D00050E0CE0101960E94D61B0B5F1F4F44E0E6
:1015E00050E0B801CE0103960E94D61B1F82CE01A7
:1015F00001960E949D1B9B01AC01A2E3B0E00E94FA
:10160000521B23E030E040E050E00E94241BCA015E
:10161000B9010E94A3182CE933E549EC56E30E9476
:10162000281A20E030E040E752E40E94F9176B01ED
:101630007C01C501B4010E94A3189B01AC01C70144
:10164000B6010E94111760938E0370938F038093ED
:101650009003909391036CE270E0C8010E94C41B58
:101660009C012F5F3F4FFC0191819C3229F09E34F9
:1016700009F08FC090933C066CE270E0C9010E94B3
:10168000C41B7C018C010F5F1F4FFC0181818C32D8
:1016900009F455C043E050E0B801CE0101960E9424
:1016A000D61B1C82CE0101960E949D1B4B015C0142
:1016B000B7016C5F7F4F42E050E0CE0101960E947F
:1016C000D61B0A5F1F4F44E050E0B801CE010396DD
:1016D0000E94D61B1F82CE0101960E949D1B9B017A
:1016E000AC01A2E3B0E00E94521B23E030E040E0F6
:1016F00050E00E94241BCA01B9010E94A3182CE9E2
:1017000033E549EC56E30E94281A20E030E040E738
:1017100052E40E94F9176B017C01C501B4010E94DB
:10172000A3189B01AC01C701B6010E941117609379
:101730007F057093800580938105909382056CE20C
:1017400070E0C8010E94C41BFC0191819C3221F011
:10175000973519F59093DF056CE270E0CF010196A3
:101760000E94C41B8C010F5F1F4FFC0181818C32D2
:1017700029F0C8010E947F1B80936B046CE270E02B
:10178000C8010E94C41BFC0121812C3251F481E06C
:1017900095CE933509F091CE6DCF953409F08DCE6D
:1017A000D9CF01960E947F1B8093E205F0CF65E8B8
:1017B00073E0C7010E94E51B892B09F47ECE6CE221
:1017C00070E0C7010E94C41B8C010F5F1F4FC8014E
:1017D0000E947B1B6B017C010E9472182B013C0153
:1017E00020E137E240E050E00E94021B2093C70551
:1017F00034E6832E912CA12CB12CA50194010E94DA
:10180000021B20937E05C301B201A50194010E9431
:10181000021B6093F20520E030E040E85FE3C7017F
:10182000B6010E94E91820E030E04AE754E40E9443
:10183000281A0E9472187093C2056093C1056CE269
:1018400070E0C8010E94C41BFC012181213409F011
:1018500020C121E02093F7056CE270E001960E9420
:10186000C41B7C018C010F5F1F4FFC0181818C32F6
:1018700009F455C042E050E0B801CE0101960E9443
:10188000D61B1B82CE0101960E949D1B4B015C0161
:10189000B7016D5F7F4F42E050E0CE0101960E949C
:1018A000D61B0B5F1F4F44E050E0B801CE010396FA
:1018B0000E94D61B1F82CE0101960E949D1B9B0198
:1018C000AC01A2E3B0E00E94521B23E030E040E014
:1018D00050E00E94241BCA01B9010E94A3182CE900
:1018E00033E549EC56E30E94281A20E030E040E757
:1018F00052E40E94F9176B017C01C501B4010E94FA
:10190000A3189B01AC01C701B6010E941117609397
:101910008E0370938F0380939003909391036CE2F6
:1019200070E0C8010E94C41B9C012F5F3F4FFC0167
:1019300091819C3229F09E3409F0B1C090933C060D
:101940006CE270E0C9010E94C41B7C018C010F5F36
:101950001F4FFC0181818C3209F455C043E050E0F7
:10196000B801CE0101960E94D61B1C82CE010196C1
:101970000E949D1B4B015C01B7016C5F7F4F42E0F1
:1019800050E0CE0101960E94D61B0A5F1F4F44E033
:1019900050E0B801CE0103960E94D61B1F82CE01F3
:1019A00001960E949D1B9B01AC01A2E3B0E00E9446
:1019B000521B23E030E040E050E00E94241BCA01AB
:1019C000B9010E94A3182CE933E549EC56E30E94C3
:1019D000281A20E030E040E752E40E94F9176B013A
:1019E0007C01C501B4010E94A3189B01AC01C70191
:1019F000B6010E94111760937F0570938005809354
:101A00008105909382056CE270E0C8010E94C41BBE
:101A1000FC0191819C3229F0973509F044C09093E4
:101A2000DF056CE270E0CF0101960E94C41B6CE2FE
:101A300070E001960E94C41B6CE270E001960E9467
:101A4000C41BFC0121812C3209F4A1CE01960E9415
:101A50007B1B0E9472184B015C0120E137E240E0E1
:101A600050E00E94021B2093190624E6C22ED12CBE
:101A7000E12CF12CA70196010E94021B2093700417
:101A8000C501B401A70196010E94021B60931706CD
:101A90007ECE263509F011CD1092F705DDCE9335B7
:101AA00009F00BCD4BCF953409F007CDB8CFCF93CC
:101AB0000E9488098432E1F70E948F090E948809F8
:101AC000C82F0E948F09CA30C9F780914E0688231B
:101AD00079F310924E0680914C0690914D060E942B
:101AE000160A882329F3CF91089525B1982F937072
:101AF000922B95B925B1982F9C6F922395B92BB154
:101B0000982F9C7F922B9BB99BB1836089238BB9C3
:101B10004198419A08950F931F93CF93DF93EA0161
:101B2000162F072F439842980E94750D429A802FD6
:101B30000E94750D812F0E94750D8D2F0E94750DCD
:101B40008C2F0E94750D439ADF91CF911F910F91B9
:101B500008950F931F93CF93DF938B01E901B0E0BA
:101B6000A0E0DC019927882770E060E0482B592B22
:101B70006A2B7B2B8AE20E948B0DC801B0E0A0E0AB
:101B8000DC0199278827AE0170E060E0482B592BD3
:101B90006A2B7B2B8BE2DF91CF911F910F910C94DD
:101BA0008B0DAF92BF92CF92DF92EF92FF920F9385
:101BB0001F93CF93DF935C016B017A01E9010E94CF
:101BC000A90D439842988CE20E94750D429A9701A4
:101BD0002F5F3F4F2A193B09DE011196AC19BD0951
:101BE0000E94431B6B017C0181E0C81AD108E10807
:101BF000F1088FEFC816D806E806F80661F4439A94
:101C0000DF91CF911F910F91FF90EF90DF90CF90D8
:101C1000BF90AF900895812F0E94750D802F0E9474
:101C2000750DE2CF0F931F934817590760F02617E1
:101C3000370748F0403F510530F42034E1E03E07DB
:101C400010F40E94D10D1F910F9108951F93CF930F
:101C5000DF93182FEB0143984298892F0E94750D4E
:101C6000812F0E94750D429A8D2F0E94750D8C2F29
:101C70000E94750D439ADF91CF911F910895CF93E4
:101C8000C62F439842980E94750D429A8C2F0E944D
:101C9000750D439ACF91089588B18F6488B92FEF5D
:101CA0008FE392E0215080409040E1F700C00000B7
:101CB000469825E02A95F1F7469A4398429880E0A5
:101CC0000E94750D83E04198419A8150E1F7439A53
:101CD0008FEF9FE322E0815090402040E1F700C069
:101CE000000008950E944C0E60E081E00E943F0ECB
:101CF0002FEF8FE191E0215080409040E1F700C04C
:101D0000000060E088E20E943F0E63E280EC0E94E7
:101D10003F0E60E181EC0E943F0E6BE27BE285ECBE
:101D200090E00E94260E60EC87EC0E943F0E68E86F
:101D300086E30E943F0E65E58AE30E943F0E6BE159
:101D400070E081EB90E00E94260E67E087EB0E9436
:101D50003F0E60E081E10E943F0E2FEF8FE593E0A0
:101D6000215080409040E1F700C0000060E089E22F
:101D70000E943F0E2FEF8FE39BE021508040904068
:101D8000E1F700C00000089598E0699FB0011124B8
:101D9000607E7770469546954695642B90E0982F27
:101DA00088278827987F862B972B0895CF93DF93DA
:101DB000EA01803F9105D0F4603421E07207B0F46D
:101DC0002FE331E04FEE50E00E94A90D4398429876
:101DD0008CE20E94750D8CE20E94750D429A8D2F47
:101DE0000E94750D8C2F0E94750D439ADF91CF9143
:101DF00008952F923F924F925F926F927F928F92AF
:101E00009F92AF92BF92CF92DF92EF92FF920F9389
:101E10001F93CF93DF93CDB7DEB72C970FB6F8940F
:101E2000DEBF0FBECDBF6C015B013A832983202E3C
:101E3000803F91050CF06AC0603481E078070CF0B7
:101E400065C0C60126E0029F800D911D1124181661
:101E500019060CF05BC0802F90E09C878B8723E0F5
:101E6000880F991F2A95E1F7860F971F18161906F4
:101E70000CF04CC095E0499FA00111242601F12CE3
:101E8000E12CCA0187519E4F9E838D838B859C8553
:101E9000019798878F83ED81FE81EE0DFF1D3490B1
:101EA0008F819885840D951D9C838B838B849C8466
:101EB0008A0C9B1C712C612CC6018E0D9F1D9A876C
:101EC000898730FE0CC091E0291239C049815A81BE
:101ED000B3016A0D7B1D89859A850E94D60E3694C2
:101EE0009FEF691A790A8B859C85880E991E98E068
:101EF0006916710431F72FEFE21AF20A8B859C857F
:101F0000480E591E95E0E916F10429F62C960FB6F5
:101F1000F894DEBF0FBECDBFDF91CF911F910F911F
:101F2000FF90EF90DF90CF90BF90AF909F908F90F9
:101F30007F906F905F904F903F902F900895098110
:101F40001A819401215031094B815C81B4018B8548
:101F50009C85681B790BC2010E94120EC0CF2F9284
:101F60003F924F925F926F927F928F929F92AF9229
:101F7000BF92CF92DF92EF920F931F93CF93DF9395
:101F80005B0149013801403F51052CF520E48216E0
:101F900021E0920604F566E06A9D90016B9D300D8C
:101FA0001124240F351F12161306ACF4950173E0AB
:101FB000220F331F7A95E1F7280D391D12161306EB
:101FC00054F4E69E10011124EA016C01512C412CBD
:101FD0004A145B0494F0DF91CF911F910F91EF9021
:101FE000DF90CF90BF90AF909F908F907F906F9039
:101FF0005F904F903F902F900895F60141916F01AF
:10200000442349F30E2D9301B401CE010E94F90E31
:10201000FFEF4F1A5F0AC20DD31DDACF2F923F9206
:102020004F925F926F927F928F929F92AF92BF92E8
:10203000CF92DF92EF92FF920F931F93CF93DF9394
:10204000CDB7DEB7A5970FB6F894DEBF0FBECDBFF4
:102050002C013B011A018EE6882E912CB12CA12C6B
:10206000CE0101966C0195E2F92EB2016A0D7B1D3D
:1020700044E250E095E2691671042CF0C5018396A4
:102080008615970544F1C6010E94D61B1DA2EE24B9
:10209000E394810194014CE050E065E270E0C601F8
:1020A0000E94AF0FA5960FB6F894DEBF0FBECDBF4E
:1020B000DF91CF911F910F91FF90EF90DF90CF9024
:1020C000BF90AF909F908F907F906F905F904F9058
:1020D0003F902F900895C6010E94D61B1DA2EE24AA
:1020E000E394810194014CE050E065E270E0C601A8
:1020F0000E94AF0FF6018F2D11928A95E9F79CE0AF
:10210000890E911CE4E2AE0EB11CAFCF2F923F922C
:102110004F925F926F927F928F929F92AF92BF92F7
:10212000CF92DF92EF92FF920F931F93CF93DF93A3
:1021300000D000D0CDB7DEB79C838B837B016A01D2
:1021400058018901061B170B17FF03C01195019554
:10215000110946018B819C81881A990A97FE03C058
:10216000919481949108801691065CF49C2D8D2D9C
:102170006901292F382F9B818C81FC82EB82E92E0B
:10218000F82E8B819C81C816D9065CF49E2D8F2D6C
:102190007901292F382F9B818C81DC82CB82C92E3B
:1021A000D82E16018B819C81281A390A29014E18D4
:1021B0005F0857FE03C0519441945108310137FE26
:1021C00003C09FEF691A790A759467948FEF9FEFA8
:1021D000E216F30614F481E090E09A8389831BC031
:1021E000A5016B817C81C701801691061CF0B701A7
:1021F0008B819C810E94D60E6418750877FE06C0FC
:1022000089819A81E80EF91E620C731C8B819C8176
:1022100001969C838B838B819C81C816D90604F719
:102220000F900F900F900F90DF91CF911F910F9112
:10223000FF90EF90DF90CF90BF90AF909F908F90E6
:102240007F906F905F904F903F902F9008950F93E5
:102250001F93460F571F4150510989019A01AC0144
:102260000E9486101F910F9108950F931F93480F9E
:10227000591F4150510989019B010E9486101F91ED
:102280000F9108952F923F924F925F926F927F929B
:102290008F929F92AF92BF92CF92DF92EF92FF9276
:1022A0000F931F93CF93DF93CDB7DEB7AA970FB6E7
:1022B000F894DEBF0FBECDBF9A8389837AA769A742
:1022C0001A0159014701D88ECF8A261737070CF01B
:1022D00076C1E616F7065CF58A149B04E4F49A2DA1
:1022E0008B2D540189A49AA499A78AA7922D832D96
:1022F000180109811A8199838A8319C099A58AA531
:10230000BAA6A9A6A92EB82E99818A813A822982D5
:10231000292E382EE1CF99A58AA59AA689A6892EBD
:10232000982E99818A811A830983092F182F898110
:102330009A818219930929A53AA52A193B09A8016E
:10234000421953095E834D83B4016A197B097A8768
:102350006987D80149815A81A41BB50BBE87AD8717
:10236000B401A9A5BAA56A1B7B0B7A8B698BA8154A
:10237000B90509F49AC01197BE8BAD8B8501412C2C
:10238000512C3201C12CD12C7601A901330F660BDF
:10239000770B498F5A8F6B8F7C8F29853A85032E57
:1023A000000C440B550B2D8F3E8F4F8F58A3AC0163
:1023B000990F660B770B49A35AA36BA37CA36D817E
:1023C0007E81072E000C880B990B6DA37EA38FA333
:1023D00098A72D893E89201731070CF06BC0C801E2
:1023E00049A55AA5841B950B6D857E85869F600146
:1023F000879FD00C969FD00C11240D2C000CEE085A
:10240000FF08C8018A199B09AD81BE818A9F2001FE
:102410008B9F500C9A9F500C1124052C000C6608C1
:10242000770829893A89032E000C440B550B298B18
:102430003A8B4B8B5C8B49855A85052E000C660BBD
:10244000770B49875A876B877C876D857E85072E3A
:10245000000C880B990B6D877E878F87988BCD0139
:10246000092E000CAA0BBB0B8D839E83AF83B8870C
:10247000801691060CF060C0AA960FB6F894DEBFE5
:102480000FBECDBFDF91CF911F910F91FF90EF90C5
:10249000DF90CF90BF90AF909F908F907F906F9084
:1024A0005F904F903F902F90089549A55AA55E8B5D
:1024B0004D8B64CFC701B601298D3A8D4B8D5C8D54
:1024C0000E94241BC101820F931F9C838B83C30135
:1024D000B2012D8D3E8D4F8D58A10E94241B220DDF
:1024E000331D49A15AA16BA17CA1C40ED51EE61EC5
:1024F000F71E6DA17EA18FA198A5460E571E681EDE
:10250000791E8B819C812817390734F49B818C813B
:102510003C832B83292F382FA901AB81BC814A1B17
:102520005B0B4F5F5F4F2F89388DB801CD010E9443
:1025300035110F5F1F4F4DCFC701B60129893A8969
:102540004B895C890E94241BA981BA81A20FB31F09
:10255000BC83AB83C301B20129853A854B855C8579
:102560000E94241B220D331D4D855E856F85788961
:10257000C40ED51EE61EF71E6D817E818F81988563
:10258000460E571E681E791E8B819C8128173907BD
:1025900034F49B818C813C832B83292F382FA90114
:1025A000AB81BC814A1B5B0B4F5F5F4F2F89388D1E
:1025B000B801CD010E9435110F5F1F4F59CFE216B0
:1025C000F3060CF49BCE8B2DA9A4BAA429A78AA745
:1025D000942F832D29803A808ECEAF92BF92CF92D6
:1025E000DF92EF92FF920F931F93CF93DF935C01E3
:1025F000EB0182E0A816B10409F059C08B012AEA68
:1026000030E042E850E062E870E08EE690E00E9440
:10261000D10D6E0192E8E92EF12C0CE810E02EE6C7
:1026200030E048E750E062E870E084E690E00E9425
:10263000421185E0A816B10409F074C06E0160E88B
:10264000E62EF12C0FE710E02EE830E04DE850E0E8
:102650006DE970E082E690E00E9442117BEAE72E8D
:10266000F12C00E710E02EE830E04DE850E06DE995
:1026700070E082E690E00E944211E2EBEE2EF12C37
:1026800008E710E026E930E04BE550E062EB70E04F
:102690008BE590E00E944211DF91CF911F910F9145
:1026A000FF90EF90DF90CF90BF90AF90089586E0BD
:1026B000A816B104C1F48B012AEA30E042E850E0E8
:1026C00062E870E08EE690E00E94D10D6E018AEA29
:1026D000E82EF12C0CE810E02EEB30E048E750E05B
:1026E0006AEA70E0A2CFA114B10409F04BC08B01DB
:1026F00020EA30E04CE850E06CE870E084E690E0DE
:102700000E94D10D6E010AEAE02EF12C0CE810E0D7
:1027100022E830E04CE850E066E970E080EA90E0C2
:102720000E94421183E0A816B10409F04BC06E016B
:102730003DE9E32EF12C0DE810E02BEA30E04FE705
:1027400050E060E870E080E790E00E9442114EE8BF
:10275000E42EF12C02E610E02BEA30E04FE750E0E7
:1027600060E870E080E790E00E94421156E9E52EB3
:10277000F12C0BE510E029E730E048E750E069E78D
:1027800070E086CF84E0A816B10409F04BC08B013D
:1027900020EA30E04CE850E06CE870E084E690E03D
:1027A0000E94D10D6E011AEAE12EF12C04E610E030
:1027B00022E830E044E650E066E970E080E590E031
:1027C0000E94421187E0A816B10409F065CF6E019E
:1027D0008DE9E82EF12C0DE810E02BEA30E04FE710
:1027E00050E060E870E080E790E00E9442119EE8CF
:1027F000E92EF12C02E610E02BEA30E04FE750E042
:1028000060E870E080E790E00E94421122EBE22E47
:10281000F12C08E710E026E930E044E950E062EBF3
:1028200070E02FC081E0A816B10409F002CF6B015F
:10283000F0E8EF2EF12C0FE710E02EE830E04DE845
:1028400050E06DE970E082E690E00E944211ABEA50
:10285000EA2EF12C00E710E02EE830E04EE850E0E0
:102860006DE970E082E690E00E944211B6E9EB2E3D
:10287000F12C04E910E029E730E048E750E069E78F
:1028800070E084E990E006CF1092B9008093B80020
:102890000895CF92DF92EF92FF920F931F93E82F4C
:1028A000CA01802B912B892B09F4ABC084EA809359
:1028B000BC008091BC0087FFFCCF8091B900887F6D
:1028C000883009F06EC08E2F8E7F8093BB0084E825
:1028D0008093BC008091BC0087FFFCCF8091B90041
:1028E000887F8831E1F0803209F05BC094E99093F1
:1028F000BC0057C0DB018D91BD018093BB00F093FC
:10290000BC008091BC0087FFFCCF8091B900887F1C
:10291000883241F0803309F044C080E3E7CF460FAE
:10292000571FF4E86417750729F7020F131F94E87F
:1029300010C0D9018D919D018093BB009093BC0084
:102940008091BC0087FFFCCF8091B900887F8832DE
:1029500009F72017310769F720E1C114D10411F4F8
:102960004EC028E084EA8093BC008091BC0087FFC1
:10297000FCCF8091B900887F281313C0E160E093F9
:10298000BB0084E88093BC008091BC0087FFFCCF33
:102990008091B900887F94EC8034E9F0883409F4A0
:1029A000A5CF1F910F91FF90EF90DF90CF900895EA
:1029B0009093BC008091BC0087FFFCCF8091B90050
:1029C000887FB1E0CB1AD108803559F78091BB00E0
:1029D000F70181937F01F1E0CF16D10449F784E834
:1029E0008093BC008091BC0087FFFCCF8091B90030
:1029F000887F8835B1F68091BB00D7018C9380E049
:102A000075CFC114D10409F0ACCF80E0CACFCF920A
:102A1000DF92EF92FF920F931F9380E780939203D0
:102A200080E880933B0682E0809316061092C405EE
:102A30001092C3051092C6051092C5051092D805D4
:102A40001092D7051092DA051092D9051092180647
:102A5000D12CC12CF12CE12C10E000E030E020E082
:102A600041E050E06BE376E080E70E94491491E09A
:102A7000811190E0892F1F910F91FF90EF90DF90CF
:102A8000CF900895CF92DF92EF92FF920F931F9312
:102A9000CF93DF9300D0CDB7DEB78FEF8A83CC24FE
:102AA000C394D12CCE0102967C0110E000E030E00E
:102AB00020E041E050E066E176E0809192030E94E0
:102AC00049148823E9F01092C4051092C3051092AE
:102AD000C6051092C5051092D8051092D705109220
:102AE000DA051092D905109218060F900F90DF9119
:102AF000CF911F910F91FF90EF90DF90CF900895AD
:102B00008A81833000F78093180683E08983CC2480
:102B1000C394D12CCE0102967C0110E000E030E09D
:102B200020E041E050E0BE016F5F7F4F8091920353
:102B30000E9449148A818F701092C3058093C40546
:102B400084E0898330E020E041E050E0BE016F5F27
:102B50007F4F809192030E9449142A818091C3057E
:102B60009091C405822B9093C4058093C30585E0A2
:102B7000898330E020E041E050E0BE016F5F7F4F8D
:102B8000809192030E9449148A818F701092D70518
:102B90008093D80586E0898330E020E041E050E072
:102BA000BE016F5F7F4F809192030E9449142A817A
:102BB0008091D7059091D805822B9093D80580936A
:102BC000D70589E0898330E020E041E050E0BE0194
:102BD0006F5F7F4F809192030E9449148A818F70AA
:102BE0001092C5058093C6058AE0898330E020E015
:102BF00041E050E0BE016F5F7F4F809192030E94E1
:102C000049142A818091C5059091C605822B909325
:102C1000C6058093C5058BE0898330E020E041E064
:102C200050E0BE016F5F7F4F809192030E94491474
:102C30008A818F701092D9058093DA058CE08983A0
:102C400030E020E041E050E0BE016F5F7F4F8091B7
:102C500092030E9449142A818091D9059091DA0546
:102C6000822B9093DA058093D9053FCF84B183609E
:102C700084B98AB18C6F8AB988B18F6488B987B1F9
:102C80008F6487B90E94720E4FEF6FEF8FEF0E9433
:102C9000C40E90936D0480936C044FEF60E080E06D
:102CA0000E94C40E90933A068093390640E060E09B
:102CB00080E00E94C40E90932A068093290640E08B
:102CC00060E08FEF0E94C40E90936F0480936E04B7
:102CD0000E944D090E94D1098AE20E9444140E9478
:102CE00007150091390610913A062FE331E04FEEB7
:102CF00050E070E060E090E080E00E94120E0091F1
:102D00006C0410916D0424E130E04CED50E06AE079
:102D100070E08AE090E00E94120E00916C04109125
:102D20006D0428E230E04CED50E06EE170E08AE0A6
:102D300090E00E94120E00916C0410916D042CE33F
:102D400030E04CED50E062E370E08AE090E00E94F9
:102D5000120E00916C0410916D0420E530E04CEDF2
:102D600050E066E470E08AE090E00E94120E00916C
:102D70006C0410916D0428EC30E04AEA50E064E6FF
:102D800070E086E490E00E94120E80E095E1A8E0F9
:102D9000B2E48093DB059093DC05A093DD05B0934E
:102DA000DE0587E094E9ACEEB2EC8093F3059093F6
:102DB000F405A093F505B093F6056BE972E088EF92
:102DC00095E00E94CF1B48ED50E063EB72E083E991
:102DD00093E00E94D61BD0E0C0E083E397E0019728
:102DE000F1F72196CF30D105B1F40E94570D0E9422
:102DF00042150E94B8080E9494030E9442150E9446
:102E0000B8080E9479040E9442150E94B8080E94E6
:102E10005907D0E0C0E00E9442150E94B808DDCFFB
:102E20005058BB27AA270E9428170C94CD190E943E
:102E3000941938F00E949B1920F039F49F3F19F43F
:102E400026F40C946A190EF4E095E7FB0C945619DD
:102E5000E92F0E94F21958F3BA1762077307840723
:102E6000950720F079F4A6F50C94141A0EF4E09569
:102E70000B2EBA2FA02D0B01B90190010C01CA0134
:102E8000A0011124FF27591B99F0593F50F4503EDF
:102E900068F11A16F040A22F232F342F4427585FD1
:102EA000F3CF469537952795A795F0405395C9F7E9
:102EB0007EF41F16BA0B620B730B840BBAF09150A1
:102EC000A1F0FF0FBB1F661F771F881FC2F70EC040
:102ED000BA0F621F731F841F48F487957795679513
:102EE000B795F7959E3F08F0B0CF9395880F08F0FF
:102EF0009927EE0F9795879508950E94941960F091
:102F000080E891E009F49EEF0E949B1928F040E8C8
:102F100051E071F45EEF0CC00C946A190C94141A11
:102F2000E92FE0780E94F21940F3092E052AB1F347
:102F3000261737074807590738F00E2E07F8E025FF
:102F400069F0E025E0640AC0EF6307F8009407FA2F
:102F5000DB01B9019D01DC01CA01AD01EF930E94C3
:102F600010180E94CD190E94C0175F91552339F0A7
:102F70002BED3FE049E450FD49EC0C941117089506
:102F8000DF93DD27B92FBF7740E85FE316161706FA
:102F900048075B0718F4D92F0E94201A9F938F933C
:102FA0007F936F930E94E31AE8E6F0E00E946D19A8
:102FB0000E94CD192F913F914F915F910E943B1A32
:102FC000DD2351F09058A2EA2AED3FE049EC5FE39F
:102FD000D0785D270E942817DF910C94CD190E94AC
:102FE000321908F481E008950E94A419E3950C9425
:102FF000DE190E940D180C94CD190E949B1958F0EF
:103000000E94941940F029F45F3F29F00C9456195E
:1030100051110C94151A0C946A190E94F21968F354
:103020009923B1F3552391F3951B550BBB27AA2781
:1030300062177307840738F09F5F5F4F220F331FBB
:10304000441FAA1FA9F335D00E2E3AF0E0E832D083
:1030500091505040E695001CCAF72BD0FE2F29D086
:10306000660F771F881FBB1F261737074807AB0758
:10307000B0E809F0BB0B802DBF01FF2793585F4FCD
:103080003AF09E3F510578F00C9456190C94151A9D
:103090005F3FE4F3983ED4F3869577956795B795AF
:1030A000F7959F5FC9F7880F911D9695879597F9BA
:1030B0000895E1E0660F771F881FBB1F6217730733
:1030C0008407BA0720F0621B730B840BBA0BEE1F48
:1030D00088F7E09508950E9472186894B1110C94D5
:1030E000151A08950E94FA1988F09F5798F0B92F81
:1030F0009927B751B0F0E1F0660F771F881F991F2D
:103100001AF0BA95C9F714C0B13091F00E94141AA0
:10311000B1E008950C94141A672F782F8827B85FB0
:1031200039F0B93FCCF3869577956795B395D9F784
:103130003EF490958095709561957F4F8F4F9F4F8E
:103140000895E89409C097FB3EF49095809570959A
:1031500061957F4F8F4F9F4F9923A9F0F92F96E9E3
:10316000BB279395F695879577956795B795F11158
:10317000F8CFFAF4BB0F11F460FF1BC06F5F7F4FF5
:103180008F4F9F4F16C0882311F096E911C0772307
:1031900021F09EE8872F762F05C0662371F096E810
:1031A000862F70E060E02AF09A95660F771F881FDF
:1031B000DAF7880F9695879597F908950E949419E4
:1031C00020F019F00E949B1950F40C946A190C9489
:1031D000151AE92F0E94F21988F35523B1F3E7FB82
:1031E0006217730784079507A8F189F3E92FFF2772
:1031F00088232AF03197660F771F881FDAF7952FFB
:103200005527442332F091505040220F331F441F62
:10321000D2F7BB27E91BF50B621B730B840BB109BB
:10322000B1F222F4620F731F841FB11D31972AF08F
:10323000660F771F881FBB1FEFCF9150504062F081
:1032400041F0882332F0660F771F881F915050405D
:10325000C1F793950C945C198695779567959F5F58
:10326000D9F7F7CF990F0008550FAA0BE0E8FEEF4A
:1032700016161706E807F907C0F012161306E4073A
:10328000F50798F0621B730B840B950B39F40A2633
:1032900061F0232B242B252B21F408950A2609F411
:1032A000A140A6958FEF811D811D089597F99F6715
:1032B00080E870E060E008959F3F31F0915020F485
:1032C000879577956795B795880F911D9695879502
:1032D00097F908959FEF80EC0895DF93CF931F93A4
:1032E0000F93FF92EF92DF927B018C01689406C0EE
:1032F000DA2EEF010E943B1AFE01E894A591259178
:10330000359145915591A6F3EF010E942817FE01D2
:103310009701A801DA9469F7DF90EF90FF900F9181
:103320001F91CF91DF91089500240A941616170675
:1033300018060906089500240A94121613061406A6
:10334000050608950C946A190E94FA19D8F3E894B6
:10335000E0E0BB279F57F0F02AED3FE049EC06C0C4
:10336000EE0FBB0F661F771F881F28F0B23A620767
:103370007307840728F0B25A620B730B840BE39532
:103380009A9572F7803830F49A95BB0F661F771FB5
:10339000881FD2F790480C945E19092E0394000CF4
:1033A00011F4882352F0BB0F40F4BF2B11F460FFDF
:1033B00004C06F5F7F4F8F4F9F4F0895EF93E0FFE3
:1033C00007C0A2EA2AED3FE049EC5FEB0E94281714
:1033D0000E94CD190F90039401FC9058E5E9F0E0AC
:1033E0000C94EE1A57FD9058440F551F59F05F3F4B
:1033F00071F04795880F97FB991F61F09F3F79F017
:1034000087950895121613061406551FF2CF469598
:10341000F1DF08C0161617061806991FF1CF86951A
:103420007105610508940895E894BB2766277727FE
:10343000CB0197F908950E94321908F48FEF08958F
:103440009B01AC0160E070E080E89FE30C94F91709
:103450000E943B1A0C94CD190E94941938F00E94D6
:103460009B1920F0952311F00C9456190C946A19AD
:1034700011240C94151A0E94F21970F3959FC1F350
:10348000950F50E0551F629FF001729FBB27F00D12
:10349000B11D639FAA27F00DB11DAA1F649F662767
:1034A000B00DA11D661F829F2227B00DA11D621FB6
:1034B000739FB00DA11D621F839FA00D611D221F70
:1034C000749F3327A00D611D231F849F600D211D54
:1034D000822F762F6A2F11249F5750409AF0F1F0D7
:1034E00088234AF0EE0FFF1FBB1F661F771F881F40
:1034F00091505040A9F79E3F510580F00C94561909
:103500000C94151A5F3FE4F3983ED4F386957795B3
:103510006795B795F795E7959F5FC1F7FE2B880FE5
:10352000911D9695879597F908959F930E94A419E8
:103530000F9007FCEE5F0C94DE1919F416F40C944E
:103540006A190C945C190E94FA19B8F39923C9F30B
:10355000B6F39F57550B87FF0E94E71A0024A0E699
:1035600040EA900180585695979528F4805C660F44
:10357000771F881F20F026173707480730F4621B93
:10358000730B840B202931294A2BA6951794079495
:10359000202531254A2758F7660F771F881F20F00E
:1035A00026173707480730F4620B730B840B200D86
:1035B000311D411DA09581F7B901842F9158880FC5
:1035C0009695879508959B01AC010C94281A91500B
:1035D0005040660F771F881FD2F708959F938F93EF
:1035E0007F936F93FF93EF939B01AC010E94281A86
:1035F000EF91FF910E946D192F913F914F915F9133
:103600000C94281AA1E21A2EAA1BBB1BFD010DC0A7
:10361000AA1FBB1FEE1FFF1FA217B307E407F50782
:1036200020F0A21BB30BE40BF50B661F771F881F5E
:10363000991F1A9469F760957095809590959B01F4
:10364000AC01BD01CF010895052E97FB1EF4009437
:103650000E943B1B57FD07D00E94021B07FC03D0B2
:103660004EF40C943B1B50954095309521953F4F5F
:103670004F4F5F4F089590958095709561957F4F5E
:103680008F4F9F4F0895A29FB001B39FC001A39F8A
:10369000700D811D1124911DB29F700D811D11248B
:1036A000911D08950E94431BA59F900DB49F900DFE
:1036B000A49F800D911D11240895EF920F931F93E5
:1036C000CF93DF93E80134E047FD34E1042E000C92
:1036D000550B57FF03C0519541955109E32E022F19
:1036E000242FAE010E94171ECE01DF91CF911F91B2
:1036F0000F91EF900895662777270C94791FFC01AE
:1037000088279927E89421912032E9F3293010F095
:103710002E30C8F32B3241F02D3239F4689404C0B6
:103720000E94141C820F911D219120532A30C0F356
:103730001EF4909581959F4F08951F93FC01992742
:103740008827BC01E89411911032E9F3193010F088
:103750001E30C8F31B3251F01D3249F4689406C084
:103760000E94FF1B610F711D811D911D119110534E
:103770001A30B0F33EF490958095709561957F4F27
:103780008F4F9F4F1F910895FC018191861721F063
:103790008823D9F7992708953197CF010895FB0120
:1037A000DC0101900D920020E1F70895FB01DC019E
:1037B0004150504048F001900D920020C9F701C0DF
:1037C0001D9241505040E0F70895FB01519155235F
:1037D000A9F0BF01DC014D9145174111E1F759F402
:1037E000CD010190002049F04D9140154111C9F3E0
:1037F000FB014111EFCF81E090E001970895592F2F
:10380000482F372F262F660F771F881F991F660FA7
:10381000771F881F991F620F731F841F951F660FE4
:10382000771F881F991F08957AE0979F902D879F93
:10383000802D910D11240895AEE0B0E0E2E2FCE1AC
:103840000C9465220D891E898F89988D26E02C8322
:103850001A83098397FF02C080E090E801979E8356
:103860008D83AE01455E5F4F698D7A8DCE010196E5
:103870000E944C1C4D815E8157FD0AC02F81388506
:10388000421753070CF49A01020F131FF80110821C
:103890002E96E4E00C948122ABE0B0E0E2E5FCE19E
:1038A0000C9457227C013B018A01FC01178216828D
:1038B000838181FFB9C19AE0292ECE0101965C0176
:1038C000F7019381F30193FD859193FF81913F016E
:1038D000882309F446C1853239F493FD859193FF1D
:1038E00081913F01853229F4B70190E00E94C62101
:1038F000E7CF912C412C512CFFE1F51538F08B329C
:1039000009F188F4803201F1833221F157FC3AC089
:1039100020ED280F2A3040F556FE1FC0929C200D46
:103920001124922E06C08D3291F0803379F768947D
:1039300050F8F30193FD859193FF81913F0181112F
:10394000DBCF20C0689451F8689452F8F2CF6894A5
:1039500053F8EFCF689454F8ECCF429C200D11241B
:10396000422E689455F8E5CF8E3229F456FCF9C002
:10397000689456F8DECF8C3619F4689457F8D9CF8E
:103980008836B9F2982F9F7D95549330C0F08336D6
:10399000A1F18337C1F1833509F05BC0F801C19013
:1039A000D1908F01692D70E056FC02C06FEF7FEF60
:1039B000C6010E94B0214C01689457F80AC00C5F00
:1039C0001F4F2FE3298388248394912C6501E89469
:1039D00057F853FC04C04814190409F018F5342CA6
:1039E0008114910431F5332009F46ACFB70180E2E4
:1039F00090E00E94C6213A94F6CFF8018081898335
:103A00000E5F1F4FE0CFF801C190D1908F01692D5B
:103A100070E056FC02C06FEF7FEFC6010E94BB2131
:103A20004C01D5CFB70180E290E00E94C6214A94B4
:103A3000D2CFF60157FC859157FE81916F01B701F6
:103A400090E00E94C62131103A94F1E08F1A91085B
:103A5000C7CF843619F0893609F074C0F80157FED3
:103A60006AC061917191819191918F01252D2F767D
:103A7000D22E97FF09C090958095709561957F4FE4
:103A80008F4F9F4F6894D7F82AE030E0A5010E943D
:103A9000F621C82ECA188C2C5D2CD6FE0CC0E894DA
:103AA00050F8C91440F4D4FE05C0D2FC03C0FD2D6B
:103AB000FE7E5F2E892C54FE8FC0FE01EC0DF11DA1
:103AC0008081803309F081C0252D297E522E852DDD
:103AD0008870382E53FC8FC050FE89C09C2C8414F3
:103AE00018F44C0C942C981854FE8BC0B70180E34A
:103AF00090E00E94C62152FE09C088E790E051FE86
:103B000002C088E590E0B7010E94C621C91408F4FC
:103B100084C0CA94D12C9FEFC91AD90ACA0CDB1CE5
:103B2000F60182916F01B70190E00E94C621AC14AA
:103B3000BD04B1F758CF61917191072E000C880B2D
:103B4000990B93CFD52CE894D4F82AE030E0853750
:103B500039F1952D997FD92E8F3601F148F48835AA
:103B6000A9F0F701868197812B96E2E10C947322EC
:103B7000803749F08837A9F7D4FE02C06894D2F89C
:103B800020E130E00DC06894D4F8F6CF54FE03C0B5
:103B9000E92FE660DE2E20E132E002C028E030E0CE
:103BA000F801D7FE0DC061917191819191918F01C2
:103BB000A5010E94F621C82ECA18E894D7F86BCF49
:103BC0006191719190E080E0F2CF52FC02C0839449
:103BD0007ECF839483947BCF852D867809F477CF2D
:103BE000F6CFB70180E290E00E94C621839484144E
:103BF000C0F3312C79CF342C3818841408F474CFE6
:103C0000F8CF852D867809F481CF8BE251FE80E2D2
:103C100057FC8DE2B70190E077CFB70180E390E0E9
:103C20000E94C6219A9472CF8FEF9FEF9DCFA9E09B
:103C3000B0E0EDE1FEE10C945D226A01F22EB02EBF
:103C4000102F0BE30B1508F41BE31F5F012F27E078
:103C5000AE014F5F5F4F0E94B720BC018981982F52
:103C600099709130C9F19BE2E1FC04C09E2D9170E6
:103C7000E0FC90E25E2D5071E82FE87083FF48C0B1
:103C800083E0911184E0EF2DE81B8F1508F0E0E050
:103C9000552371F1992319F0D6019D936D01C60149
:103CA0000396E2FE29C02EE4D6012C9331E411964E
:103CB0003C93119712962C932E2F382F492F50E2B8
:103CC00021111FC0E80FF92FF11D10828EEF9FEF19
:103CD0002996ECE00C9479229DE2CCCFD9014D934A
:103CE00081509D018111FACFCE0ED11CE0E0D2CFE0
:103CF0008E2F960140E2F6CF2EE6D6012C9331E6C8
:103D0000D6CFA32FB42F5D9321503A2F4B2FD8CF6E
:103D1000482F447082FF41C083E0911184E08F15E9
:103D200010F4EF2DE81B552359F1992319F0D60112
:103D30009D936D01C6010396E2FE26C029E4D601DB
:103D40002C932EE411962C93119726E412962C9323
:103D50002E2F382F492F50E2222309F4B3CFA32F5F
:103D6000B42F5D9321503A2F4B2FF6CFD9014D93AD
:103D700081509D018111FACFCE0ED11CE0E0D5CF4C
:103D80008E2F960140E2F6CF29E6D6012C932EE63F
:103D900011962C93119726E6D9CF9B0177FF02C08D
:103DA00030E020E0A1E0B0E0911102C0B0E0A0E07E
:103DB000F9013196AE0FBF1F8B2C912CBB20F1F077
:103DC0005401EFEFAE1ABE0AAA0DBB1DFA161B0670
:103DD00019F014F04F2D4A1B511145C0E3FC08C0E7
:103DE0007601A42FB0E2A1110CC0C40ED11C40E09A
:103DF00091113BC0D601942F50E30AC0B12CA12CE5
:103E0000E3CFF701B1937F01A150EDCF5D939150C6
:103E10009111FCCFC40ED11C40E02DC001E03AC08E
:103E200050E354C06217730739F4A63320F4A53366
:103E300019F4B11101C051E3D6015C93242F382F3E
:103E4000592F60E2211108C0480F592F511DFA0166
:103E5000108290E080E03CCFE32FF52F619321505A
:103E60003E2F5F2FEFCF992331F0D6019D936D0147
:103E7000552309F4BFCF012F060FAA81B82FB071C7
:103E800084FF03C0A13309F4015010163CF6093039
:103E900008F008E0FB01E01BF1098F01EE24FF248C
:103EA000E818F9088EE2B82E621773070CF4B8CF41
:103EB000021713070CF0B4CFFB01E21BF30B81E0F8
:103EC00090E08C0F9D1FE80FF91F5181215031099F
:103ED000C60101962E153F050CF4A4CFF6015083C0
:103EE0002F3F320721F4C6010296F601B1826C0120
:103EF000DBCFB0E0A0E0EFE7FFE10C945D227C01B6
:103F00006B016115710519F0FB0191838083E70155
:103F10000991802F90E00E948F215C01892BB1F5DF
:103F20000D32B1F50881E701229611E07E01F1E042
:103F3000EF1AF10843E050E06CEB70E0C7010E941B
:103F40009821892B61F57E0182E0E80EF11C45E0A5
:103F500050E067EB70E0C7010E949821892B21F4A3
:103F60007E0197E0E90EF11CC114D10419F0F601AD
:103F7000F182E08260E070E080E89FE7112309F4BD
:103F8000F1C060E070E080E89FEFECC07E01BFCF41
:103F90000B3219F40881E701229610E0C7CF43E005
:103FA00050E064EB70E0C7010E949821892B61F416
:103FB000C114D10421F02296F601D183C08360E0C0
:103FC00070E080EC9FE7CEC0F12CE12C20E030E0E7
:103FD000A901F0EDF00FFA3058F5E12FE260812FE2
:103FE000887012FF08C0811103C0FFEFEF1AFF0AAB
:103FF00009911E2FEECF882319F081E0E81AF1080D
:10400000A5E0B0E00E94521B9B01AC01220F331FC0
:10401000441F551F2F0F311D411D511D283999E98E
:104020003907490799E1590718F3E12FE660E0CF16
:10403000FE3F29F413FD3AC0E12FE860D9CF0F7D90
:104040000534A1F588818D3241F41061BE016E5FA7
:104050007F4F8981E2E0F0E007C0BE018B32B9F307
:104060006F5F7F4FE1E0F0E08053EB01CE1BDF0B91
:104070008A30E0F4E0E8AE16ECE0BE065CF4F50150
:10408000EE0FFF1FEE0FFF1FAE0EBF1EAA0CBB1CD4
:10409000A80EB11CEB01899180538A3090F114FF76
:1040A00003C0B194A194B108EA0CFB1C11FF07C036
:1040B000C114D10421F02197F601D183C083CA0134
:1040C000B9010E94A1181370133009F490584B01E4
:1040D0005C0120E030E0A9010E94EF17882309F479
:1040E0003FC0CBEED0E0F7FE05C0F194E194F108BB
:1040F000C3EDD0E06E01F8E1CF1AD10800E210E084
:104100000FC0BE01B7CFFE01259135914591549165
:10411000E01AF10AC501B4010E94281A4B015C01A2
:10412000D501C401E016F10674F72497159507959B
:10413000CC15DD05A9F78A2F880F8B2F881F8F3F9D
:1041400049F020E030E0A901C501B4010E94EF1759
:10415000811106C082E290E090934207809341076C
:10416000C501B401CDB7DEB7ECE00C94792228305C
:1041700008F027E03327DA01990F311D87FD9160A0
:1041800000966105710539F432602E5F3D9330E38E
:104190002A95E1F708959F3F30F080387105610559
:1041A00009F03C5F3C5F3D93913008F08068911DC1
:1041B000DF93CF931F930F93FF92EF92192F987F66
:1041C0009695E92F96959695E90FFF27E75BFE4FA9
:1041D00099273327EE24FF24A701E70105900894CF
:1041E000079428F4360FE71EF81E491F511D660F6D
:1041F000771F881F991F0694A1F70590079428F44C
:10420000E70EF81E491F561FC11D770F881F991F03
:10421000661F0694A1F70590079428F4F80E491F2D
:10422000561FC71FD11D880F991F661F771F069441
:10423000A1F70590079420F4490F561FC71FD81FF8
:10424000990F661F771F881F0694A9F78491109510
:10425000177041F0D695C79557954795F794E79411
:104260001A95C1F7EFEEF0E068941590159135912D
:104270006591959105907FE27395E118F10A430BE2
:10428000560BC90BD009C0F7E10CF11E431F561F96
:10429000C91FD01D7EF4703311F48A95E6CFE894DF
:1042A000015030F0080F0AF40027021708F4202FFD
:1042B0002395022F7A3328F079E37D932A95E9F745
:1042C00010C07D932A9589F6069497956795379542
:1042D00017951794E118F10A430B560BC90BD00937
:1042E00098F023957E9173957A3308F070E37C9370
:1042F0002013B8F77E9170617D9330F0839571E360
:104300007D9370E32A95E1F71124EF90FF900F91D0
:104310001F91CF91DF91992787FD90950895911175
:104320000C945422803219F089508550C8F70895B2
:10433000FB01DC014150504088F08D9181341CF02C
:104340008B350CF4805E659161341CF06B350CF498
:10435000605E861B611171F3990B0895881BFCCF79
:10436000FC010590615070400110D8F78095909540
:104370008E0F9F1F0895FC01615070400190011045
:10438000D8F7809590958E0F9F1F08950F931F93D8
:10439000CF93DF93182F092FEB018B8181FD09C08B
:1043A0001FEF0FEF812F902FDF91CF911F910F9172
:1043B000089582FF14C02E813F818C819D81281732
:1043C00039073CF4E881F981CF010196998388830C
:1043D00010838E819F8101969F838E83E3CFE88532
:1043E000F985812F0995892BA1F3DACFFA01AA2744
:1043F000283051F1203181F1E8946F936E7F6E5F28
:104400007F4F8F4F9F4FAF4FB1E03ED0B4E03CD0D5
:10441000670F781F891F9A1FA11D680F791F8A1FB8
:10442000911DA11D6A0F711D811D911DA11D20D01F
:1044300009F468943F912AE0269F11243019305DD9
:104440003193DEF6CF010895462F4770405D4193CA
:10445000B3E00FD0C9F7F6CF462F4F70405D4A3317
:1044600018F0495D31FD4052419302D0A9F7EACFDF
:10447000B4E0A6959795879577956795BA95C9F70E
:1044800000976105710508959B01AC010A2E069401
:104490005795479537952795BA95C9F7620F731FBA
:1044A000841F951FA01D08959927882708952F928E
:1044B0003F924F925F926F927F928F929F92AF92B4
:1044C000BF92CF92DF92EF92FF920F931F93CF9301
:1044D000DF93CDB7DEB7CA1BDB0B0FB6F894DEBF98
:1044E0000FBECDBF09942A88398848885F846E84BE
:1044F0007D848C849B84AA84B984C884DF80EE8008
:10450000FD800C811B81AA81B981CE0FD11D0FB610
:10451000F894DEBF0FBECDBFED010895F894FFCF34
:104520003200000000FF00FFFFFF0000FF00FFFF60
:1045300000FF00FF0000FF00FFFF44617465546945
:104540006D653A2025752D25752D25752025753A23
:1045500025753A2575200D0A4669783A2025642C80
:1045600020466978207175616C6974793A202575E7
:104570002C204E756D20536174656C6C6974657385
:104580003A2025750D0A004461746554696D653AD9
:104590002025752D25752D25752025753A25753A0B
:1045A0002575200D0A4C6F636174696F6E3A202582
:1045B000632025732C2025632025730D0A46697816
:1045C0003A2025642C20466978207175616C6974E5
:1045D000793A2025752C204E756D20536174656CD9
:1045E0006C697465733A2025750D0A004520004EEC
:1045F00045004E20004E57005720005357005320CF
:1046000000534500476F616C206C6F633A2025733F
:104610002C2025730D0A43757272656E743A20253D
:10462000732C2025730D0A446972656374696F6E7B
:104630003A2025732025730D0A44697374616E63F3
:10464000653A20257320666565740D0A0046657419
:104650006368696E672047505320444154412E2EB1
:104660002E2E2E00476F616C3A20202020202573CB
:104670002C2025730043757272656E743A202025D4
:10468000732C2025730044697374616E63653A204E
:1046900025732025732066656574006E756D206F27
:1046A0006620746F75636865733A20256900706FC2
:1046B000696E743A2025692025690056697465720F
:1046C000626920452D7175616420466F756E746155
:1046D000696E005468697320697320612074657382
:1046E00074206D65737361676520666F72206472F4
:1046F000617750617261677261706828292E204964
:104700006620746865726520697320656E6F7567D1
:1047100068206D656D6F72792073706163652C2000
:1047200077652063616E20757365207468697320F6
:1047300066756E6374696F6E20746F206469737040
:104740006C617920736F6D652073686F7274206976
:104750006E666F206F662074686520676F616C20DD
:104760006C6F636174696F6E2E20546865206D6193
:1047700078206C656E6774682069732036206C69D8
:104780006E657320776974682033362063686172C0
:1047900020696E2065616368206C696E650024473E
:0C47A0005047474100244750524D430051
:00000001FF
