:100000000C94D2020C94EF020C94EF020C94EF02C9
:100010000C94EF020C94EF020C94EF020C94EF029C
:100020000C94EF020C94EF020C94EF020C94EF028C
:100030000C94EF020C94EF020C94EF020C94EF027C
:100040000C94EF020C94EF020C94EF020C94EF026C
:100050000C94EF020C94EF020C94EF020C94EF025C
:100060000C94EF020C94EF024E414E494E49545904
:10007000494E46CDCCCC3D0AD7233C17B7D1387773
:10008000CC2B329595E6241FB14F0A000020410089
:1000900000C84200401C4620BCBE4CCA1B0E5AAED3
:1000A000C59D7400000000003E5B4F5B3E3E6B4F01
:1000B0006B3E1C3E7C3E1C183C7E3C181C577D57FA
:1000C0001C1C5E7F5E1C00183C1800FFE7C3E7FFA6
:1000D0000018241800FFE7DBE7FF30483A060E2639
:1000E00029792926407F050507407F05253F5A3C91
:1000F000E73C5A7F3E1C1C08081C1C3E7F14227FD4
:1001000022145F5F005F5F06097F017F00668995AB
:100110006A606060606094A2FFA29408047E040894
:1001200010207E201008082A1C08081C2A08081E17
:10013000101010100C1E0C1E0C30383E3830060EFD
:100140003E0E06000000000000005F0000000700F7
:100150000700147F147F14242A7F2A1223130864B3
:100160006236495620500008070300001C22410057
:100170000041221C002A1C7F1C2A08083E08080097
:100180008070300008080808080000606000201037
:100190000804023E5149453E00427F4000724949F1
:1001A00049462141494D331814127F1027454545D2
:1001B000393C4A49493141211109073649494936F3
:1001C000464949291E000014000000403400000088
:1001D00008142241141414141400412214080201BA
:1001E0005909063E415D594E7C1211127C7F4949E6
:1001F00049363E414141227F4141413E7F49494983
:10020000417F090909013E414151737F0808087F78
:1002100000417F41002040413F017F081422417F7F
:10022000404040407F021C027F7F0408107F3E4117
:1002300041413E7F090909063E4151215E7F09196E
:100240002946264949493203017F01033F40404086
:100250003F1F2040201F3F4038403F631408146375
:1002600003047804036159494D43007F4141410231
:1002700004081020004141417F0402010204404073
:10028000404040000307080020545478407F284431
:1002900044383844444428384444287F385454541B
:1002A0001800087E090218A4A49C787F080404782A
:1002B00000447D40002040403D007F102844000065
:1002C000417F40007C047804787C0804047838443A
:1002D000444438FC1824241818242418FC7C0804EE
:1002E0000408485454542404043F44243C4040200F
:1002F0007C1C2040201C3C4030403C4428102844BA
:100300004C9090907C4464544C440008364100006A
:1003100000770000004136080002010204023C267A
:1003200023263C1EA1A161123A4040207A38545441
:1003300055592155557941225454784221555478C4
:100340004020545579400C1E52721239555555595A
:10035000395454545939555454580000457C41007F
:1003600002457D420001457C407D1211127DF0283E
:100370002528F07C545545002054547C547C0A09AF
:100380007F4932494949323A4444443A324A48481A
:10039000303A4141217A3A42402078009DA0A07D28
:1003A0003D4242423D3D4040403D3C24FF242448E4
:1003B0007E4943662B2FFC2F2BFF0929F620C0888E
:1003C0007E090320545479410000447D413048485F
:1003D0004A32384040227A007A0A0A727D0D193179
:1003E0007D2629292F28262929292630484D4020D5
:1003F000380808080808080808382F10C8ACBA2FB1
:10040000102834FA00007B000008142A1422221459
:100410002A14085500550055AA55AA55AAFF55FF9C
:1004200055FF000000FF00101010FF00141414FF0F
:10043000001010FF00FF1010F010F0141414FC0056
:100440001414F700FF0000FF00FF1414F404FC1460
:100450001417101F10101F101F1414141F00101059
:1004600010F0000000001F101010101F10101010CE
:10047000F010000000FF101010101010101010FFEE
:1004800010000000FF140000FF00FF00001F101705
:100490000000FC04F414141710171414F404F400EE
:1004A00000FF00F714141414141414F700F71414B4
:1004B00014171410101F101F141414F4141010F03B
:1004C00010F000001F101F0000001F14000000FCAF
:1004D000140000F010F01010FF10FF141414FF149B
:1004E0001010101F00000000F010FFFFFFFFFFF0D2
:1004F000F0F0F0F0FFFFFF0000000000FFFF0F0F23
:100500000F0F0F3844443844FC4A4A4A347E0202F2
:100510000606027E027E0263554941633844443C2C
:1005200004407E201E2006027E020299A5E7A599BE
:100530001C2A492A1C4C7201724C304A4D4D3030F5
:1005400048784830BC625A463D3E494949007E01E0
:1005500001017E2A2A2A2A2A44445F444440514AFF
:10056000444040444A51400000FF0103E080FF0046
:100570000008086B6B083612362436060F090F0682
:10058000000018180000001010003040FF010100AA
:100590001F01011E00191D1712003C3C3C3C0000CD
:1005A0000000000011241FBECFEFD8E0DEBFCDBF9A
:1005B00011E0A0E0B1E0ECEFF0E302C005900D9295
:1005C000A835B107D9F725E0A8E5B1E001C01D9233
:1005D000AF30B207E1F70E94B70F0C947C180C946F
:1005E00000008FE290E09093C5008093C400E1EC9E
:1005F000F0E080818860808380818061808386E0F4
:100600008093C20008959091C00095FFFCCF809325
:10061000C60008950F931F93CF93DF938C01D0E012
:10062000C0E0F80101900020E9F73197E01BF10BE1
:10063000CE17DF0728F0DF91CF911F910F9108951A
:1006400083E397E00197F1F7F801EC0FFD1F80813C
:100650000E9403032196E5CF8091C00087FFFCCF65
:100660008091C60008950E942C038A3009F5E0911C
:10067000580120910A0530910B05E20FF32FF11D6F
:10068000108220910A0530910B0594E0253139073D
:1006900029F542E954E050930B0540930A05309345
:1006A0000404209303041092580191E090931004E5
:1006B00020910A0530910B05E091580191E09E0FC1
:1006C00090935801E20FF32FF11D80839091580110
:1006D000983718F097E790935801089525E134E092
:1006E00030930B0520930A0522E934E0D8CF10920D
:1006F0001004109202041092580185E194E0909346
:100700000B0580930A0582E994E09093040480939A
:10071000030410928D041092090410929104109217
:100720000A041092900410928E0410920B041092FE
:1007300013041092140410920C0510928F0410925E
:1007400012041092110408958091100408951092DB
:10075000100480910304909104040895803354F0B0
:100760008A3314F4805308959FEB980F963010F459
:100770008753089580E008954F925F926F927F9221
:100780008F929F92AF92BF92CF92DF92EF92FF92A1
:100790000F931F93CF93DF93CDB7DEB72A970FB692
:1007A000F894DEBF0FBECDBF7C01FC01019000209C
:1007B000E9F73197E81BF90B6F0184E0C81AD108FB
:1007C000D701AC0DBD1D8C918A3209F03FC0870165
:1007D0000E0F1F1FF801339780810E94AE0390E136
:1007E000899F50011124F801329780810E94AE0345
:1007F0008A0D9B2D911D42E0242F30E02C153D05E4
:10080000D0F0892B19F180E02A960FB6F894DEBF5C
:100810000FBECDBFDF91CF911F910F91FF90EF9051
:10082000DF90CF90BF90AF909F908F907F906F9010
:100830005F904F9008952E0D3F1DF9012081022EEB
:10084000000C330B822793274F5FD6CF69E471E00A
:10085000C7010E94E413892B09F44FC16CE270E0D8
:10086000C7010E94CA138C010F5F1F4FC8010E946D
:1008700081136B017C010E949A112B013C0120E144
:1008800037E240E050E00E9426132093130444E630
:10089000842E912CA12CB12CA50194010E94261329
:1008A00020930B04C301B201A50194010E942613F9
:1008B00060938E0420E030E040E85FE3C701B601BA
:1008C0000E94111220E030E04AE754E40E94B9127D
:1008D0000E949A1170931204609311046CE270E00C
:1008E000C8010E94CA137C018C010F5F1F4FFC01DD
:1008F00081818C3209F455C042E050E0B801CE014C
:1009000001960E94D5131B82CE0101960E94A3136B
:100910004B015C01B7016D5F7F4F42E050E0CE01BB
:1009200001960E94D5130B5F1F4F44E050E0B801C1
:10093000CE0103960E94D5131F82CE0101960E941C
:10094000A3139B01AC01A2E3B0E00E94761323E065
:1009500030E040E050E00E944813CA01B9010E9413
:10096000CB112CE933E549EC56E30E94B91220E0A3
:1009700030E040E752E40E9428116B017C01C50180
:10098000B4010E94CB119B01AC01C701B6010E94CA
:10099000BC10609305047093060480930704909341
:1009A00008046CE270E0C8010E94CA139C012F5F2A
:1009B0003F4FFC0191819C3229F09E3409F08FC099
:1009C00090930C056CE270E0C9010E94CA137C018F
:1009D0008C010F5F1F4FFC0181818C3209F455C0DF
:1009E00043E050E0B801CE0101960E94D5131C826D
:1009F000CE0101960E94A3134B015C01B7016C5F0D
:100A00007F4F42E050E0CE0101960E94D5130A5F6D
:100A10001F4F44E050E0B801CE0103960E94D51369
:100A20001F82CE0101960E94A3139B01AC01A2E399
:100A3000B0E00E94761323E030E040E050E00E94F6
:100A40004813CA01B9010E94CB112CE933E549ECE6
:100A500056E30E94B91220E030E040E752E40E94E1
:100A600028116B017C01C501B4010E94CB119B01CF
:100A7000AC01C701B6010E94BC1060930C047093D6
:100A80000D0480930E0490930F046CE270E0C80193
:100A90000E94CA13FC0191819C3221F0973519F50F
:100AA000909314046CE270E0CF0101960E94CA1387
:100AB0008C010F5F1F4FFC0181818C3229F0C8012E
:100AC0000E948513809309046CE270E0C8010E94C3
:100AD000CA13FC0121812C3251F481E095CE93356B
:100AE00009F091CE6DCF953409F08DCED9CF019616
:100AF0000E94851380938D04F0CF60E571E0C701FB
:100B00000E94E413892B09F47ECE6CE270E0C701E9
:100B10000E94CA138C010F5F1F4FC8010E948113EE
:100B20006B017C010E949A112B013C0120E137E20C
:100B300040E050E00E9426132093130434E6832EF5
:100B4000912CA12CB12CA50194010E942613209375
:100B50000B04C301B201A50194010E942613609306
:100B60008E0420E030E040E85FE3C701B6010E9458
:100B7000111220E030E04AE754E40E94B9120E94CA
:100B80009A1170931204609311046CE270E0C80132
:100B90000E94CA13FC012181213409F020C121E007
:100BA00020938F046CE270E001960E94CA137C01CE
:100BB0008C010F5F1F4FFC0181818C3209F455C0FD
:100BC00042E050E0B801CE0101960E94D5131B828D
:100BD000CE0101960E94A3134B015C01B7016D5F2A
:100BE0007F4F42E050E0CE0101960E94D5130B5F8B
:100BF0001F4F44E050E0B801CE0103960E94D51388
:100C00001F82CE0101960E94A3139B01AC01A2E3B7
:100C1000B0E00E94761323E030E040E050E00E9414
:100C20004813CA01B9010E94CB112CE933E549EC04
:100C300056E30E94B91220E030E040E752E40E94FF
:100C400028116B017C01C501B4010E94CB119B01ED
:100C5000AC01C701B6010E94BC10609305047093FB
:100C6000060480930704909308046CE270E0C801C6
:100C70000E94CA139C012F5F3F4FFC0191819C325F
:100C800029F09E3409F0B1C090930C056CE270E03D
:100C9000C9010E94CA137C018C010F5F1F4FFC0128
:100CA00081818C3209F455C043E050E0B801CE0197
:100CB00001960E94D5131C82CE0101960E94A313B7
:100CC0004B015C01B7016C5F7F4F42E050E0CE0109
:100CD00001960E94D5130A5F1F4F44E050E0B8010F
:100CE000CE0103960E94D5131F82CE0101960E9469
:100CF000A3139B01AC01A2E3B0E00E94761323E0B2
:100D000030E040E050E00E944813CA01B9010E945F
:100D1000CB112CE933E549EC56E30E94B91220E0EF
:100D200030E040E752E40E9428116B017C01C501CC
:100D3000B4010E94CB119B01AC01C701B6010E9416
:100D4000BC1060930C0470930D0480930E04909378
:100D50000F046CE270E0C8010E94CA13FC0191818B
:100D60009C3229F0973509F044C0909314046CE24A
:100D700070E0CF0101960E94CA136CE270E0019608
:100D80000E94CA136CE270E001960E94CA13FC0133
:100D900021812C3209F4A1CE01960E9481130E9478
:100DA0009A114B015C0120E137E240E050E00E94E3
:100DB00026132093910424E6C22ED12CE12CF12C91
:100DC000A70196010E94261320930A04C501B401CD
:100DD000A70196010E942613609390047ECE2635CB
:100DE00009F011CD10928F04DDCE933509F00BCDB3
:100DF0004BCF953409F007CDB8CF25B1982F93701C
:100E0000922B95B925B1982F9C6F922395B92BB150
:100E1000982F9C7F922B9BB99BB1836089238BB9C0
:100E20004198419A08950F931F93CF93DF93EA015E
:100E3000162F072F439842980E94FD06429A802F52
:100E40000E94FD06812F0E94FD068D2F0E94FD0647
:100E50008C2F0E94FD06439ADF91CF911F910F9135
:100E600008950F931F93CF93DF938B01E901B0E0B7
:100E7000A0E0DC019927882770E060E0482B592B1F
:100E80006A2B7B2B8AE20E941307C801B0E0A0E026
:100E9000DC0199278827AE0170E060E0482B592BD0
:100EA0006A2B7B2B8BE2DF91CF911F910F910C94DA
:100EB0001307AF92BF92CF92DF92EF92FF920F9300
:100EC0001F93CF93DF935C016B017A01E9010E94CC
:100ED0003107439842988CE20E94FD06429A97019E
:100EE0002F5F3F4F2A193B09DE011196AC19BD094E
:100EF0000E9467136B017C0181E0C81AD108E108E8
:100F0000F1088FEFC816D806E806F80661F4439A90
:100F1000DF91CF911F910F91FF90EF90DF90CF90D5
:100F2000BF90AF900895812F0E94FD06802F0E94F0
:100F3000FD06E2CF0F931F934817590760F026175D
:100F4000370748F0403F510530F42034E1E03E07D8
:100F500010F40E9459071F910F9108951F93CF938A
:100F6000DF93182FEB0143984298892F0E94FD06CA
:100F7000812F0E94FD06429A8D2F0E94FD068C2F24
:100F80000E94FD06439ADF91CF911F910895CF9360
:100F9000C62F439842980E94FD06429A8C2F0E94C9
:100FA000FD06439ACF91089588B18F6488B92FEFD9
:100FB0008FE392E0215080409040E1F700C00000B4
:100FC000469825E02A95F1F7469A4398429880E0A2
:100FD0000E94FD0683E04198419A8150E1F7439ACF
:100FE0008FEF9FE322E0815090402040E1F700C066
:100FF000000008950E94D40760E081E00E94C707C6
:101000002FEF8FE191E0215080409040E1F700C048
:10101000000060E088E20E94C70763E280EC0E9463
:10102000C70760E181EC0E94C7076BE27BE285ECB9
:1010300090E00E94AE0760EC87EC0E94C70768E86A
:1010400086E30E94C70765E58AE30E94C7076BE154
:1010500070E081EB90E00E94AE0767E087EB0E94B2
:10106000C70760E081E10E94C7072FEF8FE593E09B
:10107000215080409040E1F700C0000060E089E22C
:101080000E94C7072FEF8FE39BE0215080409040E4
:10109000E1F700C00000089598E0699FB0011124B5
:1010A000607E7770469546954695642B90E0982F24
:1010B00088278827987F862B972B08958F929F9259
:1010C000AF92BF92CF92DF92EF92FF920F931F9356
:1010D000CF93DF9382E0C82E81E0D82E9AE0E92EEC
:1010E00091E0F92E22E1A22E21E0B22ED0E0C0E064
:1010F0009E01295D3F4F4FEE50E0BE0190E080E041
:101100000E943107439842988CE20E94FD06429A61
:10111000F60141916F01F70161917F01F501819124
:101120005F010E944C08982E892E08E210EF882D4E
:101130000E94FD06892D0E94FD061150C1F7015045
:10114000A9F7439AA896C034F1E0DF0789F6DF914A
:10115000CF911F910F91FF90EF90DF90CF90BF90B4
:10116000AF909F908F900895CF93DF93EA01803FD7
:101170009105D0F4603421E07207B0F42FE331E040
:101180004FEE50E00E943107439842988CE20E9453
:10119000FD068CE20E94FD06429A8D2F0E94FD06FC
:1011A0008C2F0E94FD06439ADF91CF9108954F92B4
:1011B0005F926F927F928F929F92AF92BF92CF92E7
:1011C000DF92EF92FF920F931F93CF93DF935C0117
:1011D0003B012901803F91050CF041C0603481E062
:1011E00078070CF03CC0C50126E0029F800D911DE0
:1011F0001124181619069CF528E0029FC00111243D
:10120000860F971F1816190654F585E0489FA00110
:101210001124D0E0C0E0CA018D559F4F7C01F70139
:10122000EC0FFD1F1491D12CC12C45018C0E9D1E7D
:1012300010FF09C0013039F4A201B3016C0D7D1D0E
:10124000C4010E94B40816959FEFC91AD90A28E074
:10125000C216D10469F72196C530D10501F7DF9197
:10126000CF911F910F91FF90EF90DF90CF90BF90A3
:10127000AF909F908F907F906F905F904F90089568
:101280006F927F928F929F92AF92BF92CF92DF9296
:10129000EF92FF920F931F93CF93DF936B0159014E
:1012A0004801403F510514F520E4A21621E0B206A2
:1012B000ECF466E06C9D90016D9D300D1124240FBF
:1012C000351F1216130694F4960163E0220F331FA4
:1012D0006A95E1F72A0D3B1D121613063CF4EA014C
:1012E0007C01712C612C6C147D047CF0DF91CF911A
:1012F0001F910F91FF90EF90DF90CF90BF90AF9034
:101300009F908F907F906F900895F70141917F019A
:10131000442361F301E09401B501CE010E94D70896
:10132000FFEF6F1A7F0A2696DECF3F924F925F92B1
:101330006F927F928F929F92AF92BF92CF92DF92E5
:10134000EF92FF920F931F93CF93DF93CDB7DEB74A
:10135000A5970FB6F894DEBF0FBECDBF3C014B0181
:101360002A018EE6A82EB12CD12CC12CCE010196DB
:101370007C0195E2392EB3016C0D7D1D44E250E0F5
:1013800095E2891691042CF0C6018396881599057B
:101390002CF1C7010E94D5131DA2820195014CE0DA
:1013A00050E065E270E0C7010E944009A5960FB6C3
:1013B000F894DEBF0FBECDBFDF91CF911F910F918B
:1013C000FF90EF90DF90CF90BF90AF909F908F9065
:1013D0007F906F905F904F903F900895C7010E945B
:1013E000D5131DA2820195014CE050E065E270E04A
:1013F000C7010E944009F701832D11928A95E9F7F0
:101400009CE0A90EB11CE4E2CE0ED11CB4CF2F9209
:101410003F924F925F926F927F928F929F92AF9284
:10142000BF92CF92DF92EF92FF920F931F93CF93D1
:10143000DF9300D000D0CDB7DEB79C838B837B01D8
:101440006A0158018901061B170B17FF03C011958C
:101450000195110946018B819C81881A990A97FE92
:1014600003C0919481949108801691065CF49C2DA0
:101470008D2D6901292F382F9B818C81FC82EB8275
:10148000E92EF82E8B819C81C816D9065CF49E2D1E
:101490008F2D7901292F382F9B818C81DC82CB8283
:1014A000C92ED82E16018B819C81281A390A290150
:1014B0004E185F0857FE03C0519441945108310102
:1014C00037FE03C09FEF691A790A759467948FEF0E
:1014D0009FEFE216F30614F481E090E09A8389838B
:1014E0001BC0A5016B817C81C701801691061CF091
:1014F000B7018B819C810E94B4086418750877FE3F
:1015000006C089819A81E80EF91E620C731C8B81DA
:101510009C8101969C838B838B819C81C816D90604
:1015200004F70F900F900F900F90DF91CF911F91C4
:101530000F91FF90EF90DF90CF90BF90AF909F9072
:101540008F907F906F905F904F903F902F90089575
:101550000F931F93460F571F4150510989019A015C
:10156000AC010E94070A1F910F9108950F931F93DA
:10157000480F591F4150510989019B010E94070AD8
:101580001F910F9108952F923F924F925F926F9209
:101590007F928F929F92AF92BF92CF92DF92EF9203
:1015A000FF920F931F93CF93DF93CDB7DEB7AA9728
:1015B0000FB6F894DEBF0FBECDBF9A8389837AA79A
:1015C00069A71A0159014701D88ECF8A2617370714
:1015D0000CF076C1E616F7065CF58A149B04E4F479
:1015E0009A2D8B2D540189A49AA499A78AA7922D8C
:1015F000832D180109811A8199838A8319C099A5BD
:101600008AA5BAA6A9A6A92EB82E99818A813A825E
:101610002982292E382EE1CF99A58AA59AA689A6D6
:10162000892E982E99818A811A830983092F182F70
:1016300089819A818219930929A53AA52A193B091A
:10164000A801421953095E834D83B4016A197B09CD
:101650007A876987D80149815A81A41BB50BBE8757
:10166000AD87B401A9A5BAA56A1B7B0B7A8B698BE0
:10167000A815B90509F49AC01197BE8BAD8B8501E9
:10168000412C512C3201C12CD12C7601A901330FF0
:10169000660B770B498F5A8F6B8F7C8F29853A8524
:1016A000032E000C440B550B2D8F3E8F4F8F58A3EC
:1016B000AC01990F660B770B49A35AA36BA37CA3CC
:1016C0006D817E81072E000C880B990B6DA37EA384
:1016D0008FA398A72D893E89201731070CF06BC086
:1016E000C80149A55AA5841B950B6D857E85869FEB
:1016F0006001879FD00C969FD00C11240D2C000CFC
:10170000EE08FF08C8018A199B09AD81BE818A9F36
:1017100020018B9F500C9A9F500C1124052C000C1B
:101720006608770829893A89032E000C440B550B6B
:10173000298B3A8B4B8B5C8B49855A85052E000C87
:10174000660B770B49875A876B877C876D857E850B
:10175000072E000C880B990B6D877E878F87988BDF
:10176000CD01092E000CAA0BBB0B8D839E83AF838A
:10177000B887801691060CF060C0AA960FB6F89450
:10178000DEBF0FBECDBFDF91CF911F910F91FF90B4
:10179000EF90DF90CF90BF90AF909F908F907F9011
:1017A0006F905F904F903F902F90089549A55AA554
:1017B0005E8B4D8B64CFC701B601298D3A8D4B8D61
:1017C0005C8D0E944813C101820F931F9C838B8301
:1017D000C301B2012D8D3E8D4F8D58A10E9448133B
:1017E000220D331D49A15AA16BA17CA1C40ED51EA7
:1017F000E61EF71E6DA17EA18FA198A5460E571E6D
:10180000681E791E8B819C812817390734F49B81CF
:101810008C813C832B83292F382FA901AB81BC817C
:101820004A1B5B0B4F5F5F4F2F89388DB801CD018D
:101830000E94B60A0F5F1F4F4DCFC701B60129891D
:101840003A894B895C890E944813A981BA81A20F09
:10185000B31FBC83AB83C301B20129853A854B8595
:101860005C850E944813220D331D4D855E856F8572
:101870007889C40ED51EE61EF71E6D817E818F818C
:101880009885460E571E681E791E8B819C812817ED
:10189000390734F49B818C813C832B83292F382F8B
:1018A000A901AB81BC814A1B5B0B4F5F5F4F2F8946
:1018B000388DB801CD010E94B60A0F5F1F4F59CF76
:1018C000E216F3060CF49BCE8B2DA9A4BAA429A78B
:1018D0008AA7942F832D29803A808ECEAF92BF9213
:1018E000CF92DF92EF92FF920F931F93CF93DF93EC
:1018F0005C01EB0182E0A816B10409F059C08B012C
:101900002AEA30E042E850E062E870E08EE690E0DB
:101910000E9459076E0192E8E92EF12C0CE810E0C4
:101920002EE630E048E750E062E870E084E690E0C0
:101930000E94C30A85E0A816B10409F074C06E01C4
:1019400060E8E62EF12C0FE710E02EE830E04DE8DD
:1019500050E06DE970E082E690E00E94C30A7BEA05
:10196000E72EF12C00E710E02EE830E04DE850E0E3
:101970006DE970E082E690E00E94C30AE2EBEE2E91
:10198000F12C08E710E026E930E04BE550E062EB8F
:1019900070E08BE590E00E94C30ADF91CF911F9128
:1019A0000F91FF90EF90DF90CF90BF90AF90089590
:1019B00086E0A816B104C1F48B012AEA30E042E8BF
:1019C00050E062E870E08EE690E00E9459076E01F8
:1019D0008AEAE82EF12C0CE810E02EEB30E048E724
:1019E00050E06AEA70E0A2CFA114B10409F04BC044
:1019F0008B0120EA30E04CE850E06CE870E084E6CF
:101A000090E00E9459076E010AEAE02EF12C0CE8E2
:101A100010E022E830E04CE850E066E970E080EA4F
:101A200090E00E94C30A83E0A816B10409F04BC0FD
:101A30006E013DE9E32EF12C0DE810E02BEA30E0D9
:101A40004FE750E060E870E080E790E00E94C30A52
:101A50004EE8E42EF12C02E610E02BEA30E04FE7EE
:101A600050E060E870E080E790E00E94C30A56E929
:101A7000E52EF12C0BE510E029E730E048E750E0D7
:101A800069E770E086CF84E0A816B10409F04BC086
:101A90008B0120EA30E04CE850E06CE870E084E62E
:101AA00090E00E9459076E011AEAE12EF12C04E63B
:101AB00010E022E830E044E650E066E970E080E5BE
:101AC00090E00E94C30A87E0A816B10409F065CF30
:101AD0006E018DE9E82EF12C0DE810E02BEA30E0E4
:101AE0004FE750E060E870E080E790E00E94C30AB2
:101AF0009EE8E92EF12C02E610E02BEA30E04FE7F9
:101B000050E060E870E080E790E00E94C30A22EBBA
:101B1000E22EF12C08E710E026E930E044E950E03D
:101B200062EB70E02FC081E0A816B10409F002CF8B
:101B30006B01F0E8EF2EF12C0FE710E02EE830E01B
:101B40004DE850E06DE970E082E690E00E94C30A43
:101B5000ABEAEA2EF12C00E710E02EE830E04EE888
:101B600050E06DE970E082E690E00E94C30AB6E9B9
:101B7000EB2EF12C04E910E029E730E048E750E0D3
:101B800069E770E084E990E006CF1092B900809395
:101B9000B8000895CF92DF92EF92FF920F931F93B8
:101BA000E82FCA01802B912B892B09F4ABC084EA62
:101BB0008093BC008091BC0087FFFCCF8091B9006E
:101BC000887F883009F06EC08E2F8E7F8093BB0097
:101BD00084E88093BC008091BC0087FFFCCF80919B
:101BE000B900887F8831E1F0803209F05BC094E968
:101BF0009093BC0057C0DB018D91BD018093BB0069
:101C0000F093BC008091BC0087FFFCCF8091B900AD
:101C1000887F883241F0803309F044C080E3E7CF09
:101C2000460F571FF4E86417750729F7020F131FB3
:101C300094E810C0D9018D919D018093BB009093D1
:101C4000BC008091BC0087FFFCCF8091B900887FE9
:101C5000883209F72017310769F720E1C114D10450
:101C600011F44EC028E084EA8093BC008091BC004F
:101C700087FFFCCF8091B900887F281313C0E160F3
:101C8000E093BB0084E88093BC008091BC0087FF98
:101C9000FCCF8091B900887F94EC8034E9F08834DF
:101CA00009F4A5CF1F910F91FF90EF90DF90CF9097
:101CB00008959093BC008091BC0087FFFCCF809179
:101CC000B900887FB1E0CB1AD108803559F78091EF
:101CD000BB00F70181937F01F1E0CF16D10449F7F2
:101CE00084E88093BC008091BC0087FFFCCF80918A
:101CF000B900887F8835B1F68091BB00D7018C93FD
:101D000080E075CFC114D10409F0ACCF80E0CACF18
:101D1000CF92DF92EF92FF920F931F9380E7809311
:101D2000590180E88093F20382E08093CF03109200
:101D30008203109281031092840310928303109205
:101D400095031092940310929703109296031092A9
:101D5000D003D12CC12CF12CE12C10E000E030E0BC
:101D600020E041E050E062EF73E080E70E94CA0D9E
:101D700091E0811190E0892F1F910F91FF90EF90DA
:101D8000DF90CF900895CF92DF92EF92FF920F9362
:101D90001F93CF93DF9300D0CDB7DEB78FEF8A8349
:101DA000CC24C394D12CCE0102967C0110E000E03B
:101DB00030E020E041E050E06FEC73E080915901A9
:101DC0000E94CA0D8823E9F01092820310928103C9
:101DD000109284031092830310929503109294033F
:101DE00010929703109296031092D0030F900F90C9
:101DF000DF91CF911F910F91FF90EF90DF90CF90E7
:101E000008958A81833000F78093D00383E089832B
:101E1000CC24C394D12CCE0102967C0110E000E0CA
:101E200030E020E041E050E0BE016F5F7F4F8091E5
:101E300059010E94CA0D8A818F701092810380938C
:101E4000820384E0898330E020E041E050E0BE017D
:101E50006F5F7F4F809159010E94CA0D2A81809146
:101E6000810390918203822B90938203809381035C
:101E700085E0898330E020E041E050E0BE016F5F03
:101E80007F4F809159010E94CA0D8A818F701092F4
:101E900094038093950386E0898330E020E041E05D
:101EA00050E0BE016F5F7F4F809159010E94CA0DC3
:101EB0002A818091940390919503822B90939503AE
:101EC0008093940389E0898330E020E041E050E092
:101ED000BE016F5F7F4F809159010E94CA0D8A81B8
:101EE0008F7010928303809384038AE0898330E0AB
:101EF00020E041E050E0BE016F5F7F4F80915901CB
:101F00000E94CA0D2A818091830390918403822BC1
:101F100090938403809383038BE0898330E020E0F7
:101F200041E050E0BE016F5F7F4F809159010E94F8
:101F3000CA0D8A818F7010929603809397038CE06C
:101F4000898330E020E041E050E0BE016F5F7F4FC9
:101F5000809159010E94CA0D2A8180919603909127
:101F60009703822B90939703809396033FCF84B17E
:101F7000836084B98AB18C6F8AB988B18F6488B95B
:101F800087B18F6487B90E94FA074FEF6FEF8FEF29
:101F90000E944C0890933302809332024FEF60E02E
:101FA00080E00E944C089093F1038093F00340E09E
:101FB00060E080E00E944C089093E1038093E0038E
:101FC00040E060E08FEF0E944C08909335028093D0
:101FD00034020E94F1020E9477038AE20E94C50D3A
:101FE0000E94880E0091F0031091F1032FE331E07D
:101FF0004FEE50E070E060E090E080E00E949A07D1
:102000008AE1882E81E0982E9DE2F92EC3E4D3E088
:102010002DE2A22E21E0B22E3BE3C32E31E0D32EDF
:102020000E94C30E8091D0031F928F939F928F9234
:102030001F92FF92DF93CF930E941B1400913202F4
:10204000109133022EE130E048EC50E06AE070E09D
:102050008AE090E00E949A070091E0031091E1036A
:102060002CE030E04CE050E062E370E083E493E089
:102070000E944009FE012F2D11922A95E9F78091C7
:1020800095038F93809194038F93809182038F9314
:10209000809181038F93BF92AF921F92FF92DF9343
:1020A000CF930E941B14009132021091330222E35D
:1020B00030E048EC50E06EE170E08AE090E00E9491
:1020C0009A070091E0031091E10320E230E04CE038
:1020D00050E062E370E083E493E00E944009FE0177
:1020E0002F2D11922A95E9F7809197038F93809174
:1020F00096038F93809184038F93809183038F93B2
:10210000DF92CF921F92FF92DF93CF930E941B1416
:10211000009132021091330226E430E048EC50E0A6
:1021200062E370E08AE090E00E949A070091E00389
:102130001091E10324E330E04CE050E062E370E012
:1021400083E493E00E944009FE012F2D11922A950D
:10215000E9F78FEF9FE1E1E081509040E040E1F747
:1021600000C000008DB79EB74C960FB6F8949EBF86
:102170000FBE8DBF55CF5058BB27AA270E94D31042
:102180000C947F120E94711238F00E94781220F095
:1021900039F49F3F19F426F40C946E120EF4E09576
:1021A000E7FB0C945A12E92F0E94901258F3BA17C9
:1021B000620773078407950720F079F4A6F50C945D
:1021C000B2120EF4E0950B2EBA2FA02D0B01B9011F
:1021D00090010C01CA01A0011124FF27591B99F09D
:1021E000593F50F4503E68F11A16F040A22F232FA9
:1021F000342F4427585FF3CF469537952795A795F9
:10220000F0405395C9F77EF41F16BA0B620B730B9F
:10221000840BBAF09150A1F0FF0FBB1F661F771F10
:10222000881FC2F70EC0BA0F621F731F841F48F4C5
:10223000879577956795B795F7959E3F08F0B0CF4E
:102240009395880F08F09927EE0F97958795089535
:102250000E943C110C947F120E94781258F00E9448
:10226000711240F029F45F3F29F00C945A12511179
:102270000C94B3120C946E120E94901268F399237E
:10228000B1F3552391F3951B550BBB27AA27621772
:102290007307840738F09F5F5F4F220F331F441F7F
:1022A000AA1FA9F335D00E2E3AF0E0E832D09150B3
:1022B0005040E695001CCAF72BD0FE2F29D0660FA0
:1022C000771F881FBB1F261737074807AB07B0E8E3
:1022D00009F0BB0B802DBF01FF2793585F4F3AF0E9
:1022E0009E3F510578F00C945A120C94B3125F3F44
:1022F000E4F3983ED4F3869577956795B795F7956F
:102300009F5FC9F7880F911D9695879597F9089556
:10231000E1E0660F771F881FBB1F621773078407F2
:10232000BA0720F0621B730B840BBA0BEE1F88F701
:10233000E09508950E94981288F09F5798F0B92F61
:102340009927B751B0F0E1F0660F771F881F991FEA
:102350001AF0BA95C9F714C0B13091F00E94B212C8
:10236000B1E008950C94B212672F782F8827B85FD8
:1023700039F0B93FCCF3869577956795B395D9F742
:102380003EF490958095709561957F4F8F4F9F4F4C
:102390000895E89409C097FB3EF490958095709558
:1023A00061957F4F8F4F9F4F9923A9F0F92F96E9A1
:1023B000BB279395F695879577956795B795F11116
:1023C000F8CFFAF4BB0F11F460FF1BC06F5F7F4FB3
:1023D0008F4F9F4F16C0882311F096E911C07723C5
:1023E00021F09EE8872F762F05C0662371F096E8CE
:1023F000862F70E060E02AF09A95660F771F881F9D
:10240000DAF7880F9695879597F908950E947112CB
:1024100020F019F00E94781250F40C946E120C9473
:10242000B312E92F0E94901288F35523B1F3E7FB12
:102430006217730784079507A8F189F3E92FFF272F
:1024400088232AF03197660F771F881FDAF7952FB8
:102450005527442332F091505040220F331F441F20
:10246000D2F7BB27E91BF50B621B730B840BB10979
:10247000B1F222F4620F731F841FB11D31972AF04D
:10248000660F771F881FBB1FEFCF9150504062F03F
:1024900041F0882332F0660F771F881F915050401B
:1024A000C1F793950C9460128695779567959F5F19
:1024B000D9F7F7CF97F99F6780E870E060E008955B
:1024C0009F3F31F0915020F4879577956795B795A8
:1024D000880F911D9695879597F908959FEF80EC49
:1024E000089500240A94161617061806090608957A
:1024F00000240A9412161306140605060895092EE0
:102500000394000C11F4882352F0BB0F40F4BF2B4E
:1025100011F460FF04C06F5F7F4F8F4F9F4F08958E
:1025200057FD9058440F551F59F05F3F71F0479584
:10253000880F97FB991F61F09F3F79F08795089569
:10254000121613061406551FF2CF4695F1DF08C088
:10255000161617061806991FF1CF869571056105A5
:1025600008940895E894BB2766277727CB0197F94D
:1025700008950E94CC120C947F120E94711238F0C0
:102580000E94781220F0952311F00C945A120C94AA
:102590006E1211240C94B3120E94901270F3959F46
:1025A000C1F3950F50E0551F629FF001729FBB274A
:1025B000F00DB11D639FAA27F00DB11DAA1F649FE6
:1025C0006627B00DA11D661F829F2227B00DA11D99
:1025D000621F739FB00DA11D621F839FA00D611D1F
:1025E000221F749F3327A00D611D231F849F600D40
:1025F000211D822F762F6A2F11249F5750409AF069
:10260000F1F088234AF0EE0FFF1FBB1F661F771FF4
:10261000881F91505040A9F79E3F510580F00C94BF
:102620005A120C94B3125F3FE4F3983ED4F38695AC
:1026300077956795B795F795E7959F5FC1F7FE2B5F
:10264000880F911D9695879597F90895A1E21A2E06
:10265000AA1BBB1BFD010DC0AA1FBB1FEE1FFF1F46
:10266000A217B307E407F50720F0A21BB30BE40B96
:10267000F50B661F771F881F991F1A9469F76095DD
:102680007095809590959B01AC01BD01CF01089597
:10269000052E97FB1EF400940E945F1357FD07D090
:1026A0000E94261307FC03D04EF40C945F13509540
:1026B0004095309521953F4F4F4F5F4F089590952E
:1026C0008095709561957F4F8F4F9F4F0895A29F82
:1026D000B001B39FC001A39F700D811D1124911DF6
:1026E000B29F700D811D1124911D08950E946713E2
:1026F000A59F900DB49F900DA49F800D911D112456
:102700000895662777270C941616FC0188279927C9
:10271000E89421912032E9F3293010F02E30C8F3EB
:102720002B3241F02D3239F4689404C00E94131406
:10273000820F911D219120532A30C0F31EF49095F1
:1027400081959F4F08951F93FC0199278827BC010D
:10275000E89411911032E9F3193010F01E30C8F3EB
:102760001B3251F01D3249F4689406C00E94FE13DA
:10277000610F711D811D911D119110531A30B0F31D
:102780003EF490958095709561957F4F8F4F9F4F48
:102790001F910895FC018191861721F08823D9F7B4
:1027A000992708953197CF010895FB01DC0141502D
:1027B000504048F001900D920020C9F701C01D92D1
:1027C00041505040E0F70895FB0151915523A9F085
:1027D000BF01DC014D9145174111E1F759F4CD01DD
:1027E0000190002049F04D9140154111C9F3FB01C2
:1027F0004111EFCF81E090E001970895592F482FC4
:10280000372F262F660F771F881F991F660F771F98
:10281000881F991F620F731F841F951F660F771FF4
:10282000881F991F08957AE0979F902D879F802D8C
:10283000910D11240895AEE0B0E0E1E2F4E10C94D2
:1028400053180D891E898F89988D26E02C831A8351
:10285000098397FF02C080E090E801979E838D83F3
:10286000AE01455E5F4F698D7A8DCE0101960E9463
:102870004B144D815E8157FD0AC02F813885421768
:1028800053070CF49A01020F131FF80110822E96C1
:10289000E4E00C946F18ABE0B0E0E1E5F4E10C94F7
:1028A00045187C013B018A01FC0117821682838155
:1028B00081FFB9C19AE0292ECE0101965C01F70192
:1028C0009381F30193FD859193FF81913F018823CB
:1028D00009F446C1853239F493FD859193FF8191C6
:1028E0003F01853229F4B70190E00E948B17E7CFB2
:1028F000912C412C512CFFE1F51538F08B3209F168
:1029000088F4803201F1833221F157FC3AC020ED86
:10291000280F2A3040F556FE1FC0929C200D11242E
:10292000922E06C08D3291F0803379F7689450F87A
:10293000F30193FD859193FF81913F018111DBCFDD
:1029400020C0689451F8689452F8F2CF689453F814
:10295000EFCF689454F8ECCF429C200D1124422E06
:10296000689455F8E5CF8E3229F456FCF9C0689486
:1029700056F8DECF8C3619F4689457F8D9CF8836DC
:10298000B9F2982F9F7D95549330C0F08336A1F112
:102990008337C1F1833509F05BC0F801C190D19054
:1029A0008F01692D70E056FC02C06FEF7FEFC6010A
:1029B0000E9475174C01689457F80AC00C5F1F4FAE
:1029C0002FE3298388248394912C6501E89457F898
:1029D00053FC04C04814190409F018F5342C811470
:1029E000910431F5332009F46ACFB70180E290E019
:1029F0000E948B173A94F6CFF801808189830E5F8D
:102A00001F4FE0CFF801C190D1908F01692D70E088
:102A100056FC02C06FEF7FEFC6010E9480174C0189
:102A2000D5CFB70180E290E00E948B174A94D2CFB5
:102A3000F60157FC859157FE81916F01B70190E037
:102A40000E948B1731103A94F1E08F1A9108C7CF8A
:102A5000843619F0893609F074C0F80157FE6AC04F
:102A600061917191819191918F01252D2F76D22EB7
:102A700097FF09C090958095709561957F4F8F4F16
:102A80009F4F6894D7F82AE030E0A5010E94BB1759
:102A9000C82ECA188C2C5D2CD6FE0CC0E89450F8B9
:102AA000C91440F4D4FE05C0D2FC03C0FD2DFE7E47
:102AB0005F2E892C54FE8FC0FE01EC0DF11D80812C
:102AC000803309F081C0252D297E522E852D8870F6
:102AD000382E53FC8FC050FE89C09C2C841418F4EF
:102AE0004C0C942C981854FE8BC0B70180E390E0F6
:102AF0000E948B1752FE09C088E790E051FE02C089
:102B000088E590E0B7010E948B17C91408F484C0CF
:102B1000CA94D12C9FEFC91AD90ACA0CDB1CF60142
:102B200082916F01B70190E00E948B17AC14BD0435
:102B3000B1F758CF61917191072E000C880B990B5A
:102B400093CFD52CE894D4F82AE030E0853739F1DA
:102B5000952D997FD92E8F3601F148F48835A9F04B
:102B6000F701868197812B96E2E10C9461188037FA
:102B700049F08837A9F7D4FE02C06894D2F820E162
:102B800030E00DC06894D4F8F6CF54FE03C0E92FAE
:102B9000E660DE2E20E132E002C028E030E0F801FD
:102BA000D7FE0DC061917191819191918F01A50125
:102BB0000E94BB17C82ECA18E894D7F86BCF619152
:102BC000719190E080E0F2CF52FC02C083947ECFFE
:102BD000839483947BCF852D867809F477CFF6CFC5
:102BE000B70180E290E00E948B1783948414C0F3B5
:102BF000312C79CF342C3818841408F474CFF8CFE2
:102C0000852D867809F481CF8BE251FE80E257FC56
:102C10008DE2B70190E077CFB70180E390E00E94AA
:102C20008B179A9472CF8FEF9FEF9DCFB0E0A0E00B
:102C3000ECE1F6E10C944B187C016B016115710518
:102C400019F0FB0191838083E7010991802F90E0C7
:102C50000E9454175C01892BB1F50D32B1F5088142
:102C6000E701229611E07E01F1E0EF1AF10843E05E
:102C700050E060E770E0C7010E945D17892B61F5A5
:102C80007E0182E0E80EF11C45E050E06BE670E06A
:102C9000C7010E945D17892B21F47E0197E0E90EA0
:102CA000F11CC114D10419F0F601F182E08260E058
:102CB00070E080E89FE7112309F4F1C060E070E064
:102CC00080E89FEFECC07E01BFCF0B3219F4088182
:102CD000E701229610E0C7CF43E050E068E670E0DD
:102CE000C7010E945D17892B61F4C114D10421F042
:102CF0002296F601D183C08360E070E080EC9FE70C
:102D0000CEC0F12CE12C20E030E0A901F0EDF00F75
:102D1000FA3058F5E12FE260812F887012FF08C069
:102D2000811103C0FFEFEF1AFF0A09911E2FEECFAA
:102D3000882319F081E0E81AF108A5E0B0E00E94CC
:102D400076139B01AC01220F331F441F551F2F0F19
:102D5000311D411D511D283999E93907490799E16C
:102D6000590718F3E12FE660E0CFFE3F29F413FD89
:102D70003AC0E12FE860D9CF0F7D0534A1F58881F5
:102D80008D3241F41061BE016E5F7F4F8981E2E0B8
:102D9000F0E007C0BE018B32B9F36F5F7F4FE1E017
:102DA000F0E08053EB01CE1BDF0B8A30E0F4E0E86B
:102DB000AE16ECE0BE065CF4F501EE0FFF1FEE0F61
:102DC000FF1FAE0EBF1EAA0CBB1CA80EB11CEB0150
:102DD000899180538A3090F114FF03C0B194A1947B
:102DE000B108EA0CFB1C11FF07C0C114D10421F08B
:102DF0002197F601D183C083CA01B9010E94C9118C
:102E00001370133009F490584B015C0120E030E05E
:102E1000A9010E941918882309F43FC0CFE9D0E026
:102E2000F7FE05C0F194E194F108C7E8D0E06E0127
:102E3000F8E1CF1AD10800E210E00FC0BE01B7CF11
:102E4000FE012591359145915491E01AF10AC50191
:102E5000B4010E94B9124B015C01D501C401E01616
:102E6000F10674F7249715950795CC15DD05A9F79C
:102E70008A2F880F8B2F881F8F3F49F020E030E08A
:102E8000A901C501B4010E941918811106C082E28E
:102E900090E090930E0580930D05C501B401CDB768
:102EA000DEB7ECE00C94671891110C944218803254
:102EB00019F089508550C8F70895FB01DC01415095
:102EC000504088F08D9181341CF08B350CF4805E7D
:102ED000659161341CF06B350CF4605E861B6111EA
:102EE00071F3990B0895881BFCCFFC01059061508C
:102EF00070400110D8F7809590958E0F9F1F089510
:102F0000FC016150704001900110D8F780959095B8
:102F10008E0F9F1F08950F931F93CF93DF93182F4A
:102F2000092FEB018B8181FD09C01FEF0FEF812F6E
:102F3000902FDF91CF911F910F91089582FF14C0C0
:102F40002E813F818C819D81281739073CF4E881CF
:102F5000F981CF0101969983888310838E819F81A7
:102F600001969F838E83E3CFE885F985812F0995AC
:102F7000892BA1F3DACFFA01AA27283051F12031A9
:102F800081F1E8946F936E7F6E5F7F4F8F4F9F4FFD
:102F9000AF4FB1E03ED0B4E03CD0670F781F891F3F
:102FA0009A1FA11D680F791F8A1F911DA11D6A0F0D
:102FB000711D811D911DA11D20D009F468943F91C0
:102FC0002AE0269F11243019305D3193DEF6CF01BF
:102FD0000895462F4770405D4193B3E00FD0C9F785
:102FE000F6CF462F4F70405D4A3318F0495D31FDF2
:102FF0004052419302D0A9F7EACFB4E0A695979545
:10300000879577956795BA95C9F70097610571051A
:1030100008959B01AC010A2E069457954795379564
:103020002795BA95C9F7620F731F841F951FA01DBE
:1030300008950E941E1808F481E00895990F000871
:10304000550FAA0BE0E8FEEF16161706E807F9077A
:10305000C0F012161306E407F50798F0621B730B15
:10306000840B950B39F40A2661F0232B242B252B96
:1030700021F408950A2609F4A140A6958FEF811D39
:10308000811D08959927882708952F923F924F9286
:103090005F926F927F928F929F92AF92BF92CF92E8
:1030A000DF92EF92FF920F931F93CF93DF93CDB7F1
:1030B000DEB7CA1BDB0B0FB6F894DEBF0FBECDBF69
:1030C00009942A88398848885F846E847D848C843A
:1030D0009B84AA84B984C884DF80EE80FD800C8143
:1030E0001B81AA81B981CE0FD11D0FB6F894DEBF26
:0C30F0000FBECDBFED010895F894FFCF96
:1030FC003200000000FF00FFFFFF0000FF00FFFF99
:10310C0000FF00FF0000FF00FFFF6E756D206F6673
:10311C0020746F75636865733A20256900706F6958
:10312C006E74303A20256920256900706F696E74C1
:10313C00313A202569202569002447504747410032
:08314C00244750524D430000DE
:00000001FF
