:100000000C94C5050C94E2050C94E2050C94E205F1
:100010000C94E2050C94E2050C94E2050C94E205C4
:100020000C94E2050C94E2050C94E2050C94E205B4
:100030000C94E2050C94E2050C94E2050C94E205A4
:100040000C94E2050C94E2050C94E2050C94E20594
:100050000C94E2050C94E2050C94E2050C94E20584
:100060000C94E2050C94E205084AD73B3BCE016EA6
:1000700084BCBFFDC12F3D6C74319ABD56833DDAFF
:100080003D00C77F11BED9E4BB4C3E916BAAAABE0E
:10009000000000803F05A84CCDB2D44EB93836A937
:1000A000020C50B9918688083CA6AAAA2ABE000074
:1000B00000803F004E414E494E495459494E46CD6D
:1000C000CCCC3D0AD7233C17B7D13877CC2B32950F
:1000D00095E6241FB14F0A000020410000C84200ED
:1000E000401C4620BCBE4CCA1B0E5AAEC59D7400B7
:1000F000407A10F35A00A0724E18090010A5D4E8F7
:100100000000E87648170000E40B54020000CA9A89
:100110003B000000E1F505000080969800000040DB
:10012000420F000000A08601000000102700000020
:1001300000E803000000006400000000000A000066
:100140000000000100000000002C76D888DC674F1A
:100150000823DFC1DFAE59E1B1B796E5E3E453C64A
:100160003AE651997696E8E6C28426EB898C9B6242
:10017000ED407C6FFCEFBC9C9F40F2BAA56FA5F4EC
:1001800090055A2AF75C936B6CF9676DC11BFCE014
:10019000E40D47FEF520E6B500D0ED902E03009467
:1001A0003577050080841E080000204E0A000000FC
:1001B000C80C333333330F986E12831141EF8D2106
:1001C00014893BE65516CFFEE6DB18D1844B381B6D
:1001D000F77C1D901DA4BBE424203284725E228132
:1001E00000C9F124ECA1E53D27D405870459034A51
:1001F00002E005930465035602EA059D046F03605F
:10020000027206B60571043B030B025468616E6B03
:1002100020796F7520666F7220706C6179696E67E6
:100220002E20576520686F706520796F75202065D6
:100230006E6A6F796564206F757220454534353973
:100240002070726F6A65637421002D3131382E324F
:1002500038393937340033342E30313938323800B8
:1002600054686520487567686573204169726372D8
:1002700061667420456C656374726963616C2045C6
:100280006E67696E656572696E672043656E746539
:100290007220686F757365732070726F6772616D1D
:1002A00073206F6620746865205553432056697427
:1002B00065726269205363686F6F6C206F662045BA
:1002C0006E67696E656572696E672773204D696E2A
:1002D00067204873696568204465706172746D6554
:1002E0006E74206F6620456C656374726963616C1F
:1002F00020456E67696E656572696E672E20497468
:1003000020697320616C736F20686F6D6520746F56
:1003100020746865205553432053746576656E7369
:1003200020496E7374697475746520666F72204914
:100330006E6E6F766174696F6E2E00456C656374C6
:10034000726963616C20456E67696E656572696E7E
:10035000672043656E746572002D3131382E323856
:10036000383532300033342E3032303133340041BE
:10037000726D7374726F6E672077617320616E2087
:10038000416D65726963616E20617374726F6E6135
:10039000757420616E64206165726F6E6175746939
:1003A00063616C20656E67696E6565722077686F42
:1003B0002077617320746865206669727374207099
:1003C0006572736F6E20746F2077616C6B206F6E37
:1003D00020746865204D6F6F6E2E20486520776110
:1003E0007320616C736F2061206E6176616C206197
:1003F000766961746F722C20746573742070696CF7
:100400006F742C20616E6420756E697665727369F5
:1004100074792070726F666573736F722E20496EE7
:10042000203139373020686520636F6D706C6574DA
:10043000656420686973204D6173746572206F660E
:1004400020536369656E6365206465677265652026
:10045000696E204165726F737061636520456E67D8
:10046000696E656572696E67206174205553432E0D
:10047000004E65696C2041726D7374726F6E6720F7
:10048000537461747565002D3131382E323838352A
:1004900038380033342E30313937353400466F72F6
:1004A0006D656420696E203139373020627920749F
:1004B0006865206D6572676572206F6620555343CD
:1004C000E2809973206578697374696E672073633D
:1004D00069656E636520616E6420656E67696E652F
:1004E0006572696E67206C69627261726965732CEE
:1004F0002074686520536369656E63652026204516
:100500006E67696E656572696E67204C69627261BB
:10051000727920746F6461792070726F7669646596
:100520007320657373656E7469616C207375707088
:100530006F727420746F2073747564656E742C20F0
:10054000666163756C74792C20616E6420737461CC
:10055000666620726573656172636865727320698F
:100560006E20746865206C69666520736369656ECA
:100570006365732C20706879736963616C207363A1
:1005800069656E6365732C2065617274682073639E
:1005900069656E6365732C206D617468656D617447
:1005A0006963732C20616E6420656E67696E656592
:1005B00072696E672E00536369656E63652026203D
:1005C000456E67696E656572696E67204C69627217
:1005D000617279002D3131382E32383931313400A1
:1005E00033342E3032303530360054686973206928
:1005F00073207468652063656E746572206F662071
:10060000746865205669746572626920456E676911
:100610006E656572696E67205363686F6F6C2E201C
:10062000546869732069732074686520706C616315
:100630006520776865726520656E67696E656572AD
:10064000696E672073747564656E74732068616E7B
:1006500067206F757420616E6420776F726B206FF6
:100660006E2074686569722070726F6A6563747356
:100670002E005669746572626920452D717561643A
:1006800020466F756E7461696E0000000000003EC8
:100690005B4F5B3E3E6B4F6B3E1C3E7C3E1C183CF2
:1006A0007E3C181C577D571C1C5E7F5E1C00183C4E
:1006B0001800FFE7C3E7FF0018241800FFE7DBE797
:1006C000FF30483A060E2629792926407F0505077E
:1006D000407F05253F5A3CE73C5A7F3E1C1C0808DA
:1006E0001C1C3E7F14227F22145F5F005F5F06099F
:1006F0007F017F006689956A606060606094A2FFF8
:10070000A29408047E040810207E201008082A1CE9
:1007100008081C2A08081E101010100C1E0C1E0CB5
:1007200030383E3830060E3E0E0600000000000055
:10073000005F00000007000700147F147F14242AC4
:100740007F2A122313086462364956205000080796
:100750000300001C2241000041221C002A1C7F1CB7
:100760002A08083E080800807030000808080808B9
:10077000000060600020100804023E5149453E0020
:10078000427F400072494949462141494D3318147E
:10079000127F1027454545393C4A494931412111CD
:1007A00009073649494936464949291E00001400BF
:1007B00000004034000000081422411414141414E2
:1007C000004122140802015909063E415D594E7C40
:1007D0001211127C7F494949363E414141227F41F5
:1007E00041413E7F494949417F090909013E414153
:1007F00051737F0808087F00417F41002040413F3E
:10080000017F081422417F404040407F021C027F4C
:100810007F0408107F3E4141413E7F090909063EA1
:100820004151215E7F091929462649494932030170
:100830007F01033F4040403F1F2040201F3F403882
:10084000403F631408146303047804036159494D5D
:1008500043007F4141410204081020004141417F93
:100860000402010204404040404000030708002009
:10087000545478407F284444383844444428384409
:1008800044287F385454541800087E090218A4A440
:100890009C787F0804047800447D40002040403D5F
:1008A000007F1028440000417F40007C04780478D9
:1008B0007C080404783844444438FC18242418186C
:1008C000242418FC7C0804040848545454240404C8
:1008D0003F44243C4040207C1C2040201C3C4030B5
:1008E000403C44281028444C9090907C4464544CE4
:1008F000440008364100000077000000413608003F
:1009000002010204023C2623263C1EA1A161123AE8
:100910004040207A38545455592155557941225434
:10092000547842215554784020545579400C1E5239
:1009300072123955555559395454545939555454DE
:10094000580000457C410002457D420001457C4045
:100950007D1211127DF0282528F07C545545002089
:1009600054547C547C0A097F4932494949323A44FB
:1009700044443A324A4848303A4141217A3A424066
:100980002078009DA0A07D3D4242423D3D40404038
:100990003D3C24FF2424487E4943662B2FFC2F2B0B
:1009A000FF0929F620C0887E0903205454794100AC
:1009B00000447D413048484A32384040227A007A2B
:1009C0000A0A727D0D19317D2629292F2826292909
:1009D000292630484D40203808080808080808082B
:1009E000382F10C8ACBA2F102834FA00007B000052
:1009F00008142A142222142A14085500550055AA56
:100A000055AA55AAFF55FF55FF000000FF00101022
:100A100010FF00141414FF001010FF00FF1010F05E
:100A200010F0141414FC001414F700FF0000FF0071
:100A3000FF1414F404FC141417101F10101F101FBF
:100A40001414141F00101010F0000000001F1010EC
:100A500010101F10101010F010000000FF101010E8
:100A6000101010101010FF10000000FF140000FF05
:100A700000FF00001F10170000FC04F414141710EE
:100A8000171414F404F40000FF00F71414141414E1
:100A90001414F700F7141414171410101F101F1457
:100AA0001414F4141010F010F000001F101F0000B8
:100AB000001F14000000FC140000F010F01010FFE4
:100AC00010FF141414FF141010101F00000000F089
:100AD00010FFFFFFFFFFF0F0F0F0F0FFFFFF00005E
:100AE000000000FFFF0F0F0F0F0F3844443844FC85
:100AF0004A4A4A347E02020606027E027E0263559C
:100B00004941633844443C04407E201E2006027E56
:100B1000020299A5E7A5991C2A492A1C4C72017268
:100B20004C304A4D4D303048784830BC625A463DD2
:100B30003E494949007E0101017E2A2A2A2A2A4487
:100B4000445F444440514A444040444A51400000BC
:100B5000FF0103E080FF000008086B6B08361236C7
:100B60002436060F090F06000018180000001010A8
:100B7000003040FF0101001F01011E00191D171266
:100B8000003C3C3C3C000000000011241FBECFEFA5
:100B9000D8E0DEBFCDBF12E0A0E0B1E0E2ECF1E5CD
:100BA00002C005900D92AE31B107D9F726E0AEE153
:100BB000B2E001C01D92A33BB207E1F70E94041B03
:100BC0000C94DF280C940000CF9310925B0384E018
:100BD00080933402EEE7F5E08EE1DF011D928A9505
:100BE000E9F7E1E0F2E0659174918EE795E00E940B
:100BF0000E22EAECF3E089E691E0DF019C011D9210
:100C000021503040E1F7E0915B03F0E0EE0FFF1F71
:100C1000E750FE4F659174918AEC93E00E940E229A
:100C2000CFE0E1E9F3E0DF012C2F1D922A95E9F7EF
:100C3000E0915B03F0E0EE0FFF1FEF50FE4F659178
:100C4000749181E993E00E940E22EBEAF3E0DF0168
:100C50001D92CA95E9F7E0915B03F0E0EE0FFF1FEC
:100C6000E751FE4F659174918BEA93E00E940E224A
:100C700081E993E00E94C5216093C0037093C10392
:100C80008093C2039093C3038BEA93E00E94C52133
:100C900060935205709353058093540590935505C6
:100CA000CF910895CF93DF93E0915B03EF5FE093E3
:100CB0005B03AEE7B5E08EE1ED0119928A95E9F7A5
:100CC000F0E0EE0FFF1FEF5FFD4F65917491CD01D6
:100CD0000E940E22EAECF3E089E691E0DF01EC01EC
:100CE0001D922197E9F7E0915B03F0E0EE0FFF1F03
:100CF000E750FE4F659174918AEC93E00E940E22BA
:100D0000CFE0E1E9F3E0DF01DC2F1D92DA95E9F7AE
:100D1000E0915B03F0E0EE0FFF1FEF50FE4F659197
:100D2000749181E993E00E940E22EBEAF3E0DF0187
:100D30001D92CA95E9F7E0915B03F0E0EE0FFF1F0B
:100D4000E751FE4F659174918BEA93E00E940E2269
:100D500081E993E00E94C5216093C0037093C103B1
:100D60008093C2039093C3038BEA93E00E94C52152
:100D700060935205709353058093540590935505E5
:100D8000DF91CF9108950F931F93409122025091CC
:100D900023026091240270912502409338025093FF
:100DA000390260933A0270933B028091570390910D
:100DB0005803A0915903B0915A0380934C03909328
:100DC0004D03A0934E03B0934F0320917D0523352F
:100DD00049F47058409338025093390260933A02B4
:100DE00070933B022091C903273549F4B058809392
:100DF0004C0390934D03A0934E03B0934F03609127
:100E000038027091390280913A0290913B020DE9CB
:100E100015E027E04AE00E94A72160914C03709101
:100E20004D0380914E0390914F030BE515E027E0B1
:100E30004AE00E94A7211F910F9108954F925F925F
:100E40006F927F928F929F92AF92BF92CF92DF92DA
:100E5000EF92FF920F931F93CF93DF93CDB7DEB73F
:100E600064970FB6F894DEBF0FBECDBF80915605D4
:100E7000882309F465C28090380290903902A090CE
:100E80003A02B0903B022BED3FE049E450E4C5014B
:100E9000B4010E94722020E030E044E353E40E9459
:100EA000431E6D877E878F87988B80914C0390912E
:100EB0004D03A0914E03B0914F0389839A83AB8376
:100EC000BC83C090C003D090C103E090C203F090F7
:100ED000C3032BED3FE049E450E4C701B6010E9493
:100EE000722020E030E044E353E40E94431E698B0B
:100EF0007A8B8B8B9C8B4090520550905305609061
:100F0000540570905505A5019401C701B6010E94D2
:100F10005A1D2BED3FE049E450E40E94722020E08E
:100F200030E044E353E40E94431E20E030E040E020
:100F30005FE30E9472200E94DF206B017C016D85BF
:100F40007E858F8598890E943E1E69877A878B8768
:100F50009C8769897A898B899C890E943E1E6D8352
:100F60007E838F83988729813A814B815C81C3017D
:100F7000B2010E945A1D2BED3FE049E450E40E946B
:100F8000722020E030E044E353E40E94431E20E05E
:100F900030E040E05FE30E9472200E94DF204B01BE
:100FA0005C012D813E814F81588569857A858B85CD
:100FB0009C850E947220A50194010E947220A501C7
:100FC00094010E9472204B015C01A7019601C701A8
:100FD000B6010E9472209B01AC01C501B4010E94C0
:100FE0005B1D6B017C01AC019B0160E070E080E85F
:100FF0009FE30E945A1D0E94ED204B015C01C70136
:10100000B6010E94ED20A50194010E94DA1D9B010A
:10101000AC010E945B1D20E73DE642EC5AE40E94D1
:10102000722028E439EF41E550E40E9472200E94CA
:10103000B51E7093370260933602072E000C880BA2
:10104000990B0E94ED1E0CE615E020E041E00E94A5
:10105000A7212BED3FE049E450E4C301B2010E9417
:10106000722020E030E044E353E40E94431E6B0111
:101070007C012BED3FE049E450E469817A818B816A
:101080009C810E94722020E030E044E353E40E94FF
:10109000431E9B01AC01C701B6010E945A1D6B01A2
:1010A0007C010E94DF202B013C0169897A898B89B0
:1010B0009C890E94DF204B015C016D857E858F85B8
:1010C00098890E94DF2069837A838B839C83C70180
:1010D000B6010E943E1E6B017C01A30192016D814D
:1010E0007E818F8198850E9472202B013C01A50191
:1010F000940169857A858B859C850E9472204B01BD
:101100005C0129813A814B815C816D817E818F8177
:1011100098850E947220A70196010E9472209B016F
:10112000AC01C501B4010E945A1DA30192010E94A5
:10113000DA1D20E030E044E353E40E9472202BEDFE
:101140003FE049E450E40E94431E6B017C01C092E1
:101150007605D0927705E0927805F09279050E94A5
:10116000B51E7093200260931F0220E030E044EB34
:1011700051ECC701B6010E946520181654F520E015
:1011800030E044EB51E4C701B6010E94391E181645
:1011900004F110923405109233056AE171E083E5A1
:1011A00093E064960FB6F894DEBF0FBECDBFDF911B
:1011B000CF911F910F91FF90EF90DF90CF90BF9054
:1011C000AF909F908F907F906F905F904F900C9416
:1011D000202220E030E044EB51E4C701B6010E9438
:1011E000652018169CF420E030E047E852E4C7017F
:1011F000B6010E94391E18164CF081E090E09093E1
:101200003405809333056DE171E0C9CF20E030E013
:1012100047E852E4C701B6010E94652018169CF405
:1012200020E030E041EE52E4C701B6010E94391ED1
:1012300018164CF082E090E09093340580933305CB
:1012400060E271E0ACCF20E030E041EE52E4C70153
:10125000B6010E94652018169CF420E030E84DE1AC
:1012600053E4C701B6010E94391E18164CF083E002
:1012700090E0909334058093330563E271E08FCF63
:1012800020E030E84DE153E4C701B6010E9465203B
:10129000181654F020E030E84DE153ECC701B601D8
:1012A0000E94391E18164CF084E090E090933405AB
:1012B0008093330566E271E072CF20E030E84DE1C3
:1012C00053ECC701B6010E94652018169CF420E07B
:1012D00030E041EE52ECC701B6010E94391E1816EB
:1012E0004CF085E090E0909334058093330569E2FB
:1012F00071E055CF20E030E041EE52ECC701B6017D
:101300000E94652018169CF420E030E047E852EC7B
:10131000C701B6010E94391E18164CF086E090E015
:1013200090933405809333056CE271E038CF87E009
:1013300090E090933405809333056FE271E02FCFF6
:1013400064960FB6F894DEBF0FBECDBFDF91CF918C
:101350001F910F91FF90EF90DF90CF90BF90AF90D3
:101360009F908F907F906F905F904F900895EF9235
:10137000FF920F931F93CF93DF93809156058111B6
:10138000C0C000917A0510917B0524E130E04CED5E
:1013900050E06AE070E08AE090E00E94511162E360
:1013A00071E08DE593E00E94202200916A05109182
:1013B0006B05EE24E3942CE030E04CE050E062E377
:1013C00070E08DE593E00E94EE12CDE5D3E09DE262
:1013D000F92EFE018F2D11928A95E9F700917A0579
:1013E00010917B0528E230E04CED50E06EE170E0BA
:1013F0008AE090E00E94511167E471E0CE010E9402
:10140000202200916A0510916B0520E230E04CE04B
:1014100050E062E370E0CE010E94EE12FE018F2DDB
:1014200011928A95E9F700917A0510917B052CE3DA
:1014300030E04CED50E062E370E08AE090E00E9422
:101440005111809127021F928F93809156051F9210
:101450008F9385E591E09F938F931F92FF92DF9387
:10146000CF930E946D2200916A0510916B0524E3D1
:1014700030E04CE050E062E370E0CE010E94EE12FA
:10148000FE018F2D11928A95E9F700917A0510914E
:101490007B0520E530E04CED50E066E470E08AE04A
:1014A00090E00E945111809135051F928F938EE636
:1014B00091E09F938F931F92FF92DF93CF930E94AF
:1014C0006D2200916A0510916B0528E430E04CE034
:1014D00050E062E370E0CE010E94EE12FE01119234
:1014E000FA94E9F78DB79EB742960FB6F8949EBF6F
:1014F0000FBE8DBFDF91CF911F910F91FF90EF90A5
:1015000008958EE795E09F938F9382E991E09F93F2
:101510008F931F928DE2F82EFF92CDE5D3E0DF93FB
:10152000CF930E946D2200917A0510917B0524E1F2
:1015300030E04CED50E06AE070E08AE090E00E941C
:10154000511100916A0510916B05EE24E3942CE093
:1015500030E04CE050E062E370E0CE010E94EE1219
:10156000FE018F2D11928A95E9F78BEA93E09F9304
:101570008F9381E993E09F938F9384E891E09F9309
:101580008F931F92FF92DF93CF930E946D22009161
:101590007A0510917B0528E230E04CED50E06EE1D9
:1015A00070E08AE090E00E94511100916A0510916C
:1015B0006B0520E230E04CE050E062E370E0CE01E9
:1015C0000E94EE12FE018F2D11928A95E9F78BE5AC
:1015D00095E09F938F938DE995E09F938F9385E995
:1015E00091E09F938F931F92FF92DF93CF930E947E
:1015F0006D2200917A0510917B052CE330E04CEDD3
:1016000050E062E370E08AE090E00E9451110091A6
:101610006A0510916B0524E330E04CE050E062E392
:1016200070E0CE010E94EE12FE018F2D11928A957C
:10163000E9F78CE695E09F938F9383E593E09F9382
:101640008F93809120028F9380911F028F9386EA5F
:1016500091E09F938F931F92FF92DF93CF930E940D
:101660006D228DB79EB788960FB6F8949EBF0FBEB9
:101670008DBF00917A0510917B0520E530E04CED9F
:1016800050E066E470E08AE090E00E945111009121
:101690006A0510916B0528E430E04CE050E062E30D
:1016A00070E0CE010E94EE12FE011192FA94E9F769
:1016B00000917A0510917B052AEF30E04AEA50E06C
:1016C00066E970E086E490E00E9451116091310279
:1016D000709132028091330590913405DF91CF9162
:1016E0001F910F91FF90EF900C942A16CF92DF92EA
:1016F000EF92FF920F931F93CF93DF9300D00F923F
:10170000CDB7DEB7F0904B05D0904C058F2D9D2DB9
:101710009C01225531408E010F5F1F4F273131054B
:1017200030F02F5A3E4F2631310508F04BC06AE1A8
:1017300071E0C8010E9420221F930F93DF92FF9255
:101740008EEB91E09F938F931F928DE2F82EFF9284
:101750009DE5C92E93E0D92EDF92CF920E946D2293
:1017600000917A0510917B0524E630E04CED50E0C5
:101770006AE570E08AE090E00E94511100916A05EC
:1017800010916B05EE24E3942CE530E04CE050E042
:1017900062E370E0C6010E94EE12F6011192FA9423
:1017A000E9F70FB6F894DEBF0FBECDBF0F900F90D4
:1017B0000F90DF91CF911F910F91FF90EF90DF90ED
:1017C000CF9008959C01275131096DE171E02D32D0
:1017D000310508F4AECF9C012454310960E271E078
:1017E0002D32310508F4A5CF8157910963E271E0EC
:1017F0008D9708F49ECF66E271E09BCFEF92FF9247
:101800000F931F93CF93DF938EE795E09F938F9372
:1018100082E991E09F938F931F928DE2F82EFF92C1
:10182000CDE5D3E0DF93CF930E946D2200917A053E
:1018300010917B0524E130E04CED50E06AE070E06F
:101840008AE090E00E94511100916A0510916B05A9
:10185000EE24E3942CE030E04CE050E062E370E0F2
:10186000CE010E94EE12FE011192FA94E9F7009166
:101870007A0510917B0528E230E04CED50E06EE1F6
:1018800070E08AE090E00E94511100917A05109179
:101890007B052CE330E04CED50E062E370E08AE041
:1018A00090E00E94511100917A0510917B0520E58E
:1018B00030E04CED50E066E470E08AE090E00E9499
:1018C000511100917A0510917B0524E630E04CED32
:1018D00050E06AE570E08AE090E00E9451110091CA
:1018E0007A0510917B052AEF30E04AEA50E066E97C
:1018F00070E086E490E00E9451118DB79EB7089683
:101900000FB6F8949EBF0FBE8DBFDF91CF911F9190
:101910000F91FF90EF9008958FE290E09093C500B3
:101920008093C400E1ECF0E0808188608083808156
:101930008061808386E08093C20008959091C0000A
:1019400095FFFCCF8093C60008950F931F93CF930C
:10195000DF938C01D0E0C0E0F80101900020E9F7AE
:101960003197E01BF10BCE17DF0728F0DF91CF9105
:101970001F910F91089583E397E00197F1F7F80124
:10198000EC0FFD1F80810E949E0C2196E5CF809177
:10199000C00087FFFCCF8091C60008958A3009F50A
:1019A000E0911E022091AF063091B006E20FF32FB6
:1019B000F11D10822091AF063091B00695E02F3BCB
:1019C000390729F547E356E05093B0064093AF0638
:1019D0003093BD052093BC0510921E0291E09093B8
:1019E000BE052091AF063091B006E0911E0291E055
:1019F0009E0F90931E02E20FF32FF11D80839091B2
:101A00001E02983718F097E790931E0208952FEB67
:101A100035E03093B0062093AF0627E336E0D8CF09
:101A20001092BE051092210210921E028FEB95E0DB
:101A30009093B0068093AF0687E396E09093BD0540
:101A40008093BC05109235051092270210925A051A
:101A5000109233021092580510924D0510925603C1
:101A60001092AA031092C90310927D051092560598
:101A70001092A5031092A40308958091BE050895C5
:101A80001092BE058091BC059091BD0508958033EC
:101A900054F08A3314F4805308959FEB980F9630D6
:101AA00010F48753089580E008954F925F926F92EB
:101AB0007F928F929F92AF92BF92CF92DF92EF92DE
:101AC000FF920F931F93CF93DF93CDB7DEB72A9783
:101AD0000FB6F894DEBF0FBECDBF7C01FC010190B4
:101AE0000020E9F73197E81BF90B6F0184E0C81A71
:101AF000D108D701AC0DBD1D8C918A3209F03FC0D1
:101B000087010E0F1F1FF801339780810E94470D38
:101B100090E1899F50011124F801329780810E9441
:101B2000470D8A0D9B2D911D42E0242F30E02C158E
:101B30003D05D0F0892B19F180E02A960FB6F89474
:101B4000DEBF0FBECDBFDF91CF911F910F91FF90F0
:101B5000EF90DF90CF90BF90AF909F908F907F904D
:101B60006F905F904F9008952E0D3F1DF9012081D9
:101B7000022E000C330B822793274F5FD6CF60E1F4
:101B800072E0C7010E943622892B09F44FC16CE232
:101B900070E0C7010E9415228C010F5F1F4FC80122
:101BA0000E94C5216B017C010E94BC1E2B013C01DF
:101BB00020E137E240E050E00E944C212093AA034C
:101BC00044E6842E912CA12CB12CA50194010E94F5
:101BD0004C2120935603C301B201A50194010E9438
:101BE0004C2160934D0520E030E040E85FE3C70101
:101BF000B6010E94331F20E030E04AE754E40E941F
:101C000072200E94BC1E7093A5036093A4036CE233
:101C100070E0C8010E9415227C018C010F5F1F4FEC
:101C2000FC0181818C3209F455C042E050E0B801DA
:101C3000CE0101960E9427221B82CE0101960E94AE
:101C4000E7214B015C01B7016D5F7F4F42E050E03F
:101C5000CE0101960E9427220B5F1F4F44E050E007
:101C6000B801CE0103960E9427221F82CE01019661
:101C70000E94E7219B01AC01A2E3B0E00E949C21FD
:101C800023E030E040E050E00E946E21CA01B9013B
:101C90000E94ED1E2CE933E549EC56E30E947220C8
:101CA00020E030E040E752E40E94431E6B017C01DB
:101CB000C501B4010E94ED1E9B01AC01C701B60134
:101CC0000E945B1D60932202709323028093240282
:101CD000909325026CE270E0C8010E9415229C01DD
:101CE0002F5F3F4FFC0191819C3229F09E3409F017
:101CF0008FC090937D056CE270E0C9010E941522AF
:101D00007C018C010F5F1F4FFC0181818C3209F433
:101D100055C043E050E0B801CE0101960E94272251
:101D20001C82CE0101960E94E7214B015C01B701A4
:101D30006C5F7F4F42E050E0CE0101960E94272267
:101D40000A5F1F4F44E050E0B801CE0103960E94A5
:101D500027221F82CE0101960E94E7219B01AC0140
:101D6000A2E3B0E00E949C2123E030E040E050E09C
:101D70000E946E21CA01B9010E94ED1E2CE933E5D3
:101D800049EC56E30E94722020E030E040E752E444
:101D90000E94431E6B017C01C501B4010E94ED1E2F
:101DA0009B01AC01C701B6010E945B1D6093570304
:101DB000709358038093590390935A036CE270E038
:101DC000C8010E941522FC0191819C3221F09735B7
:101DD00019F59093C9036CE270E0CF0101960E945F
:101DE00015228C010F5F1F4FFC0181818C3229F07D
:101DF000C8010E94C921809327026CE270E0C801EB
:101E00000E941522FC0121812C3251F481E095CEF3
:101E1000933509F091CE6DCF953409F08DCED9CFA1
:101E200001960E94C92180933505F0CF67E172E0E9
:101E3000C7010E943622892B09F47ECE6CE270E045
:101E4000C7010E9415228C010F5F1F4FC8010E941D
:101E5000C5216B017C010E94BC1E2B013C0120E1CD
:101E600037E240E050E00E944C212093AA0334E680
:101E7000832E912CA12CB12CA50194010E944C2100
:101E800020935603C301B201A50194010E944C2185
:101E900060934D0520E030E040E85FE3C701B60104
:101EA0000E94331F20E030E04AE754E40E94722091
:101EB0000E94BC1E7093A5036093A4036CE270E0C3
:101EC000C8010E941522FC012181213409F020C1A2
:101ED00021E0209356056CE270E001960E941522E5
:101EE0007C018C010F5F1F4FFC0181818C3209F452
:101EF00055C042E050E0B801CE0101960E94272271
:101F00001B82CE0101960E94E7214B015C01B701C3
:101F10006D5F7F4F42E050E0CE0101960E94272284
:101F20000B5F1F4F44E050E0B801CE0103960E94C2
:101F300027221F82CE0101960E94E7219B01AC015E
:101F4000A2E3B0E00E949C2123E030E040E050E0BA
:101F50000E946E21CA01B9010E94ED1E2CE933E5F1
:101F600049EC56E30E94722020E030E040E752E462
:101F70000E94431E6B017C01C501B4010E94ED1E4D
:101F80009B01AC01C701B6010E945B1D6093220258
:101F90007093230280932402909325026CE270E0F8
:101FA000C8010E9415229C012F5F3F4FFC019181C7
:101FB0009C3229F09E3409F0B1C090937D056CE20B
:101FC00070E0C9010E9415227C018C010F5F1F4F38
:101FD000FC0181818C3209F455C043E050E0B80126
:101FE000CE0101960E9427221C82CE0101960E94FA
:101FF000E7214B015C01B7016C5F7F4F42E050E08D
:10200000CE0101960E9427220A5F1F4F44E050E054
:10201000B801CE0103960E9427221F82CE010196AD
:102020000E94E7219B01AC01A2E3B0E00E949C2149
:1020300023E030E040E050E00E946E21CA01B90187
:102040000E94ED1E2CE933E549EC56E30E94722014
:1020500020E030E040E752E40E94431E6B017C0127
:10206000C501B4010E94ED1E9B01AC01C701B60180
:102070000E945B1D6093570370935803809359032C
:1020800090935A036CE270E0C8010E941522FC0193
:1020900091819C3229F0973509F044C09093C9038F
:1020A0006CE270E0CF0101960E9415226CE270E0B4
:1020B00001960E9415226CE270E001960E941522A2
:1020C000FC0121812C3209F4A1CE01960E94C52188
:1020D0000E94BC1E4B015C0120E137E240E050E071
:1020E0000E944C2120935A0524E6C22ED12CE12CCB
:1020F000F12CA70196010E944C2120933302C501C7
:10210000B401A70196010E944C21609358057ECE30
:10211000263509F011CD10925605DDCE933509F024
:102120000BCD4BCF953409F007CDB8CFCF930E949C
:10213000C70C8432E1F70E94CE0C0E94C70CC82F56
:102140000E94CE0CCA30C9F78091BE05882379F36E
:102150001092BE058091BC059091BD050E94550D61
:10216000882329F3CF91089525B1982F9370922B4E
:1021700095B925B1982F9C6F922395B92BB1982FC3
:102180009C7F922B9BB99BB1836089238BB941982B
:10219000419A08950F931F93CF93DF93EA01162F6F
:1021A000072F439842980E94B410429A802F0E94B1
:1021B000B410812F0E94B4108D2F0E94B4108C2F68
:1021C0000E94B410439ADF91CF911F910F9108950F
:1021D0000F931F93CF93DF938B01E901B0E0A0E051
:1021E000DC019927882770E060E0482B592B6A2B87
:1021F0007B2B8AE20E94CA10C801B0E0A0E0DC019B
:1022000099278827AE0170E060E0482B592B6A2B94
:102210007B2B8BE2DF91CF911F910F910C94CA1011
:10222000AF92BF92CF92DF92EF92FF920F931F93E4
:10223000CF93DF935C016B017A01E9010E94E81002
:10224000439842988CE20E94B410429A97012F5F03
:102250003F4F2A193B09DE011196AC19BD090E94B6
:102260008D216B017C0181E0C81AD108E108F108D9
:102270008FEFC816D806E806F80661F4439ADF9196
:10228000CF911F910F91FF90EF90DF90CF90BF9073
:10229000AF900895812F0E94B410802F0E94B41037
:1022A000E2CF0F931F934817590760F0261737079F
:1022B00048F0403F510530F42034E1E03E0710F48F
:1022C0000E9410111F910F9108951F93CF93DF93D8
:1022D000182FEB0143984298892F0E94B410812F48
:1022E0000E94B410429A8D2F0E94B4108C2F0E942D
:1022F000B410439ADF91CF911F910895CF93C62FC9
:10230000439842980E94B410429A8C2F0E94B410B5
:10231000439ACF91089588B18F6488B92FEF8FE3E6
:1023200092E0215080409040E1F700C000004698C4
:1023300025E02A95F1F7469A4398429880E00E945A
:10234000B41083E04198419A8150E1F7439A8FEFAE
:102350009FE322E0815090402040E1F700C0000060
:1023600008950E948B1160E081E00E947E112FEFA2
:102370008FE191E0215080409040E1F700C00000E3
:1023800060E088E20E947E1163E280EC0E947E1190
:1023900060E181EC0E947E116BE27BE285EC90E0D3
:1023A0000E94651160EC87EC0E947E1168E886E36C
:1023B0000E947E1165E58AE30E947E116BE170E068
:1023C00081EB90E00E94651167E087EB0E947E112F
:1023D00060E081E10E947E112FEF8FE593E02150B4
:1023E00080409040E1F700C0000060E089E20E9478
:1023F0007E112FEF8FE39BE0215080409040E1F76A
:1024000000C00000089598E0699FB0011124607E2B
:102410007770469546954695642B90E0982F8827CF
:102420008827987F862B972B0895CF93DF93EA0117
:10243000803F9105D0F4603421E07207B0F42FE3BF
:1024400031E04FEE50E00E94E810439842988CE251
:102450000E94B4108CE20E94B410429A8D2F0E9408
:10246000B4108C2F0E94B410439ADF91CF9108953D
:102470002F923F924F925F926F927F928F929F9294
:10248000AF92BF92CF92DF92EF92FF920F931F9382
:10249000CF93DF93CDB7DEB72C970FB6F894DEBF9E
:1024A0000FBECDBF6C015B013A832983202E803F94
:1024B00091050CF06AC0603481E078070CF065C0CB
:1024C000C60126E0029F800D911D112418161906E1
:1024D0000CF05BC0802F90E09C878B8723E0880FF7
:1024E000991F2A95E1F7860F971F181619060CF009
:1024F0004CC095E0499FA00111242601F12CE12C4C
:10250000CA018657994F9E838D838B859C85019741
:1025100098878F83ED81FE81EE0DFF1D34908F81B2
:102520009885840D951D9C838B838B849C848A0C59
:102530009B1C712C612CC6018E0D9F1D9A8789876B
:1025400030FE0CC091E0291239C049815A81B30193
:102550006A0D7B1D89859A850E94151236949FEF1E
:10256000691A790A8B859C85880E991E98E06916F0
:10257000710431F72FEFE21AF20A8B859C85480E21
:10258000591E95E0E916F10429F62C960FB6F89439
:10259000DEBF0FBECDBFDF91CF911F910F91FF9096
:1025A000EF90DF90CF90BF90AF909F908F907F90F3
:1025B0006F905F904F903F902F90089509811A81FE
:1025C0009401215031094B815C81B4018B859C853C
:1025D000681B790BC2010E945111C0CF2F923F920C
:1025E0004F925F926F927F928F929F92AF92BF9223
:1025F000CF92DF92EF920F931F93CF93DF935B0104
:1026000049013801403F51052CF520E4821621E0B4
:10261000920604F566E06A9D90016B9D300D1124D1
:10262000240F351F12161306ACF4950173E0220F28
:10263000331F7A95E1F7280D391D1216130654F44D
:10264000E69E10011124EA016C01512C412C4A1420
:102650005B0494F0DF91CF911F910F91EF90DF9089
:10266000CF90BF90AF909F908F907F906F905F9032
:102670004F903F902F900895F60141916F014423B0
:1026800049F30E2D9301B401CE010E943812FFEFE1
:102690004F1A5F0AC20DD31DDACF2F923F924F928D
:1026A0005F926F927F928F929F92AF92BF92CF92E2
:1026B000DF92EF92FF920F931F93CF93DF93CDB7EB
:1026C000DEB7A4970FB6F894DEBF0FBECDBF2C01C6
:1026D0003B011A0182E3882E912CB12CA12CCE0152
:1026E00001966C0194E2F92EB2016A0D7B1D44E261
:1026F00050E095E2691671042CF0C50183968615A9
:1027000097053CF1C6010E942722EE24E394810143
:1027100094014CE050E064E270E0C6010E94EE12C9
:10272000A4960FB6F894DEBF0FBECDBFDF91CF9158
:102730001F910F91FF90EF90DF90CF90BF90AF90DF
:102740009F908F907F906F905F904F903F902F90D1
:102750000895C6010E942722EE24E394810194018A
:102760004CE050E064E270E0C6010E94EE12F60117
:102770008F2D11928A95E9F79CE0890E911CE4E275
:10278000AE0EB11CB1CF2F923F924F925F926F92DB
:102790007F928F929F92AF92BF92CF92DF92EF92F1
:1027A000FF920F931F93CF93DF9300D000D0CDB74C
:1027B000DEB79C838B837B016A0158018901061B6C
:1027C000170B17FF03C011950195110946018B8165
:1027D0009C81881A990A97FE03C09194819491086C
:1027E000801691065CF49C2D8D2D6901292F382FC0
:1027F0009B818C81FC82EB82E92EF82E8B819C815F
:10280000C816D9065CF49E2D8F2D7901292F382FFB
:102810009B818C81DC82CB82C92ED82E16018B81C4
:102820009C81281A390A29014E185F0857FE03C0F7
:10283000519441945108310137FE03C09FEF691A4A
:10284000790A759467948FEF9FEFE216F30614F4FC
:1028500081E090E09A8389831BC0A5016B817C8114
:10286000C701801691061CF0B7018B819C810E94E4
:1028700015126418750877FE06C089819A81E80EE2
:10288000F91E620C731C8B819C8101969C838B8347
:102890008B819C81C816D90604F70F900F900F907A
:1028A0000F90DF91CF911F910F91FF90EF90DF90EC
:1028B000CF90BF90AF909F908F907F906F905F90E0
:1028C0004F903F902F9008950F931F93460F571FDF
:1028D0004150510989019A01AC010E94C3131F9113
:1028E0000F9108950F931F93480F591F415051099D
:1028F00089019B010E94C3131F910F9108952F928C
:102900003F924F925F926F927F928F929F92AF927F
:10291000BF92CF92DF92EF92FF920F931F93CF93CC
:10292000DF93CDB7DEB7AA970FB6F894DEBF0FBE20
:10293000CDBF9A8389837AA769A71A0159014701F4
:10294000D88ECF8A261737070CF076C1E616F70621
:102950005CF58A149B04E4F49A2D8B2D540189A410
:102960009AA499A78AA7922D832D180109811A810B
:1029700099838A8319C099A58AA5BAA6A9A6A92E62
:10298000B82E99818A813A822982292E382EE1CF68
:1029900099A58AA59AA689A6892E982E99818A81B9
:1029A0001A830983092F182F89819A818219930923
:1029B00029A53AA52A193B09A801421953095E83A2
:1029C0004D83B4016A197B097A876987D8014981E7
:1029D0005A81A41BB50BBE87AD87B401A9A5BAA5C2
:1029E0006A1B7B0B7A8B698BA815B90509F49AC011
:1029F0001197BE8BAD8B8501412C512C3201C12C1E
:102A0000D12C7601A901330F660B770B498F5A8FB2
:102A10006B8F7C8F29853A85032E000C440B550B58
:102A20002D8F3E8F4F8F58A3AC01990F660B770BFC
:102A300049A35AA36BA37CA36D817E81072E000C52
:102A4000880B990B6DA37EA38FA398A72D893E8930
:102A5000201731070CF06BC0C80149A55AA5841B8B
:102A6000950B6D857E85869F6001879FD00C969F14
:102A7000D00C11240D2C000CEE08FF08C8018A1997
:102A80009B09AD81BE818A9F20018B9F500C9A9F2C
:102A9000500C1124052C000C6608770829893A8906
:102AA000032E000C440B550B298B3A8B4B8B5C8B04
:102AB00049855A85052E000C660B770B49875A8786
:102AC0006B877C876D857E85072E000C880B990BA4
:102AD0006D877E878F87988BCD01092E000CAA0BFE
:102AE000BB0B8D839E83AF83B887801691060CF055
:102AF00060C0AA960FB6F894DEBF0FBECDBFDF91BF
:102B0000CF911F910F91FF90EF90DF90CF90BF90EA
:102B1000AF909F908F907F906F905F904F903F907D
:102B20002F90089549A55AA55E8B4D8B64CFC701A0
:102B3000B601298D3A8D4B8D5C8D0E946E21C101AD
:102B4000820F931F9C838B83C301B2012D8D3E8D19
:102B50004F8D58A10E946E21220D331D49A15AA10B
:102B60006BA17CA1C40ED51EE61EF71E6DA17EA131
:102B70008FA198A5460E571E681E791E8B819C81D9
:102B80002817390734F49B818C813C832B83292FB0
:102B9000382FA901AB81BC814A1B5B0B4F5F5F4F94
:102BA0002F89388DB801CD010E9472140F5F1F4F1D
:102BB0004DCFC701B60129893A894B895C890E94AA
:102BC0006E21A981BA81A20FB31FBC83AB83C3015D
:102BD000B20129853A854B855C850E946E21220DC4
:102BE000331D4D855E856F857889C40ED51EE61E22
:102BF000F71E6D817E818F819885460E571E681E57
:102C0000791E8B819C812817390734F49B818C8134
:102C10003C832B83292F382FA901AB81BC814A1B10
:102C20005B0B4F5F5F4F2F89388DB801CD010E943C
:102C300072140F5F1F4F59CFE216F3060CF49BCEB0
:102C40008B2DA9A4BAA429A78AA7942F832D298004
:102C50003A808ECEAF92BF92CF92DF92EF92FF92E8
:102C60000F931F93CF93DF935C01EB0182E0A816D3
:102C7000B10409F059C08B012CED30E042E850E07E
:102C800064EB70E08EE690E00E9410116E0194EB10
:102C9000E92EF12C0CE810E020EA30E048E750E0A3
:102CA00064EB70E084E690E00E947F1485E0A81653
:102CB000B10409F074C06E0162EBE62EF12C0FE74F
:102CC00010E020EC30E04DE850E06FEC70E082E680
:102CD00090E00E947F147DEDE72EF12C00E710E0DC
:102CE00020EC30E04DE850E06FEC70E082E690E0E0
:102CF0000E947F14E4EEEE2EF12C08E710E028ECA1
:102D000030E04BE550E064EE70E08BE590E00E942F
:102D10007F14DF91CF911F910F91FF90EF90DF9083
:102D2000CF90BF90AF90089586E0A816B104C1F48B
:102D30008B012CED30E042E850E064EB70E08EE671
:102D400090E00E9410116E018CEDE82EF12C0CE841
:102D500010E020EF30E048E750E06CED70E0A2CFEB
:102D6000A114B10409F04BC08B0122ED30E04CE816
:102D700050E06EEB70E084E690E00E9410116E016E
:102D80000CEDE02EF12C0CE810E024EB30E04CE8E8
:102D900050E068EC70E080EA90E00E947F1483E0ED
:102DA000A816B10409F04BC06E013FECE32EF12CE4
:102DB0000DE810E02DED30E04FE750E062EB70E001
:102DC00080E790E00E947F1440ECE42EF12C02E6B4
:102DD00010E02DED30E04FE750E062EB70E080E76F
:102DE00090E00E947F1458ECE52EF12C0BE510E0EA
:102DF0002BEA30E048E750E06BEA70E086CF84E0F1
:102E0000A816B10409F04BC08B0122ED30E04CE86C
:102E100050E06EEB70E084E690E00E9410116E01CD
:102E20001CEDE12EF12C04E610E024EB30E044E64A
:102E300050E068EC70E080E590E00E947F1487E04D
:102E4000A816B10409F065CF6E018FECE82EF12CC5
:102E50000DE810E02DED30E04FE750E062EB70E060
:102E600080E790E00E947F1490ECE92EF12C02E6BE
:102E700010E02DED30E04FE750E062EB70E080E7CE
:102E800090E00E947F1424EEE22EF12C08E710E07F
:102E900028EC30E044E950E064EE70E02FC081E0BF
:102EA000A816B10409F002CF6B01F2EBEF2EF12C62
:102EB0000FE710E020EC30E04DE850E06FEC70E000
:102EC00082E690E00E947F14ADEDEA2EF12C00E73F
:102ED00010E020EC30E04EE850E06FEC70E082E66D
:102EE00090E00E947F14B8ECEB2EF12C04E910E086
:102EF0002BEA30E048E750E06BEA70E084E990E0CC
:102F000006CF1092B9008093B8000895CF92DF9257
:102F1000EF92FF920F931F93E82FCA01802B912B02
:102F2000892B09F4ABC084EA8093BC008091BC007B
:102F300087FFFCCF8091B900887F883009F06EC090
:102F40008E2F8E7F8093BB0084E88093BC0080919D
:102F5000BC0087FFFCCF8091B900887F8831E1F009
:102F6000803209F05BC094E99093BC0057C0DB014C
:102F70008D91BD018093BB00F093BC008091BC009B
:102F800087FFFCCF8091B900887F883241F0803381
:102F900009F044C080E3E7CF460F571FF4E86417F9
:102FA000750729F7020F131F94E810C0D9018D91FE
:102FB0009D018093BB009093BC008091BC0087FF73
:102FC000FCCF8091B900887F883209F7201731073C
:102FD00069F720E1C114D10411F44EC028E084EA5D
:102FE0008093BC008091BC0087FFFCCF8091B9002A
:102FF000887F281313C0E160E093BB0084E88093CE
:10300000BC008091BC0087FFFCCF8091B900887F15
:1030100094EC8034E9F0883409F4A5CF1F910F9126
:10302000FF90EF90DF90CF9008959093BC00809137
:10303000BC0087FFFCCF8091B900887FB1E0CB1A3C
:10304000D108803559F78091BB00F70181937F014A
:10305000F1E0CF16D10449F784E88093BC00809159
:10306000BC0087FFFCCF8091B900887F8835B1F61E
:103070008091BB00D7018C9380E075CFC114D1043F
:1030800009F0ACCF80E0CACFCF92DF92EF92FF92EF
:103090000F931F9380E78093260280E880937C053E
:1030A00082E0809357051092A7031092A603109216
:1030B000A9031092A8031092BD031092BC031092B2
:1030C000BF031092BE0310925905D12CC12CF12CD4
:1030D000E12C10E000E030E020E041E050E06CE75F
:1030E00075E080E70E94861791E0811190E0892FBA
:1030F0001F910F91FF90EF90DF90CF900895CF92A6
:10310000DF92EF92FF920F931F93CF93DF9300D044
:10311000CDB7DEB78FEF8A83CC24C394D12CCE01F8
:1031200002967C0110E000E030E020E041E050E059
:1031300067E575E0809126020E9486178823E9F0F2
:103140001092A7031092A6031092A9031092A8034D
:103150001092BD031092BC031092BF031092BE03E5
:10316000109259050F900F90DF91CF911F910F9101
:10317000FF90EF90DF90CF9008958A81833000F721
:103180008093590583E08983CC24C394D12CCE014C
:1031900002967C0110E000E030E020E041E050E0E9
:1031A000BE016F5F7F4F809126020E9486178A8141
:1031B0008F701092A6038093A70384E0898330E088
:1031C00020E041E050E0BE016F5F7F4F809126021A
:1031D0000E9486172A818091A6039091A703822BD3
:1031E0009093A7038093A60385E0898330E020E0D5
:1031F00041E050E0BE016F5F7F4F809126020E9448
:1032000086178A818F701092BC038093BD0386E07D
:10321000898330E020E041E050E0BE016F5F7F4FE6
:10322000809126020E9486172A818091BC0390918A
:10323000BD03822B9093BD038093BC0389E08983F7
:1032400030E020E041E050E0BE016F5F7F4F8091B1
:1032500026020E9486178A818F701092A80380939D
:10326000A9038AE0898330E020E041E050E0BE011C
:103270006F5F7F4F809126020E9486172A8180917E
:10328000A8039091A903822B9093A9038093A8038C
:103290008BE0898330E020E041E050E0BE016F5FC9
:1032A0007F4F809126020E9486178A818F7010922C
:1032B000BE038093BF038CE0898330E020E041E0CF
:1032C00050E0BE016F5F7F4F809126020E948617FB
:1032D0002A818091BE039091BF03822B9093BF03FC
:1032E0008093BE033FCFCF92DF92EF92FF920F9376
:1032F0001F93CF93DF9300D00F92CDB7DEB78CE34F
:1033000080935C0382E080939C0581E08093280297
:103310001B82D12CC12CF12CE12C01E010E09E018C
:103320002D5F3F4F41E050E06CE975E08CE30E9477
:1033300086178FEF8A83CC24C394D12CCE010296BA
:103340007C0110E000E030E020E041E050E068E285
:1033500072E080915C030E94861780E090E8A9E803
:10336000B4E480938C0390938D03A0938E03B09369
:103370008F0380E090E0A5E7B4E48093C4039093CA
:10338000C503A093C603B093C70380E28983D12C01
:10339000C12CF12CE12C9E012F5F3F4F41E050E00A
:1033A00068EC73E080915C030E9486170F900F9089
:1033B0000F90DF91CF911F910F91FF90EF90DF90D1
:1033C000CF9008954F925F926F927F928F929F92CB
:1033D000AF92BF92CF92DF92EF92FF920F931F9323
:1033E000CF93DF9300D0CDB7DEB78FEF8A8383E032
:1033F0008983CC24C394D12CCE0102967C0110E0A9
:1034000000E030E020E041E050E0BE016F5F7F4F20
:1034100080915C030E9486178823B1F0DD24D39449
:103420008D2D0F900F90DF91CF911F910F91FF90F5
:10343000EF90DF90CF90BF90AF909F908F907F9054
:103440006F905F904F9008957A8084E08983CC24B8
:10345000C394D12CCE0102967C0110E000E030E054
:1034600020E041E050E0BE016F5F7F4F80915C0340
:103470000E9486178111D2CFBA8085E0898330E01F
:1034800020E041E050E0BE016F5F7F4F80915C0320
:103490000E9486178111C2CF9A8086E0898330E02E
:1034A00020E041E050E0BE016F5F7F4F80915C0300
:1034B0000E9486178111B2CFAA8087E0898330E00D
:1034C00020E041E050E0BE016F5F7F4F80915C03E0
:1034D0000E9486178111A2CF8A8088E0898330E01C
:1034E00020E041E050E0BE016F5F7F4F80915C03C0
:1034F0000E948617D82E811191CFEA80772D6B2DEF
:103500007093BB036093BA03F82CF0922C02E09204
:103510002B02192D0A2D1093510300935003809014
:103520008C0390908D03A0908E03B0908F03072E94
:10353000000C880B990B0E94ED1EA50194010E94BE
:10354000431E20E030E048EC52E40E9472202B0140
:103550003C0140922D0250922E0260922F027092F6
:103560003002B701FF0C880B990B0E94ED1EA501DC
:1035700094010E94431E20E030E048EC52E40E9497
:1035800072204B015C018092A0039092A103A09253
:10359000A203B092A303B801110F880B990B0E94EC
:1035A000ED1E2091C4033091C5034091C603509194
:1035B000C7030E94431E20E030E048EC52E40E9422
:1035C000722060934E0570934F0580935005909341
:1035D0005105A3019201C501B4010E94DA1D20E04A
:1035E00030E044E353E40E9472202BED3FE049E4D5
:1035F00050E40E94431E0E94B51E6C547F4F70938E
:103600004C0560934B050CCF1092520384B183603C
:1036100084B98AB18C6F8AB988B18F6488B987B14F
:103620008F6487B90E94B1114AE36EE18CED0E946C
:10363000031290932A02809329024AE36EE18CEDF3
:103640000E94031290937B0580937A0540E06FEF10
:103650008FEF0E94031290936B0580936A0540E000
:103660006FEF8FEF0E94031290933202809331022A
:103670000E948C0C0E94100D8AE20E9481170E9409
:1036800044180E9473190E94E405009129021091C8
:103690002A022FE331E04FEE50E070E060E090E06E
:1036A00080E00E94511181E080935203D12CC12C03
:1036B000D0E0C0E0FDE2FF2EA3E09A2E88248394A0
:1036C000B6E07B2E15E0612E83E397E00197F1F7DA
:1036D000219680915203813009F094C06AED71E027
:1036E0008DE593E00E94202200916A0510916B0500
:1036F00054E0E52E2EE130E04CE050E062E370E073
:103700008DE593E00E94EE126DE5A62E63E0B62EE5
:10371000D501EF2D1D92EA95E9F763EE71E0C50141
:103720000E94202200916A0510916B0572E0E72E3D
:1037300026E430E04CE050E062E370E0C5010E9416
:10374000EE12D501EF2D1D92EA95E9F761EF71E0D8
:10375000C5010E94202200916A0510916B052FE59A
:1037600030E04CE050E062E370E0C5010E94EE12F0
:10377000D501EF2D1D92EA95E9F700916A051091A8
:103780006B052FE331E04FEE50E06CED70E090E020
:1037900080E00E94511169EF71E0C5010E94202272
:1037A0000091290210912A02E4E0EE2E2FEF30E082
:1037B0004CE350E062E370E0C5010E94EE12D501D7
:1037C000EF2D1D92EA95E9F70E947F188091590527
:1037D0008823D1F38091BC039091BD038C3D91056A
:1037E00098F382E0809352030091290210912A02FB
:1037F0002FE331E04FEE50E070E060E090E080E0D9
:103800000E94511180915203823071F4CF30D10562
:1038100059F40E9496100E94B709809156058111B3
:1038200090925203D0E0C0E080915203833039F58A
:10383000CF30D10521F5FFEFCF1ADF0A0E94961095
:1038400080915605811106C082E080935203D0E03A
:10385000C0E03ACF0E94C3060E941E070E94B7092B
:103860000E94E2190E94760B83E0C816D10429F465
:1038700084E080935203D12CC12CD0E0C0E0809131
:103880005203843009F00AC10E94FE0B00917A05B0
:1038900010917B052EEB30E046EE50E062E370E0E5
:1038A0008AE090E00E94511140916A0550916B05A9
:1038B00069E671E08AEC93E00E944D1300916A057D
:1038C00010916B052FE331E04FEE50E06CED70E0AE
:1038D00090E080E00E94511120915B0380913402BE
:1038E0008150990B2817190609F0ABC06FEF71E0F2
:1038F0008DE593E00E9420220091290210912A0276
:1039000044E0E42E2FEF30E042E350E062E370E069
:103910008DE593E00E94EE12EDE5F3E0DF018F2DDF
:103920001D928A95E9F70E947F1880915905882396
:10393000D1F38091BC039091BD038C3D910598F328
:1039400020915B03809134028150990B281719064E
:1039500009F088C0609252030091290210912A0256
:103960002FE331E04FEE50E070E060E090E080E067
:103970000E945111E0915B03F0E0EE0FFF1FED5F3D
:10398000FD4F659174918DE593E00E940E22409168
:103990006A0550916B056DE270E08DE593E00E9441
:1039A0004D139DE5A92E93E0B92ED501EF2D1D9263
:1039B000EA95E9F700916A0510916B052FE331E074
:1039C0004FEE50E06CED70E090E080E00E9451110D
:1039D0006BE072E0C5010E94202200912902109143
:1039E0002A0224E0E22E2FEF30E046E450E062E3CA
:1039F00070E0C5010E94EE12D501EF2D1D92EA95EF
:103A0000E9F70E947F18809159058823D1F38091AE
:103A1000BC039091BD038C3D910598F380925203B5
:103A20000E94E4050091290210912A022FE331E05F
:103A30004FEE50E070E060E090E080E00E945111B5
:103A400030C066E072E08DE593E00E942022009194
:103A5000290210912A0234E0E32E2FEF30E046E4F1
:103A600050E054CF709252030091290210912A0223
:103A70002FE331E04FEE50E070E060E090E080E056
:103A80000E9451110E9452060E9496108091560584
:103A900081110DC082E08093520316CE853009F467
:103AA0005BCF80915203863009F00ECEDDCF90922D
:103AB00052030ACE5058BB27AA270E94721D0C94AD
:103AC00017200E94DE1F38F00E94E51F20F039F415
:103AD0009F3F19F426F40C94B41F0EF4E095E7FB15
:103AE0000C94A01FE92F0E943C2058F3BA176207DC
:103AF00073078407950720F079F4A6F50C945E20EF
:103B00000EF4E0950B2EBA2FA02D0B01B9019001F8
:103B10000C01CA01A0011124FF27591B99F0593F3C
:103B200050F4503E68F11A16F040A22F232F342F84
:103B30004427585FF3CF469537952795A795F040D2
:103B40005395C9F77EF41F16BA0B620B730B840BE7
:103B5000BAF09150A1F0FF0FBB1F661F771F881F9F
:103B6000C2F70EC0BA0F621F731F841F48F48795F7
:103B700077956795B795F7959E3F08F0B0CF9395E9
:103B8000880F08F09927EE0F9795879508950E9462
:103B9000DE1F60F080E891E009F49EEF0E94E51FCF
:103BA00028F040E851E071F45EEF0CC00C94B41FB3
:103BB0000C945E20E92FE0780E943C2040F3092E0F
:103BC000052AB1F3261737074807590738F00E2E94
:103BD00007F8E02569F0E025E0640AC0EF6307F824
:103BE000009407FADB01B9019D01DC01CA01AD01B6
:103BF000EF930E945A1E0E9417200E940A1E5F9196
:103C0000552339F02BED3FE049E450FD49EC0C948D
:103C10005B1D0895DF93DD27B92FBF7740E85FE391
:103C20001616170648075B0718F4D92F0E946A205A
:103C30009F938F937F936F930E942D21E8E6F0E08E
:103C40000E94B71F0E9417202F913F914F915F91C3
:103C50000E948520DD2351F09058A2EA2AED3FE032
:103C600049EC5FE3D0785D270E94721DDF910C94D0
:103C700017200E947C1F08F481E008950E94EE1F27
:103C8000E3950C9428200E94571E0C9417200E9444
:103C9000E51F58F00E94DE1F40F029F45F3F29F035
:103CA0000C94A01F51110C945F200C94B41F0E941F
:103CB0003C2068F39923B1F3552391F3951B550BE1
:103CC000BB27AA2762177307840738F09F5F5F4FEF
:103CD000220F331F441FAA1FA9F335D00E2E3AF02E
:103CE000E0E832D091505040E695001CCAF72BD046
:103CF000FE2F29D0660F771F881FBB1F2617370797
:103D00004807AB07B0E809F0BB0B802DBF01FF27C8
:103D100093585F4F3AF09E3F510578F00C94A01FE6
:103D20000C945F205F3FE4F3983ED4F3869577953B
:103D30006795B795F7959F5FC9F7880F911D969581
:103D4000879597F90895E1E0660F771F881FBB1FDD
:103D5000621773078407BA0720F0621B730B840B8A
:103D6000BA0BEE1F88F7E09508950E94BC1E689478
:103D7000B1110C945F2008950E94442088F09F5751
:103D800098F0B92F9927B751B0F0E1F0660F771F7F
:103D9000881F991F1AF0BA95C9F714C0B13091F075
:103DA0000E945E20B1E008950C945E20672F782F6A
:103DB0008827B85F39F0B93FCCF38695779567953A
:103DC000B395D9F73EF490958095709561957F4FA6
:103DD0008F4F9F4F0895E89409C097FB3EF490954C
:103DE0008095709561957F4F8F4F9F4F9923A9F0D4
:103DF000F92F96E9BB279395F69587957795679563
:103E0000B795F111F8CFFAF4BB0F11F460FF1BC0A6
:103E10006F5F7F4F8F4F9F4F16C0882311F096E939
:103E200011C0772321F09EE8872F762F05C06623E7
:103E300071F096E8862F70E060E02AF09A95660FA0
:103E4000771F881FDAF7880F9695879597F9089559
:103E50000E94DE1F20F019F00E94E51F50F40C9420
:103E6000B41F0C945F20E92F0E943C2088F3552357
:103E7000B1F3E7FB6217730784079507A8F189F38D
:103E8000E92FFF2788232AF03197660F771F881FB5
:103E9000DAF7952F5527442332F091505040220FE6
:103EA000331F441FD2F7BB27E91BF50B621B730BB3
:103EB000840BB109B1F222F4620F731F841FB11D8C
:103EC00031972AF0660F771F881FBB1FEFCF9150E5
:103ED000504062F041F0882332F0660F771F881F50
:103EE00091505040C1F793950C94A61F86957795F5
:103EF00067959F5FD9F7F7CF990F0008550FAA0B69
:103F0000E0E8FEEF16161706E807F907C0F01216EC
:103F10001306E407F50798F0621B730B840B950BEF
:103F200039F40A2661F0232B242B252B21F4089544
:103F30000A2609F4A140A6958FEF811D811D0895E1
:103F400097F99F6780E870E060E008959F3F31F047
:103F5000915020F4879577956795B795880F911DB7
:103F60009695879597F908959FEF80EC0895DF93D4
:103F7000CF931F930F93FF92EF92DF927B018C01FF
:103F8000689406C0DA2EEF010E948520FE01E894B5
:103F9000A5912591359145915591A6F3EF010E9488
:103FA000721DFE019701A801DA9469F7DF90EF9086
:103FB000FF900F911F91CF91DF91089500240A94F3
:103FC0001616170618060906089500240A941216F4
:103FD00013061406050608950C94B41F0E9444208D
:103FE000D8F3E894E0E0BB279F57F0F02AED3FE0DC
:103FF00049EC06C0EE0FBB0F661F771F881F28F025
:10400000B23A62077307840728F0B25A620B730B47
:10401000840BE3959A9572F7803830F49A95BB0F2C
:10402000661F771F881FD2F790480C94A81F092E8F
:104030000394000C11F4882352F0BB0F40F4BF2B03
:1040400011F460FF04C06F5F7F4F8F4F9F4F089543
:10405000EF93E0FF07C0A2EA2AED3FE049EC5FEBF7
:104060000E94721D0E9417200F90039401FC90582B
:10407000E5E9F0E00C94382157FD9058440F551FA6
:1040800059F05F3F71F04795880F97FB991F61F0DA
:104090009F3F79F087950895121613061406551F51
:1040A000F2CF4695F1DF08C0161617061806991FBD
:1040B000F1CF86957105610508940895E894BB27B2
:1040C00066277727CB0197F908950E947C1F08F493
:1040D0008FEF08959B01AC0160E070E080E89FE302
:1040E0000C94431E0E9485200C9417200E94DE1F12
:1040F00038F00E94E51F20F0952311F00C94A01FCA
:104100000C94B41F11240C945F200E943C2070F387
:10411000959FC1F3950F50E0551F629FF001729F6C
:10412000BB27F00DB11D639FAA27F00DB11DAA1F7B
:10413000649F6627B00DA11D661F829F2227B00DC8
:10414000A11D621F739FB00DA11D621F839FA00D53
:10415000611D221F749F3327A00D611D231F849FA3
:10416000600D211D822F762F6A2F11249F575040FA
:104170009AF0F1F088234AF0EE0FFF1FBB1F661F75
:10418000771F881F91505040A9F79E3F510580F03E
:104190000C94A01F0C945F205F3FE4F3983ED4F38F
:1041A000869577956795B795F795E7959F5FC1F7E2
:1041B000FE2B880F911D9695879597F908959F93EB
:1041C0000E94EE1F0F9007FCEE5F0C94282019F45C
:1041D00016F40C94B41F0C94A61F0E944420B8F34C
:1041E0009923C9F3B6F39F57550B87FF0E943121DE
:1041F0000024A0E640EA900180585695979528F44F
:10420000805C660F771F881F20F026173707480746
:1042100030F4621B730B840B202931294A2BA6959D
:1042200017940794202531254A2758F7660F771FE2
:10423000881F20F026173707480730F4620B730BEE
:10424000840B200D311D411DA09581F7B901842FEC
:104250009158880F9695879508959B01AC010C9411
:10426000722091505040660F771F881FD2F7089533
:104270009F938F937F936F93FF93EF939B01AC0179
:104280000E947220EF91FF910E94B71F2F913F91E2
:104290004F915F910C947220A1E21A2EAA1BBB1BB6
:1042A000FD010DC0AA1FBB1FEE1FFF1FA217B30702
:1042B000E407F50720F0A21BB30BE40BF50B661F18
:1042C000771F881F991F1A9469F7609570958095DC
:1042D00090959B01AC01BD01CF010895052E97FB80
:1042E0001EF400940E94852157FD07D00E944C21A6
:1042F00007FC03D04EF40C948521509540953095E1
:1043000021953F4F4F4F5F4F089590958095709541
:1043100061957F4F8F4F9F4F0895A29FB001B39F2C
:10432000C001A39F700D811D1124911DB29F700DBE
:10433000811D1124911D08950E948D21A59F900D2E
:10434000B49F900DA49F800D911D11240895EF92AC
:104350000F931F93CF93DF93E80134E047FD34E1DF
:10436000042E000C550B57FF03C051954195510980
:10437000E32E022F242FAE010E946824CE01DF918C
:10438000CF911F910F91EF900895662777270C9496
:10439000CA25FC0188279927E89421912032E9F366
:1043A000293010F02E30C8F32B3241F02D3239F481
:1043B000689404C00E946522820F911D21912053B0
:1043C0002A30C0F31EF4909581959F4F08951F9356
:1043D000FC0199278827BC01E89411911032E9F378
:1043E000193010F01E30C8F31B3251F01D3249F461
:1043F000689406C00E945022610F711D811D911D9D
:10440000119110531A30B0F33EF490958095709549
:1044100061957F4F8F4F9F4F1F910895FB01DC01E6
:1044200005900D920020E1F70895FC018191861717
:1044300021F08823D9F7992708953197CF0108955E
:10444000FB01DC0101900D920020E1F70895FB01D2
:10445000DC014150504048F001900D920020C9F716
:1044600001C01D9241505040E0F70895FB01519169
:104470005523A9F0BF01DC014D9145174111E1F72A
:1044800059F4CD010190002049F04D9140154111A2
:10449000C9F3FB014111EFCF81E090E0019708954E
:1044A000592F482F372F262F660F771F881F991FE8
:1044B000660F771F881F991F620F731F841F951F38
:1044C000660F771F881F991F08957AE0979F902D98
:1044D000879F802D910D11240895AEE0B0E0E3E7B1
:1044E000F2E20C94B6280D891E898F89988D26E0FA
:1044F0002C831A83098397FF02C080E090E801971C
:104500009E838D83AE01455E5F4F698D7A8DCE01AE
:1045100001960E949D224D815E8157FD0AC02F8128
:104520003885421753070CF49A01020F131FF80144
:1045300010822E96E4E00C94D228ABE0B0E0E3EADF
:10454000F2E20C94A8287C013B018A01FC0117824D
:104550001682838181FFB9C19AE0292ECE0101968E
:104560005C01F7019381F30193FD859193FF8191A4
:104570003F01882309F446C1853239F493FD8591C2
:1045800093FF81913F01853229F4B70190E00E94A9
:104590001728E7CF912C412C512CFFE1F51538F06D
:1045A0008B3209F188F4803201F1833221F157FC1A
:1045B0003AC020ED280F2A3040F556FE1FC0929CCD
:1045C000200D1124922E06C08D3291F0803379F7A0
:1045D000689450F8F30193FD859193FF81913F0119
:1045E0008111DBCF20C0689451F8689452F8F2CF63
:1045F000689453F8EFCF689454F8ECCF429C200DA8
:104600001124422E689455F8E5CF8E3229F456FCD9
:10461000F9C0689456F8DECF8C3619F4689457F8D0
:10462000D9CF8836B9F2982F9F7D95549330C0F03A
:104630008336A1F18337C1F1833509F05BC0F801FE
:10464000C190D1908F01692D70E056FC02C06FEFD0
:104650007FEFC6010E9401284C01689457F80AC0F8
:104660000C5F1F4F2FE3298388248394912C6501CD
:10467000E89457F853FC04C04814190409F018F5DD
:10468000342C8114910431F5332009F46ACFB70139
:1046900080E290E00E9417283A94F6CFF8018081DA
:1046A00089830E5F1F4FE0CFF801C190D1908F0139
:1046B000692D70E056FC02C06FEF7FEFC6010E94CB
:1046C0000C284C01D5CFB70180E290E00E9417285A
:1046D0004A94D2CFF60157FC859157FE81916F0124
:1046E000B70190E00E94172831103A94F1E08F1A38
:1046F0009108C7CF843619F0893609F074C0F801E3
:1047000057FE6AC061917191819191918F01252D20
:104710002F76D22E97FF09C0909580957095619560
:104720007F4F8F4F9F4F6894D7F82AE030E0A50164
:104730000E944728C82ECA188C2C5D2CD6FE0CC0AF
:10474000E89450F8C91440F4D4FE05C0D2FC03C06C
:10475000FD2DFE7E5F2E892C54FE8FC0FE01EC0DD8
:10476000F11D8081803309F081C0252D297E522ED4
:10477000852D8870382E53FC8FC050FE89C09C2C2C
:10478000841418F44C0C942C981854FE8BC0B70168
:1047900080E390E00E94172852FE09C088E790E06D
:1047A00051FE02C088E590E0B7010E941728C914A5
:1047B00008F484C0CA94D12C9FEFC91AD90ACA0C34
:1047C000DB1CF60182916F01B70190E00E9417286F
:1047D000AC14BD04B1F758CF61917191072E000C54
:1047E000880B990B93CFD52CE894D4F82AE030E0CD
:1047F000853739F1952D997FD92E8F3601F148F4FF
:104800008835A9F0F701868197812B96E2E10C9417
:10481000C428803749F08837A9F7D4FE02C06894CD
:10482000D2F820E130E00DC06894D4F8F6CF54FE01
:1048300003C0E92FE660DE2E20E132E002C028E06E
:1048400030E0F801D7FE0DC0619171918191919195
:104850008F01A5010E944728C82ECA18E894D7F8EE
:104860006BCF6191719190E080E0F2CF52FC02C079
:1048700083947ECF839483947BCF852D867809F4AF
:1048800077CFF6CFB70180E290E00E94172883949B
:104890008414C0F3312C79CF342C3818841408F4E4
:1048A00074CFF8CF852D867809F481CF8BE251FE45
:1048B00080E257FC8DE2B70190E077CFB70180E34B
:1048C00090E00E9417289A9472CF8FEF9FEF9DCFB0
:1048D000A9E0B0E0EEE6F4E20C94AE286A01F22E14
:1048E000B02E102F0BE30B1508F41BE31F5F012FF5
:1048F00027E0AE014F5F5F4F0E940827BC0189810E
:10490000982F99709130C9F19BE2E1FC04C09E2D73
:104910009170E0FC90E25E2D5071E82FE87083FF0B
:1049200048C083E0911184E0EF2DE81B8F1508F05B
:10493000E0E0552371F1992319F0D6019D936D01A3
:10494000C6010396E2FE29C02EE4D6012C9331E481
:1049500011963C93119712962C932E2F382F492F96
:1049600050E221111FC0E80FF92FF11D10828EEFC8
:104970009FEF2996ECE00C94CA289DE2CCCFD90198
:104980004D9381509D018111FACFCE0ED11CE0E0F4
:10499000D2CF8E2F960140E2F6CF2EE6D6012C9391
:1049A00031E6D6CFA32FB42F5D9321503A2F4B2F52
:1049B000D8CF482F447082FF41C083E0911184E03A
:1049C0008F1510F4EF2DE81B552359F1992319F099
:1049D000D6019D936D01C6010396E2FE26C029E42F
:1049E000D6012C932EE411962C93119726E412965F
:1049F0002C932E2F382F492F50E2222309F4B3CFC6
:104A0000A32FB42F5D9321503A2F4B2FF6CFD9010E
:104A10004D9381509D018111FACFCE0ED11CE0E063
:104A2000D5CF8E2F960140E2F6CF29E6D6012C9302
:104A30002EE611962C93119726E6D9CF9B0177FF8E
:104A400002C030E020E0A1E0B0E0911102C0B0E08F
:104A5000A0E0F9013196AE0FBF1F8B2C912CBB202B
:104A6000F1F05401EFEFAE1ABE0AAA0DBB1DFA1603
:104A70001B0619F014F04F2D4A1B511145C0E3FCE1
:104A800008C07601A42FB0E2A1110CC0C40ED11C45
:104A900040E091113BC0D601942F50E30AC0B12CE5
:104AA000A12CE3CFF701B1937F01A150EDCF5D932E
:104AB00091509111FCCFC40ED11C40E02DC001E0FB
:104AC0003AC050E354C06217730739F4A63320F498
:104AD000A53319F4B11101C051E3D6015C93242F21
:104AE000382F592F60E2211108C0480F592F511D4E
:104AF000FA01108290E080E03CCFE32FF52F619324
:104B000021503E2F5F2FEFCF992331F0D6019D9397
:104B10006D01552309F4BFCF012F060FAA81B82FCD
:104B2000B07184FF03C0A13309F4015010163CF6A4
:104B3000093008F008E0FB01E01BF1098F01EE24C9
:104B4000FF24E818F9088EE2B82E621773070CF4F8
:104B5000B8CF021713070CF0B4CFFB01E21BF30B25
:104B600081E090E08C0F9D1FE80FF91F51812150CB
:104B70003109C60101962E153F050CF4A4CFF601AC
:104B800050832F3F320721F4C6010296F601B1820D
:104B90006C01DBCFB0E0A0E0E0EDF5E20C94AE28D4
:104BA0007C016B016115710519F0FB019183808314
:104BB000E7010991802F90E00E94E0275C01892B9A
:104BC000B1F50D32B1F50881E701229611E07E01C1
:104BD000F1E0EF1AF10843E050E06CEB70E0C70140
:104BE0000E94E927892B61F57E0182E0E80EF11C25
:104BF00045E050E067EB70E0C7010E94E927892B90
:104C000021F47E0197E0E90EF11CC114D10419F0E2
:104C1000F601F182E08260E070E080E89FE7112316
:104C200009F4F1C060E070E080E89FEFECC07E0125
:104C3000BFCF0B3219F40881E701229610E0C7CFED
:104C400043E050E064EB70E0C7010E94E927892B44
:104C500061F4C114D10421F02296F601D183C083FE
:104C600060E070E080EC9FE7CEC0F12CE12C20E00A
:104C700030E0A901F0EDF00FFA3058F5E12FE260D5
:104C8000812F887012FF08C0811103C0FFEFEF1A57
:104C9000FF0A09911E2FEECF882319F081E0E81A50
:104CA000F108A5E0B0E00E949C219B01AC01220F1D
:104CB000331F441F551F2F0F311D411D511D283912
:104CC00099E93907490799E1590718F3E12FE66097
:104CD000E0CFFE3F29F413FD3AC0E12FE860D9CFC1
:104CE0000F7D0534A1F588818D3241F41061BE013C
:104CF0006E5F7F4F8981E2E0F0E007C0BE018B323A
:104D0000B9F36F5F7F4FE1E0F0E08053EB01CE1B22
:104D1000DF0B8A30E0F4E0E8AE16ECE0BE065CF4AF
:104D2000F501EE0FFF1FEE0FFF1FAE0EBF1EAA0C08
:104D3000BB1CA80EB11CEB01899180538A3090F105
:104D400014FF03C0B194A194B108EA0CFB1C11FF3D
:104D500007C0C114D10421F02197F601D183C0838B
:104D6000CA01B9010E94EB1E1370133009F4905868
:104D70004B015C0120E030E0A9010E94391E88232C
:104D800009F43FC0CBEED0E0F7FE05C0F194E1940A
:104D9000F108C3EDD0E06E01F8E1CF1AD10800E2CE
:104DA00010E00FC0BE01B7CFFE01259135914591AE
:104DB0005491E01AF10AC501B4010E9472204B011E
:104DC0005C01D501C401E016F10674F7249715952E
:104DD0000795CC15DD05A9F78A2F880F8B2F881F23
:104DE0008F3F49F020E030E0A901C501B4010E94E5
:104DF000391E811106C082E290E09093B206809342
:104E0000B106C501B401CDB7DEB7ECE00C94CA28F9
:104E1000283008F027E03327DA01990F311D87FD8C
:104E2000916000966105710539F432602E5F3D9303
:104E300030E32A95E1F708959F3F30F080387105FF
:104E4000610509F03C5F3C5F3D93913008F080685C
:104E5000911DDF93CF931F930F93FF92EF92192F22
:104E6000987F9695E92F96959695E90FFF27E75B32
:104E7000FE4F99273327EE24FF24A701E701059071
:104E80000894079428F4360FE71EF81E491F511D99
:104E9000660F771F881F991F0694A1F70590079446
:104EA00028F4E70EF81E491F561FC11D770F881FF3
:104EB000991F661F0694A1F70590079428F4F80E31
:104EC000491F561FC71FD11D880F991F661F771FC7
:104ED0000694A1F70590079420F4490F561FC71FA9
:104EE000D81F990F661F771F881F0694A9F7849112
:104EF0001095177041F0D695C79557954795F7943B
:104F0000E7941A95C1F7EFEEF0E0689415901591CB
:104F100035916591959105907FE27395E118F10ABD
:104F2000430B560BC90BD009C0F7E10CF11E431F10
:104F3000561FC91FD01D7EF4703311F48A95E6CF39
:104F4000E894015030F0080F0AF40027021708F423
:104F5000202F2395022F7A3328F079E37D932A9529
:104F6000E9F710C07D932A9589F606949795679581
:104F7000379517951794E118F10A430B560BC90B97
:104F8000D00998F023957E9173957A3308F070E3F9
:104F90007C932013B8F77E9170617D9330F08395F8
:104FA00071E37D9370E32A95E1F71124EF90FF9070
:104FB0000F911F91CF91DF91992787FD90950895CB
:104FC00091110C94A528803219F089508550C8F7AA
:104FD0000895FB01DC014150504088F08D918134EF
:104FE0001CF08B350CF4805E659161341CF06B35E0
:104FF0000CF4605E861B611171F3990B0895881B98
:10500000FCCFFC010590615070400110D8F78095ED
:1050100090958E0F9F1F0895FC0161507040019084
:105020000110D8F7809590958E0F9F1F08950F93CC
:105030001F93CF93DF93182F092FEB018B8181FDF5
:1050400009C01FEF0FEF812F902FDF91CF911F919C
:105050000F91089582FF14C02E813F818C819D8124
:10506000281739073CF4E881F981CF01019699832B
:10507000888310838E819F8101969F838E83E3CFE7
:10508000E885F985812F0995892BA1F3DACFFA01FB
:10509000AA27283051F1203181F1E8946F936E7F77
:1050A0006E5F7F4F8F4F9F4FAF4FB1E03ED0B4E068
:1050B0003CD0670F781F891F9A1FA11D680F791FA9
:1050C0008A1F911DA11D6A0F711D811D911DA11DBA
:1050D00020D009F468943F912AE0269F11243019CA
:1050E000305D3193DEF6CF010895462F4770405D65
:1050F0004193B3E00FD0C9F7F6CF462F4F70405D14
:105100004A3318F0495D31FD4052419302D0A9F76E
:10511000EACFB4E0A6959795879577956795BA9568
:10512000C9F700976105710508959B01AC010A2E2E
:1051300006945795479537952795BA95C9F7620F05
:10514000731F841F951FA01D089599278827089510
:105150002F923F924F925F926F927F928F929F9287
:10516000AF92BF92CF92DF92EF92FF920F931F9375
:10517000CF93DF93CDB7DEB7CA1BDB0B0FB6F89426
:10518000DEBF0FBECDBF09942A88398848885F8466
:105190006E847D848C849B84AA84B984C884DF80D7
:1051A000EE80FD800C811B81AA81B981CE0FD11DBB
:1051B0000FB6F894DEBF0FBECDBFED010895F89491
:0251C000FFCF1F
:1051C2003200000000FF00FFFFFF0000FF00FFFFB2
:1051D20000FF00FF0000FF00FFFF4520004E4500DA
:1051E2004E20004E570057200053570053200053C3
:1051F20045004665746368696E67204750532044D2
:105202004154412E2E2E00475053206E6F7420724F
:1052120065616479004669783A2025642C204669E4
:1052220078207175616C6974793A202575004E7524
:105232006D206F6620536174656C6C697465733A96
:1052420020257500476F616C3A20202020202573AD
:105252002C2025730043757272656E743A202025E6
:10526200732C2025730044697374616E63653A2060
:1052720025692025732025732066656574004573B2
:10528200742E20436F6D7061737320486561646989
:105292006E673A2025692025730047656F42756461
:1052A20064790045453435392050726F6A656374FC
:1052B200005465616D20313500537461727400468B
:1052C200696E697368004E657874004261636B00B1
:0E52D20024475047474100244750524D4300A7
:00000001FF
